:020000040800F2
:10000000A02B002025010008ED060008E5060008E9
:10001000E9060008DD060008D50900080000000018
:100020000000000000000000000000001D070008A4
:10003000E106000800000000190700082107000879
:100040003F0100083F0100083F0100083F01000890
:100050003F0100083F0100083F0100083F01000880
:100060003F0100083F0100083F0100083F01000870
:100070003F0100083F0100083F0100083F01000860
:100080003F0100083F0100083F0100083F01000850
:100090003F0100083F0100083F0100083F01000840
:1000A0003F0100083F0100083F0100083F01000830
:1000B0003F0100083F0100083F0100083F01000820
:1000C0003F0100083F0100083F0100083F01000810
:1000D0003F0100083D0800083F0100080909000829
:1000E0003F0100083F0100083F0100080000000038
:1000F0000000000000000000000000000000000000
:100100003F010008DFF810D000F048FA004800472F
:10011000B12E0008AFF30080A02B002080F30888E8
:10012000704700000648804706480047FEE7FEE7A4
:10013000FEE7FEE7FEE7FEE7FEE7FEE7FEE7FEE797
:10014000250700080501000840EA01039B0703D0CA
:1001500009E008C9121F08C0042AFAD203E011F806
:10016000013B00F8013B521EF9D27047D2B201E0C8
:1001700000F8012B491EFBD270470022F6E710B5AC
:1001800013460A4604461946FFF7F0FF204610BD05
:10019000421C10F8011B0029FBD1801A704730B5B2
:1001A0000B46014600202022012409E021FA02F535
:1001B0009D4205D303FA02F5491B04FA02F52844CF
:1001C000151EA2F10102F1DC30BD2DE9F05F0546FC
:1001D000002092469B4688460646814640241BE006
:1001E000284641464746224600F0F9F953465A460A
:1001F000C01A914110D311461846224600F0E0F98A
:100200002D1A67EB01084F4622460120002100F01D
:10021000D7F917EB00094E41201EA4F10104DFDCE1
:10022000484631462A464346BDE8F09F2DE9FE4F39
:10023000804681EA0300C00F0C46009021F0004187
:1002400023F00045B8EB0200A94105D24046214603
:1002500090461C460B46024623F00040104347D010
:10026000270DC7F30A00C3F30A510290401A019008
:1002700040286BDAC3F3130040F4801B00989246C9
:1002800020B10023D2EB030A63EB0B0B0198594614
:10029000C0F14002504600F093F906460D46504624
:1002A0005946019A00F0ABF910EB080061410024B7
:1002B00087EA115284EAE7731A4340D0009A62B386
:1002C000019A012A4FEA075215DC001B61EB02017B
:1002D0004FF0004202EA0752CDE90042001C41F50E
:1002E000801132462B4600F0ABF903B0BDE8F08F29
:1002F00040462146F9E7001B61EB0201001C41F575
:10030000801300185B412018A2F5001747EB03018A
:1003100040EAD570B6196D4111E06D084FEA360616
:1003200045EAC0754FEA0752001B61EB0201001C51
:1003300041F5801149084FEA300000195141324619
:100340002B4603B0BDE8F04F00F06BB900980122D6
:1003500040000023D0EB020263EBE07300982146DB
:100360004FEAE074B8EB000061EB0401E9E783F0C9
:1003700000435BE781F0004158E72DE9FE4F81EA39
:10038000030404F0004421F0004100944FF0000BFE
:1003900023F0004350EA01045ED052EA03045BD02C
:1003A000C3F30A54C1F30A552C44A4F2F334019464
:1003B000A0FB0254C1F3130141F48011C3F31303F2
:1003C00043F4801301FB024400FB034E840A970AA6
:1003D00044EA815447EA8357A4FB076802958D0AD3
:1003E00005FB07854FEA932C04FB0C542705029D5F
:1003F0004FEA065847EA1637B5EB08056EEB070CCF
:10040000870E920E47EA811742EA8312A7FB020188
:10041000B6EB0B0164EB00042B0D43EA0C335E18C2
:1004200044EB1C50DA465146E7FB0201C5F31304C6
:100430004FEA0B3343EA14534FEA0432019C43EA78
:100440000603A4F10C040294009CCDE900B400F072
:10045000F7F803B0BDE8F08F00200146F9E72DE979
:10046000F04D81EA030404F0004B21F000451446EE
:100470004FF0000A23F0004150EA050220D054EA70
:1004800001021DD0C5F30A570246C5F31303C1F399
:100490001300C1F30A5640F4801543F48013A7EB10
:1004A0000608101BD64608F2FD3873EB050002D390
:1004B00008F1010801E092185B41B8F1000F03DA7E
:1004C00000200146BDE8F08D00204FF48011064663
:1004D00084460EE0171B73EB050705D3121B63EB75
:1004E000050306434CEA010C49084FEA3000921814
:1004F0005B4150EA0107EDD152EA030012D082EAD3
:10050000040083EA0501084305D0101BAB4106D265
:100510000122002306E000224FF0004302E06FF0CA
:10052000010253101AEB06004CEB085110EB0A00C5
:1005300041EB0B01BDE8F04D00F073B8C1F30A5276
:10054000C1F3130140F2FF3341F480119A4202DA01
:1005500000200146704740F233439A42A2F23342F0
:1005600002DC524200F03BB800F02AB830B5041E5D
:1005700071F1000404DB4FF00044404264EB0101E0
:10058000141E73F1000405DB1C464FF00043524279
:1005900063EB0403994208BF904230BD064C074DFF
:1005A00006E0E06840F0010394E807009847103443
:1005B000AC42F6D3FFF7AAFDB03C0008D03C0008DF
:1005C000202A04DB203A00FA02F100207047914013
:1005D000C2F1200320FA03F3194390407047202A08
:1005E00004DB203A21FA02F00021704721FA02F3DD
:1005F000D040C2F120029140084319467047202A9A
:1006000006DBCB17203A41FA02F043EAE07306E03A
:1006100041FA02F3D040C2F120029140084319464A
:10062000704710B5141E73F1000408DA401C41F144
:10063000000192185B411A4301D120F0010010BD66
:100640002DE9F04D92469B4611B1B1FA81F202E0DC
:10065000B0FA80F220329046FFF7B2FF04460F4610
:1006600040EA0A0041EA0B0153465A46084313D0B8
:10067000114653EA010019D0C8F140025046FFF775
:10068000AEFF05460E46504659464246FFF798FFD4
:10069000084305D0012004E020463946BDE8F08D2E
:1006A0000020054346EAE0762C4337430A98630569
:1006B000E40AA0EB08000022FD0A44EA47540A308D
:1006C00002D500200146E9E7010510196941DDE97D
:1006D000084500196941BDE8F04DA2E700BFFEE7FB
:1006E00000BFFEE700BFFEE700BFFEE700BFFEE77A
:1006F000BFF34F8F0648006800F4E06005490843E7
:10070000001D03490860BFF34F8F00BFFEE70000E4
:100710000CED00E00000FA0500BFFEE700BFFEE7B9
:10072000704700001CB54148006840F001003F4997
:10073000086000BF3D48006800F002000028F9D0C2
:100740003A48406800F00C00082838D100BF00206B
:10075000019002E00198401C019001985028F9D3C3
:10076000324840680090009820F0F0000090009817
:1007700040F0800000902D490098486000200190D2
:1007800002E00198401C019001985028F9D32748B5
:1007900040680090009820F0F0000090009840F031
:1007A000900000902149009848600020019002E0EC
:1007B0000198401C019001985028F9D300BF1B48B4
:1007C000406820F0030019494860642001F0F3FC00
:1007D00016480068164908401449086008464068F1
:1007E000144908401149486008460068104908400B
:1007F0000E4908600846006820F48020086008461A
:1008000040680D49084009494860084600680849A1
:100810000840064908604FF41F00886002F082FF1C
:1008200000214FF0006002F033FC1CBD00100240BC
:10083000FFFFF6FE0C00FFE8FFFF00F710B52D49A3
:100840002D4803F0F8F8002852D004212A4803F07C
:10085000D6F8294803F072F80421284801F0AFFEC9
:1008600040F20111081A26490988084424490880E1
:1008700008460088401E234908442149496D4860C4
:100880001F48406D08301E4948650846406DC96DD7
:10089000884203D11A48001D011F48651848008886
:1008A000C0F50060FF2807DD154800881549084499
:1008B0001349496D086006E012481149496D086006
:1008C00000200F49088004210C4801F02DFD40F262
:1008D00001120421094801F05FFE0948406D04211E
:1008E0000268064801F03AFE0421044801F035FD93
:1008F00010BD000004030400003801400000024065
:10090000DC240020DC0C002010B52D492D4803F01C
:1009100092F8002852D004212A4803F070F82948A0
:1009200003F00CF80221284801F049FE40F20111C1
:10093000081A26490988084424490880084600887E
:10094000401E234908442149496D48601F48406DB5
:1009500008301E4948650846406DC96D884203D17C
:100960001A48001D011F486518480088C0F500603E
:10097000FF2807DD15480088154908441349496DCB
:10098000086006E012481149496D086000200F49CF
:10099000088002210C4801F0C7FC40F2011202213C
:1009A000094801F0F9FD0948406D02210268064836
:1009B00001F0D4FD0221044801F0CFFC10BD00007D
:1009C0000403040000480040000002403C250020D1
:1009D000DC1C002000BFFEE737B514460846064B76
:1009E0006A46214601F064F804466946002001F099
:1009F000F0FB20463EBD0000D321000810B50F4893
:100A000002F0A6FF0E4801F0EFFF0E49086801F062
:100A1000EBFF0C49886801F0E7FF0B49486801F0DB
:100A2000E3FF0949C86801F0DFFF0749486901F0A1
:100A3000DBFF0549C86901F0D7FF10BD0038014050
:100A400000080140000000202800002010B509A087
:100A500002F0FEFE08A002F0FBFE0CA002F0F8FE81
:100A600015A002F0F5FE20A002F0F2FE29A002F08F
:100A7000EFFE10BD0D0A00005B315D4572617365CC
:100A800020466C61736820410D0A00005B325D49AD
:100A9000415020646F776E6C6F61642074686520CC
:100AA00070726F6772616D20746F20466C6173683D
:100AB00020410D0A000000005B335D494150206475
:100AC0006F776E6C6F61642070726F6772616D73A7
:100AD00020746F2065787465726E616C20466C615D
:100AE00073680D0A000000005B345D4C6F6164693F
:100AF0006E672070726F6772616D732066726F6DC2
:100B00002065787465726E616C20466C6173680D47
:100B10000A0000005B355D526573746172740D0AE2
:100B20000000000070B504460CB1207C10B94FF0F5
:100B3000FF3070BD65692846E96B8847606901F040
:100B400025FF00206061207400BFF2E72DE9F84323
:100B500004460E46174698460CB1207C18B94FF053
:100B6000FF30BDE8F8836569CDF800803B4632462A
:100B700050212846D5F830C0E0470020F1E72DE9A4
:100B8000F04104460E4617460CB1207C18B94FF0D0
:100B9000FF30BDE8F08165693B463246502128466A
:100BA000D5F834C0E0470020F3E7F8B504460E4618
:100BB00017460CB1207C10B94FF0FF30F8BD6569C5
:100BC00000970823324650212846D5F838C0E04720
:100BD0000020F3E770B504464FF47A7094FBF0F50B
:100BE00029460AA002F034FE08E01748007877286A
:100BF00001D1002070BD012001F056FB201EA4F1A0
:100C000001018CB2F1D1401EF4E700000D0A456EDF
:100C1000746572202277222077697468696E2025B6
:100C200064207365636F6E647320746F20656E74E7
:100C300065722074686520636F6D6D616E64206CF1
:100C4000696E652E0D0A0000DC0C0020014609B11A
:100C5000087810B94FF0FF3070470020087000BFCF
:100C6000FAE72DE9F04105460E4617460DB1287802
:100C700018B94FF0FF30BDE8F08101F005FE002407
:100C800009E04FF0006101EB862101EB842001F0C7
:100C90007FFD601C84B2BC42F3DB01F063FD0020E9
:100CA000E9E72DE9F04104460D4616461F460CB112
:100CB000207818B94FF0FF30BDE8F08101F0E4FD75
:100CC00006E02846316801F001FE3F1F2D1D361D4C
:100CD000002FF6D101F046FD0020EDE770B5044687
:100CE0000D46012D0ED1207831280BD128A002F01D
:100CF000AFFD2C482C221421836898472AA002F0CB
:100D0000A7FD44E0012D17D12078322814D12E48B8
:100D100002F09EFD23482C221421836898472B481B
:100D2000006840F006002949086000202849C1F801
:100D30000404C1F808042AE0012D0CD120783328DE
:100D400009D1244802F084FD2048006840F00800E2
:100D50001E4908601BE0012D0CD12078342809D1F0
:100D60001D4802F075FD1948006840F02000174941
:100D700008600CE0012D0AD12078352807D117A092
:100D800002F066FD642001F08FFAFFF7B1FC70BD40
:100D90000D0A457261736520466C61736820412EAF
:100DA0000D0A000088000020537563636573736645
:100DB000756C6C792065726173656420466C617333
:100DC000682041210D0A0000F43B00087800002053
:100DD000CC000020A83B0008603B00080D0A5265CB
:100DE0007374617274210D0A0000000070B504462E
:100DF0000D46012D33D1207831282CDB207839287D
:100E000029DC1948006820F008001749086020789C
:100E100030381649C1F800041348006840F0160045
:100E20001149086000201149C1F80404C1F8080400
:100E3000D1F800140E4A42F821000C48B0F8000422
:100E400081B20C48C26B90470848D0F800140A4899
:100E500002F0FEFC06E009A002F0FAFC02E00BA0A2
:100E600002F0F6FC70BD000078000020CC000020ED
:100E70009C000020280000203C3C00084E756D625C
:100E80006572206572726F72210D0A00446174618F
:100E9000206C656E677468206572726F72210D0A2E
:100EA0000000000070B504460D46012D1BD12078CE
:100EB000312814DB2078392811DC0D48006820F037
:100EC00020000B490860207830380A49C1F8000436
:100ED0000748006840F001000549086006E006A0E8
:100EE00002F0B6FC02E008A002F0B2FC70BD000007
:100EF00078000020CC0000204E756D626572206580
:100F000072726F72210D0A0044617461206C656E0B
:100F1000677468206572726F72210D0A000000000C
:100F20002DE9F04105460E46852E6BD12878012823
:100F300068D16C48006820F002006A49086080218E
:100F4000E81C00F0D0FC6849C1F80C0495F8841046
:100F500095F8830001EB00206349D1F80C14884216
:100F60004DD16148D0F80804401C5F49C1F808041D
:100F700091F80814491E01F007015B4A02EBC11009
:100F80008022E91CFFF7E0F8574890F8080400F0C9
:100F9000070008BB5348007800F01000E8B10024B7
:100FA00018E05148B0F8000403044F48D0F8080492
:100FB0004FF0010CCCEBD00003EB802000EB0421C0
:100FC000494800EB042249484FF48073076BB84747
:100FD000601CC4B2042CE4DB0DE04348D0F80804E4
:100FE0000122C2EBD000424A02EB80214148531457
:100FF0003D4AC768B84740A002F02AFC02E03FA083
:1010000002F026FC012E6BD12878042868D13AA082
:1010100002F01EFC344890F8080400F0070078B392
:101020003048007800F01000D0B1002415E02E48C0
:10103000B0F8000403042C48D0F80804C00803EBFF
:10104000802000EB0421284800EB042227484FF4BD
:101050008073076BB847601CC4B2042CE7DB0FE059
:10106000214890F808044007830D1F48D0F8080471
:10107000C0081F4A02EB80211E481B4AC768B847B8
:101080001848006820F004001649086008460078F7
:1010900000F01000C8B10846006820F01000086099
:1010A0001148D0F80804C0010F49D1F80014144ABF
:1010B00042F8210001F0D4FA12A002F0C9FB64202A
:1010C00001F0F2F8FFF7C2FC0AE0C82001F0ECF8EA
:1010D00012A002F0BDFBC82001F0E6F8FFF708FB04
:1010E000BDE8F08178000020CC000020280000201E
:1010F00000500008880000200600000015000000D5
:101100009C000020446F776E6C6F616420636F6D8C
:10111000706C65746564210D0A000000494150201F
:1011200075706461746520636F6D706C657465645F
:101130002C2072657374617274210D0A0000000026
:10114000014609B1087C10B94FF0FF30704700200C
:10115000087400BFFAE72DE9F04104460D46164633
:101160001F460CB1207C18B94FF0FF30BDE8F0816C
:10117000204600F005F96806010E204600F0E2F86E
:10118000204600F069F83146204600F0DBF82046A2
:1011900000F062F8204600F0F3F8012000EB450073
:1011A000C1B2204600F0CEF8204600F055F82046A7
:1011B00000F066F838700121204600F0AEF82046B5
:1011C00000F0F6F80020D1E72DE9F04705460E467D
:1011D00090461F46DDF820900DB1287C18B94FF0DD
:1011E000FF30BDE8F087284600F0CAF87006010E0F
:1011F000284600F0A7F8284600F02EF84146284679
:1012000000F0A0F8284600F027F8284600F0B8F8CB
:10121000012000EB4600C1B2284600F093F82846B2
:1012200000F01AF8002410E0284600F029F809F828
:101230000400781EA04201D1012000E000200146F8
:10124000284600F06AF8601C84B2BC42ECDB2846F9
:1012500000F0AEF80020C4E770B504460121204636
:1012600000F049F80121204600F027F8204600F060
:1012700036F805460021204600F01FF8284670BDCC
:1012800070B5064600250121304600F034F80724E9
:101290000FE00121304600F010F8304600F01FF852
:1012A000A0402843C5B20021304600F006F8601E79
:1012B00044B2002CEDDA284670BD70B504460D46E8
:1012C000207C10B94FF0FF3070BD2A46D4E90001F0
:1012D00001F084FB012000F0F3FF0020F4E770B57B
:1012E0000446D4E9020101F037FC0546012000F074
:1012F000E7FF284670BD70B504460D46207C10B946
:101300004FF0FF3070BD2A46D4E9020101F066FBC0
:10131000012000F0D5FF0020F4E770B504460D462B
:1013200014B94FF0FF3070BD29462046FFF7E3FFA8
:1013300001212046FFF7C1FF00212046FFF7BDFF36
:101340000020F0E770B505460E4615B94FF0FF30A6
:1013500070BD002410E08020204100EA06012846EC
:10136000FFF7C9FF01212846FFF7A7FF0021284604
:10137000FFF7A3FF601CC4B2082CECDB0020E7E7FA
:1013800010B5044614B94FF0FF3010BD01212046BE
:10139000FFF7B1FF01212046FFF78FFF0021204614
:1013A000FFF7A9FF00212046FFF787FF0020ECE7A9
:1013B00010B5044614B94FF0FF3010BD002120468F
:1013C000FFF77BFF00212046FFF795FF0121204614
:1013D000FFF773FF01212046FFF78DFF0020ECE7A8
:1013E0002DE9F04104460D4616461F460CB1207CFF
:1013F00018B94FF0FF30BDE8F0812046FFF7C0FF7D
:101400006806010E2046FFF79DFF2046FFF724FFE8
:1014100031462046FFF796FF2046FFF71DFF39466D
:101420002046FFF78FFF2046FFF716FF2046FFF705
:10143000BFFF0020DFE72DE9F04705460E461746BF
:101440009846DDF820900DB1287C18B94FF0FF3098
:10145000BDE8F0872846FFF793FF7006010E284687
:10146000FFF770FF2846FFF7F7FE39462846FFF7DB
:1014700069FF2846FFF7F0FE002409E019F8041080
:101480002846FFF75FFF2846FFF7E6FE601C84B2A0
:101490004445F3DB2846FFF78BFF0020D8E7000028
:1014A00010B504462068B0F1005F0FD309492068E9
:1014B00088420BD82068FEF731FE07496068086053
:1014C000FFF79CFA04480068804702E003A002F09E
:1014D000BFF910BDFF4F0020740000200D0A4A75AF
:1014E0006D70696E6720746F20466C61736820416F
:1014F000206661696C6564210D0A000002E008C87D
:10150000121F08C1002AFAD170477047002001E07D
:1015100001C1121F002AFBD1704770B504460D4669
:101520002A46D4E9070101F059FA70BD014611B10C
:1015300091F8280010B94FF0FF307047002081F873
:10154000280000BFF9E710B5044600212046FFF748
:10155000E4FF10BD10B5044601212046FFF7DDFF72
:1015600010BD70B504460D4600BF0221206802F090
:1015700051F80128F9D12946206802F01DF800BF72
:101580000121206802F046F80128F9D1206802F014
:101590000FF8C0B270BD70B506460D46B46A30464D
:1015A00000F093F92046216B884720212046A26B4A
:1015B00090472804C0F307412046A26B90472804B7
:1015C000C0F307212046A26B90472804C1B22046F1
:1015D000A26B90472046616B8847304600F0C2F806
:1015E00070BD70B5044614B194F8240010B94FF0E2
:1015F000FF3070BDA56A2846E96B8847A06A01F0F4
:10160000C5F90020A06284F8240000BFF1E72DE9AD
:10161000F04707460D4690469946BC6A384600F0AA
:1016200054F92046216B884702212046A26B90473F
:10163000C5F307412046A26B9047C5F3072120461A
:10164000A26B9047E9B22046A26B9047002606E0C5
:1016500018F806102046A26B9047701C86B24E45C3
:10166000F6DB2046616B8847384600F07BF8BDE822
:10167000F0872DE9F04707460D4690469946BC6A2B
:101680002046216B884703212046A26B9047C5F373
:1016900007412046A26B9047C5F307212046A26B65
:1016A0009047E9B22046A26B9047002606E0FF2152
:1016B0002046A26B904708F80600761C4E45F6D3EC
:1016C0002046616B8847BDE8F0872DE9F04106466A
:1016D0000F461546B46A2046216B88479F21204655
:1016E000A26B9047FF212046A26B90473870FF21E4
:1016F0002046A26B9047288028884FF6FF7101EAA8
:1017000000202880FF212046A26B904729880843AB
:1017100028802046616B8847BDE8F08170B5064699
:101720000D46B46A304600F0D0F82046216B884759
:1017300020212046A26B9047C5F307412046A26BAB
:101740009047C5F307212046A26B9047E9B2204697
:10175000A26B90472046616B8847304600F002F844
:1017600070BD000070B50546AC6A2046216B884705
:1017700005212046A26B9047084E02E0761E06B96E
:1017800007E0FF212046A26B904700F001000028EF
:10179000F4D100BF2046616B884770BDA086010070
:1017A00070B50546AC6A2046216B8847AB212046C0
:1017B000A26B90472046616B884770BD2DE9F84FBA
:1017C00083460E4617461C464FF00008C146C246E7
:1017D00000250020009006F0FF0ACAF10000C5B203
:1017E000C4F3072804F0FF09BAF1000F23D1B8F1C0
:1017F000000F06D1A3B23A4631465846FFF707FF1D
:1018000061E00AE04FF480733A4631465846FFF7EC
:10181000FEFE06F5807607F58077B8F10000A8F1A6
:10182000010101F0FF08EDD14B463A4631465846DA
:10183000FFF7EDFE47E0B8F1000F1BD1A94512DD1F
:10184000A9EB0500C0B200902B463A4631465846F7
:10185000FFF7DDFE2E442F443A4631465846009BA2
:10186000FFF7D5FE2FE0A3B23A4631465846FFF7C0
:10187000CEFE28E0641BC4F3072804F0FF092B46C2
:101880003A4631465846FFF7C2FE2E442F440AE03E
:101890004FF480733A4631465846FFF7B8FE06F5D6
:1018A000807607F58077B8F10000A8F1010101F01A
:1018B000FF08EDD1B9F1000F05D04B463A4631464D
:1018C0005846FFF7A4FEBDE8F88F70B50546AC6A30
:1018D0002046216B884706212046A26B9047204670
:1018E000616B884770BD70B502460B46002041F21F
:1018F000210414E0157880EA052000210CE000F4B2
:1019000000451DB184EA4005A8B203E04FF6FF751B
:1019100005EA40004D1CE9B20829F0DB521C1D1EEF
:10192000A3F10106B3B2E5D170BD00002DE9FF5F60
:1019300082B00021DDE90430020DDDF840B0034340
:1019400018D044F61050A2F2FF32424315141198F9
:1019500001281FD0A5EB0B00401C5FEA000A4FF0E6
:1019600000064E4FDFF83891B046504615D5CAF103
:10197000000413E0119801244AA3012801D16FEA61
:101980000B010298119AC0E90031C0E9024206B089
:10199000BDE8F09FCBF10000DFE704460021404A9C
:1019A000491842EB0450CDE9001012E0E00707D0DF
:1019B00032463B4640464946FEF7DFFC80468946B4
:1019C00032463B4610461946FEF7D7FC06460F4600
:1019D0006410002CEAD1DDE90401DDE90023BAF14D
:1019E000000F06DAFEF7C9FC42464B46FEF7C5FC7F
:1019F00005E0FEF734FD42464B46FEF730FD044657
:101A00000E460022284BFEF7B1FD03D84FF0FF3001
:101A1000014607E00022254B20463146FEF706FC32
:101A2000FEF78CFD102409E0002C0ADB0A220023BB
:101A3000FEF7CBFB039B30321A55641E50EA0102BD
:101A4000F2D1641C039AC4F111031444119A012ABF
:101A500003D0012208430DD10AE0084304D000203E
:101A60004FF0110B119072E7A3EB0B056D1E0DE00B
:101A70005B4504DD4FF0000205F1010504E003DAE7
:101A80004FF00002A5F10105002AECD0029811994F
:101A9000C0E90231C0E9004579E7000000001440C8
:101AA0000000F03F300000000000F0430000E03F85
:101AB0002DE9FF4F95B09A46884606460025EEE18F
:101AC000252877D100242746F94A0121039400E014
:101AD000044316F8013F203B01FA03F01042F7D10E
:101AE00030782A2811D06FF02F033078A0F130021F
:101AF000092A16D8039A44F0020402EB820203EB8F
:101B000042021044761C0390EFE758F8042B03922E
:101B1000002A03DA504244F40054039044F00204D3
:101B2000761C30782E2816D116F8010F44F00404E4
:101B30002A280DD06FF02F023078A0F13003092B46
:101B400009D807EB870302EB4303C718761CF3E7BA
:101B500058F8047B761C30786C280FD006DC4C28B3
:101B600017D068280DD06A2814D104E0742810D04A
:101B70007A280FD10DE044F400140AE044F48014F4
:101B800001E044F440147278824202D104F58014DA
:101B9000761C761C307866280BD013DC582877D05A
:101BA00009DC002875D04528F6D04628F4D047280F
:101BB0001AD193E118E0632835D0642879D06528DC
:101BC00012D18BE1702873D008DC6728F1D0692826
:101BD0006FD06E280DD06F2806D1ACE073282CD0C2
:101BE000752874D0782853D05246179990476D1CA9
:101BF00054E1C4F30250022809D003280DD0D8F8CC
:101C0000001004280DD00D6008F1040846E1D8F852
:101C10000010EA17C1E90052F6E7D8F800100D806D
:101C2000F2E70D70F0E718F8041B8DF800100020A3
:101C30008DF80100EB46012003E058F804BB4FF09B
:101C4000FF3061074FF0000102D40DE009F10101FE
:101C50008946B9420FDA8145F8DB1BF809100029E3
:101C6000F4D108E009F1010189468142FADB1BF851
:101C700009100029F6D103985346A0EB0907214625
:101C80003846179A00F080FA284400EB090507E06F
:101C900044E008E10DE01BF8010B5246179990470C
:101CA000B9F10109F7D2534621463846179AF2E0B6
:101CB00039E00A21C4F302524FF0000B0091022ACE
:101CC00006D058F8040BC117032A09D00AE023E014
:101CD00008F1070020F00702F2E80201904605E053
:101CE00000B2C117042A01D140B2C117002906DA97
:101CF0000A460021404261EB02012D2202E022054A
:101D000004D52B228DF80420012203E0E20701D044
:101D10002022F7E7914657E00A2100E010214FF01A
:101D2000000B00910BE010214FF0000B44F0040475
:101D30000827009103E008204FF0000B0090C4F347
:101D40000252022A05D058F8040B0021032A08D0B9
:101D500008E008F1070020F00702F2E802019046CF
:101D600003E080B2042A00D1C0B24FF0000922077C
:101D70002AD53278702A07D0DDF800C08CF0100C1C
:101D80005CEA0B0C05D00EE040228DF80420012205
:101D900008E050EA010306D030238DF804308DF8B6
:101DA000052002229146009B83F0080353EA0B03AF
:101DB0000AD150EA010201D1620705D530228DF81F
:101DC00004204FF001097F1E3278582A04D039A22E
:101DD0000C920CAA02920BE03BA2F9E75B46009A38
:101DE000FEF7F3F90C9B9B5C029A521E0292137051
:101DF00050EA0102F2D1029804A9081A00F1200B5E
:101E0000600702D524F4803400E001275F4502DD3D
:101E1000A7EB0B0000E0002000EB0B010090039803
:101E20004944401A0390E00306D453462146179ACA
:101E3000039800F0A9F90544002706E001A85246DE
:101E4000C05D179990476D1C7F1C4F45F6DBE00382
:101E50000CD553462146179A039800F095F905448E
:101E600004E030205246179990476D1C0099481E97
:101E700000900029F5DC08E00298029952460078AB
:101E8000491C0291179990476D1CBBF10001ABF101
:101E9000010BF1DC5BE100F065F90544761C30785C
:101EA00000287FF40DAE19B02846BDE8F08F000081
:101EB0000928010030313233343536373839616220
:101EC00063646566000000003031323334353637E4
:101ED000383941424344454600000000600700D4C1
:101EE000062708F1070020F00700F0E802238046EB
:101EF00003F0004C5FEA0C0001D097A009E0200538
:101F000001D596A005E0E00701D095A001E0AFF271
:101F10004C001390307823F0004365280CD006DC89
:101F2000452809D046281DD047287FD13BE06628A8
:101F300018D067287AD136E00021112F01DB11205B
:101F400000E0781CCDE9000104A90CA8FFF7EEFC25
:101F5000DDE90D010C9A4FF0000B07F10109109219
:101F600000914EE04FF000400097CDE9011004A928
:101F70000CA8FFF7DBFCDDE90D020C9B0F994FF07D
:101F8000000B91461093009211B9791C00EB0109E6
:101F9000B7EB090003D4C0F1FF3B07F10109A9EB3E
:101FA0000700019042E0012F00DA01270021112FE4
:101FB00001DD112000E03846CDE9000104A90CA89C
:101FC000FFF7B4FCDDE90D010C9A00914FF0000B16
:101FD000B946109221070FD4009A4A4503DA914678
:101FE00001E0A9F10109B9F1010F05DD109AA9F18C
:101FF0000101515C3029F4D0B84202DA10F1040F2B
:1020000003DA0121CDE9011010E0002803DC83444C
:10201000A9EB000102E0411C494500DD8946A0EB27
:102020000B00401C01904FF000400290200705D4A7
:102030000198484502DB4FF0FF30019000208DF8F9
:102040004B0002980DF14B07B0F1004F25D0022054
:102050000C902B200D90029800280CDA4042029040
:102060002D200D9007E00A210298FEF798F83031F4
:10207000029007F8011D0C99481E0C900029F2DC13
:1020800002980028EFD1791E0D980870307800F082
:10209000200040F0450007F8020D11A8C01BC01D2C
:1020A00002901398007800B1012000EB090101981B
:1020B00001EBE071029801440398401A401E03901E
:1020C000E00306D453462146179A039800F05CF8C3
:1020D00005441398007818B15246179990476D1C23
:1020E000E00323D553462146179A039800F04CF895
:1020F00005441BE0BBF1000F07DB0098584504DDE9
:102100001098179910F80B0001E0179930205246EB
:10211000904701980BF1010B401E05F1010501905C
:1021200004D12E205246179990476D1CB9F1000139
:10213000A9F10109DEDC05E017F8010B52461799F9
:1021400090476D1C0299481E02900029F4DC53460A
:102150002146179A03989EE62D0000002B000000F0
:10216000200000002DE9F041044600251E461746D8
:10217000880404D405E039462020B0476D1C641E55
:10218000F9D52846BDE8F0812DE9F0410446002547
:102190001E469046C80301D5302700E0202788045A
:1021A00004D505E041463846B0476D1C641EF9D59C
:1021B0002846BDE8F08108B50021009102E00099B1
:1021C000491C009100EB8001009AB2EB410FF6D35D
:1021D00008BD0A68531C0B601070704710B54FF4AF
:1021E000FA60FEF7F7FC401C28B906A001F030FBAE
:1021F0000A48FFF755F90AA001F02AFBFEF726FC72
:1022000010BD00000D0A4A756D7020746F20666C59
:102210006173682041210D0A000000000050000891
:102220000D0A456E7465722074686520636F6D6D6C
:10223000616E64206C696E652E0D0A0070B50446EF
:102240000D461348006820B929462046FEF746FD92
:102250001CE00F48007800F0040020B12946204619
:10226000FEF75EFE12E00A48007800F0080020B198
:1022700029462046FEF7BAFD08E00548007800F040
:10228000200018B129462046FEF70CFE70BD000064
:1022900078000020024908800121024A117070472D
:1022A0007E0000207C00002010B5044603E04FF4BF
:1022B0007A7000F005F8201EA4F10104F7D110BDDA
:1022C0000146174A127802B970474FF0E0221269AE
:1022D00042F004024FF0E0231A61124A12884A4386
:1022E0005A6100229A611A46126942F001021A618B
:1022F00000BF4FF0E022106900F001021AB100F4B3
:102300008032002AF5D04FF0E022126922F001025B
:102310004FF0E0231A6100229A6100BFD4E7000069
:102320007C0000207E00002070B505460C4621464A
:10233000284600F025F908B900BFFEE704EB840049
:10234000810005F10800405820F0010104EB8400F1
:10235000820005F10800815070BD70B505460C463D
:102360002146284600F00CF908B900BFFEE704EB4F
:102370008400810005F10800405840F0010104EBA1
:102380008400820005F10800815070BD70B50546DB
:102390000C462146284600F0F3F808B900BFFEE7D6
:1023A00004EB8400810005F10800405820F0200172
:1023B00004EB8400820005F10800815070BD70B507
:1023C00004460D462946204600F0DAF808B900BF59
:1023D000FEE705EB8500810004F10800405820F07D
:1023E000010105EB8500820004F108008150002105
:1023F00005EB8500820004F10800815005EB8500A3
:10240000820004F10C00815005EB8500820004F18C
:102410001000815005EB8500820004F1140081500A
:102420006068AA000F2191400843606070BD2DE9EB
:10243000F04104460D4616462946204600F0A0F815
:1024400008B900BFFEE705EB8500820004F110002B
:102450003168815005EB8500820004F11400B168F9
:102460008150308A81B205EB8500820004F10C00B6
:10247000815005EB8500810004F10800475827F4DE
:102480007C57F1687068084371690843074305EB9E
:102490008500810004F108004750307E01280ED1EC
:1024A00005EB8500810004F10800405840F0400130
:1024B00005EB8500820004F1080081500DE005EB7A
:1024C0008500810004F10800405820F0400105EB30
:1024D0008500820004F108008150707E01280ED131
:1024E00005EB8500810004F10800405840F08001B0
:1024F00005EB8500820004F1080081500DE005EB3A
:102500008500810004F10800405820F0800105EBAF
:102510008500820004F108008150B07E70B905EB9F
:102520008500810004F10800405820F0100105EBFF
:102530008500820004F1080081500DE005EB850064
:10254000810004F10800405840F0100105EB8500BF
:10255000820004F108008150BDE8F08170B50646A4
:102560000C4615462146304600F00AF808B900BF6F
:10257000FEE704EB8400810006F11400455070BDB5
:1025800002460120034B9A4202D1042900DD0020BB
:10259000704700000004024070B506460C46154620
:1025A00021463046FFF7ECFF08B900BFFEE7A9B2AD
:1025B00004EB8400820006F10C00815070BD70B500
:1025C00005460C4621462846FFF7DAFF08B900BF4A
:1025D000FEE704EB8400810005F10C00405870BD5B
:1025E00070B5044614B94FF0FF3070BD402000F0C4
:1025F000B9FC6061606910B94FF0FF30F5E76569BB
:102600002068286060686860A068A860E068E8608A
:10261000284600F079FB0648A0610648E0610648BC
:10262000206206486062012020740020DDE700007F
:102630007F0B0008AB0B00084D0B0008250B0008B2
:1026400010B530210448FDF798FD0448024B3022B4
:102650000021046AA04710BD9C000020000000205B
:1026600070B5094D00240BE005EBC402E006010E35
:102670000648C36998470520FFF716FE601CC4B2E0
:10268000062CF1D370BD00009C000020000000204B
:1026900000B50346012200BF00F00CF802465B1EA5
:1026A000012A01D1002BF7D1012A00D104221046C2
:1026B00000BD000000200A49C96801F0010109B10C
:1026C00001200CE00649C96801F0100109B103209E
:1026D00005E00349C96801F0040101B10220704717
:1026E0000020024000B50346012200BF00F00CF8B4
:1026F00002465B1E012A01D1002BF7D1012A00D12D
:102700000422104600BD000000200A49C96C01F0F7
:10271000010109B101200CE00649C96C01F010016A
:1027200009B1032005E00349C96C01F0040101B1BE
:102730000220704700200240014611B94FF0FF30DF
:102740007047054888600548C86005480861012051
:1027500008700020F4E70000630C0008A30C0008D8
:102760004D0C00080848006940F0800006490861E7
:1027700006480088B0F5007F04D90846006D40F097
:10278000800008657047000000200240E0F7FF1F4E
:1027900030B5054639480088B0F5007F4CD9384837
:1027A000854220D24FF47020FFF772FF0446002CC0
:1027B00061D13448006940F002003249086108469E
:1027C0004561006940F04000086100BF00BF4FF460
:1027D0007020FFF75DFF04462A48006920F00200E0
:1027E0002849086147E04FF47020FFF77BFF04465B
:1027F000002C40D12348006D40F0020021490865BB
:1028000008464565C06900F0020008B10846456108
:102810001C48006D40F040001A49086500BF00BF29
:102820004FF47020FFF75EFF04461648006D20F05D
:102830000200144908651EE04FF47020FFF728FFDE
:102840000446C4B90F48006940F002000D49086110
:1028500008464561006940F04000086100BF00BFC4
:102860004FF47020FFF714FF04460648006920F07B
:10287000020004490861204630BD0000E0F7FF1F58
:10288000FFFF0708002002400C48006900F08000AC
:1028900020B10B48094948600A4848600A48008846
:1028A000B0F5007F09D90548006D00F0800020B127
:1028B00003480249486403484864704700200240C6
:1028C00023016745AB89EFCDE0F7FF1F70B50446E4
:1028D0000D4600262A480088B0F5007F35D92948E2
:1028E000844219D24FF47020FFF7D2FE0646002E24
:1028F00043D12548006940F0010023490861256063
:102900004FF47020FFF7C4FE06461F48006920F010
:1029100001001D49086130E04FF47020FFF7E2FE2E
:10292000064656BB1848006D40F001001649086580
:1029300025604FF47020FFF7D5FE06461248006D63
:1029400020F001001049086517E04FF47020FFF7F0
:102950009FFE06468EB90C48006940F001000A4906
:10296000086125604FF47020FFF792FE0646064886
:10297000006920F0010004490861304670BD000084
:10298000E0F7FF1FFFFF07080020024010B50028F6
:1029900021D0114B0022001F196803E0814203D8A7
:1029A0000A4649680029F9D152B11368841A9C4239
:1029B00004D1006818441060104602E0506000E046
:1029C000186039B102680B1A934203D10B681A449C
:1029D00002604968416010BD800000200AB10161B9
:1029E00000E041617047000010B504462D49601AAF
:1029F0008C422FD009DC2C48204480B1B0F5806F88
:102A000016D0B0F5006F49D11BE0B0F5806F2AD029
:102A1000B0F5006F30D0B0F5406F3FD135E040F2F7
:102A2000023000F0F3FB40F2023000F0DFFB36E052
:102A300040F2033000F0EAFB40F2033000F0D6FB36
:102A40002DE04FF4417000F0E1FB4FF4417000F0D5
:102A5000CDFB24E040F2053000F0D8FB40F2053019
:102A600000F0C4FB1BE040F2063000F0CFFB40F268
:102A7000063000F0BBFB12E040F2073000F0C6FB6E
:102A800040F2073000F0B2FB09E04FF4427000F072
:102A9000BDFB4FF4427000F0A9FB00E000BF00BF97
:102AA00010BD00000014014000F8FEBFF0B5044660
:102AB00016460025002201F00F0501F0100707B1AE
:102AC000354300201EE0012787401F40C7B1226820
:102AD0004FEA800C0F2707FA0CF7BA43870005FA74
:102AE00007F73A43282904D1012787401F4067612F
:102AF00005E0482903D1012787401F402761226054
:102B0000471CB8B20828DED3082022E001278740FE
:102B10001F40E7B16268A0F108074FEA870C0F2752
:102B200007FA0CF7BA43A0F10807BF0005FA07F748
:102B30003A43282904D1012787401F40676105E0F7
:102B4000482903D1012787401F4027616260471C45
:102B5000B8B21028DAD3F0BD02469068084008B138
:102B6000012070470020FCE770B53948D0F8000418
:102B7000384A52F8201038A000F06AFE3448D0F8E5
:102B80000004344911F8200000F00300002854D15B
:102B90003B482C22142183689847002416E02C48D7
:102BA000B0F80004000400EB842136484FF4806341
:102BB000274A056CA847344800EB842130484FF47D
:102BC0008063234AC568A847601CC4B22048D0F877
:102BD0000004204951F82000B4EB902FDFD31C48AB
:102BE000D0F8000431F82000C0F3090000B3184801
:102BF000B0F80004000400EB84211548D0F800046C
:102C0000144A32F82000C0F309031E48104A056C2C
:102C1000A8470F48D0F800040E4A32F82000C0F34D
:102C20000903194800EB84211548094AC568A847DB
:102C300016A000F00DFEFDF75BFD1EA000F008FEE3
:102C40002148006820F001001F49086070BD0000A5
:102C5000CC0000209C0000200D0A54686520646FA1
:102C6000776E6C6F6164206C656E67746820697341
:102C70002025642062797465732E0D0A000000001F
:102C80008800002028000020005000080D0A466C33
:102C900061736820412075706461746520636F6D95
:102CA000706C657465642C20726573746172742134
:102CB0000D0A00000D0A4C656E677468206572721B
:102CC0006F72210D0A0000007800002010B501206D
:102CD000FFF7EAFA0A48D0F80404B0F57A7F06D381
:102CE00008A000F0B5FD00200549C1F8040404481F
:102CF000D0F80404401C0249C1F8040410BD0000CF
:102D0000CC0000204300000010B5044614B94FF079
:102D1000FF3010BD54492068884204D140F202605F
:102D200000F054FA34E051492068884204D140F25E
:102D3000036000F04BFA2BE04D492068884204D133
:102D400040F2046000F042FA22E04A4920688842DA
:102D500004D140F2056000F039FA19E046492068D4
:102D6000884204D140F2066000F030FA10E0434996
:102D70002068884204D140F2076000F027FA07E09B
:102D80003F492068884203D14FF4C16000F01EFA29
:102D90003549A068884204D140F2026000F016FA7A
:102DA00034E03249A068884204D140F2036000F068
:102DB0000DFA2BE02E49A068884204D140F204604D
:102DC00000F004FA22E02B49A068884204D140F2C6
:102DD000056000F0FBF919E02749A068884204D19A
:102DE00040F2066000F0F2F910E02449A068884241
:102DF00004D140F2076000F0E9F907E02049A0683B
:102E0000884203D14FF4C16000F0E0F9032214219D
:102E1000D4E90003FFF74AFE03221421D4E9020398
:102E2000FFF744FE174860611748A0611748E0614A
:102E300017482062174860621748A0621748E0638D
:102E40001748E06217482063174860631748A0637B
:102E500001212046FEF731FA01212046FEF74BFA08
:102E600001202074002054E700080140000C0140BC
:102E7000001001400014014000180140001C0140F6
:102E80000020014081130008B11300084513000819
:102E9000811200081B130008591200084111000894
:102EA00057110008C9110008E11300083714000881
:102EB0004FF4A06000F0E2F86C20FFF7EBF94FF45C
:102EC000612000F077FC2148FFF78AFB204800F0E2
:102ED000F7FD2048FFF730FC1FA000F0B9FCFFF71A
:102EE000AFFBFFF77BF92FE01C48406D1B49896D54
:102EF00088421BD0194A926D9288184B9B6D1B8893
:102F0000D21A521C91B2154A926D1068FFF796F9C9
:102F10001248806D0830114988650846806DC96D7A
:102F2000884203D10D48001D011F88650C480078B8
:102F300000F0020008B1FFF7C9FE0948007800F070
:102F4000010008B1FFF710FECEE7000000000020EE
:102F500028000020880000200D0A0000DC2400204A
:102F600078000020F0B50B30154D20F0070100244B
:102F7000144A0FE003688B420BD38B4205D95E1ACB
:102F800043184768C3E9006700E04368136002C064
:102F900004E0021D10680028ECD12046002802D170
:102FA000286808B10020F0BD064A07481060074AAB
:102FB000121A22F00702C0E9002401202860D7E796
:102FC0008400002080000020A4250020A0270020ED
:102FD0002DE9F04103460D46164600240027A04681
:102FE0002448006800F4E060B0F5A06F15D006DC5E
:102FF000B0F5407F18D0B0F5806F19D110E0B0F572
:10300000C06F06D0B0F5E06F12D100274FF0040872
:1030100015E001274FF0030811E00227B8460EE043
:1030200003274FF001080AE004274FF0000806E0EC
:103030004FF4A06000F022F80227B84600BF00BF9E
:10304000C7F1040005FA00F4C8F104010F20C840DC
:103050003040044324010848C45403F01F010120F8
:1030600088405911890001F1E021C1F80001BDE853
:10307000F08100000CED00E000E400E002490143B3
:10308000024A1160704700000000FA050CED00E0F4
:10309000034A0A400243034B1A60BFF34F8F704745
:1030A00080FFFF1F08ED00E02DE9F04F8BB00746D1
:1030B000002009903EA090E8004CC068CDE905BE14
:1030C000CDF810A007900FF2EC0ADAE9000ACDE97A
:1030D000020A0FF2E00ADAE9000ACDE9000A3848EC
:1030E0004068C0F381000A900A9820B1012804D0FA
:1030F000022829D103E0334928E0324926E030484C
:10310000406800F48038B8F5803F09D12D4C2C4838
:10311000406800F40039B9F5003F02D1641000E0C6
:10312000294C27484068C0F383422548406800F096
:10313000006008B142F010020F2A01D2921C00E098
:10314000521C04FB02F101E01E4900BF00BF1C48F5
:103150004068C0F3031504A8465D21FA06F3184839
:103160004068C0F3022502A8465D23FA06FC144815
:103170004068C0F3C2251DF8056023FA06F00890E8
:1031800037B1012F06D0022F06D0032F0AD106E057
:10319000099108E0099306E0CDF824C003E00898FF
:1031A000099000E000BF00BF09980BB0BDE8F08FA8
:1031B00000000000000000000102030406070809E7
:1031C0000010024000127A0000093D00064A02EB9E
:1031D0009011096800F01F0301229A401143024B2D
:1031E00003EB90121160704700100240064A02EB98
:1031F0009011096800F01F0301229A409143024B8D
:1032000003EB90121160704700100240064A02EB77
:103210009011096800F01F0301229A401143024BEC
:1032200003EB90121160704700100240016841F0FA
:10323000400101607047000010B588B004461CB919
:103240004FF0FF3008B010BDCA492068884204D151
:1032500040F20C60FFF7BAFF10E0C74920688842CF
:1032600004D140F20E70FFF7B1FF07E0C3492068B8
:10327000884203D140F20F70FFF7A8FFC049606891
:10328000884204D140F20260FFF7A0FF34E0BD495C
:103290006068884204D140F20360FFF797FF2BE09B
:1032A000B9496068884204D140F20460FFF78EFF9C
:1032B00022E0B6496068884204D140F20560FFF719
:1032C00085FF19E0B2496068884204D140F2066087
:1032D000FFF77CFF10E0AF496068884204D140F2FC
:1032E0000760FFF773FF07E0AB496068884203D1CE
:1032F0004FF4C160FFF76AFFA149E068884204D13A
:1033000040F20260FFF762FF34E09E49E0688842C5
:1033100004D140F20360FFF759FF2BE09A49E068BF
:10332000884204D140F20460FFF750FF22E0974941
:10333000E068884204D140F20560FFF747FF19E0DA
:103340009349E068884204D140F20660FFF73EFFEF
:1033500010E09049E068884204D140F20760FFF72E
:1033600035FF07E08C49E068884203D14FF4C16023
:10337000FFF72CFF82496069884204D140F2026065
:10338000FFF724FF34E07F496069884204D140F2AE
:103390000360FFF71BFF2BE07B496069884204D183
:1033A00040F20460FFF712FF22E07849606988422A
:1033B00004D140F20560FFF709FF19E07449606924
:1033C000884204D140F20660FFF700FF10E0714927
:1033D0006069884204D140F20760FFF7F7FE07E01A
:1033E0006D496069884203D14FF4C160FFF7EEFE7A
:1033F0006349E069884204D140F20260FFF7E6FECB
:1034000034E06049E069884204D140F20360FFF78C
:10341000DDFE2BE05C49E069884204D140F20460A3
:10342000FFF7D4FE22E05949E069884204D140F216
:103430000560FFF7CBFE19E05549E069884204D1E9
:1034400040F20660FFF7C2FE10E05249E069884290
:1034500004D140F20760FFF7B9FE07E04E49E0698A
:10346000884203D14FF4C160FFF7B0FE0322182158
:10347000D4E90103FFF71AFB03221821D4E903035F
:10348000FFF714FB03220421D4E90503FFF70EFB29
:1034900003221021D4E90703FFF708FB206800F09E
:1034A0008DF84FF4827001900020029003904FF449
:1034B000007004900020059094F8260010B90020B8
:1034C000069012E094F82600012802D1022006900E
:1034D0000BE094F82600022802D10120069004E0B7
:1034E00094F82600032800D10690A08C022801D170
:1034F000002023E0A08C042801D108201EE0A08C2D
:10350000082801D1102019E0A08C102801D1182022
:1035100014E0A08C202800D110E0A08C402801D11C
:1035200028200BE0A08C802801D1302006E0A08C60
:10353000B0F5807F01D1382000E00020079001A97C
:10354000206800F06FF82068FFF770FE1348E06213
:1035500013482063134860631348A0631348E06373
:1035600001212046FDF7D9FF012084F82800002022
:1035700068E600000030014000380040003C004098
:1035800000080140000C01400010014000140140FF
:1035900000180140001C0140002001401B150008DC
:1035A0004715000855150008631500082D1500087B
:1035B0000146C86880B27047C160704710B50446C4
:1035C0001348204470B1B0F5806F14D0B0F5784F37
:1035D0001AD14FF44370FFF719FE4FF44370FFF711
:1035E00005FE12E040F20E40FFF710FE40F20E40E2
:1035F000FFF7FCFD09E040F20F40FFF707FE40F245
:103600000F40FFF7F3FD00E000BF00BF10BD00005A
:1036100000C8FFBF02469068084008B1012070470B
:103620000020FCE702460020106800F441500B68BF
:1036300018434B6818438B681843CB6818430B69D1
:1036400018434B6918438B6918431060D36923F4FE
:103650000063D3617047000008B5002000212E4AA6
:10366000126842F480322C4B1A6000BF401C2A4A78
:10367000126802F4003119B94FF6FF729042F5D189
:10368000254A126802F400320AB900BFFEE7224A56
:103690005268214B5A601A4652685A601A4652685C
:1036A00042F480625A601A46526822F440325A60EC
:1036B0001A46526842F440325A601A465268174B12
:1036C0001A40154B5A601A465268154B1A43124B52
:1036D0005A601A46126842F080721A6000BF0E4AA1
:1036E000126802F00072002AF9D00B4A5268009268
:1036F000009A22F003020092009A42F00202009225
:10370000054B009A5A6000BF034A526802F00C024F
:10371000082AF9D108BD000000100240FFFFC3F7DE
:103720000000280810B5FFF797FF10BD0448011FDF
:10373000486588654830C8650248496D086070472B
:10374000E0240020DC0C002000B587B04FF4A0601E
:10375000FFF73CFD04211448FEF731FE13480090AA
:1037600000200190124802900020039040F20110C6
:1037700004904FF40050059000208DF818000120AF
:103780008DF8190000208DF81A006A4604210648B9
:10379000FEF74DFE04210448FEF7F8FD042102481F
:1037A000FEF7DBFD07B000BD000002400438014019
:1037B000DC0C002010B5044640F20E60FFF706FD59
:1037C00040F20260FFF702FD4FF40073032218215C
:1037D0001D48FFF76BF94FF48063032204211A4858
:1037E000FFF764F9194800F0B3F82146174800F0D4
:1037F0005DF80021154800F03AF90021134800F067
:1038000056F90021114800F042F908210F4800F054
:1038100046F904210D4800F032F940210B4800F030
:10382000DFF8002211462520FFF7D2FB4FF441714B
:10383000064800F0F3F8FFF787FFFFF777FF03482C
:1038400000F0D8F810BD0000000801400038014029
:103850000FB438B505A800901248009A0499FDF7F6
:10386000BBF80020009000240DE000BF07210E48A7
:1038700000F0C5F80128F9D10A48015D0A4800F0B6
:1038800062F8601C84B20748FCF782FCA042ECD8C6
:1038900000BF0621044800F0B2F80128F9D138BC75
:1038A0005DF814FBDC040020003801402DE9F047EE
:1038B00004460D460027B846B94600261D49601A41
:1038C0008C421CD006DC1C48204470B1B0F5806FDF
:1038D0001FD10FE0B0F5806F16D0B0F56C4F18D146
:1038E0000320FFF7E1FB074614E00220FFF7DCFBB3
:1038F00007460FE00220FFF7D7FB07460AE0022049
:10390000FFF7D2FB074605E00220FFF7CDFB074695
:1039100000E000BF00BF07EB5500B0FBF5F64FF627
:10392000F07006EA000806F00F0948EA0900A060F6
:10393000BDE8F087004C004000BCFFBF014648686E
:10394000C0F308007047C1F30802426070470000EE
:1039500010B504462049601A8C4228D006DC1F4866
:10396000204490B1B0F5806F33D117E0B0F5806F8F
:1039700026D0B0F56C4F2CD140F20E30FFF746FC4C
:1039800040F20E30FFF732FC24E040F21140FFF726
:103990003DFC40F21140FFF729FC1BE040F21240D1
:1039A000FFF734FC40F21240FFF720FC12E040F237
:1039B0001340FFF72BFC40F21340FFF717FC09E020
:1039C00040F21440FFF722FC40F21440FFF70EFCD7
:1039D00000E000BF00BF10BD004C004000BCFFBFB6
:1039E000426922F040024261426901F040031A43F9
:1039F00042617047C16841F40051C160704710B521
:103A0000024602EB9110006801F01F040123A3405D
:103A1000184008B1012010BD0020FCE710B5C1F32B
:103A20008912825801F01F040123A3401A43C1F3F5
:103A30008913C25010BD70B5024600230024C1F3A3
:103A40008910105801F01F060125B54000EA050352
:103A500002EB91500068C1F304460125B54000EA2D
:103A6000050414B10BB1012070BD0020FCE7C26851
:103A700022F4C062C260C2680A43C26070470A464C
:103A80000021C16821F004011143C160704702693F
:103A900022F44052026102690A43026170470A46F9
:103AA0000021C16821F008011143C1607047C2685C
:103AB00022F48052C260C2680A43C26070470000AC
:103AC00070B5044614B94FF0FF3070BD4020FFF7C9
:103AD00049FAA062A06A10B94FF0FF30F5E7A56A75
:103AE0002068286060686860A068A860E068686115
:103AF0002069A8616069E860A0692861E069E861FF
:103B0000206A28620220A884002085F82600284622
:103B1000FFF792FB0A48E0620A4820630A486063A4
:103B20000A48A0630A48E0630A4820640A486064BF
:103B30000A48A064012084F824000020C5E70000A2
:103B4000CB1600080F160008BD1700081D17000847
:103B50009715000873160008A1170008E315000860
:103B60000D0A4C6F6164696E672070726F677261D5
:103B70006D732066726F6D2065787465726E616C0E
:103B800020466C6173682C20656E746572207468C1
:103B90006520626C6F636B206E756D6265722028A4
:103BA000312D39292E0D0A000D0A49415020646F2C
:103BB000776E6C6F61642070726F6772616D7320D5
:103BC000746F2065787465726E616C20466C6173E9
:103BD000682C20656E7465722074686520626C6F55
:103BE000636B206E756D6265722028312D39292E28
:103BF0000D0A00000D0A49415020646F776E6C6F0A
:103C00006164207468652070726F6772616D2074E2
:103C10006F20466C61736820412C20706C65617365
:103C200065207573652062696E20666F726D6174C0
:103C30002066696C652E0D0A000000000D0A446FB5
:103C4000776E6C6F6164207468652070726F677244
:103C5000616D20746F20746865202564746820622B
:103C60006C6F636B206F662065787465726E616C33
:103C700020466C617368207573696E67207468658F
:103C800020586D6F64656D2070726F746F636F6C18
:103C90002C20706C65617365207573652062696E98
:103CA00020666F726D61742066696C652E0D0A0066
:103CB000D03C00080000002088000000FC14000830
:103CC000583D000888000020182B00000C15000843
:103CD000000C014040000000000C0140800000008A
:103CE00000000000000000000000000000000000D4
:103CF000000000000000000000300140000801400A
:103D000020000000000801404000000000080140C1
:103D100080000000000801401000000000000000CA
:103D20000000000000000000000000000000000093
:103D30000000000000000000000000000000000083
:103D40000000000000000000000000000000000073
:083D500000000000000000006B
:0400000508000105E9
:00000001FF
