:020000040800F2
:10600000900C002005610008656900085D690008C2
:106010006169000899660008696E000800000000C8
:10602000000000000000000000000000256B0008D8
:106030004568000800000000ED690008116C0008C8
:106040001F6100081F6100081F6100081F61000830
:106050001F6100081F6100081F6100081F61000820
:106060001F6100081F6100081F6100081F61000810
:106070001F6100081F6100081F6100081F61000800
:106080001F6100081F6100081F6100081F610008F0
:106090001F6100081F6100081F6100081F610008E0
:1060A0001F6100081F6100081F6100081F610008D0
:1060B0001F6100081F6100081F6100081F610008C0
:1060C0001F6100081F6100081F6100081F610008B0
:1060D0001F610008756C0008856C0008956C00084D
:1060E0001F6100081F6100081F610008DFF810D061
:1060F00000F032FA00480047C9770008AFF300808B
:10610000900C00200648804706480047FEE7FEE75F
:10611000FEE7FEE7FEE7FEE7FEE7FEE7FEE7FEE757
:10612000156C0008ED60000840EA01039B0703D0EE
:1061300009E008C9121F08C0042AFAD203E011F8C6
:10614000013B00F8013B521EF9D27047421C10F887
:10615000011B0029FBD1801A704730B50B46014660
:1061600000202022012409E021FA02F59D4205D3F6
:1061700003FA02F5491B04FA02F52844151EA2F1A0
:106180000102F1DC30BD2DE9F05F054600209246AA
:106190009B4688460646814640241BE028464146E9
:1061A0004746224600F0F9F953465A46C01A914133
:1061B00010D311461846224600F0E0F92D1A67EB7D
:1061C00001084F4622460120002100F0D7F917EBC5
:1061D00000094E41201EA4F10104DFDC484631468F
:1061E0002A464346BDE8F09F2DE9FE4F804681EAEE
:1061F0000300C00F0C46009021F0004123F0004541
:10620000B8EB0200A94105D24046214690461C4603
:106210000B46024623F00040104347D0270DC7F33A
:106220000A00C3F30A510290401A019040286BDA29
:10623000C3F3130040F4801B0098924620B1002362
:10624000D2EB030A63EB0B0B01985946C0F14002F5
:10625000504600F093F906460D4650465946019ABD
:1062600000F0ABF910EB08006141002487EA1152FD
:1062700084EAE7731A4340D0009A62B3019A012A74
:106280004FEA075215DC001B61EB02014FF00042A0
:1062900002EA0752CDE90042001C41F58011324666
:1062A0002B4600F0ABF903B0BDE8F08F4046214625
:1062B000F9E7001B61EB0201001C41F58013001897
:1062C0005B412018A2F5001747EB030140EAD570A7
:1062D000B6196D4111E06D084FEA360645EAC07502
:1062E0004FEA0752001B61EB0201001C41F58011CF
:1062F00049084FEA30000019514132462B4603B09D
:10630000BDE8F04F00F06BB9009801224000002377
:10631000D0EB020263EBE073009821464FEAE07491
:10632000B8EB000061EB0401E9E783F000435BE7B1
:1063300081F0004158E72DE9FE4F81EA030404F0A3
:10634000004421F0004100944FF0000B23F0004383
:1063500050EA01045ED052EA03045BD0C3F30A544E
:10636000C1F30A552C44A4F2F3340194A0FB025467
:10637000C1F3130141F48011C3F3130343F48013F9
:1063800001FB024400FB034E840A970A44EA81544D
:1063900047EA8357A4FB076802958D0A05FB07852A
:1063A0004FEA932C04FB0C542705029D4FEA065834
:1063B00047EA1637B5EB08056EEB070C870E920E11
:1063C00047EA811742EA8312A7FB0201B6EB0B01F1
:1063D00064EB00042B0D43EA0C335E1844EB1C50B5
:1063E000DA465146E7FB0201C5F313044FEA0B33CB
:1063F00043EA14534FEA0432019C43EA0603A4F132
:106400000C040294009CCDE900B400F0F7F803B04E
:10641000BDE8F08F00200146F9E72DE9F04D81EA53
:10642000030404F0004B21F0004514464FF0000A2D
:1064300023F0004150EA050220D054EA01021DD0A9
:10644000C5F30A570246C5F31303C1F31300C1F3A2
:106450000A5640F4801543F48013A7EB0608101B7E
:10646000D64608F2FD3873EB050002D308F10108A7
:1064700001E092185B41B8F1000F03DA00200146F9
:10648000BDE8F08D00204FF48011064684460EE0F2
:10649000171B73EB050705D3121B63EB05030643BC
:1064A0004CEA010C49084FEA300092185B4150EA6F
:1064B0000107EDD152EA030012D082EA040083EA18
:1064C0000501084305D0101BAB4106D20122002371
:1064D00006E000224FF0004302E06FF0010253108B
:1064E0001AEB06004CEB085110EB0A0041EB0B01D4
:1064F000BDE8F04D00F073B8C1F30A52C1F31301C7
:1065000040F2FF3341F480119A4202DA0020014642
:10651000704740F233439A42A2F2334202DC5242C5
:1065200000F03BB800F02AB830B5041E71F1000449
:1065300004DB4FF00044404264EB0101141E73F190
:10654000000405DB1C464FF00043524263EB04039A
:10655000994208BF904230BD064C074D06E0E06806
:1065600040F0010394E8070098471034AC42F6D39A
:10657000FFF7C0FDB8800008D8800008202A04DB9F
:10658000203A00FA02F1002070479140C2F1200346
:1065900020FA03F3194390407047202A04DB203A85
:1065A00021FA02F00021704721FA02F3D040C2F133
:1065B00020029140084319467047202A06DBCB177A
:1065C000203A41FA02F043EAE07306E041FA02F3AE
:1065D000D040C2F12002914008431946704710B5DF
:1065E000141E73F1000408DA401C41F100019218F6
:1065F0005B411A4301D120F0010010BD2DE9F04D9F
:1066000092469B4611B1B1FA81F202E0B0FA80F2F3
:1066100020329046FFF7B2FF04460F4640EA0A00D8
:1066200041EA0B0153465A46084313D0114653EA38
:10663000010019D0C8F140025046FFF7AEFF0546F1
:106640000E46504659464246FFF798FF084305D08C
:10665000012004E020463946BDE8F08D00200543C6
:1066600046EAE0762C4337430A986305E40AA0EB38
:1066700008000022FD0A44EA47540A3002D50020EF
:106680000146E9E7010510196941DDE908450019EE
:106690006941BDE8F04DA2E700BFFEE721B1026805
:1066A00042F00102026004E002684FF6FE731A40F5
:1066B0000260704701684FF6FE72114001600021D0
:1066C000016041608160C1604B49884208D14A49FC
:1066D0000839496841F00F01474A083A51608AE099
:1066E00045491431884208D143490839496841F085
:1066F000F001414A083A51607DE03F492831884223
:1067000008D13D490839496841F470613A4A083A6C
:10671000516070E038493C31884208D13649083927
:10672000496841F47041344A083A516063E03249A3
:106730005031884208D130490839496841F4702104
:106740002D4A083A516056E02B496431884208D1FD
:1067500029490839496841F47001274A083A5160CB
:1067600049E025497831884208D1234908394968E8
:1067700041F07061204A083A51603CE01F4988426C
:1067800006D1011F096841F00F01021F116032E0BC
:106790001A491431884208D11849091F096841F083
:1067A000F001164A121F116025E014492831884271
:1067B00008D11249091F096841F470610F4A121F7C
:1067C000116018E00D493C31884208D10B49091F7E
:1067D000096841F47041094A121F11600BE0074932
:1067E0005031884207D10549091F096841F47021D9
:1067F000024A121F1160704708000240080402405C
:106800000146486880B2704710B50022026847F61A
:10681000F0739A430C6A8B6823430C6923434C69D9
:1068200023438C692343CC6923434C6A23438C6AFA
:1068300023431A430260CB6843600B6883604B6854
:10684000C36010BD70472DE9F041024600250026C7
:10685000002000230024002791F803C00CF00F054E
:1068600091F803C00CF0100CBCF1000F03D091F8AC
:1068700002C04CEA050591F800C0BCF1000F31D010
:10688000146800202BE04FF0010C0CFA00F3B1F873
:1068900000C00CEA03069E4220D183004FF00F0C8B
:1068A0000CFA03F7BC4305FA03FC4CEA040491F824
:1068B00003C0BCF1280F06D14FF0010C0CFA00FC0C
:1068C000C2F814C00AE091F803C0BCF1480F05D12A
:1068D0004FF0010C0CFA00FCC2F810C0401C082854
:1068E000D1D31460B1F800C0BCF1FF0F34DD54689F
:1068F00000202EE000F1080C4FF0010808FA0CF31C
:10690000B1F800C00CEA03069E4221D183004FF08B
:106910000F0C0CFA03F7BC4305FA03FC4CEA040421
:1069200091F803C0BCF1280F05D100F1080C08FA5A
:106930000CF8C2F8148091F803C0BCF1480F07D1DD
:1069400000F1080C4FF0010808FA0CF8C2F81080AA
:10695000401C0828CED35460BDE8F08100BFFEE79C
:1069600000BFFEE77047000070B5002100230F2232
:10697000C47804B3154C246804F4E064C4F5E064FE
:10698000210AC1F10403CA40447804FA03F184786F
:106990001440214309010E4C0678A155047804F0F7
:1069A0001F050124AC4005786D11AD0005F1E0250F
:1069B000C5F8004109E0047804F01F050124AC404B
:1069C000044D0678761145F8264070BD0CED00E0C8
:1069D00000E400E080E100E002490143024A116066
:1069E000704700000000FA050CED00E07047000061
:1069F00029B1064A52690243044B5A6104E0034A32
:106A000052698243014B5A617047000000100240F6
:106A100029B1064AD2690243044BDA6104E0034A11
:106A2000D2698243014BDA617047000000100240D6
:106A300029B1064A92690243044B9A6104E0034A71
:106A400092698243014B9A61704700000010024036
:106A500030B500210022002400232D4D6D6805F083
:106A60000C0121B1042905D0082923D105E0294DC5
:106A7000056022E0274D05601FE0254D6D6805F497
:106A80007012234D6D6805F48034022505EB9242A7
:106A90001CB9214D554305600BE01D4D6D6805F493
:106AA00000351DB11C4D5543056002E0194D55439D
:106AB000056002E0174D056000BF00BF144D6D6812
:106AC00005F0F0010909154D6B5C0568DD40456076
:106AD0000F4D6D6805F4E061090A104D6B5C456867
:106AE000DD4085600A4D6D6805F46051C90A0B4DA3
:106AF0006B5C4568DD40C560054D6D6805F440413F
:106B0000890B074D6B5CC568B5FBF3F5056130BDBE
:106B10000010024000127A0000093D002A00002007
:106B20003A000020704710B500F002F810BD0000D8
:106B30000CB50020019000903348006840F480308C
:106B40003149086000BF3048006800F40030009010
:106B50000198401C0190009818B90198B0F5A06FF9
:106B6000F1D12948006800F4003010B101200090F4
:106B700001E0002000900098012843D123480068DC
:106B800040F01000214908600846006820F003002A
:106B900008600846006840F0020008601A48406833
:106BA000194948600846406848600846406840F413
:106BB000806048600846406820F47C1048600846C1
:106BC000406840F4E81048600846006840F0807073
:106BD000086000BF0C48006800F000700028F9D081
:106BE0000948406820F003000749486008464068AB
:106BF00040F00200486000BF0348406800F00C000D
:106C00000828F9D10CBD000000100240002002400D
:106C10007047000010B51248006840F001001049AC
:106C20000860084640680F4908400D49486008461A
:106C300000680D4908400A4908600846006820F4C9
:106C4000802008600846406820F4FE0048604FF449
:106C50001F008860FFF767FF04480549086010BD02
:106C6000001002400000FFF8FFFFF6FE0060000881
:106C700008ED00E010B5024801F0E2F810BD000098
:106C80000038014010B5024801F0DAF810BD0000EC
:106C90000044004010B5024801F0D2F810BD0000D9
:106CA0000048004021B1828942F40052828104E010
:106CB00082894DF6FF731A40828170471AB1838A28
:106CC0000B43838202E0838A8B43838270470246B0
:106CD0000020B1F5007F00D100BF13880B400BB13D
:106CE000012000E00020704770B502460024002318
:106CF0000025002040F66A16B14200D100BFC1F362
:106D0000421501F01F03012606FA03F3012D02D1FB
:106D10009689334006E0022D02D1168A334001E005
:106D2000968A33400C12012606FA04F41688344081
:106D300013B10CB1012000E0002070BDF0B5034696
:106D4000002400260025002040F66A17B94200D131
:106D500000BF1846C1F3421401F01F06012707FACD
:106D600006F5012C01D10C3004E0022C01D11030C9
:106D700000E014301AB107682F43076002E007688B
:106D8000AF430760F0BD00002DE9F04786B005462F
:106D90000E460024A24600BFA1460027B08900B1DC
:106DA00000BF2F462C8A4CF6FF700440F088044345
:106DB0002C82AC894EF6F3100440B0883189084328
:106DC000718908430443AC81AC8A4FF6FF4004400C
:106DD000B0890443AC8201A8FFF73AFE1F488742FE
:106DE00002D1DDF810A001E0DDF80CA0A88900F4C4
:106DF000004040B10AEBCA0000EB0A1031684900BC
:106E0000B0FBF1F807E00AEBCA0000EB0A103168AA
:106E10008900B0FBF1F86420B8FBF0F00401200910
:106E2000642101FB1089A88900F4004040B13220A0
:106E300000EBC900B0FBF1F000F00700044308E0EC
:106E4000322000EB09106421B0FBF1F000F00F00DC
:106E500004432C8106B0BDE8F087000000380140F3
:106E6000C1F308028280704700BFFEE77CB50C00CA
:106E70001D461646014601D0601E00E00020CDE907
:106E80000010064B6A462946304600F0DBF8002C1D
:106E900002D0009A002111707CBD00004B770008E1
:106EA00002E008C8121F08C1002AFAD170477047D3
:106EB000002001E001C1121F002AFBD17047000031
:106EC0002DE9FF5F82B00021DDE90430020DDDF81D
:106ED00040B0034318D044F61050A2F2FF324243B0
:106EE0001514119801281FD0A5EB0B00401C5FEA78
:106EF000000A4FF000064E4FDFF83891B04650467A
:106F000015D5CAF1000413E0119801244AA3012801
:106F100001D16FEA0B010298119AC0E90031C0E972
:106F2000024206B0BDE8F09FCBF10000DFE7044667
:106F30000021404A491842EB0450CDE9001012E00C
:106F4000E00707D032463B4640464946FFF7F3F993
:106F50008046894632463B4610461946FFF7EBF914
:106F600006460F466410002CEAD1DDE90401DDE994
:106F70000023BAF1000F06DAFFF7DDF942464B466F
:106F8000FFF7D9F905E0FFF748FA42464B46FFF70D
:106F900044FA04460E460022284BFFF7C5FA03D8F0
:106FA0004FF0FF30014607E00022254B20463146D6
:106FB000FFF71AF9FFF7A0FA102409E0002C0ADB0A
:106FC0000A220023FFF7DFF8039B30321A55641EB4
:106FD00050EA0102F2D1641C039AC4F11103144473
:106FE000119A012A03D0012208430DD10AE0084377
:106FF00004D000204FF0110B119072E7A3EB0B05AA
:107000006D1E0DE05B4504DD4FF0000205F101054A
:1070100004E003DA4FF00002A5F10105002AECD0EC
:1070200002981199C0E90231C0E9004579E70000F2
:10703000000014400000F03F300000000000F0436A
:107040000000E03F2DE9FF4F95B09A46884606467E
:107050000025EEE1252877D100242746F94A0121B1
:10706000039400E0044316F8013F203B01FA03F0CB
:107070001042F7D130782A2811D06FF02F033078E2
:10708000A0F13002092A16D8039A44F0020402EB58
:10709000820203EB42021044761C0390EFE758F89B
:1070A000042B0392002A03DA504244F40054039064
:1070B00044F00204761C30782E2816D116F8010F01
:1070C00044F004042A280DD06FF02F023078A0F18C
:1070D0003003092B09D807EB870302EB4303C718DA
:1070E000761CF3E758F8047B761C30786C280FD0B8
:1070F00006DC4C2817D068280DD06A2814D104E08B
:10710000742810D07A280FD10DE044F400140AE05E
:1071100044F4801401E044F440147278824202D1B5
:1071200004F58014761C761C307866280BD013DCAE
:10713000582877D009DC002875D04528F6D0462895
:10714000F4D047281AD193E118E0632835D0642899
:1071500079D0652812D18BE1702873D008DC6728BC
:10716000F1D069286FD06E280DD06F2806D1ACE021
:1071700073282CD0752874D0782853D0524617998C
:1071800090476D1C54E1C4F30250022809D0032833
:107190000DD0D8F8001004280DD00D6008F10408B7
:1071A00046E1D8F80010EA17C1E90052F6E7D8F82E
:1071B00000100D80F2E70D70F0E718F8041B8DF851
:1071C000001000208DF80100EB46012003E058F884
:1071D00004BB4FF0FF3061074FF0000102D40DE017
:1071E00009F101018946B9420FDA8145F8DB1BF844
:1071F00009100029F4D108E009F101018946814212
:10720000FADB1BF809100029F6D103985346A0EBCE
:10721000090721463846179A00F080FA284400EB07
:10722000090507E044E008E10DE01BF8010B5246B8
:1072300017999047B9F10109F7D2534621463846CC
:10724000179AF2E039E00A21C4F302524FF0000B22
:107250000091022A06D058F8040BC117032A09D05E
:107260000AE023E008F1070020F00702F2E802013B
:10727000904605E000B2C117042A01D140B2C117FF
:10728000002906DA0A460021404261EB02012D2264
:1072900002E0220504D52B228DF80420012203E010
:1072A000E20701D02022F7E7914657E00A2100E0EB
:1072B00010214FF0000B00910BE010214FF0000B5C
:1072C00044F004040827009103E008204FF0000B6D
:1072D0000090C4F30252022A05D058F8040B002192
:1072E000032A08D008E008F1070020F00702F2E8BE
:1072F0000201904603E080B2042A00D1C0B24FF0F0
:10730000000922072AD53278702A07D0DDF800C09C
:107310008CF0100C5CEA0B0C05D00EE040228DF8CE
:107320000420012208E050EA010306D030238DF842
:1073300004308DF8052002229146009B83F008035B
:1073400053EA0B030AD150EA010201D1620705D5C5
:1073500030228DF804204FF001097F1E3278582A20
:1073600004D039A20C920CAA02920BE03BA2F9E7DE
:107370005B46009AFEF707FF0C9B9B5C029A521E2D
:107380000292137050EA0102F2D1029804A9081A7D
:1073900000F1200B600702D524F4803400E00127BF
:1073A0005F4502DDA7EB0B0000E0002000EB0B01C6
:1073B000009003984944401A0390E00306D45346D2
:1073C0002146179A039800F0A9F90544002706E022
:1073D00001A85246C05D179990476D1C7F1C4F4510
:1073E000F6DBE0030CD553462146179A039800F0CC
:1073F00095F9054404E030205246179990476D1CDA
:107400000099481E00900029F5DC08E002980299D6
:1074100052460078491C0291179990476D1CBBF1A8
:107420000001ABF1010BF1DC5BE100F065F9054413
:10743000761C307800287FF40DAE19B02846BDE8E0
:10744000F08F0000092801003031323334353637EF
:1074500038396162636465660000000030313233A0
:107460003435363738394142434445460000000040
:10747000600700D4062708F1070020F00700F0E8B5
:107480000223804603F0004C5FEA0C0001D097A075
:1074900009E0200501D596A005E0E00701D095A000
:1074A00001E0AFF24C001390307823F000436528E0
:1074B0000CD006DC452809D046281DD047287FD1AE
:1074C0003BE0662818D067287AD136E00021112FDA
:1074D00001DB112000E0781CCDE9000104A90CA813
:1074E000FFF7EEFCDDE90D010C9A4FF0000B07F100
:1074F0000109109200914EE04FF000400097CDE955
:10750000011004A90CA8FFF7DBFCDDE90D020C9BC0
:107510000F994FF0000B91461093009211B9791C0E
:1075200000EB0109B7EB090003D4C0F1FF3B07F101
:107530000109A9EB0700019042E0012F00DA0127C1
:107540000021112F01DD112000E03846CDE90001B6
:1075500004A90CA8FFF7B4FCDDE90D010C9A009119
:107560004FF0000BB946109221070FD4009A4A45FC
:1075700003DA914601E0A9F10109B9F1010F05DD36
:10758000109AA9F10101515C3029F4D0B84202DA15
:1075900010F1040F03DA0121CDE9011010E00028F9
:1075A00003DC8344A9EB000102E0411C494500DDF6
:1075B0008946A0EB0B00401C01904FF00040029068
:1075C000200705D40198484502DB4FF0FF300190B9
:1075D00000208DF84B0002980DF14B07B0F1004FE1
:1075E00025D002200C902B200D90029800280CDA58
:1075F000404202902D200D9007E00A210298FEF7EC
:10760000ACFD3031029007F8011D0C99481E0C901A
:107610000029F2DC02980028EFD1791E0D9808703D
:10762000307800F0200040F0450007F8020D11A866
:10763000C01BC01D02901398007800B1012000EB20
:107640000901019801EBE071029801440398401A86
:10765000401E0390E00306D453462146179A039830
:1076600000F05CF805441398007818B15246179959
:1076700090476D1CE00323D553462146179A039883
:1076800000F04CF805441BE0BBF1000F07DB00984D
:10769000584504DD1098179910F80B0001E0179970
:1076A00030205246904701980BF1010B401E05F126
:1076B0000105019004D12E205246179990476D1C68
:1076C000B9F10001A9F10109DEDC05E017F8010BB1
:1076D0005246179990476D1C0299481E0290002946
:1076E000F4DC53462146179A03989EE62D000000CD
:1076F0002B000000200000002DE9F0410446002589
:107700001E461746880404D405E039462020B047B9
:107710006D1C641EF9D52846BDE8F0812DE9F041C5
:10772000044600251E469046C80301D5302700E0D8
:107730002027880404D505E041463846B0476D1C33
:10774000641EF9D52846BDE8F0814A68002A06D0B3
:107750000A68531C0B6010704868401E48607047F0
:10776000FEB505460E4605B116B96FF00400FEBD24
:10777000306800F0D1FB044614B96FF00500F6E75D
:10778000201D6065A0654830E065F069616D0860A6
:107790000020208025662C6028223146281DFEF717
:1077A000C3FC084A07CA8DE80700306800F0CAF930
:1077B0000746387B5DF82000E862304600F088FA22
:1077C0000020D4E7AC8000084FF44070FFF704F9C4
:1077D00038493948FFF7C4FF38493948FFF7C0FF37
:1077E00038493948FFF7BCFF3348C06A0A2142686C
:1077F000364890473248C06A0A2142683448904768
:107800003148C06A0A214268324890472A48C06A13
:10781000016831A088472A48C06A016833A08847B8
:107820002948C06A016836A0884741E02249C96AF0
:1078300088688047374908600846006860B1084694
:107840000068FEF783FC04461B48C06A03683148A1
:107850002146026830A098471949C96A886880475C
:10786000344908600846006860B108460068FEF7C1
:107870006DFC04461248C06A03682E48214602681F
:107880002DA098471049C96A886880473149086027
:107890000846006860B108460068FEF757FC0446D9
:1078A0000948C06A03682B48214602682AA0984705
:1078B000BCE70000D47F000840000020FC7F0008E7
:1078C0007002002024800008A00400200C0000208A
:1078D00016000020200000200D0A546869732069FA
:1078E00073205541525431210D0A00000D0A54688D
:1078F0006973206973205541525432210D0A0000EA
:107900000D0A54686973206973205541525433211C
:107910000D0A0000000000205541525431207265CC
:1079200063762025642062797465733A2025730D8F
:107930000A000000040000205541525432207265B4
:1079400063762025642062797465733A2025730D6F
:107950000A0000000800002055415254332072658F
:1079600063762025642062797465733A2025730D4F
:107970000A0000000FB47CB50D4800F0E3F804469F
:10798000207B00EB800101EBC0000A4901EBC00045
:10799000056E07A8019001980090AA8CE96920461D
:1079A000069B00F0ADF9002001907CBC5DF814FB53
:1079B00000380140D006002070B5084800F0C2F839
:1079C0000446207B00EB800101EBC000044901EB81
:1079D000C000056E284600F0CFFA70BD00380140A7
:1079E000D006002070B504460D46054800F0AAF800
:1079F00006462A462146304600F0ABF970BD00002D
:107A0000003801400FB47CB50D4800F09BF80446E7
:107A1000207B00EB800101EBC0000A4901EBC000B4
:107A2000056E07A8019001980090AA8CE96920468C
:107A3000069B00F065F9002001907CBC5DF814FB0A
:107A400000440040D006002070B5084800F07AF8E5
:107A50000446207B00EB800101EBC000044901EBF0
:107A6000C000056E284600F087FA70BD0044004053
:107A7000D006002070B504460D46054800F062F8B7
:107A800006462A462146304600F063F970BD0000E4
:107A9000004400400FB47CB50D4800F053F8044694
:107AA000207B00EB800101EBC0000A4901EBC00024
:107AB000056E07A8019001980090AA8CE9692046FC
:107AC000069B00F01DF9002001907CBC5DF814FBC2
:107AD00000480040D006002070B5084800F032F899
:107AE0000446207B00EB800101EBC000044901EB60
:107AF000C000056E284600F03FFA70BD0048004007
:107B0000D006002070B504460D46054800F01AF86E
:107B100006462A462146304600F01BF970BD00009B
:107B20000048004070B5044614B96FF0040070BD01
:107B30002568284600F01AFA00202060E06200BFA5
:107B4000F5E70000024600210BE0084800EB0110B9
:107B50000068904203D1054800EB01107047481CB3
:107B6000C1B20329F1D30020F8E700004C800008DF
:107B700010B504460A48844205D00A48844202D01F
:107B80000948844204D101210846FEF731FF06E08E
:107B90000648844203D101210220FEF729FF10BDCF
:107BA000003801400044004000480040004C0040C4
:107BB00030B58BB004462068FFF7C4FF0546A868BF
:107BC000FEF778FD2068001D0090002006900490CC
:107BD000E0690190002007908020059081200390AB
:107BE0000020029008900A904FF4005009906946D6
:107BF000A868FEF709FE0121A868FEF74FFD0122E3
:107C000040212068FFF75AF80BB030BD10B504468C
:107C10001F49601A8C4223D009DC1E48204480B1E1
:107C2000B0F5806F12D0B0F5006F2DD113E0B0F534
:107C3000806F1AD0B0F5006F1CD0B0F5406F23D123
:107C40001DE001210420FEF7F3FE1EE001210820C3
:107C5000FEF7EEFE19E001211020FEF7E9FE14E028
:107C600001212020FEF7E4FE0FE001214020FEF775
:107C7000DFFE0AE001218020FEF7DAFE05E00121A7
:107C80000802FEF7D5FE00E000BF00BF10BD0000F7
:107C90000014014000F8FEBF38B5044618208DF8E6
:107CA000030003208DF80200A08980B2ADF8000027
:107CB0006946A068FEF7C7FD48208DF80300A08A3A
:107CC00080B2ADF8000069462069FEF7BCFD38BD02
:107CD00010B50446A068FFF799FF2069FFF796FFEB
:107CE000206800F04DF82068FFF742FF2046FFF7BC
:107CF000D3FF204600F06CF82046FFF759FF10BD77
:107D00002DE9F04104460D4617469846424639464D
:107D10002846069BFFF7AAF800260CE000BF80214A
:107D20002068FEF7D4FF0028F9D0A95D2068FFF78E
:107D300097F8701C86B22846FEF708FAB042EDD8D4
:107D400000BF40212068FEF7C2FF0028F9D0BDE83F
:107D5000F0812DE9F04104460E46174600250BE060
:107D6000715D2068FFF77CF800BF80212068FEF776
:107D7000AEFF0028F9D06D1CBD42F1D3BDE8F08103
:107D800010B504461148204468B1B0F5806F0FD09B
:107D9000B0F5006F11D0B0F5744F13D101218803F5
:107DA000FEF746FE0FE001214804FEF731FE0AE02F
:107DB00001218804FEF72CFE05E00121C804FEF72E
:107DC00027FE00E000BF00BF10BD000000BCFFBFE9
:107DD00030B585B004462068FFF7B4FE05466068FC
:107DE00001900020ADF810000C20ADF80E0000202E
:107DF000ADF80C00ADF80A00ADF8080001A9206844
:107E0000FEF7C2FF012240F224412068FEF796FFF0
:107E100028798DF8000001208DF8030094F82400E3
:107E20008DF8010094F825008DF802006846FEF7F1
:107E30009BFD01212068FEF735FF05B030BD000035
:107E40002DE9F84F82465046FFF77CFE0546287B19
:107E500000EB800101EBC0002E4901EBC004266E4F
:107E600000BF40F224412868FEF73EFF08B1012020
:107E700000E0002000284BD000BF28680088C0B276
:107E8000009028688088C0B2009000BF00BFA8683A
:107E9000FEF7B6FCC0F181002188084420802088CC
:107EA000401E316A0844616D4860606D083060654D
:107EB000E16D606D884201D1201D6065F08C2188E4
:107EC000401A802805DB2188306A0844616D08600B
:107ED00004E0306A616D086000202080606D4FF022
:107EE0008109D0F80080AF6800213846FEF7D6FB44
:107EF00000BF00BF386800F001000028FAD1C7F8C1
:107F00000490C7F80C8001213846FEF7C7FB00BF7C
:107F1000BDE8F88FD006002070B506463046FFF762
:107F200011FE05460DB9002070BD2C7B04EB8400CA
:107F300000EBC4000C4901EBC00090F8640008B1EC
:107F40000020F1E7012004EB840101EBC401064AA3
:107F500002EBC10181F8640004EB840000EBC40073
:107F6000114601EBC000DFE7D006002010B1002170
:107F700080F86410704700002DE9F041054615B9FE
:107F80000020BDE8F0812C68D4E9150188421DD09D
:107F9000A06D0768A06D4068A16D0968401A461C75
:107FA000812E00D38026324639460948FEF7BCF8B8
:107FB000002007498855A06D0830A065D4E9160156
:107FC000884201D1201DA0650148DAE70020D8E7EA
:107FD000080800200038014000C2010000080140EC
:107FE00000020000000801400004000070000020B2
:107FF000700100200001000100000000004400406A
:1080000000C2010000080140040000000008014017
:1080100008000000A0020020A003002000010001D1
:10802000000000000048004000C20100000C0140B8
:1080300000040000000C014000080000D0040020F3
:10804000D0050020000100010000000000380140C0
:1080500025000000580002400000000000440040DD
:10806000260000006C0002400100000000480040B3
:10807000270000003000024002000000757900086F
:10808000E5790008B9790008257B0008057A000821
:10809000757A0008497A0008257B0008957A00085F
:1080A000057B0008D97A0008257B00087C80000841
:1080B0008C8000089C800008D88000080000002008
:1080C00040000000A06E0008188100084000002059
:1080D000500C0000B06E000800000000000000001E
:1080E000000000004142434445464748494A414256
:1080F000434445464748494A414243444546474828
:10810000494A0000000001020304010203040607BB
:08811000080902040608000042
:04000005080060EDA2
:00000001FF
