:020000040800F2
:10500000C8350020055100084159000839590008E9
:105010003D59000875560008916000080000000026
:10502000000000000000000000000000015B00081C
:105030002158000800000000C9590008ED5B000875
:105040001F5100081F5100081F5100081F51000880
:105050001F5100081F5100081F5100081F51000870
:105060001F5100081F5100081F5100081F51000860
:105070001F5100081F5100081F5100081F51000850
:105080001F5100081F5100081F5100081F51000840
:105090001F5100081F5100081F5100081F51000830
:1050A0001F5100081F5100081F5100081F51000820
:1050B0001F5100081F5100081F5100081F51000810
:1050C0001F5100081F5100081F5100081F51000800
:1050D0001F510008515C0008255D0008F95D0008BB
:1050E0001F5100081F5100081F510008DFF810D0A1
:1050F00000F020FA00480047E16D0008AFF300809F
:10510000C83500200648804706480047FEE7FEE70E
:10511000FEE7FEE7FEE7FEE7FEE7FEE7FEE7FEE767
:10512000F15B0008ED500008421C10F8011B00293B
:10513000FBD1801A704730B50B4601460020202273
:10514000012409E021FA02F59D4205D303FA02F594
:10515000491B04FA02F52844151EA2F10102F1DCF4
:1051600030BD2DE9F05F0546002092469B468846FB
:105170000646814640241BE02846414647462246D3
:1051800000F0F9F953465A46C01A914110D311461E
:105190001846224600F0E0F92D1A67EB01084F4649
:1051A00022460120002100F0D7F917EB00094E41FB
:1051B000201EA4F10104DFDC484631462A4643465E
:1051C000BDE8F09F2DE9FE4F804681EA0300C00F45
:1051D0000C46009021F0004123F00045B8EB02009E
:1051E000A94105D24046214690461C460B46024640
:1051F00023F00040104347D0270DC7F30A00C3F344
:105200000A510290401A019040286BDAC3F3130050
:1052100040F4801B0098924620B10023D2EB030A91
:1052200063EB0B0B01985946C0F14002504600F069
:1052300093F906460D4650465946019A00F0ABF9DF
:1052400010EB08006141002487EA115284EAE773F9
:105250001A4340D0009A62B3019A012A4FEA0752DA
:1052600015DC001B61EB02014FF0004202EA07521D
:10527000CDE90042001C41F5801132462B4600F07A
:10528000ABF903B0BDE8F08F40462146F9E7001BBB
:1052900061EB0201001C41F5801300185B412018EE
:1052A000A2F5001747EB030140EAD570B6196D412E
:1052B00011E06D084FEA360645EAC0754FEA07521D
:1052C000001B61EB0201001C41F5801149084FEA07
:1052D00030000019514132462B4603B0BDE8F04F73
:1052E00000F06BB90098012240000023D0EB0202CD
:1052F00063EBE073009821464FEAE074B8EB0000DE
:1053000061EB0401E9E783F000435BE781F00041D2
:1053100058E72DE9FE4F81EA030404F0004421F030
:10532000004100944FF0000B23F0004350EA0104C9
:105330005ED052EA03045BD0C3F30A54C1F30A55AA
:105340002C44A4F2F3340194A0FB0254C1F31301E2
:1053500041F48011C3F3130343F4801301FB0244AF
:1053600000FB034E840A970A44EA815447EA8357B4
:10537000A4FB076802958D0A05FB07854FEA932C6D
:1053800004FB0C542705029D4FEA065847EA1637DE
:10539000B5EB08056EEB070C870E920E47EA8117F6
:1053A00042EA8312A7FB0201B6EB0B0164EB000497
:1053B0002B0D43EA0C335E1844EB1C50DA46514681
:1053C000E7FB0201C5F313044FEA0B3343EA14531E
:1053D0004FEA0432019C43EA0603A4F10C04029450
:1053E000009CCDE900B400F0F7F803B0BDE8F08F01
:1053F00000200146F9E72DE9F04D81EA030404F0AD
:10540000004B21F0004514464FF0000A23F0004104
:1054100050EA050220D054EA01021DD0C5F30A5714
:105420000246C5F31303C1F31300C1F30A5640F457
:10543000801543F48013A7EB0608101BD64608F22C
:10544000FD3873EB050002D308F1010801E0921862
:105450005B41B8F1000F03DA00200146BDE8F08D92
:1054600000204FF48011064684460EE0171B73EBB4
:10547000050705D3121B63EB050306434CEA010C39
:1054800049084FEA300092185B4150EA0107EDD11C
:1054900052EA030012D082EA040083EA05010843BD
:1054A00005D0101BAB4106D20122002306E00022EA
:1054B0004FF0004302E06FF0010253101AEB0600B8
:1054C0004CEB085110EB0A0041EB0B01BDE8F04D2D
:1054D00000F073B8C1F30A52C1F3130140F2FF3375
:1054E00041F480119A4202DA00200146704740F2EE
:1054F00033439A42A2F2334202DC524200F03BB8FC
:1055000000F02AB830B5041E71F1000404DB4FF03E
:105510000044404264EB0101141E73F1000405DBFA
:105520001C464FF00043524263EB0403994208BF0C
:10553000904230BD064C074D06E0E06840F00103A4
:1055400094E8070098471034AC42F6D3FFF7D2FD39
:10555000D8710008F8710008202A04DB203A00FA0C
:1055600002F1002070479140C2F1200320FA03F3BA
:10557000194390407047202A04DB203A21FA02F0B8
:105580000021704721FA02F3D040C2F1200291407D
:10559000084319467047202A06DBCB17203A41FA08
:1055A00002F043EAE07306E041FA02F3D040C2F1B0
:1055B0002002914008431946704710B5141E73F13C
:1055C000000408DA401C41F1000192185B411A43C3
:1055D00001D120F0010010BD2DE9F04D92469B460F
:1055E00011B1B1FA81F202E0B0FA80F220329046B5
:1055F000FFF7B2FF04460F4640EA0A0041EA0B01FA
:1056000053465A46084313D0114653EA010019D0B5
:10561000C8F140025046FFF7AEFF05460E46504621
:1056200059464246FFF798FF084305D0012004E0A1
:1056300020463946BDE8F08D0020054346EAE07675
:105640002C4337430A986305E40AA0EB08000022C4
:10565000FD0A44EA47540A3002D500200146E9E732
:10566000010510196941DDE9084500196941BDE8E6
:10567000F04DA2E700BFFEE721B1026842F001024F
:10568000026004E002684FF6FE731A400260704741
:1056900001684FF6FE721140016000210160416017
:1056A0008160C1604B49884208D14A49083949683C
:1056B00041F00F01474A083A51608AE045491431E8
:1056C000884208D143490839496841F0F001414A0C
:1056D000083A51607DE03F492831884208D13D4970
:1056E0000839496841F470613A4A083A516070E0FB
:1056F00038493C31884208D136490839496841F473
:105700007041344A083A516063E03249503188426E
:1057100008D130490839496841F470212D4A083AC6
:10572000516056E02B496431884208D12949083933
:10573000496841F47001274A083A516049E0254917
:105740007831884208D123490839496841F07061AD
:10575000204A083A51603CE01F49884206D1011FA7
:10576000096841F00F01021F116032E01A4914313B
:10577000884208D11849091F096841F0F001164A0A
:10578000121F116025E014492831884208D11249BE
:10579000091F096841F470610F4A121F116018E077
:1057A0000D493C31884208D10B49091F096841F471
:1057B0007041094A121F11600BE0074950318842BD
:1057C00007D10549091F096841F47021024A121FD7
:1057D0001160704708000240080402400146486812
:1057E00080B2704710B50022026847F6F0739A4302
:1057F0000C6A8B6823430C6923434C6923438C69EF
:105800002343CC6923434C6A23438C6A23431A43C2
:105810000260CB6843600B6883604B68C36010BD57
:1058200070472DE9F04102460025002600200023A4
:105830000024002791F803C00CF00F0591F803C075
:105840000CF0100CBCF1000F03D091F802C04CEA30
:10585000050591F800C0BCF1000F31D0146800209C
:105860002BE04FF0010C0CFA00F3B1F800C00CEA89
:1058700003069E4220D183004FF00F0C0CFA03F771
:10588000BC4305FA03FC4CEA040491F803C0BCF1E4
:10589000280F06D14FF0010C0CFA00FCC2F814C01E
:1058A0000AE091F803C0BCF1480F05D14FF0010C9C
:1058B0000CFA00FCC2F810C0401C0828D1D31460B8
:1058C000B1F800C0BCF1FF0F34DD546800202EE0B9
:1058D00000F1080C4FF0010808FA0CF3B1F800C011
:1058E0000CEA03069E4221D183004FF00F0C0CFA04
:1058F00003F7BC4305FA03FC4CEA040491F803C027
:10590000BCF1280F05D100F1080C08FA0CF8C2F818
:10591000148091F803C0BCF1480F07D100F1080CC6
:105920004FF0010808FA0CF8C2F81080401C082853
:10593000CED35460BDE8F08100BFFEE700BFFEE7B4
:105940007047000070B5002100230F22C47804B313
:10595000154C246804F4E064C4F5E064210AC1F144
:105960000403CA40447804FA03F1847814402143C4
:1059700009010E4C0678A155047804F01F05012496
:10598000AC4005786D11AD0005F1E025C5F800418A
:1059900009E0047804F01F050124AC40044D0678AA
:1059A000761145F8264070BD0CED00E000E400E003
:1059B00080E100E002490143024A116070470000A3
:1059C0000000FA050CED00E07047000029B1064A1E
:1059D00052690243044B5A6104E0034A526982430C
:1059E000014B5A61704700000010024029B1064A7D
:1059F000D2690243044BDA6104E0034AD26982436C
:105A0000014BDA61704700000010024029B1064ADC
:105A100092690243044B9A6104E0034A926982430B
:105A2000014B9A61704700000010024030B5002120
:105A30000022002400232D4D6D6805F00C0121B1DA
:105A4000042905D0082923D105E0294D056022E06D
:105A5000274D05601FE0254D6D6805F47012234D3C
:105A60006D6805F48034022505EB92421CB9214D86
:105A7000554305600BE01D4D6D6805F400351DB103
:105A80001C4D5543056002E0194D5543056002E089
:105A9000174D056000BF00BF144D6D6805F0F001A3
:105AA0000909154D6B5C0568DD4045600F4D6D685B
:105AB00005F4E061090A104D6B5C4568DD408560C6
:105AC0000A4D6D6805F46051C90A0B4D6B5C456861
:105AD000DD40C560054D6D6805F44041890B074DFB
:105AE0006B5CC568B5FBF3F5056130BD0010024085
:105AF00000127A0000093D0094000020A40000205C
:105B0000704710B500F002F810BD00000CB5002081
:105B1000019000903348006840F4803031490860BB
:105B200000BF3048006800F4003000900198401C2D
:105B30000190009818B90198B0F5A06FF1D12948EB
:105B4000006800F4003010B10120009001E0002056
:105B500000900098012843D12348006840F01000CD
:105B6000214908600846006820F0030008600846E4
:105B7000006840F0020008601A484068194948600F
:105B80000846406848600846406840F480604860C5
:105B90000846406820F47C1048600846406840F49D
:105BA000E81048600846006840F08070086000BF58
:105BB0000C48006800F000700028F9D009484068DF
:105BC00020F00300074948600846406840F00200A2
:105BD000486000BF0348406800F00C000828F9D175
:105BE0000CBD000000100240002002407047000081
:105BF00010B51248006840F00100104908600846DE
:105C000040680F4908400D494860084600680D4942
:105C100008400A4908600846006820F480200860AF
:105C20000846406820F4FE0048604FF41F0088607A
:105C3000FFF767FF04480549086010BD00100240E7
:105C40000000FFF8FFFFF6FE0050000808ED00E03E
:105C500008B540F224412F4800F05AF9002858D0E6
:105C60002C480088C0B200902A48001D0088C0B2AD
:105C700000902948FFF7B2FD40F20121081A274998
:105C8000098808442549088008460088401E2449A0
:105C900008442249496D48602048406D08301F493A
:105CA00048650846406DC96D884203D11B48001DF8
:105CB000011F486519480088C0F50060B0F5007FF5
:105CC00007DB16480088164908441449496D0860E6
:105CD00006E013481149496D086000200F4908800B
:105CE00000210D48FFF7C8FC00BF0B485838806DF5
:105CF00000F001000028F8D140F20120064958398F
:105D0000C8650648406D0068486601210248FFF7F3
:105D1000B3FC08BD0038014058000240A810002024
:105D2000A808002008B540F224412F4800F0F0F800
:105D3000002858D02C480088C0B200902A48001D86
:105D40000088C0B200902948FFF748FD40F20121C9
:105D5000081A274909880844254908800846008808
:105D6000401E244908442249496D48602048406D3E
:105D700008301F4948650846406DC96D884203D107
:105D80001B48001D011F486519480088C0F50060C8
:105D9000B0F5007F07DB164800881649084414490F
:105DA000496D086006E013481149496D08600020FC
:105DB0000F49088000210D48FFF75EFC00BF0B482B
:105DC0006C38C06E00F001000028F8D140F20120CC
:105DD00006496C3908670648406D006888670121EC
:105DE0000248FFF749FC08BD004400406C00024037
:105DF000082100200819002008B540F224412F484E
:105E000000F086F8002858D02C480088C0B20090D6
:105E10002A48001D0088C0B200902948FFF7DEFC28
:105E200040F20121081A27490988084425490880B9
:105E300008460088401E244908442249496D4860AC
:105E40002048406D08301F4948650846406DC96DBF
:105E5000884203D11B48001D011F4865194800886E
:105E6000C0F50060B0F5007F07DB164800881649D2
:105E700008441449496D086006E013481149496D0A
:105E8000086000200F49088000210D48FFF7F4FB4F
:105E900000BF0B483038006B00F001000028F8D13B
:105EA00040F201200649303948630648406D0068D9
:105EB000C86301210248FFF7DFFB08BD004800402E
:105EC00030000240683100206829002021B1828919
:105ED00042F40052828104E082894DF6FF731A4039
:105EE000828170471AB1838A0B43838202E0838ADE
:105EF0008B438382704702460020B1F5007F00D1BA
:105F000000BF13880B400BB1012000E00020704758
:105F100070B50246002400230025002040F66A16D2
:105F2000B14200D100BFC1F3421501F01F030126A9
:105F300006FA03F3012D02D19689334006E0022DC3
:105F400002D1168A334001E0968A33400C120126B2
:105F500006FA04F41688344013B10CB1012000E0B5
:105F6000002070BDF0B50346002400260025002067
:105F700040F66A17B94200D100BF1846C1F3421477
:105F800001F01F06012707FA06F5012C01D10C309C
:105F900004E0022C01D1103000E014301AB107687F
:105FA0002F43076002E00768AF430760F0BD0000C1
:105FB0002DE9F04786B005460E460024A24600BFF4
:105FC000A1460027B08900B100BF2F462C8A4CF6AD
:105FD000FF700440F08804432C82AC894EF6F31025
:105FE0000440B08831890843718908430443AC8177
:105FF000AC8A4FF6FF400440B0890443AC8201A84C
:10600000FFF714FD1F48874202D1DDF810A001E020
:10601000DDF80CA0A88900F4004040B10AEBCA00EA
:1060200000EB0A1031684900B0FBF1F807E00AEB19
:10603000CA0000EB0A1031688900B0FBF1F8642057
:10604000B8FBF0F004012009642101FB1089A88944
:1060500000F4004040B1322000EBC900B0FBF1F089
:1060600000F00700044308E0322000EB091064212F
:10607000B0FBF1F000F00F0004432C8106B0BDE846
:10608000F087000000380140C1F3080282807047A9
:1060900000BFFEE737B514460846064B6A46214660
:1060A00000F00CFB04466946002000F08AFE204602
:1060B0003EBD0000C36D000802E008C8121F08C101
:1060C000002AFAD170477047002001E001C1121F79
:1060D000002AFBD1704700000FB438B505A8009026
:1060E0001248009A0499FFF7D5FF00200090002481
:1060F0000DE000BF80210E48FFF7FDFE0128F9D119
:106100000A48015D0A48FFF7BFFF601C84B20748D8
:10611000FFF70AF8A042ECD800BF40210448FFF77F
:10612000EAFE0128F9D138BC5DF814FBA800002074
:10613000003801400F48406D0E4A926D904217D0D2
:1061400000200C4A926D526850700A48806D0168B8
:106150000848806D0830074A90651046806DD26D02
:10616000904203D10348001D021F90650846704706
:106170000020FCE7A810002070B505460E4600245C
:106180000BE0295D0648FFF77FFF00BF8021044830
:10619000FFF7B1FE0028F9D0641CB442F1D370BD02
:1061A000003801400FB438B505A800901248009A95
:1061B0000499FFF76FFF0020009000240DE000BF5E
:1061C00080210E48FFF797FE0128F9D10A48015DAA
:1061D0000A48FFF759FF601C84B20748FEF7A4FF86
:1061E000A042ECD800BF40210448FFF784FE0128FC
:1061F000F9D138BC5DF814FB0811002000440040C0
:106200000F48406D0E4A926D904217D000200C4A04
:10621000926D526850700A48806D01680848806D20
:106220000830074A90651046806DD26D904203D1C8
:106230000348001D021F9065084670470020FCE7D8
:106240000821002070B505460E4600240BE0295DAC
:106250000648FFF719FF00BF80210448FFF74BFEF7
:106260000028F9D0641CB442F1D370BD0044004052
:106270000FB438B505A800901248009A0499FFF7AA
:1062800009FF0020009000240DE000BF80210E488F
:10629000FFF731FE0128F9D10A48015D0A48FFF7EE
:1062A000F3FE601C84B20748FEF73EFFA042ECD824
:1062B00000BF40210448FFF71EFE0128F9D138BC79
:1062C0005DF814FB68210020004800400F48406D35
:1062D0000E4A926D904217D000200C4A926D52687F
:1062E00050700A48806D01680848806D0830074A80
:1062F00090651046806DD26D904203D10348001D19
:10630000021F9065084670470020FCE768310020B6
:1063100070B505460E4600240BE0295D0648FFF7E0
:10632000B3FE00BF80210448FFF7E5FD0028F9D047
:10633000641CB442F1D370BD00480040154A0168A6
:1063400091420CD114490A1F516591654831D165BC
:106350001249526D116000210F4A121F1180104A1C
:106360000168914208D10F490A1F51659165483172
:10637000D1650D49526D11600C4A0168914208D1F6
:106380000B490A1F516591654831D1650949526D24
:106390001160704700380140AC100020A8080020B0
:1063A000004400400C210020081900200048004053
:1063B0006C31002068290020014609B1087E10B91F
:1063C0004FF0FF3070470020087600BFFAE700006A
:1063D00010B58CB0044651492068884204D101218F
:1063E0000846FFF7F3FA10E04D492068884204D1CF
:1063F00001210846FFF7EAFA07E04A492068884287
:1064000003D101210846FFF7E1FA444A216891428D
:1064100001D145490EE0424A2168914202D14249E8
:10642000143107E03F4A2168914202D13E492839A0
:1064300000E000210846FFF72BF92068001D0190BD
:1064400000200790059035492068884201D13748DF
:10645000029033492068884201D135480290314981
:106460002068884201D133480290002008908020A3
:1064700006902A492068884202D140F20120049007
:1064800027492068884202D140F201200490254922
:106490002068884202D140F201200490002003903D
:1064A00009900B904FF400500A901C4A21689142C9
:1064B00001D11D490EE01A4A2168914202D11A49C0
:1064C000143107E0174A2168914202D11649283950
:1064D00000E00021084601A9FFF784F90F4A21686E
:1064E000914201D110490EE00D4A2168914202D13A
:1064F0000D49143107E00B4A2168914202D10A4943
:10650000283900E0002108460121FFF7B5F80122F3
:1065100040212068FFF7E6FC0CB010BD00380140B8
:10652000004400400048004058000240A8080020F5
:1065300008190020682900202DE9FF5F82B00021A2
:10654000DDE90430020DDDF840B0034318D044F615
:106550001050A2F2FF3242431514119801281FD0A7
:10656000A5EB0B00401C5FEA000A4FF000064E4FFF
:10657000DFF83891B046504615D5CAF1000413E053
:10658000119801244AA3012801D16FEA0B01029856
:10659000119AC0E90031C0E9024206B0BDE8F09F9F
:1065A000CBF10000DFE704460021404A491842EBE6
:1065B0000450CDE9001012E0E00707D032463B4618
:1065C00040464946FEF7A5FE8046894632463B4690
:1065D00010461946FEF79DFE06460F466410002C35
:1065E000EAD1DDE90401DDE90023BAF1000F06DAA2
:1065F000FEF78FFE42464B46FEF78BFE05E0FEF7A8
:10660000FAFE42464B46FEF7F6FE04460E460022D0
:10661000284BFEF777FF03D84FF0FF30014607E025
:106620000022254B20463146FEF7CCFDFEF752FFF7
:10663000102409E0002C0ADB0A220023FEF791FD5A
:10664000039B30321A55641E50EA0102F2D1641CD9
:10665000039AC4F111031444119A012A03D00122B0
:1066600008430DD10AE0084304D000204FF0110B7D
:10667000119072E7A3EB0B056D1E0DE05B4504DD89
:106680004FF0000205F1010504E003DA4FF00002CB
:10669000A5F10105002AECD002981199C0E9023158
:1066A000C0E9004579E70000000014400000F03F19
:1066B000300000000000F0430000E03F2DE9FF4FF4
:1066C00095B09A46884606460025EEE1252877D102
:1066D00000242746F94A0121039400E0044316F8F8
:1066E000013F203B01FA03F01042F7D130782A280D
:1066F00011D06FF02F033078A0F13002092A16D89C
:10670000039A44F0020402EB820203EB42021044BB
:10671000761C0390EFE758F8042B0392002A03DA63
:10672000504244F40054039044F00204761C307844
:106730002E2816D116F8010F44F004042A280DD093
:106740006FF02F023078A0F13003092B09D807EB46
:10675000870302EB4303C718761CF3E758F8047B62
:10676000761C30786C280FD006DC4C2817D06828AF
:106770000DD06A2814D104E0742810D07A280FD1E3
:106780000DE044F400140AE044F4801401E044F401
:1067900040147278824202D104F58014761C761C73
:1067A000307866280BD013DC582877D009DC002815
:1067B00075D04528F6D04628F4D047281AD193E161
:1067C00018E0632835D0642879D0652812D18BE190
:1067D000702873D008DC6728F1D069286FD06E2844
:1067E0000DD06F2806D1ACE073282CD0752874D05A
:1067F000782853D05246179990476D1C54E1C4F342
:106800000250022809D003280DD0D8F8001004281F
:106810000DD00D6008F1040846E1D8F80010EA1721
:10682000C1E90052F6E7D8F800100D80F2E70D70CC
:10683000F0E718F8041B8DF8001000208DF8010017
:10684000EB46012003E058F804BB4FF0FF3061072E
:106850004FF0000102D40DE009F101018946B9426F
:106860000FDA8145F8DB1BF809100029F4D108E0A4
:1068700009F1010189468142FADB1BF80910002960
:10688000F6D103985346A0EB090721463846179ADC
:1068900000F080FA284400EB090507E044E008E135
:1068A0000DE01BF8010B524617999047B9F1010909
:1068B000F7D2534621463846179AF2E039E00A21CA
:1068C000C4F302524FF0000B0091022A06D058F890
:1068D000040BC117032A09D00AE023E008F10700DE
:1068E00020F00702F2E80201904605E000B2C1176D
:1068F000042A01D140B2C117002906DA0A46002154
:10690000404261EB02012D2202E0220504D52B2238
:106910008DF80420012203E0E20701D02022F7E7EE
:10692000914657E00A2100E010214FF0000B009142
:106930000BE010214FF0000B44F0040408270091F5
:1069400003E008204FF0000B0090C4F30252022A2B
:1069500005D058F8040B0021032A08D008E008F1FC
:10696000070020F00702F2E80201904603E080B23F
:10697000042A00D1C0B24FF0000922072AD532788C
:10698000702A07D0DDF800C08CF0100C5CEA0B0C0C
:1069900005D00EE040228DF80420012208E050EAE4
:1069A000010306D030238DF804308DF80520022233
:1069B0009146009B83F0080353EA0B030AD150EA87
:1069C000010201D1620705D530228DF804204FF075
:1069D00001097F1E3278582A04D039A20C920CAAE1
:1069E00002920BE03BA2F9E75B46009AFEF7B9FB87
:1069F0000C9B9B5C029A521E0292137050EA010299
:106A0000F2D1029804A9081A00F1200B600702D500
:106A100024F4803400E001275F4502DDA7EB0B0082
:106A200000E0002000EB0B01009003984944401A5D
:106A30000390E00306D453462146179A039800F0CA
:106A4000A9F90544002706E001A85246C05D179940
:106A500090476D1C7F1C4F45F6DBE0030CD5534679
:106A60002146179A039800F095F9054404E0302078
:106A70005246179990476D1C0099481E00900029B6
:106A8000F5DC08E00298029952460078491C029110
:106A9000179990476D1CBBF10001ABF1010BF1DCC4
:106AA0005BE100F065F90544761C307800287FF43E
:106AB0000DAE19B02846BDE8F08F0000092801008E
:106AC0003031323334353637383961626364656664
:106AD0000000000030313233343536373839414226
:106AE0004344454600000000600700D4062708F133
:106AF000070020F00700F0E80223804603F0004C76
:106B00005FEA0C0001D097A009E0200501D596A00E
:106B100005E0E00701D095A001E0AFF24C00139032
:106B2000307823F0004365280CD006DC452809D0D6
:106B300046281DD047287FD13BE0662818D067281B
:106B40007AD136E00021112F01DB112000E0781C02
:106B5000CDE9000104A90CA8FFF7EEFCDDE90D0169
:106B60000C9A4FF0000B07F10109109200914EE0D2
:106B70004FF000400097CDE9011004A90CA8FFF7E1
:106B8000DBFCDDE90D020C9B0F994FF0000B9146E9
:106B90001093009211B9791C00EB0109B7EB0900C1
:106BA00003D4C0F1FF3B07F10109A9EB07000190F5
:106BB00042E0012F00DA01270021112F01DD112011
:106BC00000E03846CDE9000104A90CA8FFF7B4FCA9
:106BD000DDE90D010C9A00914FF0000BB9461092BF
:106BE00021070FD4009A4A4503DA914601E0A9F142
:106BF0000109B9F1010F05DD109AA9F10101515CFC
:106C00003029F4D0B84202DA10F1040F03DA01217E
:106C1000CDE9011010E0002803DC8344A9EB00015A
:106C200002E0411C494500DD8946A0EB0B00401CF9
:106C300001904FF000400290200705D4019848458C
:106C400002DB4FF0FF30019000208DF84B000298DE
:106C50000DF14B07B0F1004F25D002200C902B20F6
:106C60000D90029800280CDA404202902D200D90E1
:106C700007E00A210298FEF75EFA3031029007F829
:106C8000011D0C99481E0C900029F2DC0298002886
:106C9000EFD1791E0D980870307800F0200040F098
:106CA000450007F8020D11A8C01BC01D02901398E3
:106CB000007800B1012000EB0901019801EBE071BF
:106CC000029801440398401A401E0390E00306D442
:106CD00053462146179A039800F05CF80544139830
:106CE000007818B15246179990476D1CE00323D5E0
:106CF00053462146179A039800F04CF805441BE0D0
:106D0000BBF1000F07DB0098584504DD1098179978
:106D100010F80B0001E01799302052469047019877
:106D20000BF1010B401E05F10105019004D12E204D
:106D30005246179990476D1CB9F10001A9F101095C
:106D4000DEDC05E017F8010B5246179990476D1CE1
:106D50000299481E02900029F4DC53462146179AF6
:106D600003989EE62D0000002B000000200000008C
:106D70002DE9F041044600251E461746880404D438
:106D800005E039462020B0476D1C641EF9D5284621
:106D9000BDE8F0812DE9F041044600251E469046ED
:106DA000C80301D5302700E02027880404D505E07A
:106DB00041463846B0476D1C641EF9D52846BDE8EB
:106DC000F0810A68531C0B601070704702490880FC
:106DD0000121024A117070479200002090000020AB
:106DE0004FF44070FEF7E6FD4820FFF7EFFF29481B
:106DF00000F0AAF8284800F0A7F8284800F0A4F806
:106E00002448C16926A088472348C16929A088472A
:106E10002248C1692CA088473BE01E49486A804748
:106E20002E4908600846006858B108460068FEF719
:106E30007BF904461748C36928482146026828A000
:106E400098471549486A80472D49086008460068F8
:106E500058B108460068FEF767F904460E48C36952
:106E600027482146026827A098470C49486A80476E
:106E70002C4908600846006858B108460068FEF7CB
:106E800053F904460548C36926482146026826A0EE
:106E90009847C2E7000000202C0000205800002086
:106EA0000D0A546869732069732055415254312189
:106EB0000D0A00000D0A546869732069732055415A
:106EC000525432210D0A00000D0A5468697320697A
:106ED00073205541525433210D0A000084000020D4
:106EE0005541525431207265636569766564202589
:106EF000642062797465733A2025730D0A000000DE
:106F000088000020554152543220726563656976CD
:106F100065642025642062797465733A2025730DB9
:106F20000A0000008C000020554152543320726545
:106F30006365697665642025642062797465733AB7
:106F40002025730D0A00000010B586B004461CB958
:106F50004FF0FF3006B010BD8B492068884204D145
:106F600001218803FEF752FD10E08849206888421D
:106F700004D101214804FEF739FD07E08449206867
:106F8000884203D101218804FEF730FD8149A068C1
:106F9000884204D101210420FEF738FD34E07E4907
:106FA000A068884204D101210820FEF72FFD2BE0C4
:106FB0007A49A068884204D101211020FEF726FDFD
:106FC00022E07749A068884204D101212020FEF701
:106FD0001DFD19E07349A068884204D101214020B9
:106FE000FEF714FD10E07049A068884204D1012129
:106FF0008020FEF70BFD07E06C49A068884203D1B2
:1070000001218015FEF702FD62492069884204D102
:1070100001210420FEF7FAFC34E05F492069884230
:1070200004D101210820FEF7F1FC2BE05B49206927
:10703000884204D101211020FEF7E8FC22E05849E3
:107040002069884204D101212020FEF7DFFC19E0ED
:1070500054492069884204D101214020FEF7D6FC22
:1070600010E051492069884204D101218020FEF7B7
:10707000CDFC07E04D492069884203D101218015EC
:10708000FEF7C4FC18208DF8030003208DF80200E1
:10709000A08980B2ADF800006946A068FEF7C1FB88
:1070A00048208DF8030003208DF80200A08A80B2EA
:1070B000ADF8000069462069FEF7B3FB60680290F6
:1070C0000020ADF814000C20ADF812000020ADF83F
:1070D0001000ADF80E00ADF80C0002A92068FEF714
:1070E00067FF012240F224412068FEF73BFF26495A
:1070F0002068884201D125200CE02449206888427C
:1071000001D1262006E022492068884201D12720AB
:1071100000E000208DF8040001208DF807008DF8B4
:1071200005008DF8060001A8FEF70CFC2046FFF7CD
:107130004FF92046FFF702F901212068FEF7C6FE4D
:1071400011492068884205D11948E0611948206238
:10715000194860620D492068884205D11748E061EE
:10716000174820621748606209492068884205D1A3
:107170001548E06115482062154860621548A06214
:10718000012020760020E5E6003801400044004060
:107190000048004000080140000C01400010014080
:1071A0000014014000180140001C01400020014073
:1071B000D96000087961000835610008A561000800
:1071C000456200080162000871620008116300084E
:1071D000CD620008B9630008F871000800000020C3
:1071E000A8000000B8600008A0720008A8000020F5
:1071F00020350000C86000080038014000100E0073
:1072000000080140000200000008014000040000E6
:10721000000000000000000000000000000000006E
:10722000000000000044004000100E000008014073
:1072300004000000000801400800000000000000F9
:10724000000000000000000000000000000000003E
:107250000048004000100E00000C01400004000037
:10726000000C0140000800000000000000000000C9
:10727000000000000000000000000000000000000E
:1072800000000000000000000000000000000000FE
:1072900001020304010203040607080902040608A8
:04000005080050EDB2
:00000001FF
