:020000040800F2
:10600000B81B0020056100085D700008557000088D
:1060100059700008756D0008D17500080000000077
:106020000000000000000000000000008D72000869
:10603000216F000800000000E57000087973000877
:106040001F6100081F6100081F6100081F61000830
:106050001F6100081F6100081F6100081F61000820
:106060001F6100081F6100081F6100081F61000810
:106070001F6100081F6100081F6100081F61000800
:106080001F6100081F6100081F6100081F610008F0
:106090001F6100081F6100081F6100081F610008E0
:1060A0001F6100081F6100081F6100081F610008D0
:1060B0001F6100081F6100081F6100081F610008C0
:1060C0001F6100081F6100081F6100081F610008B0
:1060D0001F610008DD730008ED730008FD73000800
:1060E0001F6100081F6100081F610008DFF810D061
:1060F00000F0EEFB00480047F19B0008AFF3008082
:10610000B81B00200648804706480047FEE7FEE728
:10611000FEE7FEE7FEE7FEE7FEE7FEE7FEE7FEE757
:106120007D730008ED60000840EA01039B0703D07F
:1061300009E008C9121F08C0042AFAD203E011F8C6
:10614000013B00F8013B521EF9D27047D2B201E088
:1061500000F8012B491EFBD270470022F6E710B56C
:1061600013460A4604461946FFF7F0FF204610BDC5
:1061700030B505462A460B4612F8010B13F8014BC1
:1061800008B1A042F8D01CB1002802D06D1CF1E784
:10619000284630BDCAB2401E10F8011F8A4202D004
:1061A0000029F9D100207047421C10F8011B00297A
:1061B000FBD1801A704730B504460020034600E04A
:1061C0005B1C934203D2E05CCD5C401BF8D030BD39
:1061D0000022CBB20178994200D10246401C00292E
:1061E000F8D11046704700000FB400B58DB010A96B
:1061F00009900B9000914FF0FF300A9000200C9016
:1062000005480690054807906A4609A80F9900F0CE
:1062100079F90DB05DF814FB216500083F650008B1
:106220002DE9FF5F1D464FF0FF3BD5E90146914642
:106230005F464FF00008A9697F1C01988847296ACA
:10624000824688470028F6D1BAF1FF3F0CD024F4EB
:10625000C064002E19DD600614D5BAF12B0F09D0E9
:10626000BAF12D0F0ED103E0584604B0BDE8F09FFF
:1062700044F48064A9697F1C01988847761E824691
:10628000002E02DDBAF1300F03D0B9F1000F26D095
:1062900032E0A969761E44F400747F1C0198884797
:1062A0008246002E05DDBAF1780F06D0BAF1580FFC
:1062B00003D0B9F1000F10D01EE0B9F1000F02D0E9
:1062C000B9F1100F18D1A969761E24F400747F1C4F
:1062D000019888478246102002E0082000E00A204A
:1062E000814609E008FB0908A969761E44F4007498
:1062F0007F1C019888478246002E05DD494650469E
:1063000000F0EBF80028EDDAE96901988847A0056C
:1063100002D46FF00100A8E7E00725D1600613D58D
:10632000600502D5C8F1000000E0404629680A1D5A
:106330002A600968220501D5087015E0220701D5F9
:10634000088011E008600FE02868011D29600068DE
:10635000210502D580F8008006E0210702D5A0F8CB
:10636000008001E0C0F8008038467EE72DE9FF5F3D
:10637000D2E901A74FF00008916999461446DDF86B
:1063800038B0464601988847054659EA0B0005D0C3
:1063900009E0A169761C019888470546216A2846CC
:1063A00088470028F5D1681C03D05FEACA7005D081
:1063B00015E04FF0FF3004B0BDE8F09F2068011DEC
:1063C0002160D0F800800AE05FEACA7001D108F8C5
:1063D000015BA169761C7F1E019888470546002F46
:1063E0001ADD681C18D0B9F1000F0DD0E81705EBC5
:1063F000D060421120F01F0059F822102A1A012003
:1064000090400142E0D107E0BBF1000FDCD1216AEE
:10641000284688470028D7D0E16901988847BBF112
:10642000000F07D1002E05DD5FEACA7002D10021FE
:1064300088F80010A068B84203DDBBF1000F03D05C
:1064400017B16FF00100B6E73046B4E730B50B4640
:10645000014600202022012409E021FA02F59D4294
:1064600005D303FA02F5491B04FA02F52844151E68
:10647000A2F10102F1DC30BD2DE9F05F05460020FC
:1064800092469B4688460646814640241BE02846A5
:1064900041464746224600F03CFA53465A46C01A47
:1064A000914110D311461846224600F023FA2D1AC6
:1064B00067EB01084F4622460120002100F01AFA3E
:1064C00017EB00094E41201EA4F10104DFDC484611
:1064D00031462A464346BDE8F09F3A2800D230387C
:1064E00020F02002412A01D3A2F13700884201D3D3
:1064F0004FF0FF30704700000268114413780160CC
:1065000018467047D1600449516104491162002165
:106510001161114600F024BAF964000857690008B7
:10652000426842B1016811F8013B23B1521EC0E933
:106530000012184670470121C160881E70474268EA
:106540005AB1C368016843B983688B4205D0491EBC
:10655000521CC0E90012002070474FF0FF30704716
:106560002DE9FE4F804681EA0300C00F0C460090E3
:1065700021F0004123F00045B8EB0200A94105D20B
:106580004046214690461C460B46024623F00040FA
:10659000104347D0270DC7F30A00C3F30A510290F6
:1065A000401A019040286BDAC3F3130040F4801BBB
:1065B0000098924620B10023D2EB030A63EB0B0B49
:1065C00001985946C0F14002504600F093F9064642
:1065D0000D4650465946019A00F0ABF910EB080001
:1065E0006141002487EA115284EAE7731A4340D0DC
:1065F000009A62B3019A012A4FEA075215DC001B88
:1066000061EB02014FF0004202EA0752CDE900427D
:10661000001C41F5801132462B4600F048FB03B0C8
:10662000BDE8F08F40462146F9E7001B61EB02010F
:10663000001C41F5801300185B412018A2F50017DB
:1066400047EB030140EAD570B6196D4111E06D08C2
:106650004FEA360645EAC0754FEA0752001B61EB68
:106660000201001C41F5801149084FEA3000001971
:10667000514132462B4603B0BDE8F04F00F008BB55
:106680000098012240000023D0EB020263EBE0738C
:10669000009821464FEAE074B8EB000061EB04017A
:1066A000E9E783F000435BE781F0004158E72DE91B
:1066B000FE4F81EA030404F0004421F000410094FD
:1066C0004FF0000B23F0004350EA01045ED052EA81
:1066D00003045BD0C3F30A54C1F30A552C44A4F25B
:1066E000F3340194A0FB0254C1F3130141F480116F
:1066F000C3F3130343F4801301FB024400FB034E76
:10670000840A970A44EA815447EA8357A4FB07683E
:1067100002958D0A05FB07854FEA932C04FB0C5468
:106720002705029D4FEA065847EA1637B5EB0805DC
:106730006EEB070C870E920E47EA811742EA83122E
:10674000A7FB0201B6EB0B0164EB00042B0D43EA3F
:106750000C335E1844EB1C50DA465146E7FB02014D
:10676000C5F313044FEA0B3343EA14534FEA0432E0
:10677000019C43EA0603A4F10C040294009CCDE9B9
:1067800000B400F094FA03B0BDE8F08F0020014699
:10679000F9E72DE9F04D81EA030404F0004B21F004
:1067A000004514464FF0000A23F0004150EA05026C
:1067B00020D054EA01021DD0C5F30A570246C5F3A2
:1067C0001303C1F31300C1F30A5640F4801543F4D8
:1067D0008013A7EB0608101BD64608F2FD3873EBB2
:1067E000050002D308F1010801E092185B41B8F1FD
:1067F000000F03DA00200146BDE8F08D00204FF4C1
:106800008011064684460EE0171B73EB050705D37F
:10681000121B63EB050306434CEA010C49084FEADF
:10682000300092185B4150EA0107EDD152EA0300B3
:1068300012D082EA040083EA0501084305D0101B48
:10684000AB4106D20122002306E000224FF00043B4
:1068500002E06FF0010253101AEB06004CEB0851F6
:1068600010EB0A0041EB0B01BDE8F04D00F010BA4F
:10687000C1F30A52C1F3130140F2FF3341F4801116
:106880009A4202DA00200146704740F233439A42AE
:10689000A2F2334202DC524200F03BB800F02AB8C8
:1068A00030B5041E71F1000404DB4FF00044404297
:1068B00064EB0101141E73F1000405DB1C464FF06C
:1068C0000043524263EB0403994208BF904230BD3B
:1068D000064C074D06E0E06840F0010394E807002D
:1068E00098471034AC42F6D3FFF704FC70C8000898
:1068F00090C80008202A04DB203A00FA02F10020A8
:1069000070479140C2F1200320FA03F319439040ED
:106910007047202A04DB203A21FA02F00021704758
:1069200021FA02F3D040C2F12002914008431946F7
:106930007047202A06DBCB17203A41FA02F043EADF
:10694000E07306E041FA02F3D040C2F12002914028
:10695000084319467047C0B24FF4F05100F0F6B941
:106960002DE9F34F8BB04FF0000801F10C000C46FD
:106970004FF0010B46460DF1080A019062690121B2
:1069800001989047051E2DD0252D2CD0216A8847CF
:10699000C0B16269012101989047216A88470028A7
:1069A000F7D1411E62690198904700E0761CA16909
:1069B0000B988847216A88470028F7D1E1690B982E
:1069C0008847DBE7A1690B9888470746A84201D1B1
:1069D000761CD3E7E1690B9888477F1C02D1B8F198
:1069E000000F6FD047E1002762693D4639460198A4
:1069F00090472A2804D16269012101989047012516
:106A0000DFF888926269012101989047A0F1300176
:106A10000A290AD24F45E5DC07EB870100EB410765
:106A2000303FDFD445F01005ECE7E90601D46FF004
:106A300000476C280AD04C2814D0682815D06A2842
:106A40000DD074281CD07A281AD01DE0626901216B
:106A5000019890476C2802D045F0040514E045F0F9
:106A600002050DE045F020050AE062690121019868
:106A70009047682802D045F0080505E045F4006518
:106A80006269012101989047C4E9015765283DD00A
:106A900019DC58287AD00CDC452837D004DC2528AE
:106AA00026D0412831D131E046282FD047282CD19B
:106AB0002CE05B2877D0612828D063287CD064281C
:106AC00023D15AE0D1E06F2848D008DC66281DD0D9
:106AD00067281BD0692821D06E2816D127E070289E
:106AE00045D0732868D0752847D078280DD14DE05F
:106AF000A1690B988847054625283FF469AFE169ED
:106B00000B9888476D1C3FF46AAFB4E023466A4691
:106B10006FF001000B99AFF300809FE045F040005B
:106B20006060A80723464FF0000236D43EE0E80735
:106B30007FF447AF2068011D21600068290501D559
:106B400006701BE7290701D5068017E7A90703D5BB
:106B5000F117C0E9006111E706600FE745F040005A
:106B60006060A80723464FF0080216D41EE040F6E6
:106B70000E0125EA0100606016E045F0400060600B
:106B8000A80723464FF00A0207D40FE045F0400063
:106B90006060A80708D5234610226FF001000B990A
:106BA000AFF300805AE007E0234610226FF00100A7
:106BB0000B99FFF735FB51E04FF000094F464B466C
:106BC000632802D05B2807D041E02079C00601D4B9
:106BD0000120A06001273AE06269012101989047F5
:106BE0005E2805D14FF00109626949460198904736
:106BF000216939B900210A46534643F82120491C2E
:106C00000829FADBB0B3216969B9C11700EBD16279
:106C100053110AEB830122F01F02821A01200B6834
:106C2000904003430B6062690121019890475D2801
:106C3000E8D1B9F1000F09D00020514651F82020C9
:106C4000D24341F82020401C0828F7DB02AB224643
:106C500000976FF001000B99FFF788FB00280CDA12
:106C6000401C08D1BBF1000F05D04FF0FF300DB034
:106C7000BDE8F08FFFE74046F9E7E90701D108F1E9
:106C8000010806444FF0000B78E60000CCCCCC0C99
:106C900010B5141E73F1000408DA401C41F1000124
:106CA00092185B411A4301D120F0010010BD2DE97B
:106CB000F04D92469B4611B1B1FA81F202E0B0FA72
:106CC00080F220329046FFF715FE04460F4640EA58
:106CD0000A0041EA0B0153465A46084313D01146B5
:106CE00053EA010019D0C8F140025046FFF711FEE7
:106CF00005460E46504659464246FFF7FBFD0843FF
:106D000005D0012004E020463946BDE8F08D002082
:106D1000054346EAE0762C4337430A986305E40AC4
:106D2000A0EB08000022FD0A44EA47540A3002D5CD
:106D300000200146E9E7010510196941DDE9084530
:106D400000196941BDE8F04DA2E700007F2801D994
:106D5000002208E0064A02EB5002C007127800D178
:106D6000120902F00F020120904008407047000015
:106D7000B4C6000800BFFEE721B1026842F001027C
:106D8000026004E002684FF6FE731A40026070472A
:106D900001684FF6FE721140016000210160416000
:106DA0008160C1604B49884208D14A490839496825
:106DB00041F00F01474A083A51608AE045491431D1
:106DC000884208D143490839496841F0F001414AF5
:106DD000083A51607DE03F492831884208D13D4959
:106DE0000839496841F470613A4A083A516070E0E4
:106DF00038493C31884208D136490839496841F45C
:106E00007041344A083A516063E032495031884257
:106E100008D130490839496841F470212D4A083AAF
:106E2000516056E02B496431884208D1294908391C
:106E3000496841F47001274A083A516049E0254900
:106E40007831884208D123490839496841F0706196
:106E5000204A083A51603CE01F49884206D1011F90
:106E6000096841F00F01021F116032E01A49143124
:106E7000884208D11849091F096841F0F001164AF3
:106E8000121F116025E014492831884208D11249A7
:106E9000091F096841F470610F4A121F116018E060
:106EA0000D493C31884208D10B49091F096841F45A
:106EB0007041094A121F11600BE0074950318842A6
:106EC00007D10549091F096841F47021024A121FC0
:106ED00011607047080002400804024001464868FB
:106EE00080B2704710B50022026847F6F0739A43EB
:106EF0000C6A8B6823430C6923434C6923438C69D8
:106F00002343CC6923434C6A23438C6A23431A43AB
:106F10000260CB6843600B6883604B68C36010BD40
:106F200070472DE9F041024600250026002000238D
:106F30000024002791F803C00CF00F0591F803C05E
:106F40000CF0100CBCF1000F03D091F802C04CEA19
:106F5000050591F800C0BCF1000F31D01468002085
:106F60002BE04FF0010C0CFA00F3B1F800C00CEA72
:106F700003069E4220D183004FF00F0C0CFA03F75A
:106F8000BC4305FA03FC4CEA040491F803C0BCF1CD
:106F9000280F06D14FF0010C0CFA00FCC2F814C007
:106FA0000AE091F803C0BCF1480F05D14FF0010C85
:106FB0000CFA00FCC2F810C0401C0828D1D31460A1
:106FC000B1F800C0BCF1FF0F34DD546800202EE0A2
:106FD00000F1080C4FF0010808FA0CF3B1F800C0FA
:106FE0000CEA03069E4221D183004FF00F0C0CFAED
:106FF00003F7BC4305FA03FC4CEA040491F803C010
:10700000BCF1280F05D100F1080C08FA0CF8C2F801
:10701000148091F803C0BCF1480F07D100F1080CAF
:107020004FF0010808FA0CF8C2F81080401C08283C
:10703000CED35460BDE8F0810246002093680B4037
:107040000BB1012000E0002070470AB1016100E0AF
:107050004161704700BFFEE700BFFEE770470000D8
:1070600070B5002100230F22C47804B3154C2468A6
:1070700004F4E064C4F5E064210AC1F10403CA40E9
:10708000447804FA03F184781440214309010E4C3A
:107090000678A155047804F01F050124AC4005785A
:1070A0006D11AD0005F1E025C5F8004109E0047857
:1070B00004F01F050124AC40044D0678761145F814
:1070C000264070BD0CED00E000E400E080E100E04F
:1070D00002490143024A1160704700000000FA05AE
:1070E0000CED00E07047000029B1064A52690243E6
:1070F000044B5A6104E0034A52698243014B5A61CE
:10710000704700000010024029B1064AD2690243CC
:10711000044BDA6104E0034AD2698243014BDA612D
:10712000704700000010024029B1064A92690243EC
:10713000044B9A6104E0034A92698243014B9A61CD
:10714000704700000010024030B5002100220024EA
:1071500000232D4D6D6805F00C0121B1042905D0E7
:10716000082923D105E0294D056022E0274D05605F
:107170001FE0254D6D6805F47012234D6D6805F410
:107180008034022505EB92421CB9214D5543056020
:107190000BE01D4D6D6805F400351DB11C4D5543C8
:1071A000056002E0194D5543056002E0174D05608A
:1071B00000BF00BF144D6D6805F0F0010909154DC1
:1071C0006B5C0568DD4045600F4D6D6805F4E0615E
:1071D000090A104D6B5C4568DD4085600A4D6D689D
:1071E00005F46051C90A0B4D6B5C4568DD40C56014
:1071F000054D6D6805F44041890B074D6B5CC56812
:10720000B5FBF3F5056130BD0010024000127A00B5
:1072100000093D008C0000209C00002021B1028864
:1072200042F04002028004E002884FF6BF731A4029
:10723000028070470246002013890B400BB10120E9
:1072400000E00020704701468889704781817047BF
:1072500010B50022028802F441520B884C88234367
:107260008C882343CC8823430C8923434C892343B4
:107270008C892343CC8923431A430280838B4FF2AA
:10728000FF74234083830B8A038210BD704710B5BF
:1072900000F002F810BD00000CB500200190009035
:1072A0003348006840F480303149086000BF3048FE
:1072B000006800F4003000900198401C0190009894
:1072C00018B90198B0F5A06FF1D12948006800F411
:1072D000003010B10120009001E0002000900098E3
:1072E000012843D12348006840F01000214908607C
:1072F0000846006820F0030008600846006840F077
:10730000020008601A484068194948600846406809
:1073100048600846406840F480604860084640681D
:1073200020F47C1048600846406840F4E81048604B
:107330000846006840F08070086000BF0C48006894
:1073400000F000700028F9D00948406820F00300E0
:10735000074948600846406840F00200486000BFA6
:107360000348406800F00C000828F9D10CBD00006B
:1073700000100240002002407047000010B5124883
:10738000006840F0010010490860084640680F4955
:1073900008400D494860084600680D4908400A4900
:1073A00008600846006820F48020086008464068AD
:1073B00020F4FE0048604FF41F008860FFF767FF6D
:1073C00004480549086010BD001002400000FFF8A5
:1073D000FFFFF6FE0060000808ED00E010B502486F
:1073E00004F0BEFC10BD00000038014010B502489A
:1073F00004F0B6FC10BD00000044004010B5024887
:1074000004F0AEFC10BD00000048004021B18289AC
:1074100042F40052828104E082894DF6FF731A40E3
:10742000828170471AB1838A0B43838202E0838A88
:107430008B438382704702460020B1F5007F00D164
:1074400000BF13880B400BB1012000E00020704703
:1074500070B50246002400230025002040F66A167D
:10746000B14200D100BFC1F3421501F01F03012654
:1074700006FA03F3012D02D19689334006E0022D6E
:1074800002D1168A334001E0968A33400C1201265D
:1074900006FA04F41688344013B10CB1012000E060
:1074A000002070BDF0B50346002400260025002012
:1074B00040F66A17B94200D100BF1846C1F3421422
:1074C00001F01F06012707FA06F5012C01D10C3047
:1074D00004E0022C01D1103000E014301AB107682A
:1074E0002F43076002E00768AF430760F0BD00006C
:1074F0002DE9F04786B005460E460024A24600BF9F
:10750000A1460027B08900B100BF2F462C8A4CF657
:10751000FF700440F08804432C82AC894EF6F310CF
:107520000440B08831890843718908430443AC8121
:10753000AC8A4FF6FF400440B0890443AC8201A8F6
:10754000FFF702FE1F48874202D1DDF810A001E0DC
:10755000DDF80CA0A88900F4004040B10AEBCA0095
:1075600000EB0A1031684900B0FBF1F807E00AEBC4
:10757000CA0000EB0A1031688900B0FBF1F8642002
:10758000B8FBF0F004012009642101FB1089A889EF
:1075900000F4004040B1322000EBC900B0FBF1F034
:1075A00000F00700044308E0322000EB09106421DA
:1075B000B0FBF1F000F00F0004432C8106B0BDE8F1
:1075C000F087000000380140C1F308028280704754
:1075D00000BFFEE70FB47CB50C0009AD01D0611E01
:1075E00000E00021CDE90001064B6A4629460898D3
:1075F00000F00AF9002C02D0009A002111707CBC26
:107600005DF814FB0F7F00080FB4084B10B504A9F8
:1076100002AA039800F0F8F8044602A9002000F03E
:1076200081FC204610BC5DF814FB0000257F00089B
:107630007CB50C001D461646014601D0601E00E0D8
:107640000020CDE90010064B6A462946304600F07E
:10765000DBF8002C02D0009A002111707CBD0000E4
:107660000F7F000802E008C8121F08C1002AFAD1E3
:1076700070477047002001E001C1121F002AFBD1B2
:10768000704700002DE9FF5F82B00021DDE9043082
:10769000020DDDF840B0034318D044F61050A2F2BA
:1076A000FF3242431514119801281FD0A5EB0B009F
:1076B000401C5FEA000A4FF000064E4FDFF8389199
:1076C000B046504615D5CAF1000413E011980124C4
:1076D0004AA3012801D16FEA0B010298119AC0E96F
:1076E0000031C0E9024206B0BDE8F09FCBF10000D6
:1076F000DFE704460021404A491842EB0450CDE937
:10770000001012E0E00707D032463B4640464946AB
:10771000FEF7CDFF8046894632463B461046194665
:10772000FEF7C5FF06460F466410002CEAD1DDE9DE
:107730000401DDE90023BAF1000F06DAFEF7B7FF16
:1077400042464B46FEF7B3FF05E0FFF722F84246FC
:107750004B46FFF71EF804460E460022284BFFF763
:107760009FF803D84FF0FF30014607E00022254B79
:1077700020463146FEF7F4FEFFF77AF8102409E0C0
:10778000002C0ADB0A220023FEF776FE039B303230
:107790001A55641E50EA0102F2D1641C039AC4F126
:1077A00011031444119A012A03D0012208430DD178
:1077B0000AE0084304D000204FF0110B119072E74B
:1077C000A3EB0B056D1E0DE05B4504DD4FF00002E1
:1077D00005F1010504E003DA4FF00002A5F101050F
:1077E000002AECD002981199C0E90231C0E90045A5
:1077F00079E70000000014400000F03F3000000076
:107800000000F0430000E03F2DE9FF4F95B09A469D
:10781000884606460025EEE1252877D10024274634
:10782000F94A0121039400E0044316F8013F203B8C
:1078300001FA03F01042F7D130782A2811D06FF006
:107840002F033078A0F13002092A16D8039A44F0A9
:10785000020402EB820203EB42021044761C039006
:10786000EFE758F8042B0392002A03DA504244F45D
:107870000054039044F00204761C30782E2816D170
:1078800016F8010F44F004042A280DD06FF02F02DF
:107890003078A0F13003092B09D807EB870302EBFE
:1078A0004303C718761CF3E758F8047B761C30783E
:1078B0006C280FD006DC4C2817D068280DD06A2819
:1078C00014D104E0742810D07A280FD10DE044F4CC
:1078D00000140AE044F4801401E044F44014727887
:1078E000824202D104F58014761C761C307866281A
:1078F0000BD013DC582877D009DC002875D0452838
:10790000F6D04628F4D047281AD193E118E063282E
:1079100035D0642879D0652812D18BE1702873D0D6
:1079200008DC6728F1D069286FD06E280DD06F2849
:1079300006D1ACE073282CD0752874D0782853D0A9
:107940005246179990476D1C54E1C4F30250022827
:1079500009D003280DD0D8F8001004280DD00D60F0
:1079600008F1040846E1D8F80010EA17C1E900520E
:10797000F6E7D8F800100D80F2E70D70F0E718F880
:10798000041B8DF8001000208DF80100EB4601204B
:1079900003E058F804BB4FF0FF3061074FF00001DF
:1079A00002D40DE009F101018946B9420FDA81459F
:1079B000F8DB1BF809100029F4D108E009F10101F6
:1079C00089468142FADB1BF809100029F6D1039899
:1079D0005346A0EB090721463846179A00F080FA73
:1079E000284400EB090507E044E008E10DE01BF83E
:1079F000010B524617999047B9F10109F7D2534646
:107A000021463846179AF2E039E00A21C4F30252BF
:107A10004FF0000B0091022A06D058F8040BC11752
:107A2000032A09D00AE023E008F1070020F007024A
:107A3000F2E80201904605E000B2C117042A01D124
:107A400040B2C117002906DA0A460021404261EB24
:107A500002012D2202E0220504D52B228DF80420FC
:107A6000012203E0E20701D02022F7E7914657E028
:107A70000A2100E010214FF0000B00910BE01021D3
:107A80004FF0000B44F004040827009103E00820A5
:107A90004FF0000B0090C4F30252022A05D058F8B0
:107AA000040B0021032A08D008E008F1070020F0A9
:107AB0000702F2E80201904603E080B2042A00D1F6
:107AC000C0B24FF0000922072AD53278702A07D0B9
:107AD000DDF800C08CF0100C5CEA0B0C05D00EE059
:107AE00040228DF80420012208E050EA010306D06C
:107AF00030238DF804308DF8052002229146009B3A
:107B000083F0080353EA0B030AD150EA010201D1C2
:107B1000620705D530228DF804204FF001097F1E41
:107B20003278582A04D039A20C920CAA02920BE0A7
:107B30003BA2F9E75B46009AFEF79EFC0C9B9B5C20
:107B4000029A521E0292137050EA0102F2D1029878
:107B500004A9081A00F1200B600702D524F4803430
:107B600000E001275F4502DDA7EB0B0000E00020ED
:107B700000EB0B01009003984944401A0390E00386
:107B800006D453462146179A039800F0A9F90544F4
:107B9000002706E001A85246C05D179990476D1C6A
:107BA0007F1C4F45F6DBE0030CD553462146179A60
:107BB000039800F095F9054404E0302052461799E7
:107BC00090476D1C0099481E00900029F5DC08E0E4
:107BD0000298029952460078491C029117999047E1
:107BE0006D1CBBF10001ABF1010BF1DC5BE100F0BE
:107BF00065F90544761C307800287FF40DAE19B085
:107C00002846BDE8F08F00000928010030313233EA
:107C100034353637383961626364656600000000C8
:107C200030313233343536373839414243444546B2
:107C300000000000600700D4062708F1070020F0CC
:107C40000700F0E80223804603F0004C5FEA0C00D6
:107C500001D097A009E0200501D596A005E0E00736
:107C600001D095A001E0AFF24C001390307823F0E2
:107C7000004365280CD006DC452809D046281DD0D5
:107C800047287FD13BE0662818D067287AD136E0B4
:107C90000021112F01DB112000E0781CCDE900014B
:107CA00004A90CA8FFF7EEFCDDE90D010C9A4FF0DA
:107CB000000B07F10109109200914EE04FF00040D7
:107CC0000097CDE9011004A90CA8FFF7DBFCDDE962
:107CD0000D020C9B0F994FF0000B914610930092F0
:107CE00011B9791C00EB0109B7EB090003D4C0F10D
:107CF000FF3B07F10109A9EB0700019042E0012FCA
:107D000000DA01270021112F01DD112000E03846A3
:107D1000CDE9000104A90CA8FFF7B4FCDDE90D01D1
:107D20000C9A00914FF0000BB946109221070FD426
:107D3000009A4A4503DA914601E0A9F10109B9F137
:107D4000010F05DD109AA9F10101515C3029F4D031
:107D5000B84202DA10F1040F03DA0121CDE9011073
:107D600010E0002803DC8344A9EB000102E0411C81
:107D7000494500DD8946A0EB0B00401C01904FF007
:107D800000400290200705D40198484502DB4FF0DF
:107D9000FF30019000208DF84B0002980DF14B0749
:107DA000B0F1004F25D002200C902B200D900298AE
:107DB00000280CDA404202902D200D9007E00A21A5
:107DC0000298FEF743FB3031029007F8011D0C9931
:107DD000481E0C900029F2DC02980028EFD1791E91
:107DE0000D980870307800F0200040F0450007F84A
:107DF000020D11A8C01BC01D02901398007800B19D
:107E0000012000EB0901019801EBE07102980144A7
:107E10000398401A401E0390E00306D453462146BF
:107E2000179A039800F05CF805441398007818B18D
:107E30005246179990476D1CE00323D553462146BF
:107E4000179A039800F04CF805441BE0BBF1000FB3
:107E500007DB0098584504DD1098179910F80B00BF
:107E600001E0179930205246904701980BF1010B21
:107E7000401E05F10105019004D12E2052461799AC
:107E800090476D1CB9F10001A9F10109DEDC05E0A4
:107E900017F8010B5246179990476D1C0299481E1E
:107EA00002900029F4DC53462146179A03989EE677
:107EB0002D0000002B000000200000002DE9F04103
:107EC000044600251E461746880404D405E03946BA
:107ED0002020B0476D1C641EF9D52846BDE8F0810E
:107EE0002DE9F041044600251E469046C80301D501
:107EF000302700E02027880404D505E041463846B5
:107F0000B0476D1C641EF9D52846BDE8F0814A686B
:107F1000002A06D00A68531C0B6010704868401E87
:107F2000486070470A68531C0B601070704700006F
:107F3000F8B5054600F026FA064640212846FEF729
:107F40000CF930682B4640220021C7683046B847FC
:107F5000044644B105A31A220CA113A0009401F019
:107F600001FE2046F8BD0020FCE700004661696C78
:107F7000656420746F207265616420656570726F3E
:107F80006D20646174613A20256400002E2E5C2E01
:107F90002E5C6170705C6F74615C626F6F745F7394
:107FA000746F72652E6300005B4552524F525D0044
:107FB0002DE9F8430646B04600F0E4F907460024F0
:107FC00018E008EBC402E006010E38688368384602
:107FD000984705464DB118A337221FA125A000954B
:107FE00001F0C0FD2846BDE8F883052000F0BDF98A
:107FF000601CC4B2082CE4D320A33E2216A129A001
:1080000001F0B0FD402029A33F2213A1009025A03C
:1080100001F0A8FD08202BA340220FA1009021A071
:1080200001F0A0FD08202DA341220BA100901DA06E
:1080300001F098FD0020D6E74661696C6564207404
:108040006F20777269746520656570726F6D20703E
:108050006167653A202564002E2E5C2E2E5C6170CF
:10806000705C6F74615C626F6F745F73746F726564
:108070002E6300005B4552524F525D0041707020EC
:10808000696E666F20736176656420746F20454564
:1080900050524F4D207375636365737366756C6CD6
:1080A000790000005B494E464F5D20002020536957
:1080B0007A652020202020203A20256420627974CF
:1080C000657300002020506167652073697A652020
:1080D0003A20256420627974657300002020506185
:1080E00067657320202020203A20256400000000CE
:1080F0002DE9F8434FF44070FEF7EAFF00F02EF947
:108100008146D9F8000001684846884704464CB1CA
:108110002DA3192234A13AA0009401F023FD20469A
:10812000BDE8F88300F0F2F90546286801682846A2
:108130008847044644B134A320222BA130A00094E8
:1081400001F010FD2046EBE700F01CF90646306810
:10815000016830468847044644B133A3272222A150
:1081600027A0009401F0FEFC2046D9E700F072F948
:1081700007463868016838468847044644B132A348
:108180002E2219A11EA0009401F0ECFC2046C7E7A6
:1081900000F016FA8046D8F800000168404688478B
:1081A000044644B131A335220FA115A0009401F07B
:1081B000D9FC2046B4E734A339220BA13CA001F03E
:1081C000D1FC0020ACE700004661696C6564207456
:1081D0006F20696E6974206273702064656C6179C8
:1081E0003A202564000000002E2E5C2E2E5C627367
:1081F000705C6273705F636F6D6D6F6E2E630000F5
:108200005B4552524F525D004661696C6564207453
:108210006F20696E697420627370206932635F62D7
:1082200075733A20256400004661696C65642074AA
:108230006F20696E69742062737020656570726F5B
:108240006D3A2025640000004661696C6564207405
:108250006F20696E6974206273702065787420667F
:108260006C6173683A202564000000004661696C07
:10827000656420746F20696E697420627370206E6B
:1082800065743A20256400003D3D3D3D3D3D205B49
:1082900042535020496E697420537563636573734C
:1082A00066756C6C795D203D3D3D3D3D3D0D0A00A0
:1082B0005B494E464F5D2000004870470C0000208F
:1082C000004870471400002010B504460249606859
:1082D00000F004FB10BD0000A4C500080FB438B5C1
:1082E00005466C6806A8009054B1E06A40B1E06AA7
:1082F000006828B1E06A03682046009A059998470B
:108300000020009038BC5DF814FB2DE9F0410446D4
:108310000E4617466568E86A3A46314603692846BC
:108320009847BDE8F0812DE9F04104460E46174616
:108330006568E86A3A4631468368284698470020CF
:10834000BDE8F081F7B504460E466568E86A036843
:1083500031462846029A9847FEBD00000048704703
:108360001800002001460020704710B50446204642
:1083700000F0A8F910BD10B50446204600F0B2F98F
:1083800010BD0000004870472000002010B50446D2
:1083900000F0C0F8074908600846006810B96FF09F
:1083A000040010BD082003490871606800F0D0F98E
:1083B000F7E70000280000202DE9F04105460E46B1
:1083C000174698466C681CB96FF00400BDE8F08150
:1083D000A06843463A463146D0F808C02046E047F8
:1083E000F4E72DE9F04105460E4617466C681CB9C6
:1083F0006FF00400BDE8F081A0683A46314603689A
:1084000020469847F6E72DE9F04105460E46174607
:108410006C681CB96FF00400BDE8F081A0683A46B2
:108420003146436820469847F6E770B504460E4645
:108430006568E868314602692846904770BD70B5A6
:1084400004460E466568E8683146C268284690478B
:1084500070BD0000004870473C00002070B5044625
:108460000649074800F024FA45B20DB1284670BD10
:108470000449606800F064FAF9E70000F4C50008F8
:108480001408002014C600082DE9F04104460E46E9
:10849000174698466568E86843463A463146D0F83C
:1084A00014C02846E047BDE8F0812DE9F0410446BC
:1084B0000E4617466568E8683A463146036828461E
:1084C0009847BDE8F0812DE9F04104460E46174675
:1084D00098466568E86843463A463146D0F808C091
:1084E0002846E047BDE8F0812DE9F04104460E46FC
:1084F000174698466568E86843463A463146D0F8DC
:1085000004C02846E047BDE8F081000000487047FD
:10851000440000200048704758C6000810B50446C3
:108520000249606800F0A6F910BD00003CC60008D2
:10853000F8B504460D4616461F4605480097806963
:1085400033462A462146D0F81CC00148E047F8BD12
:10855000480800202DE9F04104460D46164605481E
:10856000806933462A462146076A0248B847BDE873
:10857000F081000048080020F8B504460D46164674
:108580001F4605480097806933462A462146D0F8A1
:1085900024C00148E047F8BD4808002070B50446F3
:1085A0000E466568E869314642692846904770BDC5
:1085B00070B504466568E86981692846884770BDDA
:1085C000004870477000002070B50446666809498D
:1085D000094800F083F905460DB1284670BD0748EB
:1085E00007490860FFF76CFE05494860304600F017
:1085F000BFF8F3E764C60008640800204C000020C0
:10860000540000202DE9F04104460E4617469846D6
:108610006568E86943463A463146D0F820C02846A6
:10862000E047BDE8F0812DE9F84304460E461746C1
:108630009846DDF820906568CDF80090E8694346DB
:108640003A463146D0F800C02846E047BDE8F883F6
:108650002DE9F04104460E4617466568E8693A463A
:108660003146C36928469847BDE8F0812DE9F041BD
:1086700004460E4617466568E8693A463146C368BF
:1086800028469847BDE8F08170B504466568E869FA
:1086900001692846884770BD2DE9F04104460E4621
:1086A00017466568E8693A46314643682846984760
:1086B000BDE8F08170B504466568E86981682846C0
:1086C000884770BD10B5044604B910BD03E04FF4EF
:1086D0007A7000F007F8201EA4F10104F7D100BF62
:1086E000F3E7000000B970474FF0E022126942F052
:1086F00004024FF0E0231A61134A1268134BB2FBD5
:10870000F3F24243521E4FF0E0235A6100229A6175
:108710001A46126942F001021A6100BF4FF0E022CE
:10872000116901F001021AB101F48032002AF5D07A
:108730004FF0E022126922F001024FF0E0231A61AB
:1087400000229A6100BFCEE77800002040420F006F
:10875000024602B111B96FF004007047D1E900037D
:10876000C2E90003014890600020F6E7C8C4000891
:108770007CB504460D460020019004B115B96FF098
:1087800004007CBD1C2229462046FDF7CDFC16487E
:10879000E06116A1204600F089FA4FF4FA712046F4
:1087A00000F050F940F6B8300090E06901AB1EA22D
:1087B0001EA106682046B04710B16FF00A00E0E73E
:1087C00040F6B8300090E06901AB17A219A1066825
:1087D0002046B04710B16FF00A00D2E716A120463C
:1087E00000F064FA0020CCE7D8C400080D0A3D3D33
:1087F0003D3D3D3D3D3D3D3D3D3D3D3D3D3D3D3DA9
:108800003D3D204553503832363620494E4954209C
:108810003D3D3D3D3D3D3D3D3D3D3D3D3D3D3D3D88
:108820003D3D3D3D0D0A00004F4B00004154453099
:1088300000000000415400003D3D3D3D3D3D3D3DBB
:108840003D3D3D3D3D3D3D3D3D3D20455350383254
:10885000363620494E495420444F4E45203D3D3D3B
:108860003D3D3D3D3D3D3D3D3D3D3D3D3D3D0D0A9B
:108870000000000070B505460C4605B114B96FF054
:10888000040070BD182221462846FDF74DFC07481C
:10889000A861204600F085FF0121284601F04EF82E
:1088A0000121284601F070F80020EAE700C5000821
:1088B00070B505460C4605B114B96FF0040070BDE3
:1088C000202221462846FDF72FFC03482862204637
:1088D00003F00AF80020F2E72CC5000870B5064640
:1088E0000D4606B115B96FF0040070BD698CA88CF7
:1088F000401C814202DA6FF00500F6E7286803F0B9
:10890000B5FA044614B96FF00500EEE7201D606566
:10891000A0654830E065E869616D0860002020804E
:108920002666346028222946301DFDF7FDFB0348EA
:10893000F062284603F05CF90020D6E76CC5000819
:1089400070B505460C4605B114B96FF0040070BD52
:1089500094E8070085E807000348E860204603F034
:10896000FAFB0020F3E7000084C50008014611B9B6
:108970006FF0040070470020886000BFFAE72DE91F
:10898000F04104460D4616461F461CB96FF0040020
:10899000BDE8F08120683B4632462946D0F808C041
:1089A0005020E047F4E770B504460D46164614B96A
:1089B0006FF0040070BD20683246294603685020DD
:1089C0009847F7E72DE9F04104460E4615461CB9D5
:1089D0006FF00400BDE8F081227920682B46314613
:1089E00047685020B847F5E77CB504460020019061
:1089F00000900026E06830B1208A002803DD218A3B
:108A0000E068FDF7AAFB11E020686946426801A80A
:108A1000904705462DB9019818B1009808B1002675
:108A200000E0761C0121204600F00CF8052EEBDB5F
:108A30007CBD014611B96FF0040070470020C86189
:108A400000BFFAE770B504460D462846A16888477E
:108A500070BD000070B58AB004460D46002001903C
:108A600014B9401F0AB070BD22A1204600F01EF9C3
:108A700040F6B8300090E06901AB2DA22DA1066848
:108A80002046B04710B16FF00A00EBE795B940F609
:108A9000B8300090E06901AB2AA22BA106682046FD
:108AA000B04710B16FF00A00DCE72AA1204600F0C1
:108AB000FDF818E02B4632A2202102A8FEF78AFD1D
:108AC00040F6B8300090E06901AB1EA202A906682A
:108AD0002046B04710B16FF00A00C3E72A462CA128
:108AE000204600F0E3F834A1204600F0DFF8002033
:108AF000B8E700000D0A3D3D3D3D3D3D3D3D3D3D5E
:108B00003D204553503832363620454E544552208C
:108B10005452414E53504152454E54204D4F4445BE
:108B2000203D3D3D3D3D3D3D3D3D3D3D0D0A00006F
:108B30004F4B000041542B4349504D4F44453D316C
:108B4000000000003E00000041542B4349505345B3
:108B50004E440000456E746572207472616E7370CD
:108B60006172656E74206D6F64652028696E64653E
:108B700066696E697465206C656E677468290000AB
:108B800041542B43495053454E443D256400000059
:108B9000456E746572207472616E73706172656E79
:108BA00074206D6F646520286C656E677468203D65
:108BB00020257529000000003D3D3D3D3D3D3D3DEA
:108BC000204553503832363620454E5445522054B5
:108BD00052414E53504152454E54204D4F44452032
:108BE000444F4E45203D3D3D3D3D3D3D3D3D0D0A03
:108BF0000000000010B5044614B96FF0040010BD69
:108C00000BA1204600F052F820680321026817A04B
:108C1000904710B16FF00A00F1E764212046FFF79A
:108C200011FF13A1204600F041F80020E7E7000003
:108C30000D0A3D3D3D3D3D3D3D3D3D3D3D204553C6
:108C400050383236362045584954205452414E53FC
:108C5000504152454E54204D4F4445203D3D3D3DF1
:108C60003D3D3D3D3D3D3D3D0D0A00002B2B2B0084
:108C70003D3D3D3D3D3D3D3D3D2045535038323627
:108C8000362045584954205452414E535041524584
:108C90004E54204D4F444520444F4E45203D3D3DD0
:108CA0003D3D3D3D3D3D0D0A000000000FB438B58F
:108CB000044606A800904CB1606838B1606800684E
:108CC00020B16068026800990598904700200090E4
:108CD00038BC5DF814FB000013B504460348C06AB5
:108CE000036821460148019A98471CBDD80100201D
:108CF0002DE9FC4106460C46154698460EB104B1D6
:108D00001DB96FF00400BDE8FC8100270020206041
:108D1000286016E0002001900090306869464268A3
:108D200001A8904738B9009828B1019820600098B0
:108D300028600020E7E701213046FFF783FE7F1C13
:108D400000BF4745E6D96FF06D00DCE72DE9F04F35
:108D500089B00446894693469A46E668D4F814805A
:108D6000208A0890208B0790002006900590032011
:108D7000039000200290BCE00025002004902046D3
:108D8000FFF732FE4846FDF70FFA87B2B81C079985
:108D9000884208DB4A4663A12046FFF787FFA81FE9
:108DA00009B0BDE8F08F3A4649464046FDF7BCF9A8
:108DB0000D2008F807000A21781C08F8001000218F
:108DC000B81C08F80010424662A12046FFF76EFF6B
:108DD0002068B91C02684046904764212046FFF78E
:108DE00031FE68E0206805A9426806A89047019016
:108DF0000198002857D10598002854D006980028DB
:108E000051D0059829180898814206D30898401B2C
:108E1000401E0590059800B952E07019DDE9052162
:108E2000FDF782F905980544002070554FA12046B2
:108E3000DDE90523FFF73AFF029880B951A13046DA
:108E4000FDF796F958B151A12046FFF72FFF129870
:108E500000F6B8301290012002900020049057A133
:108E60003046FDF785F920B956A13046FDF780F967
:108E700020B156A12046FFF719FF21E059463046A0
:108E8000FDF776F960B133464A465A492046FFF766
:108E90000DFFBAF1000F01D0CAF8006000207FE793
:108EA0000020049006E00498401C04900121204614
:108EB000FFF7C8FD00BF1298411E1291002891D102
:108EC00000BF0398C0F103034A464BA12046FFF7B9
:108ED000EDFE2DB1324652A12046FFF7E7FE03E03A
:108EE00055A12046FFF7E2FE64212046FFF7AAFDC8
:108EF00000BF0398411EC9B2039100287FF43CAF24
:108F00004A4652A12046FFF7D1FE0DB1304600E09F
:108F100059A002465DA12046FFF7C8FE6FF06D0024
:108F20003EE700002121215B455350383236365D43
:108F30002054582062756620746F6F20736D616CC9
:108F40006C20666F7220636F6D6D616E643A2025D0
:108F5000730D0A000D0A3E3E3E205B4553503832E9
:108F600036362053454E445D202573003C3C3C2062
:108F70005B4553503832363620524543565D2025E6
:108F80002E2A730062757379207000002121212040
:108F90005B4553503832363620425553595D206573
:108FA0007874656E64696E672074696D656F757439
:108FB000202B333030306D730D0A00004641494C90
:108FC000000000004552524F520000002121212094
:108FD0005B45535038323636204552524F525D2051
:108FE000636F6D6D616E64206661696C65640D0A06
:108FF000000000002CC80008212121205B455350AF
:10900000383236362054494D454F55545D2022257F
:109010007322202872657472792025642F33290009
:109020005061727469616C20726573706F6E7365E4
:109030003A2025730D0A00004E6F20646174612090
:1090400072656365697665642E0D0A002121212011
:109050005B45535038323636204641494C45445DD5
:109060002022257322206166746572203320726588
:1090700074726965730000003C45535038323636CF
:1090800020525820454D5054593E000046696E61AB
:109090006C20726573706F6E73653A2025730D0ACC
:1090A00000000000F8B504460E46154604B116B996
:1090B0006FF00400F8BD208BA84208D2238B2A460B
:1090C00011A12046FFF7F2FD6FF00500F2E72A46F6
:1090D00031466069FDF728F8216860690A68294609
:1090E0009047802D07D93346802214A12046009551
:1090F000FFF7DCFD05E033462A461CA12046FFF7BA
:10910000D5FD0020D6E700002121212054582062FF
:10911000756666657220746F6F20736D616C6C206C
:10912000666F722073656E64206461746120282507
:1091300075203E202575290A000000000D0A3E3EDC
:109140003E205B455350383236362053454E44203E
:10915000444154415D20252E2A732E2E2E20286C4A
:10916000656E3D2575290D0A000000000D0A3E3E82
:109170003E205B455350383236362053454E44200E
:10918000444154415D20252E2A730D0A0000000041
:10919000F0B5A3B004460D4616460020029004B177
:1091A0001DB96FF0040023B0F0BD19A12046FFF7F0
:1091B0007DFD40F6B8300090E06902AB23A224A107
:1091C00007682046B84710B16FF00A00EBE72B465E
:1091D00022A2802103A80096FEF7FCF940F6B830E1
:1091E0000090E06902AB24A203A907682046B847B3
:1091F00010B16FF00A00D6E733462A4620A1204678
:10920000FFF754FD28A12046FFF750FD0020CAE7D4
:109210000D0A3D3D3D3D3D3D3D3D3D3D3D3D3D3DE1
:109220003D3D20455350383236362054435020437C
:109230004F4E4E454354203D3D3D3D3D3D3D3D3D22
:109240003D3D3D3D3D3D3D3D0D0A00004F4B000085
:1092500041542B4349504D55583D300041542B4308
:10926000495053544152543D22544350222C2225FC
:1092700073222C2564000000434F4E4E454354009A
:109280003E3E3E2054435020636F6E6E65637469AA
:109290006F6E2065737461626C69736865643A20EF
:1092A00025733A25750D0A003D3D3D3D3D3D3D3D53
:1092B0003D3D3D3D3D3D20455350383236362054EE
:1092C000435020434F4E4E45435420444F4E45207B
:1092D0003D3D3D3D3D3D3D3D3D3D3D3D3D3D0D0A21
:1092E000000000007CB50446002001900CB9401F2E
:1092F0007CBD13A12046FFF7D9FC40F6B8300090A2
:10930000E06901AB1DA21EA105682046A84710B167
:109310006FF00A00ECE740F6B8300090E06901AB6E
:1093200016A21AA105682046A84710B16FF00A00DE
:10933000DEE717A12046FFF7B9FC0020D8E70000C0
:109340000D0A3D3D3D3D3D3D3D3D3D3D3D3D3D3DB0
:109350003D2045535038323636205443502044493E
:1093600053434F4E4E454354203D3D3D3D3D3D3DD5
:109370003D3D3D3D3D3D3D3D0D0A00004F4B000054
:1093800041542B434950434C4F5345004154000036
:109390003D3D3D3D3D3D3D3D3D3D3D3D20455350E9
:1093A000383236362054435020444953434F4E4EB2
:1093B00045435420444F4E45203D3D3D3D3D3D3DC0
:1093C0003D3D3D3D3D3D0D0A0000000070B50446A9
:1093D0000D460448C06A2A46214603690148984759
:1093E00070BD00006408002070B504460D460448B6
:1093F000C06A2A46214683680148984770BD00002C
:1094000064080020F0B593B004460D4616460020CF
:1094100012900CB105B11EB96FF0040013B0F0BD8D
:1094200026A12046FFF742FC40F6B8300090E069E4
:1094300012AB31A231A107682046B84710B16FF0D6
:109440000A00EBE740F6B8300090E06912AB2AA2C0
:109450002EA107682046B84710B16FF00A00DDE77B
:109460002B462DA2402102A80096FEF7B3F842F247
:1094700010700090E06912AB2CA202A90768204688
:10948000B84710B16FF00A00C8E74FF47A71204670
:10949000FFF7D8FA40F6B8300090E06912AB16A298
:1094A00025A107682046B84710B16FF00A00B5E75C
:1094B00022A12046FFF7FAFB0020AFE70D0A3D3D51
:1094C0003D3D3D3D3D3D3D3D3D3D3D3D3D3D2045E1
:1094D000535038323636205749464920434F4E4E76
:1094E000454354203D3D3D3D3D3D3D3D3D3D3D3DA4
:1094F0003D3D3D3D0D0A00004F4B000041542B43C4
:10950000574D4F44455F4355523D310041542B4325
:10951000575141500000000041542B43574A4150DD
:109520003D222573222C22257322000057494649EB
:1095300020474F5420495000415400003D3D3D3DDF
:109540003D3D3D3D3D3D3D3D3D204553503832364E
:1095500036205749464920434F4E4E4543542044F8
:109560004F4E45203D3D3D3D3D3D3D3D3D3D3D3D1D
:109570003D3D0D0A000000007CB50446002001902E
:109580000CB9401F7CBD1AA12046FFF78FFB40F6A7
:10959000B8300090E06901AB24A225A105682046FF
:1095A000A84710B16FF00A00ECE740F6B830009021
:1095B000E06901AB1DA222A105682046A84710B1B1
:1095C0006FF00A00DEE740F6B8300090E06901ABCA
:1095D00016A21EA105682046A84710B16FF00A0028
:1095E000D0E71BA12046FFF761FB0020CAE700007F
:1095F0000D0A3D3D3D3D3D3D3D3D3D3D3D3D3D3DFE
:109600002045535038323636205749464920444980
:1096100053434F4E4E454354203D3D3D3D3D3D3D22
:109620003D3D3D3D3D3D3D3D0D0A00004F4B0000A1
:1096300041542B43574D4F44455F4355523D3100F4
:1096400041542B4357514150000000004154000049
:109650003D3D3D3D3D3D3D3D3D3D3D3D2045535026
:1096600038323636205749464920444953434F4EF5
:109670004E45435420444F4E45203D3D3D3D3D3DEC
:109680003D3D3D3D3D3D0D0A000000002DE9F0410E
:1096900005462F212846FCF79BFD06465C212846FF
:1096A000FCF796FD0746BE4201D9304600E0384639
:1096B000044614B1601CBDE8F0812846FBE7014672
:1096C00011B96FF0040070470020886100BFFAE70D
:1096D00010B504461F49601A8C4223D009DC1E488D
:1096E000204480B1B0F5806F12D0B0F5006F2DD15D
:1096F00013E0B0F5806F1AD0B0F5006F1CD0B0F554
:10970000406F23D11DE001210420FDF70DFD1EE077
:1097100001210820FDF708FD19E001211020FDF7C7
:1097200003FD14E001212020FDF7FEFC0FE00121E4
:109730004020FDF7F9FC0AE001218020FDF7F4FC50
:1097400005E001210802FDF7EFFC00E000BF00BFCB
:1097500010BD00000014014000F8FEBF38B50446FB
:1097600014208DF8030003208DF80200A08880B239
:10977000ADF8000069462068FDF7D3FBA08980B2F0
:10978000ADF800006946A068FDF7CBFB38BD70B5A9
:1097900005460C461646A1B232462846FDF755FC52
:1097A00070BD10B504462068FFF792FFA068FFF770
:1097B0008FFF2046FFF7D2FF10BDF8B505460C46D7
:1097C00016461F4615B96FF00400F8BD284600F094
:1097D0001FF96006010E284600F0FCF8694628468D
:1097E00000F06CF83146284600F0F4F86946284647
:1097F00000F064F8284600F00BF9012000EB44006B
:10980000C1B2284600F0E6F86946284600F056F84E
:109810003946284600F06BF80121284600F0C5F8CB
:10982000284600F00DF90020CFE72DE9F843074660
:109830000D4690461E46DDF820901FB96FF00400DB
:10984000BDE8F883384600F0E3F86806010E3846B4
:1098500000F0C0F86946384600F030F84146384616
:1098600000F0B8F86946384600F028F8384600F0AD
:10987000CFF8012000EB4500C1B2384600F0AAF84D
:109880006946384600F01AF8002410E009EB04019C
:10989000384600F02CF8701EA04201D1012000E0F3
:1098A00000200146384600F080F8601C84B2B442C3
:1098B000ECDB384600F0C4F80020C1E770B5044680
:1098C0000D4614B96FF0040070BD0121204600F070
:1098D0005BF80121204600F031F82946204600F0CF
:1098E0003EF80021204600F029F80020ECE7F8B50A
:1098F00006460C4616B96FF00400F8BD0020207033
:109900000121304600F040F8072513E001213046E0
:1099100000F014F86946304600F021F820789DF8F0
:109920000010A940084320700021304600F006F8DE
:10993000681E45B2002DE9DA0020DEE770B5044666
:109940000D4614B96FF0040070BD2A46D4E9000139
:10995000FFF71DFFD4E9040188470020F4E72DE953
:10996000F04104460D461CB96FF00400BDE8F081DB
:10997000D4E90267B9B23046FDF75EFB2870D4E93E
:10998000040188470020F1E770B504460D4614B97C
:109990006FF0040070BD2A46D4E90201FFF7F7FE1C
:1099A000D4E9040188470020F4E770B504460D4669
:1099B00014B96FF0040070BD29462046FFF7E4FF9C
:1099C00001212046FFF7BAFF00212046FFF7B6FF2E
:1099D0000020F0E770B505460E4615B96FF004009B
:1099E00070BD002410E08020204100EA06012846D6
:1099F000FFF7CAFF01212846FFF7A0FF00212846F4
:109A0000FFF79CFF601CC4B2082CECDB0020E7E7EA
:109A100010B5044614B96FF0040010BD01212046B2
:109A2000FFF7B2FF01212046FFF788FF0021204603
:109A3000FFF7AAFF00212046FFF780FF0020ECE798
:109A400010B5044614B96FF0040010BD0021204683
:109A5000FFF774FF00212046FFF796FF0121204603
:109A6000FFF76CFF01212046FFF78EFF0020ECE797
:109A7000F8B504460D4616461F4614B96FF00400AB
:109A8000F8BD2046FFF7C4FF6806010E2046FFF729
:109A9000A1FF69462046FFF711FF31462046FFF738
:109AA00099FF69462046FFF709FF39462046FFF730
:109AB00091FF69462046FFF701FF2046FFF7C0FFF0
:109AC0000020DDE72DE9F84305460E461746984687
:109AD000DDF820901DB96FF00400BDE8F88328463A
:109AE000FFF796FF7006010E2846FFF773FF6946E1
:109AF0002846FFF7E3FE39462846FFF76BFF694625
:109B00002846FFF7DBFE00240AE019F80410284677
:109B1000FFF760FF69462846FFF7D0FE601C84B25D
:109B20004445F2DB2846FFF78BFF0020D5E7000015
:109B300010B5FEF7C1FB09490860084600680068D7
:109B400001680648006888470448006800680449BE
:109B5000826802480068904710BD000000000020A5
:109B6000F4C600080FB42DE9FC4104460D46164624
:109B70001A48006818B9BDE8FC015DF814FB2846D6
:109B8000FFF784FD8046154800960068006843464C
:109B9000224613A1876811480068B8470CA80190B5
:109BA0000E480068006868B10C48006800684068AA
:109BB00040B10A480068006843680848019A0B9958
:109BC000006898470020019004480068006807A1D9
:109BD000826802480068904700BFCCE70000002080
:109BE00025732025733A25643A2000000D0A0000F1
:109BF000ADF5067D002085908490FFF799FFFEF774
:109C000077FA10A3102214A118A0FFF7ABFF19A335
:109C1000112211A115A0FFF7A5FF01A800F094FCE7
:109C200001A800F0A7FE0BE084A985A801F076FB4F
:109C30008499859801F0FAFB4EF6602001F0E8F96E
:109C4000F2E7000054686973206973204F54412083
:109C500041505021000000002E2E5C2E2E5C6170C1
:109C6000705C6D61696E2E63000000005B494E46BA
:109C70004F5D200056657273696F6E3A20302E3347
:109C80002E35000030B504460D4604B113B94FF02F
:109C9000FF3030BDAA4202D36FF00100F9E7002087
:109CA000187000210EE05018A84202D36FF0020095
:109CB000EFE7501C0844205C00F0800000B903E08E
:109CC000481CC1B20429EEDB00BF042907DBD01C0D
:109CD000205C00F0800010B16FF00300D9E7481C51
:109CE00018700020D5E710B5044614B1082900D338
:109CF00012B94FF0FF3010BD06230DE0E05C3A28AA
:109D000009D1581C10601068884202D36FF001001E
:109D1000F1E70020EFE75B1C8B42EFD34FF0FF3001
:109D2000E9E70000F8B506460F46FEF749FC044691
:109D30000EA368221DA124A0FFF714FF206840F2A3
:109D40005B7223A103692046984705463DB12CA3C9
:109D50006B2216A135A00095FFF704FF05E035A39F
:109D60006D2212A118A0FFF7FDFEF8BD436F6E6EC5
:109D7000656374696F6E20636C6F7365642C20611A
:109D80007474656D7074696E6720746F207265639A
:109D90006F6E6E65637420746F204D515454207340
:109DA00065727665722E2E2E000000002E2E5C2E1F
:109DB0002E5C6170705C6F74615C6F74615F65765E
:109DC000656E742E630000005B494E464F5D2000B7
:109DD000696F742D30367A30306735736B6A37317E
:109DE000386F6F2E6D7174742E696F746875622E82
:109DF000616C6979756E63732E636F6D000000008E
:109E00004661696C656420746F207265636F6E6E65
:109E100065637420746F204D5154542073657276BD
:109E2000657220286572723D256429005B45525297
:109E30004F525D005265636F6E6E6563746564209A
:109E4000746F204D5154542073657276657220737F
:109E500075636365737366756C6C790030B5ADF2CC
:109E60001C4D04460D46207B002817D110A37922F3
:109E700019A120A0FFF776FE012001F061FC1FA1CF
:109E800084A800F0FEFC84A801F072F928A101A8C2
:109E900000F0F7FC01A801F06BF905E030A3872280
:109EA0000DA139A0FFF75EFE0DF21C4D30BD000084
:109EB0004D51545420434F4E4E41434B3A20636F13
:109EC0006E6E656374656420737563636573736632
:109ED000756C6C790D0A00002E2E5C2E2E5C617064
:109EE000705C6F74615C6F74615F6576656E742E13
:109EF000630000005B494E464F5D20002F7379736D
:109F00002F6B307030627A714A6466412F44303072
:109F1000312F7468696E672F736572766963652F78
:109F200070726F70657274792F7365740000000031
:109F30002F7379732F6B307030627A714A64664187
:109F40002F443030312F7468696E672F66696C65F5
:109F50002F646F776E6C6F61645F7265706C7900EF
:109F60004661696C656420746F2065737461626C0E
:109F7000697368204D51545420636F6E6E6563742D
:109F8000696F6E21000000005B4552524F525D0028
:109F90002DE9F041ADF5876D06460F4681A3A52258
:109FA0008DA194A0FFF7DEFD8EAA3946304600F061
:109FB00083FE92A18EA8FCF7DBF8002810D093A3B3
:109FC000AF2285A193A0FFF7CDFD94A423469AA2CA
:109FD000002101A800F05EFB01A800F043FFDCE0D7
:109FE000A1A18EA8FCF7C4F8002810D0A2A3B92222
:109FF00079A188A0FFF7B6FDA2A423468EA2002176
:10A0000001A800F047FB01A800F02CFFC5E0A4A1C7
:10A010008EA8FCF7ADF800286AD084A98EA801F0BC
:10A020009DF90446002C5BD1A3A3C6226AA171A0AE
:10A03000FFF798FD8498A5A3C72267A100906DA0A3
:10A04000FFF790FD8598A4A3C82263A1009069A0A2
:10A05000FFF788FD86A8A4A3C9225FA1009065A090
:10A06000FFF780FDFEF7F6F98046A3A3CE225AA1A2
:10A0700060A0FFF777FD00251AE0D8F80000294618
:10A08000426940469047044634B1A7A3D22252A168
:10A09000ADA00094FFF766FD1021681CACA3D4228C
:10A0A000CDE900014CA153A0FFF75CFD681CC5B2CF
:10A0B000102DE2D38498C0B218B98498000A8B900E
:10A0C00004E00121849801EB10208B9000208C90FB
:10A0D0004FF480708D908BA8859901F0C7F906E048
:10A0E000A0A3E4223CA198A00094FFF73BFD54E01C
:10A0F000A7A18EA8FCF73CF800284ED0FEF7AAF9DD
:10A1000004468D98381A801E83198C9801022068A5
:10A110004FF48072D0F808C02046E047054635B1BC
:10A12000A2A3F0222CA188A00095FFF71BFD8C981C
:10A13000401C8C908B98401E8C99814207D184984A
:10A14000C0B2002824D08498C0B28D9020E08B99B2
:10A150008C9888421CD174A8FDF7EAFE849874900C
:10A1600014217EA8FBF7F9FF142286A97EA8FBF72D
:10A17000DBFF9848839074A8FDF71AFF96A340F27E
:10A18000051215A11BA0FFF7EDFC01F0E1FA00BFDD
:10A190008BA8859901F06AF900BF0DF5876DBDE8C0
:10A1A000F08100004D515454205055424C495348C1
:10A1B0003A20516F532030206D65737361676520BD
:10A1C000726563656976656420737563636573732F
:10A1D00066756C6C790D0A002E2E5C2E2E5C6170FB
:10A1E000705C6F74615C6F74615F6576656E742E10
:10A1F000630000005B494E464F5D20007B226C658A
:10A20000645F74657374223A317D00004C45443AB2
:10A21000204F4E005B44454255475D007B227061F4
:10A2200072616D73223A7B226C65645F746573742E
:10A23000223A317D7D0000002F7379732F6B3070CF
:10A2400030627A714A6466412F443030312F74682D
:10A25000696E672F6576656E742F70726F706572A8
:10A2600074792F706F7374007B226C65645F746502
:10A270007374223A307D00004C45443A204F4646E4
:10A28000000000007B22706172616D73223A7B22B4
:10A290006C65645F74657374223A307D7D000000E4
:10A2A0002F6F74612F6465766963652F75706772AF
:10A2B0006164652F000000004F5441207570677283
:10A2C00061676520696E666F3A000000202053695F
:10A2D0007A653A2025640000202053747265616D10
:10A2E0002049443A20256400202056657273696F26
:10A2F0006E3A20257300000045726173696E672015
:10A3000074686520307468206669726D7761726563
:10A31000206F662065787465726E616C20466C6192
:10A3200073682E2E2E0000004661696C65642074EF
:10A330006F20657261736520626C6F636B202865A6
:10A3400072723D25642900005B4552524F525D00F8
:10A3500045726173656420626C6F636B2025642FA6
:10A36000256400004661696C656420746F2070612B
:10A37000727365204F544120757067726164652067
:10A38000696E666F20286572723D256429000000A1
:10A390002F7468696E672F66696C652F646F776EBE
:10A3A0006C6F61645F7265706C7900004661696C06
:10A3B000656420746F2077726974652065787420F5
:10A3C000666C617368207061676520286572723DF4
:10A3D000256429002211BBAA4F544120646F776E77
:10A3E0006C6F6164207375636365737366756C6C01
:10A3F0007921000070B504460D46681E205C18B136
:10A40000681E205C012808D107A3942210A117A080
:10A41000FFF7A8FB01F0D8F805E016A39A220CA1DB
:10A420001CA0FFF79FFB70BD4D5154542053554263
:10A4300041434B3A207375627363726962656420AD
:10A440007375636365737366756C6C790D0A0000D0
:10A450002E2E5C2E2E5C6170705C6F74615C6F746C
:10A46000615F6576656E742E630000005B494E4641
:10A470004F5D20004661696C656420746F207375C0
:10A480006273637269626520746F20746F706963B0
:10A49000210000005B4552524F525D0001460448C6
:10A4A0000068084008B1012070470020FCE7000068
:10A4B0000400002070B505460C46082C07D1082280
:10A4C00004A12846FBF777FE08B9012070BD0020E3
:10A4D000FCE70000434C4F5345440D0A00000000C8
:10A4E0000246182905D1107D202802D1507D02286E
:10A4F00007D00D2907D1507A202804D1907A02285C
:10A5000001D1012070470020FCE770B504460D46DC
:10A510000120FFF7C3FF30B1962D04D9E07A30282F
:10A5200001D1012070BD0020FCE70246192902D1AB
:10A53000107D902804D00E2904D1507A902801D1A2
:10A54000012070470020FCE770B5044604B970BDD7
:10A550000120A4F80002A4F802020A20A4F80402D0
:10A56000A220A4F80602B4F80402B4F806120844C3
:10A57000A4F80802B4F808521020207000BFE809BF
:10A5800018B9B4F80212655406E005F07F0040F0F7
:10A590008000B4F802126054B4F80202401CA4F81F
:10A5A0000202ED09002DEAD10021B4F80202215483
:10A5B0000421B4F80202401C21544D21B4F80202D7
:10A5C000801C21545121B4F80202C01C2154542192
:10A5D000B4F80202001D2154B4F80202401D2154B7
:10A5E0000421B4F80202801D2154C221B4F80202F1
:10A5F000C01D21540021B4F8020208302154642106
:10A60000B4F80202093021540021B4F802020A30E1
:10A6100021544C21B4F802020B302154B4F8021238
:10A620000C3108194C221449FBF77EFD0021B4F8C7
:10A630000202583021541021B4F80202593021543A
:10A64000B4F802125A31081910220CA1FBF76CFD64
:10A650000021B4F802026A3021544021B4F8020209
:10A660006B302154B4F802126C31081940220849A9
:10A67000FBF75AFD00BF6AE7DCC700084430303101
:10A68000266B307030627A714A64664100000000C7
:10A6900098C700082DE9F0470446884616461F462D
:10A6A0000CB106B10FB9BDE8F087B8F1000F5DD16C
:10A6B0000120A4F802023046FBF776FD801CA4F8C6
:10A6C00004023846FBF770FDA4F80602B4F8040251
:10A6D000B4F806120844A4F80802B4F8085230206E
:10A6E000207000BFE80918B9B4F80212655406E0FA
:10A6F00005F07F0040F08000B4F802126054B4F816
:10A700000202401CA4F80202ED09002DEAD13046F5
:10A71000FBF74AFDC0F30721B4F80202215430468A
:10A72000FBF742FDC1B2B4F80202401C215430468E
:10A73000FBF73AFD8146B4F80212891C08194A4613
:10A740003146FBF7F1FC3846FBF72EFD82463046DA
:10A75000FBF72AFDB4F80212891C084400EB040937
:10A76000524639464846FBF7DFFC88E0B8F1010F56
:10A770007ED10120A4F802023046FBF715FD001D32
:10A78000A4F804023846FBF70FFDA4F80602B4F85B
:10A790000402B4F806120844A4F80802B4F80852F7
:10A7A0003220207000BFE80918B9B4F802126554CD
:10A7B00006E005F07F0040F08000B4F8021260541B
:10A7C000B4F80202401CA4F80202ED09002DEAD1FF
:10A7D0003046FBF7E9FCC0F30721B4F8020221542C
:10A7E0003046FBF7E1FCC1B2B4F80202401C215430
:10A7F0003046FBF7D9FC8146B4F80212891C0819CF
:10A800004A463146FBF790FC3046FBF7CDFCB4F8E6
:10A810000212891C0844B4F800924FEAE97109EB6E
:10A820001161C1F3072121543046FBF7BDFCB4F898
:10A830000212C91C0844B4F800924FEAE97109EB0E
:10A8400011610912A9EB01212154B4F80002401C46
:10A85000A4F800023846FBF7A7FC82463046FBF717
:10A86000A3FCB4F80212091D084400EB040900E03F
:10A8700005E0524639464846FBF756FC00BF00BF8C
:10A8800011E72DE9F04104460E4604B10EB9BDE8CA
:10A89000F0810120A4F802020220A4F8040230464C
:10A8A000FBF782FCC01CA4F80602B4F80402B4F85A
:10A8B00006120844A4F80802B4F808528220207056
:10A8C00000BFE80918B9B4F80212655406E005F0B3
:10A8D0007F0040F08000B4F802126054B4F8020225
:10A8E000401CA4F80202ED09002DEAD1B4F80002E0
:10A8F000C11700EB1161C1F30722B4F802126254D0
:10A90000B4F80002C11700EB11610912A0EB01219C
:10A91000CAB2B4F80212491C6254B4F80002401CD6
:10A92000A4F800023046FBF73FFCC0F30721B4F85F
:10A930000202801C21543046FBF736FCC1B2B4F849
:10A940000202C01C21543046FBF72EFC0746B4F827
:10A950000212091D08193A463146FBF7E5FB30465D
:10A96000FBF722FCB4F80212091D0844002121540F
:10A9700000BF8CE7F0B589B00546FDF721FE06461D
:10A980004DA34FF4C27253A159A0FFF7EBF8306802
:10A9900059A25DA1836830469847044654B15CA330
:10A9A00040F289124BA162A00094FFF7DBF8204629
:10A9B00009B0F0BD60A34FF4C67246A14CA0FFF7EA
:10A9C000D1F8306840F25B7262A103693046984763
:10A9D00004464CB16BA340F291123EA154A00094E6
:10A9E000FFF7C0F82046E3E740F6B8300090306843
:10A9F00000236CA26EA147683046B84704464CB1AC
:10AA000060A34FF4CC7233A149A00094FFF7AAF8D9
:10AA10002046CDE76AA340F29B122EA134A0FFF797
:10AA2000A1F8B5F80202B5F804120844B5F8061208
:10AA300042186AA101A8FCF7E7FD40F6B830009083
:10AA40003068002369A201A947683046B847044628
:10AA50004CB167A34FF4D1721EA135A00094FFF74B
:10AA600081F82046A4E770A340F2A51219A120A006
:10AA7000FFF778F8B5F80202B5F804120844B5F803
:10AA80000612421830682946036A30469847044641
:10AA90004CB172A34FF4D6720EA125A00094FFF71B
:10AAA00061F8204684E779A340F2AF1209A110A013
:10AAB000FFF758F800207BE75374617274204D5102
:10AAC000545420636F6E6E656374696F6E202E2E12
:10AAD0002E0000002E2E5C2E2E5C6170705C6F7458
:10AAE000615C6F74615F6D7174742E6300000000AF
:10AAF0005B494E464F5D20007468786431353633CB
:10AB0000363931363800000073686F756A690000A5
:10AB10004661696C656420746F20636F6E6E656357
:10AB200074205769466920286572723D25642900A2
:10AB30005B4552524F525D005769466920636F6E04
:10AB40006E6563746564207375636365737366759E
:10AB50006C6C7900696F742D30367A3030673573DC
:10AB60006B6A3731386F6F2E6D7174742E696F7424
:10AB70006875622E616C6979756E63732E636F6D93
:10AB8000000000004661696C656420746F20636F8B
:10AB90006E6E6563742074637020286572723D2543
:10ABA000642900005354415455533A3300000000C7
:10ABB00041542B4349505354415455530000000015
:10ABC00054435020636F6E6E6563746564207375C3
:10ABD000636365737366756C6C79000041542B4335
:10ABE000495053454E443D25750000003E0000008D
:10ABF0004661696C656420746F20656E74657220AF
:10AC00007472616E73706172656E74207472616EBD
:10AC1000736D697373696F6E206D6F64652028654D
:10AC200072723D2564290000456E7465726564206A
:10AC30007472616E73706172656E74207472616E8D
:10AC4000736D697373696F6E206D6F6465207375C2
:10AC5000636365737366756C6C7900004661696C3B
:10AC6000656420746F2073656E64204D51545420C8
:10AC7000636F6E6E656374206D65737361676520C5
:10AC8000286572723D256429000000004D5154541E
:10AC900020636F6E6E656374206D657373616765A5
:10ACA0002073656E74207375636365737366756C6A
:10ACB0006C790D0A000000002DE9FE430746884626
:10ACC000154602AA41463846FFF70DF804465CB126
:10ACD0002DA340F23D1237A13DA00094FEF742FFA4
:10ACE0004FF0FF30BDE8FE8302983BA34FF4A07203
:10ACF00030A100903DA0FEF735FF01AB414638463C
:10AD0000029AFEF7BFFF044654B13AA34FF4A27271
:10AD100028A12FA00094FEF725FF4FF0FF30E1E7B8
:10AD20009DF8040040A340F2471222A100902FA0FA
:10AD3000FEF718FF0298401C9DF804100844861C7A
:10AD40004FF400712846FBF708FAA8EB0602B91980
:10AD50002846FBF7E9F93AA340F24D1215A123A0CA
:10AD6000FEF700FF3DA34FF4A77212A11FA00095AC
:10AD7000FEF7F8FE3AA340F24F120EA11BA0FEF719
:10AD8000F1FE0020AEE700004661696C6564207446
:10AD90006F2066696E642072657475726E207374BC
:10ADA000617274206F666673657420286572723DE7
:10ADB000256429002E2E5C2E2E5C6170705C6F74F1
:10ADC000615C6F74615F6D7174742E6300000000CC
:10ADD0005B4552524F525D0073746172745F6F66CF
:10ADE000667365743D25640D0A0000005B444542AE
:10ADF00055475D004661696C656420746F20707210
:10AE00006173652072657475726E2072656D61691B
:10AE10006E696E67206C656E677468202865727253
:10AE20003D2564290000000072656D61696E696EE0
:10AE3000675F6F66667365743D25640D0A000000E8
:10AE40007075626C6973685F706B742076616C6991
:10AE50006420646174613A200000000025730000E2
:10AE60000D0A0000F0B589B00446FDF7A9FB0646BF
:10AE7000B4F80202B4F804120844B4F806124218F6
:10AE800021A101A8FCF7C0FB40F6B8300090306863
:10AE9000002321A201A947683046B847054655B1AD
:10AEA0001EA34FF4F3722BA131A00095FEF75AFEBA
:10AEB000284609B0F0BD30A340F2E91225A13BA01D
:10AEC000FEF750FEB4F80202B4F804120844B4F8D5
:10AED0000612421830682146036A304698470546F4
:10AEE0004DB134A34FF4F8721AA121A00095FEF7DA
:10AEF00039FE2846DDE73BA340F2F31215A12BA053
:10AF0000FEF730FE0020D4E741542B43495053450F
:10AF10004E443D25750000003E0000004661696C0E
:10AF2000656420746F20656E746572207472616E42
:10AF300073706172656E74207472616E736D697383
:10AF400073696F6E206D6F646520286572723D2590
:10AF5000642900002E2E5C2E2E5C6170705C6F7474
:10AF6000615C6F74615F6D7174742E63000000002A
:10AF70005B4552524F525D00456E746572656420A8
:10AF80007472616E73706172656E74207472616E3A
:10AF9000736D697373696F6E206D6F64652073756F
:10AFA000636365737366756C6C7900005B494E462C
:10AFB0004F5D20004661696C656420746F20736585
:10AFC0006E64204D515454207075626C6973682012
:10AFD0006D65737361676520286572723D2564290C
:10AFE000000000004D515454207075626C69736804
:10AFF000206D6573736167652073656E742073756A
:10B00000636365737366756C6C790D0A00000000EC
:10B01000F0B58BB0064627A000680A90FDF7D0FA7D
:10B0200005460120FDF7A1F923480068401C22498C
:10B03000086008460068B04202D200200BB0F0BDA4
:10B0400002221EA102A8FCF7DFFA40F6B8300090F9
:10B05000286800231DA202A947682846B84704466D
:10B060004CB11BA340F2691227A12EA00094FEF759
:10B0700079FD2046E2E7286802220AA9036A2846E9
:10B08000984704464CB129A340F26F121EA125A097
:10B090000094FEF767FD2046D0E72CA340F2731220
:10B0A00019A131A0FEF75EFD00200349086000BF32
:10B0B000C4E70000C00000000800002041542B43FA
:10B0C000495053454E443D25750000003E000000A8
:10B0D0004661696C656420746F20656E74657220CA
:10B0E0007472616E73706172656E74207472616ED9
:10B0F000736D697373696F6E206D6F646520286569
:10B1000072723D25642900002E2E5C2E2E5C61702B
:10B11000705C6F74615C6F74615F6D7174742E63C9
:10B12000000000005B4552524F525D004661696C61
:10B13000656420746F2073656E642050494E4752D9
:10B14000455120286572723D2564290053656E645F
:10B150002050494E475245512073756363657373A0
:10B1600066756C6C790D0A005B494E464F5D200098
:10B17000F0B589B00446FDF723FA0646B4F802029A
:10B18000B4F804120844B4F80612421821A101A828
:10B19000FCF73AFA40F6B83000903068002321A25C
:10B1A00001A947683046B847054655B11EA34FF47C
:10B1B000E2722BA131A00095FEF7D4FC284609B01D
:10B1C000F0BD30A340F2C71225A13BA0FEF7CAFC98
:10B1D000B4F80202B4F804120844B4F80612421893
:10B1E00030682146036A3046984705464DB134A37E
:10B1F0004FF4E7721AA121A00095FEF7B3FC284690
:10B20000DDE73BA340F2D11215A12BA0FEF7AAFC6B
:10B210000020D4E741542B43495053454E443D252B
:10B22000750000003E0000004661696C6564207492
:10B230006F20656E746572207472616E73706172D6
:10B24000656E74207472616E736D697373696F6E6D
:10B25000206D6F646520286572723D2564290000A9
:10B260002E2E5C2E2E5C6170705C6F74615C6F744E
:10B27000615F6D7174742E63000000005B45525273
:10B280004F525D00456E7465726564207472616E24
:10B2900073706172656E74207472616E736D697320
:10B2A00073696F6E206D6F6465207375636365737A
:10B2B0007366756C6C7900005B494E464F5D2000EB
:10B2C0004661696C656420746F2073656E64204DFF
:10B2D00051545420737562736372696265206D65A1
:10B2E000737361676520286572723D2564290000CB
:10B2F0004D51545420737562736372696265206D99
:10B300006573736167652073656E7420737563631D
:10B3100065737366756C6C790D0A00002DE9FC414C
:10B3200004460D46FDF74CF90646002001900090BA
:10B33000306800236A4601A9D0F824C03046E047AF
:10B3400007462FB10020206028603846BDE8FC8108
:10B3500001982060009828600020F7E72DE9F0416F
:10B3600007460C4607B11CB94FF0FF30BDE8F0812D
:10B370007B213846FAF70EFF064616B94FF0FF302C
:10B38000F4E716A13046FAF7F3FE054615B94FF07B
:10B39000FF30EBE7224613A12846FAF725FF14A158
:10B3A0003046FAF7E5FE054615B94FF0FF30DDE708
:10B3B000221D12A12846FAF717FF14A13046FAF70A
:10B3C000D7FE054615B94FF0FF30CFE704F108026C
:10B3D00011A12846FAF708FF0020C7E72273697A0F
:10B3E00065223A002273697A65223A2564000000DA
:10B3F0002273747265616D4964223A00227374721B
:10B4000065616D4964223A25640000002276657208
:10B4100073696F6E223A00002276657273696F6EEF
:10B42000223A222531355B5E225D220070B5054649
:10B430000E46002414E004EB44000B4901EB8000AD
:10B44000314642682846904748B104EB440006491B
:10B4500001EB8000314682682846904770BD641C2D
:10B46000042CE8D300BFF9E798C40008F0B5ADF5A7
:10B47000457D04460E46606807024FF4807185A83A
:10B48000FAF76BFE00973246184985A8A368FCF7C7
:10B49000BBF885AB16A2002102A8FFF7FBF802A8B3
:10B4A000FFF7E0FC054655B11CA3572225A12CA0AF
:10B4B0000095FEF757FB28460DF5457DF0BDD4E914
:10B4C0000001491C28A35B22CDE900101DA12EA07C
:10B4D000FEF748FB2EA35C221AA12BA0FEF742FB2D
:10B4E0004FF49670FCF741FF0020E5E738C70008ED
:10B4F0002F7379732F6B307030627A714A646641B2
:10B500002F443030312F7468696E672F66696C651F
:10B510002F646F776E6C6F61640000004661696C28
:10B52000656420746F207075626C697368204F5475
:10B5300041207265717565737420286572723D25AE
:10B54000642900002E2E5C2E2E5C6170705C6F747E
:10B55000615C6F74615F636F72652E630000000051
:10B560005B4552524F525D0043757272656E742096
:10B57000646F776E6C6F616420736C6963653A20E9
:10B5800025642F25640000005B494E464F5D200076
:10B590004D515454204F5441207265717565737438
:10B5A000207075626C697368206D6573736167657F
:10B5B0002073656E74207375636365737366756C51
:10B5C0006C790D0A0000000010B5ADF5347D84A83B
:10B5D000FCF7AEFC044654B118A3292221A128A0EF
:10B5E0000094FEF7BFFA20460DF5347D10BD802192
:10B5F00094A8FAF7B2FD8EAA23A194A8FCF704F848
:10B6000094AB2BA2012101A8FFF744F801A8FFF792
:10B6100029FC044644B12FA3372212A118A000949C
:10B62000FEF7A0FA2046DFE78EA834A33B220DA147
:10B63000009041A0FEF796FA0020D5E74661696CBC
:10B64000656420746F206C6F616420626F6F74207A
:10B6500061707020696E666F20286572723D256486
:10B66000290000002E2E5C2E2E5C6170705C6F74C1
:10B67000615C6F74615F636F72652E630000000030
:10B680005B4552524F525D007B226964223A22315F
:10B69000222C22706172616D73223A7B2276657270
:10B6A00073696F6E223A222573227D7D00000000AF
:10B6B0002F6F74612F6465766963652F696E666F9D
:10B6C000726D2F6B307030627A714A6466412F441C
:10B6D000303031004661696C656420746F2070758C
:10B6E000626C697368204F54412076657273696F8C
:10B6F0006E20286572723D25642900004D51545416
:10B70000204F54412076657273696F6E202825732F
:10B7100029207075626C697368206D657373616749
:10B72000652073656E7420737563636573736675E6
:10B730006C6C790D0A0000005B494E464F5D20009D
:10B74000024909680143014A116070470400002062
:10B750004FF44870FCF709FE00BF0748006800F48A
:10B76000E06006490843001D03490860BFF34F8F9E
:10B7700000BF00BFFEE700000CED00E00000FA058E
:10B7800070B504460D460448006A2A4621460368FF
:10B790000148984770BD00001408002070B50446A9
:10B7A0000D460448006A2A462146436801489847E6
:10B7B00070BD00001408002070B504460D46044812
:10B7C000006A2A46214683680148984770BD0000F8
:10B7D00014080020014611B96FF0040070470020E2
:10B7E000086200BFFAE770B504460D4629462046B8
:10B7F000FBF720FD08B1012070BD0020FCE7000030
:10B8000010B504461F49601A8C4223D009DC1E483B
:10B81000204480B1B0F5806F12D0B0F5006F2DD10B
:10B8200013E0B0F5806F1AD0B0F5006F1CD0B0F502
:10B83000406F23D11DE001210420FBF775FC1EE0C1
:10B8400001210820FBF770FC19E001211020FBF713
:10B850006BFC14E001212020FBF766FC0FE00121C6
:10B860004020FBF761FC0AE001218020FBF75CFC33
:10B8700005E001210802FBF757FC00E000BF00BF14
:10B8800010BD00000014014000F8FEBF38B50446AA
:10B8900003208DF8020018208DF80300208980B263
:10B8A000ADF8000069466068FBF73BFB208B80B277
:10B8B000ADF8000069466069FBF733FB48208DF85E
:10B8C0000300208A80B2ADF800006946E068FBF70B
:10B8D00028FB38BD70B505460C461646A1B2324667
:10B8E0002846FBF7B2FB70BD10B50446206800F097
:10B8F00011F86068FFF784FFE068FFF781FF606977
:10B90000FFF77EFF2046FFF7C1FF204600F022F838
:10B9100010BD000010B504460D48204450B1B0F5EC
:10B92000806F0CD0B0F5784F0ED101210803FBF7E2
:10B93000FBFB0AE001218803FBF7E6FB05E00121A0
:10B94000C803FBF7E1FB00E000BF00BF10BD000033
:10B9500000C8FFBF10B586B004464FF48270ADF842
:10B9600006000020ADF80400ADF80800ADF81200A4
:10B97000A08BADF81000A07F00B100BF0020ADF893
:10B980000A00A07F00B100BF0020ADF80C004FF40A
:10B990000070ADF80E000720ADF8140001A9206872
:10B9A000FBF756FC01212068FBF738FC06B010BD00
:10B9B00070B506460C46154616B96FF0040070BD0A
:10B9C000002229462046FFF785FF0020F7E770B5E3
:10B9D00006460C46154616B96FF0040070BD0122EC
:10B9E00029462046FFF776FF0020F7E72DE9F041D2
:10B9F00004460F4616461CB96FF00400BDE8F081FE
:10BA000000BF02212068FFF7EEFE0028F9D0D4F82D
:10BA1000008039464046FBF719FC00BF00BF0121FA
:10BA20002068FFF7E0FE0028F9D0D4F800804046F7
:10BA3000FBF709FC054600BF06B135700020DDE7C5
:10BA400070B5044614B96FF0040070BD256828462F
:10BA500000F036FA00202060E06200BFF5E7000049
:10BA6000024600210BE0084800EB011000689042FC
:10BA700003D1054800EB01107047481CC1B20329EF
:10BA8000F1D30020F8E700003CC5000810B50446DB
:10BA90000A48844205D00A48844202D009488442B8
:10BAA00004D101210846FBF71FFB06E0064884424B
:10BAB00003D101210220FBF717FB10BD0038014024
:10BAC0000044004000480040004C004030B58BB0BE
:10BAD00004462068FFF7C4FF0546A868FBF758F93D
