:020000040800F2
:10000000801B0020A9010008330D00082B0D0008FB
:100010002F0D000861070008AD1500080000000062
:10002000000000000000000000000000BB0100080C
:100030006909000800000000BF010008C1010008B4
:10004000C3010008C3010008C3010008C301000880
:10005000C3010008C3010008C3010008C301000870
:10006000C3010008C3010008C3010008C301000860
:10007000C3010008C3010008C3010008C301000850
:10008000C3010008C3010008C3010008C301000840
:10009000C3010008C3010008C3010008C301000830
:1000A000C3010008C3010008C3010008C301000820
:1000B000C3010008C3010008C3010008C301000810
:1000C000C3010008C3010008C3010008C301000800
:1000D000C30100081D120008C3010008C301000885
:1000E000C3010008C3010008C3010008C3010008E0
:1000F000C3010008C3010008C3010008C3010008D0
:10010000C3010008C3010008C3010008C3010008BF
:10011000C3010008C3010008C3010008C3010008AF
:10012000C3010008C3010008C3010008C30100089F
:10013000C3010008C3010008C3010008C30100088F
:10014000C3010008C3010008C3010008C30100087F
:10015000C3010008C3010008C3010008C30100086F
:10016000C3010008C3010008C3010008C30100085F
:10017000C3010008C3010008C3010008C30100084F
:10018000C3010008C3010008DFF810D000F048FAEE
:100190000048004711380008AFF30080801B0020A2
:1001A00080F30888704700000648804706480047EB
:1001B000FEE7FEE7FEE7FEE7FEE7FEE7FEE7FEE717
:1001C000FEE7FEE7B51100088901000840EA0103D7
:1001D0009B0703D009E008C9121F08C0042AFAD2FD
:1001E00003E011F8013B00F8013B521EF9D27047C1
:1001F000D2B201E000F8012B491EFBD27047002269
:10020000F6E710B513460A4604461946FFF7F0FF15
:10021000204610BD421C10F8011B0029FBD1801A9A
:10022000704730B50B46014600202022012409E02A
:1002300021FA02F59D4205D303FA02F5491B04FA9F
:1002400002F52844151EA2F10102F1DC30BD2DE9B2
:10025000F05F0546002092469B468846064681464A
:1002600040241BE0284641464746224600F0F9F963
:1002700053465A46C01A914110D311461846224699
:1002800000F0E0F92D1A67EB01084F4622460120E5
:10029000002100F0D7F917EB00094E41201EA4F110
:1002A0000104DFDC484631462A464346BDE8F09F5C
:1002B0002DE9FE4F804681EA0300C00F0C460090F6
:1002C00021F0004123F00045B8EB0200A94105D21E
:1002D0004046214690461C460B46024623F000400D
:1002E000104347D0270DC7F30A00C3F30A51029009
:1002F000401A019040286BDAC3F3130040F4801BCE
:100300000098924620B10023D2EB030A63EB0B0B5B
:1003100001985946C0F14002504600F093F9064654
:100320000D4650465946019A00F0ABF910EB080013
:100330006141002487EA115284EAE7731A4340D0EE
:10034000009A62B3019A012A4FEA075215DC001B9A
:1003500061EB02014FF0004202EA0752CDE9004290
:10036000001C41F5801132462B4600F0ABF903B07A
:10037000BDE8F08F40462146F9E7001B61EB020122
:10038000001C41F5801300185B412018A2F50017EE
:1003900047EB030140EAD570B6196D4111E06D08D5
:1003A0004FEA360645EAC0754FEA0752001B61EB7B
:1003B0000201001C41F5801149084FEA3000001984
:1003C000514132462B4603B0BDE8F04F00F06BB907
:1003D0000098012240000023D0EB020263EBE0739F
:1003E000009821464FEAE074B8EB000061EB04018D
:1003F000E9E783F000435BE781F0004158E72DE92E
:10040000FE4F81EA030404F0004421F0004100940F
:100410004FF0000B23F0004350EA01045ED052EA93
:1004200003045BD0C3F30A54C1F30A552C44A4F26D
:10043000F3340194A0FB0254C1F3130141F4801181
:10044000C3F3130343F4801301FB024400FB034E88
:10045000840A970A44EA815447EA8357A4FB076851
:1004600002958D0A05FB07854FEA932C04FB0C547B
:100470002705029D4FEA065847EA1637B5EB0805EF
:100480006EEB070C870E920E47EA811742EA831241
:10049000A7FB0201B6EB0B0164EB00042B0D43EA52
:1004A0000C335E1844EB1C50DA465146E7FB020160
:1004B000C5F313044FEA0B3343EA14534FEA0432F3
:1004C000019C43EA0603A4F10C040294009CCDE9CC
:1004D00000B400F0F7F803B0BDE8F08F002001464B
:1004E000F9E72DE9F04D81EA030404F0004B21F017
:1004F000004514464FF0000A23F0004150EA05027F
:1005000020D054EA01021DD0C5F30A570246C5F3B4
:100510001303C1F31300C1F30A5640F4801543F4EA
:100520008013A7EB0608101BD64608F2FD3873EBC4
:10053000050002D308F1010801E092185B41B8F10F
:10054000000F03DA00200146BDE8F08D00204FF4D3
:100550008011064684460EE0171B73EB050705D392
:10056000121B63EB050306434CEA010C49084FEAF2
:10057000300092185B4150EA0107EDD152EA0300C6
:1005800012D082EA040083EA0501084305D0101B5B
:10059000AB4106D20122002306E000224FF00043C7
:1005A00002E06FF0010253101AEB06004CEB085109
:1005B00010EB0A0041EB0B01BDE8F04D00F073B801
:1005C000C1F30A52C1F3130140F2FF3341F4801129
:1005D0009A4202DA00200146704740F233439A42C1
:1005E000A2F2334202DC524200F03BB800F02AB8DB
:1005F00030B5041E71F1000404DB4FF000444042AA
:1006000064EB0101141E73F1000405DB1C464FF07E
:100610000043524263EB0403994208BF904230BD4D
:10062000064C074D06E0E06840F0010394E807003F
:1006300098471034AC42F6D3FFF7AAFDB44D00083A
:10064000D44D0008202A04DB203A00FA02F10020F1
:1006500070479140C2F1200320FA03F31943904000
:100660007047202A04DB203A21FA02F0002170476B
:1006700021FA02F3D040C2F120029140084319460A
:100680007047202A06DBCB17203A41FA02F043EAF2
:10069000E07306E041FA02F3D040C2F1200291403B
:1006A00008431946704710B5141E73F1000408DAA8
:1006B000401C41F1000192185B411A4301D120F026
:1006C000010010BD2DE9F04D92469B4611B1B1FAE3
:1006D00081F202E0B0FA80F220329046FFF7B2FFDA
:1006E00004460F4640EA0A0041EA0B0153465A46C7
:1006F000084313D0114653EA010019D0C8F1400253
:100700005046FFF7AEFF05460E4650465946424654
:10071000FFF798FF084305D0012004E02046394642
:10072000BDE8F08D0020054346EAE0762C433743D0
:100730000A986305E40AA0EB08000022FD0A44EAD7
:1007400047540A3002D500200146E9E70105101997
:100750006941DDE9084500196941BDE8F04DA2E7AE
:1007600000BFFEE70246094B9A4201D2084801E069
:100770000648103801F000531BB1064B0B40C36014
:1007800002E0044B0B40836070470000106402409D
:10079000006002407D0F7D0F21B1026842F001022E
:1007A000026003E0026822F001020260704700006C
:1007B000016821F001010160002101604160816058
:1007C000C1600161212141614A49884204D13D2132
:1007D000484A103A91608CE046491831884205D168
:1007E0004FF47461434A103A916082E041493031DC
:1007F000884205D14FF474113E4A103A916078E076
:100800003C494831884205D14FF07461394A103A69
:1008100091606EE037496031884204D13649354AEB
:10082000103AD16065E033497831884204D13349C8
:10083000304A103AD1605CE02E499031884204D1B0
:100840002F492C4A103AD16053E02A49A8318842F6
:1008500005D14FF03D51274A103AD16049E029496E
:10086000884204D13D21274A083A116041E02549D8
:100870001831884205D14FF47461224A083A116058
:1008800037E020493031884205D14FF474111D4AB8
:10089000083A11602DE01B494831884205D14FF0DC
:1008A0007461184A083A116023E0164960318842A1
:1008B00004D11149134A121F11601AE0114978310D
:1008C000884204D10D490F4A121F116011E00D49F1
:1008D0009031884204D10A490A4A121F116008E087
:1008E0000849A831884204D14FF03D51054A121FF2
:1008F00011607047106002403D000020400F002052
:1009000000003D20106402400146486880B27047F4
:1009100010B500220268134B1A40CC680B682343C1
:100920004C6923438C692343CC6923430C6A2343DA
:100930004C6A23438C6A23434C6B23438C6B2343C5
:100940001A430260426922F00702D1E90B342343C3
:100950001A4342610B6943604B6883608B68C360D4
:1009600010BD00003F801CF0704700000149086086
:10097000704700000C3C024070B504460A46002651
:10098000092502B909E0012A01D1160205E0022A6F
:1009900001D1160201E04FF4407600F09FF80546C1
:1009A000092D28D11548006820F4407013490860CB
:1009B00008460068304308600846006820F0F800E8
:1009C00008600846006844F0020108430B490860CB
:1009D0000846006840F48030086000F07FF8054663
:1009E0000648006820F002000449086008460068D4
:1009F00020F0F8000860284670BD0000103C02405E
:100A000009201349096801F48031B1F5803F01D113
:100A100001201CE00E49096801F0100109B106200F
:100A200015E00B49096801F4807109B102200EE05C
:100A30000749096801F0E00109B1072007E004490E
:100A4000096801F0020109B1082000E0092070479F
:100A50000C3C02400348006840F000400149086037
:100A600070470000103C024030B502460C46092594
:100A700000F034F80546092D19D10E48006820F41D
:100A800040700C4908600846006840F40070086037
:100A90000846006840F001000860146000F01EF88D
:100AA00005460448006820F0010002490860284615
:100AB00030BD0000103C02400548006800F00040D6
:100AC00028B1044802490C3908600348086070479F
:100AD000103C024023016745AB89EFCD08B50920E2
:100AE0000090FFF78DFF009002E0FFF789FF009074
:100AF0009DF800000128F8D09DF8000008BD000016
:100B000010B504464148844208D10121084600F04E
:100B100087F90021012000F083F976E03C48844207
:100B200008D10121022000F07BF90021022000F011
:100B300077F96AE03748844208D10121042000F0A7
:100B40006FF90021042000F06BF95EE03248844226
:100B500008D10121082000F063F90021082000F0ED
:100B60005FF952E02D48844208D10121102000F0A5
:100B700057F90021102000F053F946E0284884423C
:100B800008D10121202000F04BF90021202000F0A5
:100B900047F93AE02348844208D10121402000F07F
:100BA0003FF90021402000F03BF92EE01E4884422E
:100BB00008D10121802000F033F90021802000F0CD
:100BC0002FF922E01948844208D10121801500F054
:100BD00027F90021A01500F023F916E014488442FB
:100BE00008D10121401500F01BF90021601500F02B
:100BF00017F90AE00F48844207D10121001500F0DF
:100C00000FF90021201500F00BF910BD0000024083
:100C10000004024000080240000C024000100240A4
:100C20000014024000180240001C02400020024054
:100C30000024024000280240F0B50A4600210023AB
:100C4000002400BF3DE0012505FA01F3156805EA1F
:100C500003049C4234D105684F000326BE40B543CF
:100C6000056015794E00B540066835430560157975
:100C7000012D02D01579022D16D185684F0003266B
:100C8000BE40B543856055794E00B5408668354312
:100C90008560456801268E40B54345604568967974
:100CA0008E40B6B235434560C5684F000326BE404E
:100CB000B543C560D5794E00B540C6683543C560BB
:100CC000491C1029BFD3F0BDF0B5002300244D0707
:100CD000ED0E02FA05F3CE1000F1200555F826506E
:100CE0004E07F70E0F26BE40B543CF1000F1200689
:100CF00046F82750CE1000F1200555F8265045EA59
:100D00000304CE1000F1200545F82640F0BD024650
:100D1000002013690B400BB1012000E00020704758
:100D20000AB1018300E04183704700BFFEE700BFC6
:100D3000FEE7704770B5002100230F22C4781CB372
:100D4000174C246804F4E064C4F5E064C4F307219C
:100D5000C1F10404E3B20A4144789C40E1B28478D2
:100D6000144021430C07210E0E4C05786155047880
:100D700004F01F050124AC4005786D11AD0005F1AC
:100D8000E025C5F8004109E0047804F01F050124BE
:100D9000AC40054D0678761145F8264070BD000040
:100DA0000CED00E000E400E080E100E002490143D6
:100DB000024A1160704700000000FA050CED00E0E7
:100DC00000BF00BF00BFBFF34F8F00BF00BF00BF19
:100DD0000948006800F4E06008490843001D06491E
:100DE000086000BF00BF00BFBFF34F8F00BF00BF50
:100DF00000BF00E000BFFDE70CED00E00000FA05D9
:100E000029B1064A12680243044B1A6004E0034AFF
:100E100012688243014B1A6070470000303802406C
:100E200029B1064A12680243044B1A6004E0034ADF
:100E300012688243014B1A6070470000103802406C
:100E400029B1064A12680243044B1A6004E0034ABF
:100E500012688243014B1A6070470000403802401C
:100E600029B1064A12680243044B1A6004E0034A9F
:100E700012688243014B1A6070470000203802401C
:100E800029B1064A12680243044B1A6004E0034A7F
:100E900012688243014B1A607047000044380240D8
:100EA00029B1064A12680243044B1A6004E0034A5F
:100EB00012688243014B1A607047000024380240D8
:100EC000F0B5002100220024022500260223324F23
:100ED0003F6807F00C0121B1042905D0082937D15A
:100EE00005E02E4F076036E02D4F076033E02A4FB4
:100EF0003F1F3F68C7F38056274F3F1F3F6807F0EB
:100F00003F036EB1264FB7FBF3F7DFF88CC0ACF1AF
:100F1000040CDCF800C0CCF3881C07FB0CF40CE0DC
:100F20001E4FB7FBF3F7DFF870C0ACF1040CDCF830
:100F300000C0CCF3881C07FB0CF4174F3F1F3F6821
:100F4000C7F301477F1C7D00B4FBF5F7076002E0A3
:100F5000124F076000BF00BF0F4F3F6807F0F0015E
:100F60000909104F7A5C0768D74047600A4F3F680D
:100F700007F4E051890A0B4F7A5C4768D7408760D5
:100F8000054F3F6807F46041490B064F7A5C47689C
:100F9000D740C760F0BD0000083802400024F400CC
:100FA00000127A00AC00002021B1028842F0400219
:100FB000028004E002884FF6BF731A400280704737
:100FC00010B504462448844208D101218014FFF75B
:100FD00067FF0021A014FFF763FF3CE01F48844235
:100FE00008D101210014FFF73BFF00212014FFF777
:100FF00037FF30E01A48844208D10121C013FFF7BF
:101000002FFF0021E013FFF72BFF24E01548844257
:1010100008D101214014FFF743FF00216014FFF7BE
:101020003FFF18E01048844209D101210805FFF76D
:1010300037FF00214FF48010FFF732FF0BE00B4821
:10104000844208D101214805FFF72AFF00214FF40F
:101050000010FFF725FF10BD0030014000380040B0
:10106000003C004000340140005001400054014069
:101070000246002013890B400BB1012000E0002044
:1010800070470146888970478181704710B50022FA
:10109000028802F441520B884C8823438C882343F6
:1010A000CC8823430C8923434C8923438C892343D5
:1010B000CC8923431A430280838B4FF2FF74234071
:1010C00083830B8A038210BD0CB500200190009031
:1010D0003448006840F480303249086000BF31482D
:1010E000006800F4003000900198401C01900098C6
:1010F00018B90198B0F5A04FF1D12A48006800F462
:10110000003010B10120009001E000200090009814
:10111000012846D123484030006840F080502149E2
:10112000403108602048006840F440401E49086093
:101130001C48083000681B490831086008460068F0
:1011400040F4004008600846006840F4A050086081
:101150001648091F0860081F006840F08070091FCA
:10116000086000BF0F48006800F000700028F9D048
:1011700040F205700E4908600A480830006820F007
:1011800003000849083108600846006840F0020082
:10119000086000BF03480830006800F00C00082811
:1011A000F8D10CBD003802400070004008544007E0
:1011B000003C024010B51548006840F47000134927
:1011C00008601348006840F00100114908600020E1
:1011D0000F49083108600E4800680E4908400C4964
:1011E00008600D48091D0860081F006820F4802071
:1011F000091F0860002006490C310860FFF764FFF2
:101200004FF0006001498039086010BD88ED00E0B2
:1012100000380240FFFFF6FE1030002408B540F20F
:101220002441314800F005F900285CD02E480088A0
:10123000C0B200902C488088C0B200902B48FFF7C5
:1012400063FB40F20121081A29490988084428490A
:10125000088008460088401E264908442449496DF4
:1012600048602348406D0830214948650846406D74
:10127000C96D884203D11E48001D011F48651C48E6
:101280000088C0F50060B0F5007F07DB18480088D3
:10129000184908441649496D086006E01548144984
:1012A000496D086000201249088000210F48FFF7AF
:1012B00073FA00BF0D48006800F001000028F9D162
:1012C00040F201200949091D08600948406D006885
:1012D00006490C31086008490448FFF743FA012128
:1012E0000248FFF759FA08BD001001408864024027
:1012F0001C1500201C0D00200008002021B182894F
:1013000042F40052828104E082894DF6FF731A4054
:10131000828170471AB1838A0B43838202E0838AF9
:101320008B4383827047000010B5044632488442E4
:1013300008D101211020FFF7B3FD00211020FFF795
:10134000AFFD57E02D48844209D101214804FFF741
:1013500087FD00214FF40030FFF782FD4AE0284866
:10136000844209D101218804FFF77AFD00214FF45E
:101370008020FFF775FD3DE02248844209D101211C
:10138000C804FFF76DFD00214FF40020FFF768FD52
:1013900030E01D48844209D101210805FFF760FDB6
:1013A00000214FF48010FFF75BFD23E017488442D3
:1013B00008D101212020FFF773FD00212020FFF735
:1013C0006FFD17E01248844209D101218807FFF719
:1013D00047FD00214FF08040FFF742FD0AE00D4835
:1013E000844207D101214005FFF73AFD0021600545
:1013F000FFF736FD10BD0000001001400044004022
:1014000000480040004C00400050004000140140E3
:1014100000780040007C004002460020B1F5007FCB
:1014200000D100BF13880B400BB1012000E0002069
:10143000704770B50246002400230025002040F6C6
:101440006A16B14200D100BFC1F3421501F01F037B
:10145000012606FA03F3012D02D19689334006E0F6
:10146000022D02D1168A334001E0968A33400C12D5
:10147000012606FA04F41688344013B10CB1012099
:1014800000E0002070BDF0B50346002400260025D2
:10149000002040F66A17B94200D100BF1846C1F3D8
:1014A000421401F01F06012707FA06F5012C01D1AD
:1014B0000C3004E0022C01D1103000E014301AB1DD
:1014C00007682F43076002E00768AF430760F0BD7D
:1014D0002DE9FF4705460E460024A14600BFA04661
:1014E000B08900B100BF2C8A24F44054F088044332
:1014F0002C82AC8941F20C608443B0883189084366
:10150000718908430443AC81AC8A24F44074B089E7
:101510000443AC826846FFF7D3FC2048854202D0E2
:101520001F48854202D1DDF80C9001E0DDF80890FB
:10153000A88900F4004040B109EBC90000EB091094
:1015400031684900B0FBF1F707E009EBC90000EB97
:10155000091031688900B0FBF1F76420B7FBF0F0A7
:1015600004012009642101FB1078A88900F40040DF
:1015700040B1322000EBC800B0FBF1F000F00700F2
:10158000044308E0322000EB08106421B0FBF1F0C6
:1015900000F00F0004432C81BDE8FF8700100140DC
:1015A00000140140C1F308028280704700BFFEE7CB
:1015B00037B514460846064B6A46214601F0A0FAA4
:1015C00004466946002001F01EFE20463EBD000094
:1015D0000732000810B50848FFF7EAF80748FFF798
:1015E0008FFA0748FFF78CFA0648FFF79DFE06487A
:1015F000FFF7E6FC10BD000040640240000002401E
:1016000000040240001001400038004010B50C48B2
:10161000C1690CA088470A48C1690BA088470848DF
:10162000C1690DA088470648C16915A088470448CC
:10163000C1691FA088470248C16928A0884710BD1A
:10164000000000200D0A00005B315D45726173658A
:10165000204150500D0A00005B325D49415020642A
:101660006F776E6C6F6164207468652070726F674D
:1016700072616D20746F20466C6173680D0A000002
:101680005B335D49415020646F776E6C6F616420FD
:1016900070726F6772616D7320746F206578746506
:1016A000726E616C20466C6173680D0A0000000068
:1016B0005B345D4C6F6164696E672070726F677236
:1016C000616D732066726F6D2065787465726E61EE
:1016D0006C20466C6173680D0A0000005B355D523A
:1016E0006573746172740D0A0000000070B50446E1
:1016F0000CB1207C10B94FF0FF3070BD65692846F1
:10170000E96B8847606901F099FE002060612074F0
:1017100000BFF2E72DE9F84304460E461746984607
:101720000CB1207C18B94FF0FF30BDE8F883656933
:10173000CDF800803B46324650212846D5F830C0CF
:10174000E0470020F1E72DE9F04104460E46174638
:101750000CB1207C18B94FF0FF30BDE8F08165690D
:101760003B46324650212846D5F834C0E047002099
:10177000F3E7F8B504460E4617460CB1207C10B9C5
:101780004FF0FF30F8BD65690097082332465021BD
:101790002846D5F838C0E0470020F3E770B5044686
:1017A0004FF47A7094FBF0F50A482946C2690AA002
:1017B000904708E017480078772801D1002070BDD5
:1017C000012001F08DFD201EA4F101018CB2F1D1A8
:1017D000401EF4E7000000200D0A456E746572207B
:1017E0002277222077697468696E202564207365EA
:1017F000636F6E647320746F20656E7465722074FD
:10180000686520636F6D6D616E64206C696E652E16
:101810000D0A00001C0D002010B50C48C1690CA079
:10182000884702240AE00E482146C26890470748CC
:101830002146C2690BA09047601CC4B20C2CF2DB9D
:101840000248C16910A0884710BD000000000020B8
:101850000D0A4572617365204150502E0D0A00003B
:10186000C40000205375636365737366756C6C798F
:101870002065726173656420736563746F722025DF
:10188000642E0D0A00000000537563636573736670
:10189000756C6C79206572617365642041505021CC
:1018A0000D0A0000014609B1087810B94FF0FF3069
:1018B00070470020087000BFFAE770B504460D4677
:1018C0000CB1207810B94FF0FF3070BD0C2D02DB49
:1018D0006FF00100F9E7FFF7EFF8F320FFF746F8A4
:1018E000E8000221FFF748F8092804D0FFF7B2F812
:1018F0006FF00200E9E7FFF7ADF80020E5E72DE91A
:10190000F04104460D4616461F460CB1207818B922
:101910004FF0FF30BDE8F081FFF7CEF8F320FFF77E
:1019200025F806E028463168FFF79EF83F1F2D1D79
:10193000361D002FF6D1FFF78DF80020EAE70000F2
:1019400070B504460D46012D05D12078312802D10D
:10195000FFF762FF49E0012D19D12078322816D116
:101960002248C16922A08847FFF756FF1F48C16976
:1019700029A088473048006840F006002E490860DA
:1019800000202E49C1F80404C1F808042DE0012DFF
:101990000DD1207833280AD11448C16928488847D6
:1019A0002548006840F00800234908601DE0012D2B
:1019B0000DD1207834280AD10C48C16921488847C4
:1019C0001D48006840F020001B4908600DE0012D13
:1019D0000BD12078352808D10448C1691AA088475E
:1019E000642001F07DFCFFF7EBF970BD00000020E2
:1019F0000D0A49415020646F776E6C6F61642074EA
:101A000068652070726F6772616D20746F20466C1C
:101A10006173682E0D0A00000D0A506C65617365D4
:101A2000207573652062696E20666F726D61742027
:101A300066696C652E0D0A00A40000200C010020D0
:101A4000E44C0008904C00080D0A526573746172F2
:101A500074210D0A0000000070B504460E46012EE8
:101A600043D1207831283BDB2078392838DC2148E5
:101A7000006820F008001F490860207830381E49AF
:101A8000C1F800041B48006840F0160019490860BE
:101A900000201949C1F80404C1F80804D1F8001461
:101AA000164A42F821001448D0F800141448C269BC
:101AB00014A09047002509E00F48B0F8000405EB9A
:101AC000001081B21E48C26B90476D1C102DF3DBD5
:101AD0000948D0F800140A48C2691A48904708E03B
:101AE0000748C16918A0884703E00548C1691AA0E2
:101AF000884770BDA40000200C010020DC000020FD
:101B0000000000200D0A45726173696E67207468D9
:101B10006520256474682070726F6772616D206241
:101B20006C6F636B206F662065787465726E616C94
:101B300020466C6173682E2E2E0D0D0A00000000E9
:101B4000540000203C4D00084E756D6265722065A2
:101B500072726F72210D0A0044617461206C656EAF
:101B6000677468206572726F72210D0A00000000B0
:101B700070B504460D46012D1CD12078312814DBA8
:101B80002078392811DC0E48006820F020000C492C
:101B90000860207830380B49C1F800040848006814
:101BA00040F001000649086008E00748C16907A045
:101BB000884703E00448C16908A0884770BD000059
:101BC000A40000200C010020000000204E756D6272
:101BD0006572206572726F72210D0A004461746132
:101BE000206C656E677468206572726F72210D0AD1
:101BF000000000002DE9F04105460E46852E6DD10E
:101C0000287801286AD16F48006820F002006D49E9
:101C100008608021E81C00F08EFE6B49C1F80C04BE
:101C200095F8841095F8830001EB00206649D1F8FF
:101C30000C1488424ED16448D0F80804401C624914
:101C4000C1F8080491F80814491E01F007015E4A22
:101C500002EBC1108022E91CFEF7B8FA5A4890F84E
:101C6000080400F0070008BB5648007800F0100098
:101C7000E8B1002418E05448B0F8000403055248C5
:101C8000D0F808044FF0010CCCEBD00003EB80201F
:101C900000EB04214C4800EB04224C484FF48073C5
:101CA000076BB847601CC4B2042CE4DB0DE0464867
:101CB000D0F808040122C2EBD000454A02EB802193
:101CC00044485314404A0769B8474348C16943A090
:101CD000884703E04048C16941A08847012E6ED182
:101CE000287804286BD13C48C1693CA08847364815
:101CF00090F8080400F0070078B33248007800F04C
:101D00001000D0B1002415E02F48B0F800040305FE
:101D10002D48D0F80804C00803EB802000EB042114
:101D2000294800EB042229484FF48073076BB84719
:101D3000601CC4B2042CE7DB0FE0234890F80804D1
:101D40004007830D2048D0F80804C008204A02EB61
:101D5000802120481C4A0769B8471A48006820F0CB
:101D60000400184908600846007800F01000D0B15F
:101D70000846006820F0100008601348D0F80804F6
:101D8000C0011149D1F80014164A42F8210001F0AF
:101D900027FB1148C16914A08847642001F0A0FA0C
:101DA000FFF734FC0BE0C82001F09AFA0A48C16939
:101DB00013A08847C82001F093FAFFF701F8BDE8A7
:101DC000F0810000A40000200C010020540000203D
:101DD00000800008C4000020000000200600000071
:101DE00015000000DC000020446F776E6C6F6164AA
:101DF00020636F6D706C65746564210D0A000000CE
:101E00004941502075706461746520636F6D706C1A
:101E1000657465642C2072657374617274210D0A97
:101E200000000000014609B1087C10B94FF0FF30F6
:101E300070470020087400BFFAE72DE9F04104461E
:101E40000D4616461F460CB1207C18B94FF0FF30E6
:101E5000BDE8F081204600F008F96806010E204632
:101E600000F0E5F8204600F069F83146204600F021
:101E7000DEF8204600F062F8204600F0F6F8012077
:101E800000EB4500C1B2204600F0D1F8204600F03A
:101E900055F8204600F066F838700121204600F021
:101EA000B1F8204600F0F9F80020D1E72DE9F0471D
:101EB00005460E4690461F46DDF820900DB1287C61
:101EC00018B94FF0FF30BDE8F087284600F0CDF894
:101ED0007006010E284600F0AAF8284600F02EF8F9
:101EE0004146284600F0A3F8284600F027F8284687
:101EF00000F0BBF8012000EB4600C1B2284600F01C
:101F000096F8284600F01AF8002410E0284600F061
:101F100029F809F80400781EA04201D1012000E050
:101F200000200146284600F06DF8601C84B2BC42D7
:101F3000ECDB284600F0B1F80020C4E770B5044699
:101F40000121204600F04BF80121204600F027F83F
:101F5000204600F037F805460021204600F01FF823
:101F6000284670BD70B5064600250121304600F0B8
:101F700036F807240FE00121304600F010F8304613
:101F800000F020F8A0402843C5B20021304600F000
:101F900006F8601E44B2002CEDDA284670BD70B51C
:101FA00004460D46207C10B94FF0FF3070BDA2886A
:101FB00091B22A462068FEF7B3FE012001F09CF999
:101FC0000020F3E770B50446A28991B2A068FEF73D
:101FD0009EFE0546012001F08FF9284670BD70B5C0
:101FE00004460D46207C10B94FF0FF3070BDA28929
:101FF00091B22A46A068FEF793FE012001F07CF919
:102000000020F3E770B504460D4614B94FF0FF30D9
:1020100070BD29462046FFF7E2FF01212046FFF769
:10202000BEFF00212046FFF7BAFF0020F0E770B5A1
:1020300005460E4615B94FF0FF3070BD002410E084
:102040008020204100EA06012846FFF7C8FF012151
:102050002846FFF7A4FF00212846FFF7A0FF601CD9
:10206000C4B2082CECDB0020E7E710B5044614B935
:102070004FF0FF3010BD01212046FFF7B0FF0121D6
:102080002046FFF78CFF00212046FFF7A8FF002124
:102090002046FFF784FF0020ECE710B5044614B992
:1020A0004FF0FF3010BD00212046FFF778FF0021E0
:1020B0002046FFF794FF01212046FFF770FF012122
:1020C0002046FFF78CFF0020ECE72DE9F0410446A5
:1020D0000D4616461F460CB1207C18B94FF0FF3054
:1020E000BDE8F0812046FFF7C0FF6806010E2046DC
:1020F000FFF79DFF2046FFF721FF31462046FFF7FF
:1021000096FF2046FFF71AFF39462046FFF78FFF5C
:102110002046FFF713FF2046FFF7BFFF0020DFE751
:102120002DE9F04705460E4617469846DDF8209003
:102130000DB1287C18B94FF0FF30BDE8F087284674
:10214000FFF793FF7006010E2846FFF770FF284641
:10215000FFF7F4FE39462846FFF769FF2846FFF7E8
:10216000EDFE002409E019F804102846FFF75FFF90
:102170002846FFF7E3FE601C84B24445F3DB2846A3
:10218000FFF78BFF0020D8E710B504462068B0F1B8
:10219000005F0FD30A49206888420BD82068FDF7FA
:1021A000FFFF084960680860FFF714FA05480068F7
:1021B000804703E00448C16904A0884710BD0000BF
:1021C000FFFF0120A0000020000000200D0A4A753A
:1021D0006D70696E6720746F204150502066616990
:1021E0006C6564210D0A000002E008C8121F08C1D6
:1021F000002AFAD170477047002001E001C1121F88
:10220000002AFBD1704770B504460D46228C91B26E
:102210002A46E069FEF784FD70BD014611B191F8D0
:10222000280010B94FF0FF307047002081F82800D7
:1022300000BFF9E710B5044600212046FFF7E3FF91
:1022400010BD10B5044601212046FFF7DCFF10BD8C
:1022500070B504460D4600BF02212068FEF708FF56
:102260000128F9D129462068FEF70EFF00BF0121A1
:102270002068FEF7FDFE0128F9D12068FEF701FF76
:10228000C0B270BD0FB438B505A800901248009ACE
:102290000499FFF78DF90020009000240DE000BFA5
:1022A00080210E48FFF7B8F80128F9D10A48015DEE
:1022B0000A48FFF777F9601C84B20748FDF7AAFFC8
:1022C000A042ECD800BF40210448FFF7A5F8012840
:1022D000F9D138BC5DF814FB1C050020001001404A
:1022E0000F48406D0E4A926D904217D000200C4A64
:1022F000926D526850700A48806D01680848806D80
:102300000830074A90651046806DD26D904203D127
:102310000348001D021F9065084670470020FCE737
:102320001C15002070B505460E4600240BE0295D03
:102330000648FFF737F900BF80210448FFF76CF823
:102340000028F9D0641CB442F1D370BD00100140E4
:10235000084A016891420CD107490A1F51659165ED
:102360004831D1650549526D11600021024A121FA2
:102370001180704700100140201500201C0D002026
:10238000014609B1087E10B94FF0FF3070470020B8
:10239000087600BFFAE7000010B590B004468949FE
:1023A0002068884204D101218805FEF729FD2BE031
:1023B00085492068884204D101214805FEF720FDA7
:1023C00022E082492068884204D101214805FEF7B5
:1023D00017FD19E07E492068884204D10121480593
:1023E000FEF70EFD10E07B492068884204D10121F0
:1023F0004805FEF705FD07E077492068884203D1CC
:1024000001218805FEF7FCFC6E4A2168914201D14A
:10241000724922E06C4A2168914201D170491CE066
:102420006A4A2168914202D16D49603915E0684AD3
:102430002168914202D16A4948390EE0654A216813
:10244000914202D16649783907E0634A2168914296
:1024500002D16249603900E000210846FEF7A8F980
:1024600058492068884202D14FF0006023E0564965
:102470002068884202D14FF000601CE05349206878
:10248000884202D14FF0006015E05149206888422F
:1024900002D14FF000600EE04E492068884202D120
:1024A0004FF0006007E04C492068884202D14FF0AD
:1024B000206000E0002001902068001D02900020B4
:1024C000089006903F492068884201D14548039012
:1024D000002009904FF4806007903A4920688842B4
:1024E00002D140F201200590002004900A904FF4A0
:1024F00000300B9000200C9003200D9000200F90D6
:102500000E90304A2168914201D1344922E02E4A8E
:102510002168914201D132491CE02C4A2168914244
:1025200002D12F49603915E0294A2168914202D130
:102530002B4948390EE0274A2168914202D12849A7
:10254000783907E0244A2168914202D12349603951
:1025500000E00021084601A9FEF7DAF9194A2168CE
:10256000914201D11D4922E0174A2168914201D1CF
:102570001B491CE0154A2168914202D11849603973
:1025800015E0134A2168914202D1154948390EE0FD
:10259000104A2168914202D11149783907E00E4A68
:1025A0002168914202D10D49603900E000210846BE
:1025B0000121FEF7F1F8012240212068FEF7AAFE72
:1025C00010B010BD00100140004400400048004021
:1025D000004C00400050004000140140886402405C
:1025E000886002401C0D002070B506460D46B46A96
:1025F000304600F092F92046216B88472021204682
:10260000A26B90472804C0F307412046A26B904775
:102610002804C0F307212046A26B90472804C1B2CA
:102620002046A26B90472046616B8847304600F0F9
:10263000C1F870BD70B5044614B194F8240010B907
:102640004FF0FF3070BDA56A2846E96B8847A06A45
:1026500000F0F4FE0020A06284F8240000BFF1E73F
:102660002DE9F04707460D4690469946BC6A384624
:1026700000F053F92046216B884702212046A26BC7
:102680009047C5F307412046A26B9047C5F3072149
:102690002046A26B9047E9B22046A26B90470026E5
:1026A00006E018F806102046A26B9047701C86B210
:1026B0004E45F6DB2046616B8847384600F07AF8D5
:1026C000BDE8F0872DE9F04707460D46904699464C
:1026D000BC6A2046216B884703212046A26B9047A5
:1026E000C5F307412046A26B9047C5F3072120465A
:1026F000A26B9047E9B22046A26B9047002606E005
:10270000FF212046A26B904708F80600761C4E4534
:10271000F6D32046616B8847BDE8F0872DE9F0418C
:1027200006460F461546B46A2046216B88479F210E
:102730002046A26B9047FF212046A26B904738703D
:10274000FF212046A26B9047288028884FF6FF7112
:1027500001EA00202880FF212046A26B90472988AB
:10276000084328802046616B8847BDE8F08170B53A
:1027700006460D46B46A304600F0CFF82046216B7D
:10278000884720212046A26B9047C5F30741204689
:10279000A26B9047C5F307212046A26B9047E9B290
:1027A0002046A26B90472046616B8847304600F078
:1027B00001F870BD70B50546AC6A2046216B8847AC
:1027C00005212046A26B9047084E02E0761E06B90E
:1027D00007E0FF212046A26B904700F0010000288F
:1027E000F4D100BF2046616B884770BDA086010010
:1027F00070B50546AC6A2046216B8847AB21204660
:10280000A26B90472046616B884770BD2DE9F84F59
:1028100083460E4617461C464FF00008C146C24686
:1028200000250020009006F0FF0ACAF10000C5B2A2
:10283000C4F3072804F0FF09BAF1000F23D1B8F15F
:10284000000F06D1A3B23A4631465846FFF708FFBB
:1028500061E00AE04FF480733A4631465846FFF78C
:10286000FFFE06F5807607F58077B8F10000A8F145
:10287000010101F0FF08EDD14B463A46314658467A
:10288000FFF7EEFE47E0B8F1000F1BD1A94512DDBE
:10289000A9EB0500C0B200902B463A463146584697
:1028A000FFF7DEFE2E442F443A4631465846009B41
:1028B000FFF7D6FE2FE0A3B23A4631465846FFF75F
:1028C000CFFE28E0641BC4F3072804F0FF092B4661
:1028D0003A4631465846FFF7C3FE2E442F440AE0DD
:1028E0004FF480733A4631465846FFF7B9FE06F575
:1028F000807607F58077B8F10000A8F1010101F0BA
:10290000FF08EDD1B9F1000F05D04B463A463146EC
:102910005846FFF7A5FEBDE8F88F70B50546AC6ACE
:102920002046216B884706212046A26B904720460F
:10293000616B884770BD70B502460B46002041F2BE
:10294000210414E0157880EA052000210CE000F451
:1029500000451DB184EA4005A8B203E04FF6FF75BB
:1029600005EA40004D1CE9B20829F0DB521C1D1E8F
:10297000A3F10106B3B2E5D170BD00002DE9FF5F00
:1029800082B00021DDE90430020DDDF840B00343E0
:1029900018D044F61050A2F2FF3242431514119899
:1029A00001281FD0A5EB0B00401C5FEA000A4FF086
:1029B00000064E4FDFF83891B046504615D5CAF1A3
:1029C000000413E0119801244AA3012801D16FEA01
:1029D0000B010298119AC0E90031C0E9024206B029
:1029E000BDE8F09FCBF10000DFE704460021404A3C
:1029F000491842EB0450CDE9001012E0E00707D07F
:102A000032463B4640464946FDF7F9FC804689463A
:102A100032463B4610461946FDF7F1FC06460F4686
:102A20006410002CEAD1DDE90401DDE90023BAF1EC
:102A3000000F06DAFDF7E3FC42464B46FDF7DFFCEC
:102A400005E0FDF74EFD42464B46FDF74AFD0446C4
:102A50000E460022284BFDF7CBFD03D84FF0FF3088
:102A6000014607E00022254B20463146FDF720FCB9
:102A7000FDF7A6FD102409E0002C0ADB0A22002342
:102A8000FDF7E5FB039B30321A55641E50EA010244
:102A9000F2D1641C039AC4F111031444119A012A5F
:102AA00003D0012208430DD10AE0084304D00020DE
:102AB0004FF0110B119072E7A3EB0B056D1E0DE0AB
:102AC0005B4504DD4FF0000205F1010504E003DA87
:102AD0004FF00002A5F10105002AECD002981199EF
:102AE000C0E90231C0E9004579E700000000144068
:102AF0000000F03F300000000000F0430000E03F25
:102B00002DE9FF4F95B09A46884606460025EEE12E
:102B1000252877D100242746F94A0121039400E0B3
:102B2000044316F8013F203B01FA03F01042F7D1AD
:102B300030782A2811D06FF02F033078A0F13002BE
:102B4000092A16D8039A44F0020402EB820203EB2E
:102B500042021044761C0390EFE758F8042B0392CE
:102B6000002A03DA504244F40054039044F0020473
:102B7000761C30782E2816D116F8010F44F0040484
:102B80002A280DD06FF02F023078A0F13003092BE6
:102B900009D807EB870302EB4303C718761CF3E75A
:102BA00058F8047B761C30786C280FD006DC4C2853
:102BB00017D068280DD06A2814D104E0742810D0EA
:102BC0007A280FD10DE044F400140AE044F4801494
:102BD00001E044F440147278824202D104F580147A
:102BE000761C761C307866280BD013DC582877D0FA
:102BF00009DC002875D04528F6D04628F4D04728AF
:102C00001AD193E118E0632835D0642879D065287B
:102C100012D18BE1702873D008DC6728F1D06928C5
:102C20006FD06E280DD06F2806D1ACE073282CD061
:102C3000752874D0782853D05246179990476D1C48
:102C400054E1C4F30250022809D003280DD0D8F86B
:102C5000001004280DD00D6008F1040846E1D8F8F2
:102C60000010EA17C1E90052F6E7D8F800100D800D
:102C7000F2E70D70F0E718F8041B8DF80010002043
:102C80008DF80100EB46012003E058F804BB4FF03B
:102C9000FF3061074FF0000102D40DE009F101019E
:102CA0008946B9420FDA8145F8DB1BF80910002983
:102CB000F4D108E009F1010189468142FADB1BF8F1
:102CC00009100029F6D103985346A0EB09072146C5
:102CD0003846179A00F080FA284400EB090507E00F
:102CE00044E008E10DE01BF8010B524617999047AC
:102CF000B9F10109F7D2534621463846179AF2E056
:102D000039E00A21C4F302524FF0000B0091022A6D
:102D100006D058F8040BC117032A09D00AE023E0B3
:102D200008F1070020F00702F2E80201904605E0F2
:102D300000B2C117042A01D140B2C117002906DA36
:102D40000A460021404261EB02012D2202E02205E9
:102D500004D52B228DF80420012203E0E20701D0E4
:102D60002022F7E7914657E00A2100E010214FF0BA
:102D7000000B00910BE010214FF0000B44F0040415
:102D80000827009103E008204FF0000B0090C4F3E7
:102D90000252022A05D058F8040B0021032A08D059
:102DA00008E008F1070020F00702F2E8020190466F
:102DB00003E080B2042A00D1C0B24FF0000922071C
:102DC0002AD53278702A07D0DDF800C08CF0100CBC
:102DD0005CEA0B0C05D00EE040228DF804200122A5
:102DE00008E050EA010306D030238DF804308DF856
:102DF000052002229146009B83F0080353EA0B034F
:102E00000AD150EA010201D1620705D530228DF8BE
:102E100004204FF001097F1E3278582A04D039A2CD
:102E20000C920CAA02920BE03BA2F9E75B46009AD7
:102E3000FDF70DFA0C9B9B5C029A521E02921370D6
:102E400050EA0102F2D1029804A9081A00F1200BFD
:102E5000600702D524F4803400E001275F4502DDDD
:102E6000A7EB0B0000E0002000EB0B0100900398A3
:102E70004944401A0390E00306D453462146179A6A
:102E8000039800F0A9F90544002706E001A852467E
:102E9000C05D179990476D1C7F1C4F45F6DBE00322
:102EA0000CD553462146179A039800F095F905442E
:102EB00004E030205246179990476D1C0099481E37
:102EC00000900029F5DC08E002980299524600784B
:102ED000491C0291179990476D1CBBF10001ABF1A1
:102EE000010BF1DC5BE100F065F90544761C3078FC
:102EF00000287FF40DAE19B02846BDE8F08F000021
:102F000009280100303132333435363738396162BF
:102F10006364656600000000303132333435363783
:102F2000383941424344454600000000600700D460
:102F3000062708F1070020F00700F0E8022380468A
:102F400003F0004C5FEA0C0001D097A009E02005D7
:102F500001D596A005E0E00701D095A001E0AFF211
:102F60004C001390307823F0004365280CD006DC29
:102F7000452809D046281DD047287FD13BE0662848
:102F800018D067287AD136E00021112F01DB1120FB
:102F900000E0781CCDE9000104A90CA8FFF7EEFCC5
:102FA000DDE90D010C9A4FF0000B07F101091092B9
:102FB00000914EE04FF000400097CDE9011004A9C8
:102FC0000CA8FFF7DBFCDDE90D020C9B0F994FF01D
:102FD000000B91461093009211B9791C00EB010986
:102FE000B7EB090003D4C0F1FF3B07F10109A9EBDE
:102FF0000700019042E0012F00DA01270021112F84
:1030000001DD112000E03846CDE9000104A90CA83B
:10301000FFF7B4FCDDE90D010C9A00914FF0000BB5
:10302000B946109221070FD4009A4A4503DA914617
:1030300001E0A9F10109B9F1010F05DD109AA9F12B
:103040000101515C3029F4D0B84202DA10F1040FCA
:1030500003DA0121CDE9011010E0002803DC8344EC
:10306000A9EB000102E0411C494500DD8946A0EBC7
:103070000B00401C01904FF000400290200705D447
:103080000198484502DB4FF0FF30019000208DF899
:103090004B0002980DF14B07B0F1004F25D00220F4
:1030A0000C902B200D90029800280CDA40420290E0
:1030B0002D200D9007E00A210298FDF7B2F830317B
:1030C000029007F8011D0C99481E0C900029F2DCB3
:1030D00002980028EFD1791E0D980870307800F022
:1030E000200040F0450007F8020D11A8C01BC01DCC
:1030F00002901398007800B1012000EB09010198BB
:1031000001EBE071029801440398401A401E0390BD
:10311000E00306D453462146179A039800F05CF862
:1031200005441398007818B15246179990476D1CC2
:10313000E00323D553462146179A039800F04CF834
:1031400005441BE0BBF1000F07DB0098584504DD88
:103150001098179910F80B0001E01799302052468B
:10316000904701980BF1010B401E05F101050190FC
:1031700004D12E205246179990476D1CB9F10001D9
:10318000A9F10109DEDC05E017F8010B5246179999
:1031900090476D1C0299481E02900029F4DC5346AA
:1031A0002146179A03989EE62D0000002B00000090
:1031B000200000002DE9F041044600251E46174678
:1031C000880404D405E039462020B0476D1C641EF5
:1031D000F9D52846BDE8F0812DE9F04104460025E7
:1031E0001E469046C80301D5302700E020278804FA
:1031F00004D505E041463846B0476D1C641EF9D53C
:103200002846BDE8F0810A68531C0B6010707047B7
:1032100010B54FF4FA60FEF7C1FA401C30B9074808
:10322000C16907A088470B48FEF7AEFF0348C16994
:1032300009A08847FEF7EAF910BD00000000002051
:103240000D0A4A756D7020746F20415050210D0A8F
:1032500000000000008000080D0A456E74657220B1
:1032600074686520636F6D6D616E64206C696E6556
:103270002E0D0A0070B504460D461348006820B9AB
:1032800029462046FEF75CFB1CE00F48007800F062
:10329000040020B129462046FEF7ACFC12E00A48A3
:1032A000007800F0080020B129462046FEF7D4FB44
:1032B00008E00548007800F0200018B129462046B3
:1032C000FEF756FC70BD0000A400002002490880F3
:1032D0000121024A11707047AA000020A8000020B6
:1032E00010B5044603E04FF47A7000F005F8201E94
:1032F000A4F10104F7D110BD0146174A127802B9B2
:1033000070474FF0E022126942F004024FF0E023D0
:103310001A61124A12884A435A6100229A611A4677
:10332000126942F001021A6100BF4FF0E0221069F9
:1033300000F001021AB100F48032002AF5D04FF0FB
:10334000E022126922F001024FF0E0231A6100220C
:103350009A6100BFD4E70000A8000020AA00002066
:1033600070B5044614B94FF0FF3070BD402000F036
:10337000ADFA6061606910B94FF0FF30F5E765693B
:103380002068286060686860A068A860E068E860FD
:10339000284600F053F90648A0610648E061064857
:1033A000206206486062012020740020DDE70000F2
:1033B000471700087317000815170008ED160008D6
:1033C00010B530210448FCF71AFF0448024B3022A4
:1033D0000021046AA04710BDDC0000202C00002062
:1033E00070B5094D00240BE005EBC402E006010EA8
:1033F0000648C36998470520FFF772FF601CC4B2F6
:10340000062CF1D370BD0000DC0000202C00002051
:10341000014611B94FF0FF3070470548C8600548B4
:10342000086105484861012008700020F4E70000A9
:10343000BB180008FF180008A518000810B50028E0
:1034400021D0114B0022001F196803E0814203D8EC
:103450000A4649680029F9D152B11368841A9C427E
:1034600004D1006818441060104602E0506000E08B
:10347000186039B102680B1A934203D10B681A44E1
:1034800002604968416010BDBC00002070B53A4838
:10349000D0F80004394D55F820203748D0F80014F2
:1034A0003748C36937A098473348D0F80004294605
:1034B00011F8200000F00300002852D1FEF7ACF90B
:1034C000002416E02C48B0F80004000500EB84212D
:1034D00038484FF48063284A056CA847364800EB0B
:1034E000842136484FF48063234A0569A847601C4D
:1034F000C4B22148D0F80004204951F82000B4EBB0
:10350000902FDFD31C48D0F8000431F82000C0F31E
:10351000090000B31848B0F80004000500EB84214E
:103520001548D0F80004154A32F82000C0F309030A
:103530002048114A056CA8470F48D0F800040F4AEC
:1035400032F82000C0F309031B4800EB84211B481C
:10355000094A0569A8470A48C16919A08847FDF7C3
:103560002FFC0748C1691FA088472348006820F046
:1035700001002149086070BD0C010020DC00002022
:10358000000000200D0A4C6F6164207468652025DE
:103590006474682070726F6772616D2C206C656E48
:1035A0006774682069732025642062797465732EBE
:1035B0000D0A00005400002000800008C400002014
:1035C0000D0A4150502075706461746520636F6D01
:1035D000706C657465642C207265737461727421FB
:1035E0000D0A00000D0A4C656E67746820657272E2
:1035F0006F72210D0A000000A400002010B5012008
:10360000FFF76EFE0A48D0F80404B0F57A7F07D3BE
:103610000848C16908A0884700200549C1F804048A
:103620000348D0F80404401C0149C1F8040410BD4B
:103630000C01002000000020430000001CB50446DF
:1036400014B94FF0FF301CBD5F492068884204D197
:1036500001210846FDF7D4FB34E05C49206888422C
:1036600004D101210220FDF7CBFB2BE05849206853
:10367000884204D101210420FDF7C2FB22E0554914
:103680002068884204D101210820FDF7B9FB19E028
:1036900051492068884204D101211020FDF7B0FB78
:1036A00010E04E492068884204D101212020FDF716
:1036B000A7FB07E04A492068884203D10121402046
:1036C000FDF79EFB4049A068884204D101210846CD
:1036D000FDF796FB34E03D49A068884204D1012102
:1036E0000220FDF78DFB2BE03949A068884204D108
:1036F00001210420FDF784FB22E03649A0688842BE
:1037000004D101210820FDF77BFB19E03249A068B4
:10371000884204D101211020FDF772FB10E02F49EF
:10372000A068884204D101212020FDF769FB07E051
:103730002B49A068884203D101214020FDF760FB9E
:1037400001208DF804008DF80600606800900020CC
:103750008DF8070002208DF8050069462068FDF706
:103760006BFA01208DF804008DF80600E0680090E7
:1037700000208DF8070002208DF805006946A0683A
:10378000FDF75AFA174860611748A0611748E061D1
:1037900017482062174860621748A0621748E06324
:1037A0001748E06217482063174860631748A06312
:1037B00001212046FEF7F3FB01212046FEF70FFC16
:1037C0000120207400203EE7000002400004024077
:1037D00000080240000C02400010024000140240A9
:1037E000001802406B2000089B2000082F200008D2
:1037F000651F0008052000083D1F0008251E000861
:103800003B1E0008AD1E0008CB2000082121000847
:103810004FF44070FDF7CAFAA820FFF757FD234880
:1038200000F0E4FB2248FFF79BFD224801F0E0F99D
:103830002148FFF7EDFD1D48C16920A08847FFF72B
:10384000BFFDFFF7E5FC2FE01E48406D1D49896D67
:1038500088421BD01B4A926D92881A4B9B6D1B8825
:10386000D21A521C91B2174A926D1068FFF702FDEE
:103870001448806D0830134988650846806DC96D0D
:10388000884203D10F48001D011F88650E4800784B
:1038900000F0020008B1FFF7B1FE0B48007800F01D
:1038A000010008B1FFF7F2FDCEE7000000000020A4
:1038B0002C00002054000020C40000200D0A0D0A36
:1038C000000000001C150020A4000020F0B50B3003
:1038D000154D20F007010024144A0FE003688B42C5
:1038E0000BD38B4205D95E1A43184768C3E90067BA
:1038F00000E04368136002C004E0021D1068002865
:10390000ECD12046002802D1286808B10020F0BD83
:10391000064A07481060074A121A22F00702C0E957
:10392000002401202860D7E7C0000020BC00002050
:10393000841500208017002030B587B004461CB9DC
:103940004FF0FF3007B030BDF9492068884204D1FC
:1039500001218014FDF794FA10E0F64920688842AE
:1039600004D101210014FDF76BFA07E0F249206849
:10397000884203D10121C013FDF762FAEF49606864
:10398000884204D101210846FDF73AFA34E0EC49B7
:103990006068884204D101210220FDF731FA2BE052
:1039A000E8496068884204D101210420FDF728FA23
:1039B00022E0E5496068884204D101210820FDF732
:1039C0001FFA19E0E1496068884204D10121102002
:1039D000FDF716FA10E0DE496068884204D1012143
:1039E0002020FDF70DFA07E0DA496068884203D12C
:1039F00001214020FDF704FAD049E068884204D153
:103A000001210846FDF7FCF934E0CD49E068884221
:103A100004D101210220FDF7F3F92BE0C949E06848
:103A2000884204D101210420FDF7EAF922E0C649C9
:103A3000E068884204D101210820FDF7E1F919E08E
:103A4000C249E068884204D101211020FDF7D8F96D
:103A500010E0BF49E068884204D101212020FDF731
:103A6000CFF907E0BB49E068884203D1012140203B
:103A7000FDF7C6F9B1496069884204D101210846C1
:103A8000FDF7BEF934E0AE496069884204D10121F6
:103A90000220FDF7B5F92BE0AA496069884204D1FC
:103AA00001210420FDF7ACF922E0A74960698842B2
:103AB00004D101210820FDF7A3F919E0A3496069A9
:103AC000884204D101211020FDF79AF910E0A049A5
:103AD0006069884204D101212020FDF791F907E0B7
:103AE0009C496069884203D101214020FDF788F993
:103AF0009249E069884204D101210846FDF780F926
:103B000034E08F49E069884204D101210220FDF7A9
:103B100077F92BE08B49E069884204D10121042028
:103B2000FDF76EF922E08849E069884204D101215D
:103B30000820FDF765F919E08449E069884204D15D
:103B400001211020FDF75CF910E08149E06988420D
:103B500004D101212020FDF753F907E07D49E069F8
:103B6000884203D101214020FDF74AF902208DF857
:103B7000040000208DF80600A068009000208DF859
:103B8000070002208DF8050069466068FDF754F8CB
:103B900002208DF8040000208DF8060020690090B6
:103BA00000208DF8070002208DF805006946E068C6
:103BB000FDF742F802208DF8040000208DF8060081
:103BC000A069009000208DF8070002208DF8050004
:103BD00069466069FDF730F801208DF80400002087
:103BE0008DF80600206A009000208DF80700022062
:103BF0008DF805006946E069FDF71EF84C4D236815
:103C0000AB4201D105230CE04A4D2368AB4201D100
:103C1000052306E0484D2368AB4201D1062300E0AE
:103C200000231A46A368012B01D1002353E0A368A7
:103C3000022B01D101234EE0A368042B01D1022302
:103C400049E0A368082B01D1032344E0A368102BAB
:103C500001D104233FE0A368202B01D105233AE0E2
:103C6000A368402B01D1062335E0A368802B01D146
:103C7000072330E0A368B3F5807F01D108232AE051
:103C8000A368B3F5007F01D1092324E0A368B3F54D
:103C9000806F01D10A231EE0A368B3F5006F01D144
:103CA0000B2318E0A368B3F5805F01D10C2312E069
:103CB000A368B3F5005F01D10D230CE0A368B3F551
:103CC000804F01D10E2306E0A368B3F5004F01D168
:103CD0000F2300E0002319466068FCF7F5FF144D40
:103CE0002368AB4201D105230CE0124D2368AB429F
:103CF00001D1052306E0104D2368AB4201D1062314
:103D000000E000231A462369012B01D1002368E05B
:103D10002369022B01D1012363E02369042B01D124
:103D200002235EE02369082B16D1032359E000002B
:103D30000030014000380040003C004000000240DC
:103D40000004024000080240000C02400010024043
:103D500000140240001802402369102B01D10423F3
:103D60003FE02369202B01D105233AE02369402B52
:103D700001D1062335E02369802B01D1072330E0F0
:103D80002369B3F5807F01D108232AE02369B3F5C5
:103D9000007F01D1092324E02369B3F5806F01D1AD
:103DA0000A231EE02369B3F5006F01D10B2318E04D
:103DB0002369B3F5805F01D10C2312E02369B3F5C9
:103DC000005F01D10D230CE02369B3F5804F01D1D1
:103DD0000E2306E02369B3F5004F01D10F2300E065
:103DE00000231946E068FCF76FFF784D2368AB426B
:103DF00001D105230CE0764D2368AB4201D10523A8
:103E000006E0744D2368AB4201D1062300E0002395
:103E10001A46A369012B01D1002353E0A369022BA9
:103E200001D101234EE0A369042B01D1022349E013
:103E3000A369082B01D1032344E0A369102B01D10E
:103E400004233FE0A369202B01D105233AE0A369B5
:103E5000402B01D1062335E0A369802B01D1072334
:103E600030E0A369B3F5807F01D108232AE0A3697C
:103E7000B3F5007F01D1092324E0A369B3F5806F76
:103E800001D10A231EE0A369B3F5006F01D10B2312
:103E900018E0A369B3F5805F01D10C2312E0A36998
:103EA000B3F5005F01D10D230CE0A369B3F5804F9A
:103EB00001D10E2306E0A369B3F5004F01D10F2312
:103EC00000E0002319466069FCF7FEFE4FF48270A3
:103ED000ADF80A000020ADF80800ADF80C00ADF810
:103EE0001600A08C022801D1002023E0A08C042819
:103EF00001D108201EE0A08C082801D1102019E073
:103F0000A08C102801D1182014E0A08C202800D10A
:103F100010E0A08C402801D128200BE0A08C802844
:103F200001D1302006E0A08CB0F5807F01D138208F
:103F300000E00020ADF8140094F8260028B9002015
:103F4000ADF80E00ADF810001EE094F82600012830
:103F500006D10020ADF80E000120ADF8100013E0EE
:103F600094F82600022805D1ADF80E000020ADF827
:103F7000100009E094F82600032805D10220ADF8CE
:103F80000E000120ADF810004FF40070ADF81200E3
:103F90000720ADF8180002A92068FDF777F8012185
:103FA0002068FDF701F80C48E0620C4820630C48DB
:103FB00060630C48A0630C48E06301212046FEF7D3
:103FC00022F9012084F828000020BBE400300140E1
:103FD00000380040003C004007220008352200085D
:103FE00043220008512200081B22000810B588B0A7
:103FF00004461CB94FF0FF3008B010BDF9492068E5
:10400000884204D101211020FCF73AFF2BE0F64949
:104010002068884204D101214804FCF711FF22E006
:10402000F2492068884204D101218804FCF708FF86
:1040300019E0EF492068884204D10121C804FCF747
:10404000FFFE10E0EB492068884204D101210805F9
:10405000FCF7F6FE07E0E8492068884203D1012119
:104060002020FCF70DFFE549A068884204D101211A
:104070000846FCF7C5FE34E0E149A068884204D157
:1040800001210220FCF7BCFE2BE0DE49A06888423B
:1040900004D101210420FCF7B3FE22E0DA49A06834
:1040A000884204D101210820FCF7AAFE19E0D74973
:1040B000A068884204D101211020FCF7A1FE10E085
:1040C000D349A068884204D101212020FCF798FE42
:1040D00007E0D049A068884203D101214020FCF7C5
:1040E0008FFEC6492069884204D101210846FCF7A9
:1040F00087FE34E0C2492069884204D101210220B0
:10410000FCF77EFE2BE0BF492069884204D10121E3
:104110000420FCF775FE22E0BB492069884204D1E7
:1041200001210820FCF76CFE19E0B849206988429B
:1041300004D101211020FCF763FE10E0B44920698E
:10414000884204D101212020FCF75AFE07E0B14942
:104150002069884203D101214020FCF751FE022052
:104160008DF8080000208DF80A00E0680190012019
:104170008DF80B0002208DF8090001A9A068FCF75A
:104180005BFD02208DF8080000208DF80A006069B0
:10419000019001208DF80B0002208DF8090001A983
:1041A0002069FCF749FD8F492068884271D1E26897
:1041B000012A01D1002253E0E268022A01D1012242
:1041C0004EE0E268042A01D1022249E0E268082AAE
:1041D00001D1032244E0E268102A01D104223FE029
:1041E000E268202A01D105223AE0E268402A01D1A2
:1041F000062235E0E268802A01D1072230E0E26839
:10420000B2F5807F01D108222AE0E268B2F5007F92
:1042100001D1092224E0E268B2F5806F01D10A22BF
:104220001EE0E268B2F5006F01D10B2218E0E268EF
:10423000B2F5805F01D10C2212E0E268B2F5005FB6
:1042400001D10D220CE0E268B2F5804F01D10E22BF
:1042500006E0E268B2F5004F01D10F2200E0002233
:1042600011460722A068FCF72FFD6269012A01D1DF
:10427000002254E06269022A01D101224FE0626902
:10428000042A01D102224AE06269082A02D10322EB
:1042900045E04AE06269102A01D104223FE06269E8
:1042A000202A01D105223AE06269402A01D1062282
:1042B00035E06269802A01D1072230E06269B2F5F7
:1042C000807F01D108222AE06269B2F5007F01D126
:1042D000092224E06269B2F5806F01D10A221EE052
:1042E0006269B2F5006F01D10B2218E06269B2F584
:1042F000805F01D10C2212E06269B2F5005F01D14A
:104300000D220CE06269B2F5804F01D10E2206E069
:104310006269B2F5004F01D10F2200E00022114680
:1043200007222069FCF7D0FCE8E32F492068884287
:1043300057D1E268012A01D100226EE0E268022A28
:1043400001D1012269E0E268042A01D1022264E07D
:10435000E268082A01D103225FE0E268102A01D155
:1043600004225AE0E268202A01D1052255E0E268E1
:10437000402A01D1062250E0E268802A01D10722BA
:104380004BE0E268B2F5807F01D1082245E0E268A7
:10439000B2F5007F01D109223FE0E268B2F5806FFB
:1043A00001D10A2239E0E268B2F5006F01D10B2297
:1043B00033E0E268B2F5805F01D10C222DE0E268C3
:1043C000B2F5005F01D10D2227E0E268B2F5804F1F
:1043D00001D10E2221E0E268B2F5004F1CD10F227C
:1043E0001BE07EE000100140004400400048004017
:1043F000004C00400050004000140140000002400A
:104400000004024000080240000C0240001002407C
:104410000014024000180240002211460722A06842
:10442000FCF752FC6269012A01D1002253E0626963
:10443000022A01D101224EE06269042A01D102223E
:1044400049E06269082A01D1032244E06269102A26
:1044500001D104223FE06269202A01D105223AE01D
:104460006269402A01D1062235E06269802A01D1C1
:10447000072230E06269B2F5807F01D108222AE08C
:104480006269B2F5007F01D1092224E06269B2F5C8
:10449000806F01D10A221EE06269B2F5006F01D17E
:1044A0000B2218E06269B2F5805F01D10C2212E0A4
:1044B0006269B2F5005F01D10D220CE06269B2F5CC
:1044C000804F01D10E2206E06269B2F5004F01D1A2
:1044D0000F2200E00022114607222069FCF7F4FBBE
:1044E0000CE3F8492068884271D1E268012A01D1C1
:1044F000002253E0E268022A01D101224EE0E26884
:10450000042A01D1022249E0E268082A01D10322EB
:1045100044E0E268102A01D104223FE0E268202A48
:1045200001D105223AE0E268402A01D1062235E0B5
:10453000E268802A01D1072230E0E268B2F5807F8C
:1045400001D108222AE0E268B2F5007F01D10922F8
:1045500024E0E268B2F5806F01D10A221EE0E26831
:10456000B2F5006F01D10B2218E0E268B2F5805F6E
:1045700001D10C2212E0E268B2F5005F01D10D22F8
:104580000CE0E268B2F5804F01D10E2206E0E2684D
:10459000B2F5004F01D10F2200E0002211460722A0
:1045A000A068FCF791FB6269012A01D1002254E066
:1045B0006269022A01D101224FE06269042A01D115
:1045C00002224AE06269082A02D1032245E04AE059
:1045D0006269102A01D104223FE06269202A01D1D8
:1045E00005223AE06269402A01D1062235E062697B
:1045F000802A01D1072230E06269B2F5807F01D1C3
:1046000008222AE06269B2F5007F01D1092224E084
:104610006269B2F5806F01D10A221EE06269B2F5CB
:10462000006F01D10B2218E06269B2F5805F01D101
:104630000C2212E06269B2F5005F01D10D220CE09C
:104640006269B2F5804F01D10E2206E06269B2F5CF
:10465000004F01D10F2200E00022114607222069FD
:10466000FCF732FB4AE298492068884271D1E2683F
:10467000012A01D1002253E0E268022A01D101227D
:104680004EE0E268042A01D1022249E0E268082AE9
:1046900001D1032244E0E268102A01D104223FE064
:1046A000E268202A01D105223AE0E268402A01D1DD
:1046B000062235E0E268802A01D1072230E0E26874
:1046C000B2F5807F01D108222AE0E268B2F5007FCE
:1046D00001D1092224E0E268B2F5806F01D10A22FB
:1046E0001EE0E268B2F5006F01D10B2218E0E2682B
:1046F000B2F5805F01D10C2212E0E268B2F5005FF2
:1047000001D10D220CE0E268B2F5804F01D10E22FA
:1047100006E0E268B2F5004F01D10F2200E000226E
:1047200011460822A068FCF7CFFA6269012A01D17C
:10473000002254E06269022A01D101224FE062693D
:10474000042A01D102224AE06269082A02D1032226
:1047500045E04AE06269102A01D104223FE0626923
:10476000202A01D105223AE06269402A01D10622BD
:1047700035E06269802A01D1072230E06269B2F532
:10478000807F01D108222AE06269B2F5007F01D161
:10479000092224E06269B2F5806F01D10A221EE08D
:1047A0006269B2F5006F01D10B2218E06269B2F5BF
:1047B000805F01D10C2212E06269B2F5005F01D185
:1047C0000D220CE06269B2F5804F01D10E2206E0A5
:1047D0006269B2F5004F01D10F2200E000221146BC
:1047E00008222069FCF770FA88E13849206888427D
:1047F00067D1E268012A01D1002253E0E268022A6F
:1048000001D101224EE0E268042A01D1022249E0EE
:10481000E268082A01D1032244E0E268102A01D1AB
:1048200004223FE0E268202A01D105223AE0E26852
:10483000402A01D1062235E0E268802A01D1072210
:1048400030E0E268B2F5807F01D108222AE0E26818
:10485000B2F5007F01D1092224E0E268B2F5806F51
:1048600001D10A221EE0E268B2F5006F01D10B22ED
:1048700018E0E268B2F5805F01D10C2212E0E26834
:10488000B2F5005F01D10D220CE0E268B2F5804F75
:1048900001D10E2206E0E268B2F5004F01D10F22ED
:1048A00000E0002211460822A068FCF70DFA6269B8
:1048B000012A01D100225AE06269022A08D10122AC
:1048C00055E05AE000480040004C004000500040D5
:1048D0006269042A01D1022249E06269082A01D1F1
:1048E000032244E06269102A01D104223FE0626998
:1048F000202A01D105223AE06269402A01D106222C
:1049000035E06269802A01D1072230E06269B2F5A0
:10491000807F01D108222AE06269B2F5007F01D1CF
:10492000092224E06269B2F5806F01D10A221EE0FB
:104930006269B2F5006F01D10B2218E06269B2F52D
:10494000805F01D10C2212E06269B2F5005F01D1F3
:104950000D220CE06269B2F5804F01D10E2206E013
:104960006269B2F5004F01D10F2200E0002211462A
:1049700008222069FCF7A8F9C0E093492068884222
:1049800071D1E268012A01D1002253E0E268022AD3
:1049900001D101224EE0E268042A01D1022249E05D
:1049A000E268082A01D1032244E0E268102A01D11A
:1049B00004223FE0E268202A01D105223AE0E268C1
:1049C000402A01D1062235E0E268802A01D107227F
:1049D00030E0E268B2F5807F01D108222AE0E26887
:1049E000B2F5007F01D1092224E0E268B2F5806FC0
:1049F00001D10A221EE0E268B2F5006F01D10B225C
:104A000018E0E268B2F5805F01D10C2212E0E268A2
:104A1000B2F5005F01D10D220CE0E268B2F5804FE3
:104A200001D10E2206E0E268B2F5004F01D10F225B
:104A300000E0002211460822A068FCF745F96269EF
:104A4000012A01D1002254E06269022A01D1012227
:104A50004FE06269042A01D102224AE06269082A11
:104A600002D1032245E049E06269102A01D1042203
:104A70003FE06269202A01D105223AE06269402ABA
:104A800001D1062235E06269802A01D1072230E097
:104A90006269B2F5807F01D108222AE06269B2F52D
:104AA000007F01D1092224E06269B2F5806F01D153
:104AB0000A221EE06269B2F5006F01D10B2218E0F4
:104AC0006269B2F5805F01D10C2212E06269B2F531
:104AD000005F01D10D220CE06269B2F5804F01D177
:104AE0000E2206E06269B2F5004F01D10F2200E00C
:104AF0000022114608222069FCF7E6F8606804905D
:104B00000020ADF81C000C20ADF81A000020ADF814
:104B10001800ADF81600ADF8140004A92068FCF7E1
:104B2000D7FC012240F224412068FCF7ACFC274965
:104B30002068884201D125201EE02549206888424E
:104B400001D1262018E023492068884201D127207E
:104B500012E021492068884201D134200CE01F492D
:104B60002068884201D1352006E017492068884234
:104B700001D1472000E000208DF80C0001208DF8C5
:104B80000F008DF80D008DF80E0003A8FCF7D2F889
:104B90002046FDF701FC2046FDF7DAFB01212068E5
:104BA000FCF7ACFB09492068884205D10C48E0615C
:104BB0000C4820620C4860620C48A06201202076FC
:104BC0000020FFF719BA0000001401400010014056
:104BD0000044004000480040004C004000500040AD
:104BE0008522000825230008E1220008812300080F
:104BF00070B5044614B94FF0FF3070BD4020FEF789
:104C000065FEA062A06A10B94FF0FF30F5E7A56A13
:104C10002068286060686860A068A860E0686861D3
:104C20002069A8616069E860A0692861E069E861BD
:104C3000206A28620220A884002085F826002846E1
:104C4000FEF77AFE0A48E0620A4820630A48606379
:104C50000A48A0630A48E0630A4820640A4860647E
:104C60000A48A064012084F824000020C5E7000061
:104C70001D270008612600080D2800086F2700087E
:104C8000E9250008C5260008F12700083526000898
:104C90000D0A4C6F6164696E672070726F67726194
:104CA0006D732066726F6D2065787465726E616CCD
:104CB00020466C6173682C20706C6561736520659B
:104CC0006E746572207468652070726F6772616DB2
:104CD000206C6F636174696F6E2028312D39292E25
:104CE0000D0A00000D0A49415020646F776E6C6F09
:104CF00061642070726F6772616D7320746F2065DC
:104D0000787465726E616C20466C6173682C2070DB
:104D10006C6561736520656E7465722074686520CA
:104D200070726F6772616D206C6F636174696F6E12
:104D30002028312D39292E0D0A0000000D0A446F5C
:104D4000776E6C6F6164207468652070726F677233
:104D5000616D20746F207468652025647468206C10
:104D60006F636174696F6E206F6620657874657219
:104D70006E616C20466C617368207573696E672084
:104D800074686520586D6F64656D2070726F746F04
:104D9000636F6C2C20706C65617365207573652082
:104DA00062696E20666F726D61742066696C652E33
:104DB0000D0A0000D44D000800000020C4000000CF
:104DC000E8210008984E0008C4000020BC1A00002A
:104DD000F82100080010014000100E000000024001
:104DE000000200000000024000040000000000007B
:104DF00000000000000000000000000000000000B3
:104E00000004024040000000000402408000000056
:104E10000000000000000000000000000000000092
:104E200000000000000000000030014000000240CF
:104E3000200000000000024040000000000002408E
:104E40008000000000080240002000000000000078
:104E50000000000000000000000000000000000052
:104E60000000000000000000000000000000000042
:104E70000000000000000000000000000000000032
:104E800000000000010203040102030406070809F0
:084E900000000000000000001A
:040000050800018965
:00000001FF
