:020000040800F2
:10000000B81B0020A90100088B0D0008830D000813
:10001000870D0008B7070008551A00080000000007
:10002000000000000000000000000000BB0100080C
:10003000C109000800000000BF010008C10100085C
:10004000C3010008C3010008C3010008C301000880
:10005000C3010008C3010008C3010008C301000870
:10006000C3010008C3010008C3010008C301000860
:10007000C3010008C3010008C3010008C301000850
:10008000C3010008C3010008C3010008C301000840
:10009000C3010008C3010008C3010008C301000830
:1000A000C3010008C3010008C3010008C301000820
:1000B000C3010008C3010008C3010008C301000810
:1000C000C3010008C3010008C3010008C301000800
:1000D000C30100082D14000809150008E9150008DF
:1000E000C3010008C3010008C3010008C3010008E0
:1000F000C3010008C3010008C3010008C3010008D0
:10010000C3010008C3010008C3010008C3010008BF
:100110007512000851130008C3010008C30100084C
:10012000C3010008C3010008C3010008C30100089F
:10013000C3010008C3010008C3010008C30100088F
:10014000C3010008C3010008C3010008C30100087F
:10015000C3010008C3010008C3010008C516000858
:10016000C3010008C3010008C3010008C30100085F
:10017000C3010008C3010008C3010008C30100084F
:10018000C3010008C3010008DFF810D000F048FAEE
:1001900000480047113F0008AFF30080B81B002063
:1001A00080F30888704700000648804706480047EB
:1001B000FEE7FEE7FEE7FEE7FEE7FEE7FEE7FEE717
:1001C000FEE7FEE70D1200088901000840EA01037E
:1001D0009B0703D009E008C9121F08C0042AFAD2FD
:1001E00003E011F8013B00F8013B521EF9D27047C1
:1001F000D2B201E000F8012B491EFBD27047002269
:10020000F6E710B513460A4604461946FFF7F0FF15
:10021000204610BD421C10F8011B0029FBD1801A9A
:10022000704730B50B46014600202022012409E02A
:1002300021FA02F59D4205D303FA02F5491B04FA9F
:1002400002F52844151EA2F10102F1DC30BD2DE9B2
:10025000F05F0546002092469B468846064681464A
:1002600040241BE0284641464746224600F0F9F963
:1002700053465A46C01A914110D311461846224699
:1002800000F0E0F92D1A67EB01084F4622460120E5
:10029000002100F0D7F917EB00094E41201EA4F110
:1002A0000104DFDC484631462A464346BDE8F09F5C
:1002B0002DE9FE4F804681EA0300C00F0C460090F6
:1002C00021F0004123F00045B8EB0200A94105D21E
:1002D0004046214690461C460B46024623F000400D
:1002E000104347D0270DC7F30A00C3F30A51029009
:1002F000401A019040286BDAC3F3130040F4801BCE
:100300000098924620B10023D2EB030A63EB0B0B5B
:1003100001985946C0F14002504600F093F9064654
:100320000D4650465946019A00F0ABF910EB080013
:100330006141002487EA115284EAE7731A4340D0EE
:10034000009A62B3019A012A4FEA075215DC001B9A
:1003500061EB02014FF0004202EA0752CDE9004290
:10036000001C41F5801132462B4600F0ABF903B07A
:10037000BDE8F08F40462146F9E7001B61EB020122
:10038000001C41F5801300185B412018A2F50017EE
:1003900047EB030140EAD570B6196D4111E06D08D5
:1003A0004FEA360645EAC0754FEA0752001B61EB7B
:1003B0000201001C41F5801149084FEA3000001984
:1003C000514132462B4603B0BDE8F04F00F06BB907
:1003D0000098012240000023D0EB020263EBE0739F
:1003E000009821464FEAE074B8EB000061EB04018D
:1003F000E9E783F000435BE781F0004158E72DE92E
:10040000FE4F81EA030404F0004421F0004100940F
:100410004FF0000B23F0004350EA01045ED052EA93
:1004200003045BD0C3F30A54C1F30A552C44A4F26D
:10043000F3340194A0FB0254C1F3130141F4801181
:10044000C3F3130343F4801301FB024400FB034E88
:10045000840A970A44EA815447EA8357A4FB076851
:1004600002958D0A05FB07854FEA932C04FB0C547B
:100470002705029D4FEA065847EA1637B5EB0805EF
:100480006EEB070C870E920E47EA811742EA831241
:10049000A7FB0201B6EB0B0164EB00042B0D43EA52
:1004A0000C335E1844EB1C50DA465146E7FB020160
:1004B000C5F313044FEA0B3343EA14534FEA0432F3
:1004C000019C43EA0603A4F10C040294009CCDE9CC
:1004D00000B400F0F7F803B0BDE8F08F002001464B
:1004E000F9E72DE9F04D81EA030404F0004B21F017
:1004F000004514464FF0000A23F0004150EA05027F
:1005000020D054EA01021DD0C5F30A570246C5F3B4
:100510001303C1F31300C1F30A5640F4801543F4EA
:100520008013A7EB0608101BD64608F2FD3873EBC4
:10053000050002D308F1010801E092185B41B8F10F
:10054000000F03DA00200146BDE8F08D00204FF4D3
:100550008011064684460EE0171B73EB050705D392
:10056000121B63EB050306434CEA010C49084FEAF2
:10057000300092185B4150EA0107EDD152EA0300C6
:1005800012D082EA040083EA0501084305D0101B5B
:10059000AB4106D20122002306E000224FF00043C7
:1005A00002E06FF0010253101AEB06004CEB085109
:1005B00010EB0A0041EB0B01BDE8F04D00F073B801
:1005C000C1F30A52C1F3130140F2FF3341F4801129
:1005D0009A4202DA00200146704740F233439A42C1
:1005E000A2F2334202DC524200F03BB800F02AB8DB
:1005F00030B5041E71F1000404DB4FF000444042AA
:1006000064EB0101141E73F1000405DB1C464FF07E
:100610000043524263EB0403994208BF904230BD4D
:10062000064C074D06E0E06840F0010394E807003F
:1006300098471034AC42F6D3FFF7AAFDE8550008FE
:1006400008560008202A04DB203A00FA02F10020B4
:1006500070479140C2F1200320FA03F31943904000
:100660007047202A04DB203A21FA02F0002170476B
:1006700021FA02F3D040C2F120029140084319460A
:100680007047202A06DBCB17203A41FA02F043EAF2
:10069000E07306E041FA02F3D040C2F1200291403B
:1006A00008431946704710B5141E73F1000408DAA8
:1006B000401C41F1000192185B411A4301D120F026
:1006C000010010BD2DE9F04D92469B4611B1B1FAE3
:1006D00081F202E0B0FA80F220329046FFF7B2FFDA
:1006E00004460F4640EA0A0041EA0B0153465A46C7
:1006F000084313D0114653EA010019D0C8F1400253
:100700005046FFF7AEFF05460E4650465946424654
:10071000FFF798FF084305D0012004E02046394642
:10072000BDE8F08D0020054346EAE0762C433743D0
:100730000A986305E40AA0EB08000022FD0A44EAD7
:1007400047540A3002D500200146E9E70105101997
:100750006941DDE9084500196941BDE8F04DA2E7AE
:1007600070B58C1810F8015B15F0070301D110F873
:10077000013B2A1106D110F8012B03E010F8016BA0
:1007800001F8016B5B1EF9D12B0705D40023521E23
:100790000DD401F8013BFAE710F8013BCB1A921C8B
:1007A00003E013F8015B01F8015B521EF9D5A14289
:1007B000D8D3002070BD00BFFEE700000246094B01
:1007C0009A4201D2084801E00648103801F000536F
:1007D0001BB1064B0B40C36002E0044B0B4083602F
:1007E0007047000010640240006002407D0F7D0FE2
:1007F00021B1026842F00102026003E0026822F0C7
:100800000102026070470000016821F001010160EF
:100810000021016041608160C1600161212141616D
:100820004A49884204D13D21484A103A91608CE0FF
:1008300046491831884205D14FF47461434A103A51
:10084000916082E041493031884205D14FF4741102
:100850003E4A103A916078E03C494831884205D1DF
:100860004FF07461394A103A91606EE03749603157
:10087000884204D13649354A103AD16065E033499F
:100880007831884204D13349304A103AD1605CE073
:100890002E499031884204D12F492C4A103AD16018
:1008A00053E02A49A831884205D14FF03D51274AEB
:1008B000103AD16049E02949884204D13D21274AB4
:1008C000083A116041E025491831884205D14FF4BA
:1008D0007461224A083A116037E020493031884279
:1008E00005D14FF474111D4A083A11602DE01B49DF
:1008F0004831884205D14FF07461184A083A1160B6
:1009000023E016496031884204D11149134A121F6D
:1009100011601AE011497831884204D10D490F4A1B
:10092000121F116011E00D499031884204D10A492B
:100930000A4A121F116008E00849A831884204D110
:100940004FF03D51054A121F116070471060024080
:100950003D000020400F002000003D2010640240B8
:100960000146486880B2704710B500220268134BF8
:100970001A40CC680B6823434C6923438C6923439A
:10098000CC6923430C6A23434C6A23438C6A234378
:100990004C6B23438C6B23431A430260426922F061
:1009A0000702D1E90B3423431A4342610B694360C8
:1009B0004B6883608B68C36010BD00003F801CF0F3
:1009C0007047000001490860704700000C3C02407D
:1009D00070B504460A460026092502B909E0012A35
:1009E00001D1160205E0022A01D1160201E04FF4FE
:1009F000407600F09FF80546092D28D1154800687B
:100A000020F44070134908600846006830430860CD
:100A10000846006820F0F80008600846006844F0C6
:100A2000020108430B4908600846006840F4803022
:100A3000086000F07FF805460648006820F00200D4
:100A4000044908600846006820F0F800086028465D
:100A500070BD0000103C024009201349096801F4F0
:100A60008031B1F5803F01D101201CE00E490968B9
:100A700001F0100109B1062015E00B49096801F4E5
:100A8000807109B102200EE00749096801F0E00118
:100A900009B1072007E00449096801F0020109B122
:100AA000082000E0092070470C3C02400348006821
:100AB00040F000400149086070470000103C0240CF
:100AC00030B502460C46092500F034F80546092DDC
:100AD00019D10E48006820F440700C49086008469F
:100AE000006840F4007008600846006840F00100AB
:100AF0000860146000F01EF805460448006820F005
:100B0000010002490860284630BD0000103C024048
:100B10000548006800F0004028B1044802490C393B
:100B20000860034808607047103C02402301674595
:100B3000AB89EFCD08B509200090FFF78DFF00903D
:100B400002E0FFF789FF00909DF800000128F8D02F
:100B50009DF8000008BD000010B5044641488442DD
:100B600008D10121084600F087F90021012000F09A
:100B700083F976E03C48844208D10121022000F04C
:100B80007BF90021022000F077F96AE037488442BF
:100B900008D10121042000F06FF90021042000F0A9
:100BA0006BF95EE03248844208D10121082000F050
:100BB00063F90021082000F05FF952E02D488442DB
:100BC00008D10121102000F057F90021102000F079
:100BD00053F946E02848844208D10121202000F042
:100BE0004BF90021202000F047F93AE023488442E5
:100BF00008D10121402000F03FF90021402000F001
:100C00003BF92EE01E48844208D10121802000F0EB
:100C100033F90021802000F02FF922E019488442A6
:100C200008D10121801500F027F90021A01500F05E
:100C300023F916E01448844208D10121401500F040
:100C40001BF90021601500F017F90AE00F488442F3
:100C500007D10121001500F00FF90021201500F047
:100C60000BF910BD000002400004024000080240E1
:100C7000000C024000100240001402400018024024
:100C8000001C0240002002400024024000280240D4
:100C9000F0B50A4600210023002400BF3DE00125F5
:100CA00005FA01F3156805EA03049C4234D105688E
:100CB0004F000326BE40B543056015794E00B54090
:100CC0000668354305601579012D02D01579022D8E
:100CD00016D185684F000326BE40B543856055791F
:100CE0004E00B540866835438560456801268E40D4
:100CF000B5434560456896798E40B6B23543456048
:100D0000C5684F000326BE40B543C560D5794E0087
:100D1000B540C6683543C560491C1029BFD3F0BD36
:100D2000F0B5002300244D07ED0E02FA05F3CE10B6
:100D300000F1200555F826504E07F70E0F26BE404D
:100D4000B543CF1000F1200646F82750CE1000F131
:100D5000200555F8265045EA0304CE1000F1200581
:100D600045F82640F0BD0246002013690B400BB148
:100D7000012000E0002070470AB1018300E04183B8
:100D8000704700BFFEE700BFFEE7704770B5002167
:100D900000230F22C4781CB3174C246804F4E064C9
:100DA000C4F5E064C4F30721C1F10404E3B20A41CD
:100DB00044789C40E1B28478144021430C07210E12
:100DC0000E4C05786155047804F01F050124AC40F1
:100DD00005786D11AD0005F1E025C5F8004109E089
:100DE000047804F01F050124AC40054D0678761107
:100DF00045F8264070BD00000CED00E000E400E086
:100E000080E100E002490143024A1160704700009E
:100E10000000FA050CED00E000BF00BF00BFBFF30B
:100E20004F8F00BF00BF00BF0948006800F4E060BA
:100E300008490843001D0649086000BF00BF00BF05
:100E4000BFF34F8F00BF00BF00BF00E000BFFDE752
:100E50000CED00E00000FA0529B1064A12680243D1
:100E6000044B1A6004E0034A12688243014B1A6083
:100E7000704700003038024029B1064A1268024328
:100E8000044B1A6004E0034A12688243014B1A6063
:100E9000704700001038024029B1064A1268024328
:100EA000044B1A6004E0034A12688243014B1A6043
:100EB000704700004038024029B1064A12680243D8
:100EC000044B1A6004E0034A12688243014B1A6023
:100ED000704700002038024029B1064A12680243D8
:100EE000044B1A6004E0034A12688243014B1A6003
:100EF000704700004438024029B1064A1268024394
:100F0000044B1A6004E0034A12688243014B1A60E2
:100F10007047000024380240F0B500210022002470
:100F2000022500260223324F3F6807F00C0121B151
:100F3000042905D0082937D105E02E4F076036E097
:100F40002D4F076033E02A4F3F1F3F68C7F380569D
:100F5000274F3F1F3F6807F03F036EB1264FB7FB97
:100F6000F3F7DFF88CC0ACF1040CDCF800C0CCF374
:100F7000881C07FB0CF40CE01E4FB7FBF3F7DFF8FF
:100F800070C0ACF1040CDCF800C0CCF3881C07FB8B
:100F90000CF4174F3F1F3F68C7F301477F1C7D00CC
:100FA000B4FBF5F7076002E0124F076000BF00BF17
:100FB0000F4F3F6807F0F0010909104F7A5C07688E
:100FC000D74047600A4F3F6807F4E051890A0B4F4A
:100FD0007A5C4768D7408760054F3F6807F46041F7
:100FE000490B064F7A5C4768D740C760F0BD0000E8
:100FF000083802400024F40000127A002C0100207E
:1010000021B1028842F04002028004E002884FF6DB
:10101000BF731A400280704710B5044624488442CA
:1010200008D101218014FFF767FF0021A014FFF70A
:1010300063FF3CE01F48844208D101210014FFF700
:101040003BFF00212014FFF737FF30E01A488442AD
:1010500008D10121C013FFF72FFF0021E013FFF794
:101060002BFF24E01548844208D101214014FFF7EA
:1010700043FF00216014FFF73FFF18E0104884424F
:1010800009D101210805FFF737FF00214FF4801037
:10109000FFF732FF0BE00B48844208D101214805DD
:1010A000FFF72AFF00214FF40010FFF725FF10BDC6
:1010B0000030014000380040003C00400034014056
:1010C00000500140005401400246002013890B40AB
:1010D0000BB1012000E0002070470146888970476D
:1010E0008181704710B50022028802F441520B88BA
:1010F0004C8823438C882343CC8823430C89234387
:101100004C8923438C892343CC8923431A4302808F
:10111000838B4FF2FF74234083830B8A038210BDBD
:101120000CB50020019000903448006840F48030F5
:101130003249086000BF3148006800F40030009078
:101140000198401C0190009818B90198B0F5A04F83
:10115000F1D12A48006800F4003010B1012000905D
:1011600001E0002000900098012846D1234840303B
:10117000006840F0805021494031086020480068F4
:1011800040F440401E4908601C48083000681B4974
:10119000083108600846006840F4004008600846CE
:1011A000006840F4A05008601648091F0860081F36
:1011B000006840F08070091F086000BF0F48006899
:1011C00000F000700028F9D040F205700E49086068
:1011D0000A480830006820F0030008490831086018
:1011E0000846006840F00200086000BF034808306D
:1011F000006800F00C000828F8D10CBD003802404F
:101200000070004008544007003C024010B51548EB
:10121000006840F47000134908601348006840F00B
:1012200001001149086000200F49083108600E488C
:1012300000680E4908400C4908600D48091D086007
:10124000081F006820F48020091F0860002006495C
:101250000C310860FFF764FF4FF0006001498039EE
:10126000086010BD88ED00E000380240FFFFF6FE88
:101270001030002438B53348C46804B938BD40F292
:101280002441314800F029FB002858D02E4800881E
:10129000C0B200902C48001D0088C0B200902B48BE
:1012A000FFF75EFBA18C491C081AA18D0844A0859C
:1012B000A08D401EE16901448020005941608020DA
:1012C0000059083080210851802001598820005998
:1012D000814203D104F1300080210851608CA18D3E
:1012E000401AA18C884206DBA18DE0690144802070
:1012F0000059016005E080200059E169016000208B
:10130000A08500211148FFF773FA00BF0F4840384D
:10131000006C00F001000028F8D1A08C401C0B49A3
:1013200040394864802000590068C8644FF08151FA
:101330000648FFF743FA01210448FFF759FA00BFB6
:101340009CE700009C150020004C004040600240DB
:1013500038B53248046904B938BD40F224413048F8
:1013600000F0BBFA002856D02D480088C0B200908B
:101370002B488088C0B200902A48FFF7F1FAA18C70
:10138000491C081AA18D0844A085A08D401EE16962
:10139000014480200059416080200059083080219C
:1013A00008518020015988200059814203D104F15D
:1013B000300080210851608CA18D401AA18C884298
:1013C00006DBA18DE069014480200059016005E041
:1013D00080200059E16901600020A08500211148AA
:1013E000FFF706FA00BF0F481038006900F001004F
:1013F0000028F8D1A08C401C0A491039486180208F
:1014000000590068C86108490648FFF7D7F901216B
:101410000448FFF7EDF900BF9EE700009C1500208F
:1014200000500040106002402000001038B53248E3
:10143000046804B938BD40F22441304800F04DFA48
:10144000002857D02D480088C0B200902B488088D3
:10145000C0B200902A48FFF783FAA18C491C081AF1
:10146000A18D0844A085A08D401EE1690144802023
:1014700000594160802000590830802108518020A7
:10148000015988200059814203D104F130008021A4
:101490000851608CA18D401AA18C884206DBA18D79
:1014A000E069014480200059016005E08020005976
:1014B000E16901600020A08500211148FFF798F93B
:1014C00000BF0F48006800F001000028F9D1A08C8F
:1014D000401C0B49091D086080200059006808491C
:1014E0000C31086007490648FFF768F901210448F4
:1014F000FFF77EF900BF9DE79C150020001001401A
:10150000886402400008002038B53348446804B9B4
:1015100038BD40F22441314800F0DFF9002859D0AD
:101520002E480088C0B200902C48001D0088C0B230
:1015300000902B48FFF714FAA18C491C081AA18DC2
:101540000844A085A08D401EE16901448020005917
:1015500041608020005908308021085180200159C5
:1015600088200059814203D104F1300080210851C4
:10157000608CA18D401AA18C884206DBA18DE069A8
:10158000014480200059016005E080200059E16994
:1015900001600020A08500211148FFF729F900BF54
:1015A0000F48006800F001000028F9D1A08C401C11
:1015B0000B49091D086080200059006808498839D6
:1015C000C1F8940007490648FFF7F8F801210448DC
:1015D000FFF70EF900BF9BE79C1500200044004078
:1015E000886002400008002038B53248846804B999
:1015F00038BD40F22441304800F06FF9002857D040
:101600002D480088C0B200902B48001D0088C0B251
:1016100000902A48FFF7A4F9A18C491C081AA18D53
:101620000844A085A08D401EE16901448020005936
:1016300041608020005908308021085180200159E4
:1016400088200059814203D104F1300080210851E3
:10165000608CA18D401AA18C884206DBA18DE069C7
:10166000014480200059016005E080200059E169B3
:1016700001600020A08500211048FFF7B9F800BFE5
:101680000E482838806A00F001000028F8D1A08CAC
:10169000401C0A492839C862802000590068486304
:1016A00007490648FFF78AF801210448FFF7A0F828
:1016B00000BF9DE79C1500200048004028600240C4
:1016C0000008001038B53348446904B938BD40F209
:1016D0002441314800F001F9002858D02E480088F4
:1016E000C0B200902C48001D0088C0B200902B486A
:1016F000FFF736F9A18C491C081AA18D0844A08572
:10170000A08D401EE1690144802000594160802085
:101710000059083080210851802001598820005943
:10172000814203D104F1300080210851608CA18DE9
:10173000401AA18C884206DBA18DE069014480201B
:101740000059016005E080200059E1690160002036
:10175000A08500211148FFF74BF800BF0F48006833
:1017600000F001000028F9D1A08C401C0B49091D94
:10177000086080200059006808490C310860084959
:101780000648FFF71BF801210448FFF731F800BFB6
:101790009CE700009C1500200014014028640240D2
:1017A0000008001021B1828942F40052828104E0D5
:1017B00082894DF6FF731A40828170471AB1838A7D
:1017C0000B43838202E0838A8B438382704700004D
:1017D00010B504463248844208D101211020FFF799
:1017E0008BFB00211020FFF787FB57E02D48844238
:1017F00009D101214804FFF75FFB00214FF40030BD
:10180000FFF75AFB4AE02848844209D101218804A5
:10181000FFF752FB00214FF48020FFF74DFB3DE026
:101820002248844209D10121C804FFF745FB002169
:101830004FF40020FFF740FB30E01D48844209D1FF
:1018400001210805FFF738FB00214FF48010FFF756
:1018500033FB23E01748844208D101212020FFF701
:101860004BFB00212020FFF747FB17E01248844282
:1018700009D101218807FFF71FFB00214FF08040AD
:10188000FFF71AFB0AE00D48844207D10121400509
:10189000FFF712FB00216005FFF70EFB10BD0000F3
:1018A000001001400044004000480040004C00404F
:1018B000005000400014014000780040007C0040CF
:1018C00002460020B1F5007F00D100BF13880B4015
:1018D0000BB1012000E00020704770B502460024E3
:1018E00000230025002040F66A16B14200D100BF57
:1018F000C1F3421501F01F03012606FA03F3012D7F
:1019000002D19689334006E0022D02D1168A334077
:1019100001E0968A33400C12012606FA04F4168878
:10192000344013B10CB1012000E0002070BDF0B5CF
:101930000346002400260025002040F66A17B9421D
:1019400000D100BF1846C1F3421401F01F06012761
:1019500007FA06F5012C01D10C3004E0022C01D16C
:10196000103000E014301AB107682F43076002E01E
:101970000768AF430760F0BD2DE9FF4705460E46F7
:101980000024A14600BFA046B08900B100BF2C8A48
:1019900024F44054F08804432C82AC8941F20C605A
:1019A0008443B08831890843718908430443AC817A
:1019B000AC8A24F44074B0890443AC826846FFF7D3
:1019C000ABFA2048854202D01F48854202D1DDF89B
:1019D0000C9001E0DDF80890A88900F4004040B1C7
:1019E00009EBC90000EB091031684900B0FBF1F7C1
:1019F00007E009EBC90000EB091031688900B0FB72
:101A0000F1F76420B7FBF0F004012009642101FB29
:101A10001078A88900F4004040B1322000EBC800E3
:101A2000B0FBF1F000F00700044308E0322000EBC7
:101A300008106421B0FBF1F000F00F0004432C818A
:101A4000BDE8FF870010014000140140C1F3080207
:101A50008280704700BFFEE77CB50C001D4616462D
:101A6000014601D0601E00E00020CDE90010064BC9
:101A70006A462946304601F0BFFB002C02D0009A8E
:101A8000002111707CBD0000FF38000810B5094826
:101A9000FFF79EFE0848FEF7B7FE0848FFF75CF820
:101AA0000748FFF759F80748FFF756F80648FFF7C9
:101AB000B3FA10BD001001408864024000000240EB
:101AC00000040240000802400030014010B50F48F9
:101AD000D0F88C100EA088470C48D0F88C100DA0C0
:101AE00088470A48D0F88C100EA088470748D0F8DD
:101AF0008C1016A088470548D0F88C101FA0884786
:101B00000248D0F88C1028A0884710BD00000020A3
:101B10000D0A00005B315D457261736520415050D4
:101B20000D0A00005B325D49415020646F776E6C96
:101B30006F6164207468652070726F6772616D20D8
:101B4000746F20466C6173680D0A00005B335D4959
:101B5000415020646F776E6C6F61642070726F67A4
:101B600072616D7320746F2065787465726E616C3C
:101B700020466C6173680D0A000000005B345D4C08
:101B80006F6164696E672070726F6772616D732038
:101B900066726F6D2065787465726E616C20466C3C
:101BA0006173680D0A0000005B355D5265737461F6
:101BB00072740D0A0000000070B504460CB1207C60
:101BC00010B94FF0FF3070BD65692846E96B884752
:101BD000606901F0ADFF00206061207400BFF2E792
:101BE0002DE9F84304460E46174698460CB1207C72
:101BF00018B94FF0FF30BDE8F8836569CDF8008073
:101C00003B46324650212846D5F830C0E0470020F8
:101C1000F1E72DE9F04104460E4617460CB1207C51
:101C200018B94FF0FF30BDE8F08165693B46324698
:101C300050212846D5F834C0E0470020F3E7F8B536
:101C400004460E4617460CB1207C10B94FF0FF3009
:101C5000F8BD656900970823324650212846D5F81B
:101C600038C0E0470020F3E770B504464FF47A70BF
:101C700094FBF0F50B482946D0F88C200AA0904739
:101C800009E00848C0690078772801D1002070BDBC
:101C9000012001F09FFE201EA4F101018CB2F0D1C1
:101CA000401EF4E7000000200D0A456E74657220A6
:101CB0002277222077697468696E20256420736515
:101CC000636F6E647320746F20656E746572207428
:101CD000686520636F6D6D616E64206C696E652E42
:101CE0000D0A000010B50D48D0F88C100CA08847E4
:101CF00002240BE00E482146C2689047074821465F
:101D0000D0F88C200BA09047601CC4B20C2CF1DBE7
:101D10000248D0F88C1010A0884710BD00000020A9
:101D20000D0A4572617365204150502E0D0A000066
:101D3000441100205375636365737366756C6C7929
:101D40002065726173656420736563746F7220250A
:101D5000642E0D0A0000000053756363657373669B
:101D6000756C6C79206572617365642041505021F7
:101D70000D0A0000014609B1087810B94FF0FF3094
:101D800070470020087000BFFAE770B504460D46A2
:101D90000CB1207810B94FF0FF3070BD0C2D02DB74
:101DA0006FF00100F9E7FEF7B3FEF320FEF70AFE3D
:101DB000E8000221FEF70CFE092804D0FEF776FEAB
:101DC0006FF00200E9E7FEF771FE0020E5E72DE97C
:101DD000F04104460D4616461F460CB1207818B94E
:101DE0004FF0FF30BDE8F081FEF792FEF320FEF7E2
:101DF000E9FD06E028463168FEF762FE3F1F2D1D13
:101E0000361D002FF6D1FEF751FE0020EAE7000054
:101E100070B504460D46012D05D12078312802D138
:101E2000FFF760FF4EE0012D1BD12078322818D13A
:101E30002548D0F88C1025A08847FFF753FF22488B
:101E4000D0F88C102BA088473248006840F006007C
:101E50003049086000203049C1F80404C1F8080482
:101E600030E0012D0ED1207833280BD11648D0F860
:101E70008C102A4888472748006840F00800254908
:101E800008601FE0012D0ED1207834280BD10E48B8
:101E9000D0F88C10224888471E48006840F0200087
:101EA0001C4908600EE0012D0CD12078352809D19D
:101EB0000548D0F88C101BA08847642001F08AFDEB
:101EC000FEF7AAFF70BD0000000000200D0A494186
:101ED0005020646F776E6C6F616420746865207049
:101EE000726F6772616D20746F20466C6173682E2B
:101EF0000D0A00000D0A506C6561736520757365ED
:101F00002062696E20666F726D61742066696C650F
:101F10002E0D0A00140100208C1100201855000815
:101F2000C45400080D0A52657374617274210D0A5D
:101F30000000000070B504460E46012E46D1207800
:101F400031283DDB207839283ADC2348006820F02E
:101F5000080021490860207830382049C1F8000481
:101F60001D48006840F016001B49086000201B490E
:101F7000C1F80404C1F80804D1F80014184A42F862
:101F800021001648D0F800141648D0F88C2016A06E
:101F90009047002509E01148B0F8000405EB001057
:101FA00081B22048C26B90476D1C102DF3DB0B48AB
:101FB000D0F800140B48D0F88C201B4890470AE05A
:101FC0000848D0F88C1019A0884704E00548D0F8DC
:101FD0008C101AA0884770BD140100208C110020BD
:101FE0005C110020000000200D0A45726173696ECB
:101FF000672074686520256474682070726F67724A
:10200000616D20626C6F636B206F6620657874650C
:10201000726E616C20466C6173682E2E2E0D0D0A57
:1020200000000000C4000020705500084E756D626D
:102030006572206572726F72210D0A0044617461CD
:10204000206C656E677468206572726F72210D0A6C
:102050000000000070B504460D46012D1DD120780A
:10206000312814DB2078392811DC0F48006820F073
:1020700020000D490860207830380C49C1F8000470
:102080000948006840F00100074908600AE0084874
:10209000D0F88C1007A0884704E00548D0F88C10D1
:1020A00008A0884770BD0000140100208C1100209A
:1020B000000000204E756D626572206572726F724D
:1020C000210D0A0044617461206C656E677468209C
:1020D0006572726F72210D0A000000002DE9F04157
:1020E00005460E46852E6FD1287801286CD171489F
:1020F000006820F002006F4908608021E81C00F0B1
:1021000096FF6D49C1F80C0495F8841095F883008A
:1021100001EB00206849D1F80C1488424FD1664881
:10212000D0F80804401C6449C1F8080491F8081468
:10213000491E01F00701604A02EBC1108022E91C30
:10214000FEF744F85C4890F8080400F0070008BB6C
:102150005848007800F01000E8B1002418E0564814
:10216000B0F8000403055448D0F808044FF0010CFF
:10217000CCEBD00003EB802000EB04214E4800EBB9
:1021800004224E484FF48073076BB847601CC4B2FA
:10219000042CE4DB0DE04848D0F808040122C2EB2F
:1021A000D000474A02EB802146485314424A07694F
:1021B000B8474548D0F88C1044A0884704E042480E
:1021C000D0F88C1042A08847012E71D128780428BD
:1021D0006ED13D48D0F88C103CA08847364890F826
:1021E000080400F0070078B33248007800F01000CF
:1021F000D0B1002415E03048B0F8000403052E48A3
:10220000D0F80804C00803EB802000EB04212A4822
:1022100000EB042229484FF48073076BB847601C19
:10222000C4B2042CE7DB0FE0234890F80804400711
:10223000830D2148D0F80804C008214A02EB802110
:1022400020481D4A0769B8471A48006820F0040072
:10225000184908600846007800F01000D8B1084618
:10226000006820F0100008601348D0F80804C0018E
:102270001149D1F80014174A42F8210001F02AFC54
:102280001148D0F88C1014A08847642001F0A2FBFC
:10229000FFF71CFC0CE0C82001F09CFB0A48D0F8BA
:1022A0008C1013A08847C82001F094FBFEF7B4FD02
:1022B000BDE8F081140100208C110020C400002032
:1022C00000800008441100200000002006000000EB
:1022D000150000005C110020446F776E6C6F616424
:1022E00020636F6D706C65746564210D0A000000D9
:1022F0004941502075706461746520636F6D706C26
:10230000657465642C2072657374617274210D0AA2
:1023100000000000014609B1087C10B94FF0FF3001
:1023200070470020087400BFFAE72DE9F041044629
:102330000D4616461F460CB1207C18B94FF0FF30F1
:10234000BDE8F081204600F00EF96806010E204637
:1023500000F0E9F8204600F069F83146204600F028
:10236000E2F8204600F062F8204600F0FCF8012078
:1023700000EB4500C1B2204600F0D5F8204600F041
:1023800055F8204600F066F838700121204600F02C
:10239000B3F8204600F001F90020D1E72DE9F0471D
:1023A00005460E4690461F46DDF820900DB1287C6C
:1023B00018B94FF0FF30BDE8F087284600F0D3F899
:1023C0007006010E284600F0AEF8284600F02EF800
:1023D0004146284600F0A7F8284600F027F828468E
:1023E00000F0C1F8012000EB4600C1B2284600F021
:1023F0009AF8284600F01AF8002410E0284600F069
:1024000029F809F80400781EA04201D1012000E05B
:1024100000200146284600F06FF8601C84B2BC42E0
:10242000ECDB284600F0B9F80020C4E770B504469C
:102430000121204600F04CF80121204600F027F849
:10244000204600F038F805460021204600F01FF82D
:10245000284670BD70B5064600250121304600F0C3
:1024600037F807240FE00121304600F010F830461D
:1024700000F021F8A0402843C5B20021304600F00A
:1024800006F8601E44B2002CEDDA284670BD70B527
:1024900004460D460CB1207C10B94FF0FF3070BDE2
:1024A000A28891B22A462068FEF766FC012001F05E
:1024B0009DFA0020F3E770B50446A28991B2A068A6
:1024C000FEF751FC0546012001F090FA284670BD48
:1024D00070B504460D460CB1207C10B94FF0FF30AA
:1024E00070BDA28991B22A46A068FEF745FC012082
:1024F00001F07CFA0020F3E770B504460D460CB1FC
:10250000207C10B94FF0FF3070BD29462046FFF700
:10251000DFFF01212046FFF7BAFF00212046FFF729
:10252000B6FF0020F0E770B504460E460CB1207CE3
:1025300010B94FF0FF3070BD002510E08020284119
:1025400000EA06012046FFF7C3FF01212046FFF7FE
:102550009EFF00212046FFF79AFF681CC5B2082D98
:10256000ECDB0020E7E710B504460CB1207C10B985
:102570004FF0FF3010BD01212046FFF7A9FF0121D8
:102580002046FFF784FF00212046FFF7A1FF00212E
:102590002046FFF77CFF0020ECE710B504460CB1A5
:1025A000207C10B94FF0FF3010BD00212046FFF70E
:1025B0006EFF00212046FFF78BFF01212046FFF729
:1025C00066FF01212046FFF783FF0020ECE72DE99D
:1025D000F04104460D4616461F460CB1207C18B942
:1025E0004FF0FF30BDE8F0812046FFF7BCFF6806E2
:1025F000010E2046FFF797FF2046FFF717FF3146F1
:102600002046FFF790FF2046FFF710FF394620468F
:10261000FFF789FF2046FFF709FF2046FFF7BDFFC0
:102620000020DFE72DE9F04705460E46174698469D
:10263000DDF820900DB1287C18B94FF0FF30BDE8CF
:10264000F0872846FFF78FFF7006010E2846FFF738
:102650006AFF2846FFF7EAFE39462846FFF763FF80
:102660002846FFF7E3FE002409E019F80410284685
:10267000FFF759FF2846FFF7D9FE601C84B2444596
:10268000F3DB2846FFF789FF0020D8E710B50446A2
:102690002068B0F1005F0FD30A49206888420BD848
:1026A0002068FDF77DFD084960680860FFF7EEF9D6
:1026B00005480068804704E00448D0F88C1004A066
:1026C000884710BDFFFF01201001002000000020FE
:1026D0000D0A4A756D70696E6720746F2041505005
:1026E000206661696C6564210D0A000002E008C87B
:1026F000121F08C1002AFAD170477047002001E07C
:1027000001C1121F002AFBD1704770B504460D4667
:10271000228C91B22A46E069FEF72EFB70BD01467D
:1027200011B191F8280010B94FF0FF307047002028
:1027300081F8280000BFF9E710B5044600212046C3
:10274000FFF7E3FF10BD10B5044601212046FFF757
:10275000DCFF10BD70B504460D4600BF02212068A5
:10276000FEF7B2FC0128F9D129462068FEF7B8FC33
:1027700000BF01212068FEF7A7FC0128F9D12068DD
:10278000FEF7ABFCC0B270BD0FB438B508480468A2
:1027900014B938BC5DF814FB05A800902046009AD7
:1027A000049900F03DFA0020009000BFF1E700001E
:1027B0009C15002010B503480468204600F056FA26
:1027C00010BD00009C15002070B504460D4605485C
:1027D000066806B970BD2A462146304600F068FA00
:1027E00000BFF7E79C1500200FB438B508484468CF
:1027F00014B938BC5DF814FB05A800902046009A77
:10280000049900F00DFA0020009000BFF1E70000ED
:102810009C15002010B503484468204600F026FAB5
:1028200010BD00009C15002070B504460D460548FB
:10283000466806B970BD2A462146304600F038FA8F
:1028400000BFF7E79C1500200FB438B5084884682E
:1028500014B938BC5DF814FB05A800902046009A16
:10286000049900F0DDF90020009000BFF1E70000BE
:102870009C15002010B503488468204600F0F6F946
:1028800010BD00009C15002070B504460D4605489B
:10289000866806B970BD2A462146304600F008FA1F
:1028A00000BFF7E79C1500200FB438B50848C4688E
:1028B00014B938BC5DF814FB05A800902046009AB6
:1028C000049900F0ADF90020009000BFF1E700008E
:1028D0009C15002010B50348C468204600F0C6F9D6
:1028E00010BD00009C15002070B504460D4605483B
:1028F000C66806B970BD2A462146304600F0D8F9B0
:1029000000BFF7E79C1500200FB438B508480469EC
:1029100014B938BC5DF814FB05A800902046009A55
:10292000049900F07DF90020009000BFF1E700005D
:102930009C15002010B503480469204600F096F964
:1029400010BD00009C15002070B504460D460548DA
:10295000066906B970BD2A462146304600F0A8F93E
:1029600000BFF7E79C1500200FB438B5084844694C
:1029700014B938BC5DF814FB05A800902046009AF5
:10298000049900F04DF90020009000BFF1E700002D
:102990009C15002010B503484469204600F066F9F4
:1029A00010BD00009C15002070B504460D4605487A
:1029B000466906B970BD2A462146304600F078F9CE
:1029C00000BFF7E79C150020014611B191F82800DF
:1029D00010B94FF0FF307047002081F8280000BF89
:1029E000F9E7000010B590B0044685492068884298
:1029F00004D101218805FEF72FFA2BE081492068D8
:102A0000884204D101214805FEF726FA22E07E49DA
:102A10002068884204D101214805FEF71DFA19E01B
:102A20007A492068884204D101214805FEF714FA4A
:102A300010E077492068884204D101214805FEF75B
:102A40000BFA07E073492068884203D10121880509
:102A5000FEF702FA6A4A2168914201D16E4922E0EA
:102A6000684A2168914201D16C491CE0664A21689C
:102A7000914202D16949603915E0644A2168914266
:102A800002D1664948390EE0614A2168914202D17B
:102A90006249783907E05F4A2168914202D15E4974
:102AA000603900E000210846FDF7AEFE5449206879
:102AB000884202D14FF0006023E0524920688842EA
:102AC00002D14FF000601CE04F492068884202D1DB
:102AD0004FF0006015E04D492068884202D14FF068
:102AE00000600EE04A492068884202D14FF0006041
:102AF00007E048492068884202D14FF0206000E09A
:102B0000002001902068001D02900020089006908F
:102B1000E0690390002009904FF480600790A08C3A
:102B2000401C0590002004900A904FF400300B9058
:102B300000200C9003200D9000200F900E90304A42
:102B40002168914201D1344922E02E4A2168914204
:102B500001D132491CE02C4A2168914202D12F490F
:102B6000603915E0294A2168914202D12B49483940
:102B70000EE0274A2168914202D12849783907E0BE
:102B8000244A2168914202D12349603900E00021A2
:102B9000084601A9FDF7E8FE194A2168914201D1D2
:102BA0001D4922E0174A2168914201D11B491CE0CE
:102BB000154A2168914202D11849603915E0134A3B
:102BC0002168914202D1154948390EE0104A216826
:102BD000914202D11149783907E00E4A21689142A9
:102BE00002D10D49603900E0002108460121FDF7BE
:102BF000FFFD012240212068FEF7E0FD10B010BD6E
:102C0000001001400044004000480040004C0040DB
:102C10000050004000140140886402408860024077
:102C2000F7B504460E46218CA0693246029BFEF79A
:102C300013FF00250DE000BF80212068FEF740FE55
:102C40000128F9D1A269515D2068FEF7FFFE681CDA
:102C500085B2A069FDF7DEFAA842ECD800BF40219A
:102C60002068FEF72DFE0128F9D1FEBD0146802027
:102C7000435884204058834218D000238420405871
:102C800040684370842040580268842040580830CF
:102C9000842358508420435888204058834203D1CD
:102CA00001F1300084235850104670470020FCE7A3
:102CB0002DE9F04104460E46174600250BE0715DF4
:102CC0002068FEF7C3FE00BF80212068FEF7F8FDF4
:102CD0000028F9D06D1CBD42F1D3BDE8F08170B57C
:102CE00006460D46B46A304600F093F92046216B43
:102CF0008847D8212046A26B90472804C0F307419B
:102D00002046A26B90472804C0F307212046A26BFF
:102D100090472804C1B22046A26B90472046616BC1
:102D20008847304600F0C2F870BD70B5044614B153
:102D300094F8240010B94FF0FF3070BDA56A284602
:102D4000E96B8847A06A00F0F3FE0020A06284F8D7
:102D5000240000BFF1E72DE9F04707460D469046F5
:102D60009946BC6A384600F054F92046216B8847E2
:102D700002212046A26B9047C5F307412046A26B73
:102D80009047C5F307212046A26B9047E9B2204641
:102D9000A26B9047002606E018F806102046A26BAA
:102DA0009047701C86B24E45F6DB2046616B884723
:102DB000384600F07BF8BDE8F0872DE9F04707467C
:102DC0000D4690469946BC6A2046216B88470321F0
:102DD0002046A26B9047C5F307412046A26B90475F
:102DE000C5F307212046A26B9047E9B22046A26BAB
:102DF0009047002606E0FF212046A26B904708F886
:102E00000600761C4E45F6D32046616B8847BDE828
:102E1000F0872DE9F04106460F461546B46A204674
:102E2000216B88479F212046A26B9047FF212046B7
:102E3000A26B90473870FF212046A26B90472880F4
:102E400028884FF6FF7101EA00202880FF212046E4
:102E5000A26B90472988084328802046616B8847E9
:102E6000BDE8F08170B506460D46B46A304600F004
:102E7000D0F82046216B884720212046A26B90473E
:102E8000C5F307412046A26B9047C5F307212046B2
:102E9000A26B9047E9B22046A26B90472046616B37
:102EA0008847304600F002F870BD000070B5054656
:102EB000AC6A2046216B884705212046A26B9047CB
:102EC000084E02E0761E06B907E0FF212046A26BFD
:102ED000904700F001000028F4D100BF2046616B4C
:102EE000884770BDA086010070B50546AC6A2046D3
:102EF000216B8847AB212046A26B90472046616B2F
:102F0000884770BD2DE9F84F83460E4617461C468C
:102F10004FF00008C146C24600250020009006F090
:102F2000FF0ACAF10000C5B2C4F3072804F0FF0984
:102F3000BAF1000F23D1B8F1000F06D1A3B23A467F
:102F400031465846FFF707FF61E00AE04FF480730F
:102F50003A4631465846FFF7FEFE06F5807607F5FD
:102F60008077B8F10000A8F1010101F0FF08EDD170
:102F70004B463A4631465846FFF7EDFE47E0B8F17A
:102F8000000F1BD1A94512DDA9EB0500C0B20090CE
:102F90002B463A4631465846FFF7DDFE2E442F4475
:102FA0003A4631465846009BFFF7D5FE2FE0A3B2C4
:102FB0003A4631465846FFF7CEFE28E0641BC4F37C
:102FC000072804F0FF092B463A4631465846FFF7DA
:102FD000C2FE2E442F440AE04FF480733A46314635
:102FE0005846FFF7B8FE06F5807607F58077B8F10A
:102FF0000000A8F1010101F0FF08EDD1B9F1000FC7
:1030000005D04B463A4631465846FFF7A4FEBDE888
:10301000F88F70B50546AC6A2046216B88470621BB
:103020002046A26B90472046616B884770BD70B503
:1030300002460B46002041F2210414E0157880EA94
:10304000052000210CE000F400451DB184EA400594
:10305000A8B203E04FF6FF7505EA40004D1CE9B247
:103060000829F0DB521C1D1EA3F10106B3B2E5D105
:1030700070BD00002DE9FF5F82B00021DDE9043062
:10308000020DDDF840B0034318D044F61050A2F210
:10309000FF3242431514119801281FD0A5EB0B00F5
:1030A000401C5FEA000A4FF000064E4FDFF83891EF
:1030B000B046504615D5CAF1000413E0119801241A
:1030C0004AA3012801D16FEA0B010298119AC0E9C5
:1030D0000031C0E9024206B0BDE8F09FCBF100002C
:1030E000DFE704460021404A491842EB0450CDE98D
:1030F000001012E0E00707D032463B464046494602
:10310000FDF77DF98046894632463B461046194612
:10311000FDF775F906460F466410002CEAD1DDE98B
:103120000401DDE90023BAF1000F06DAFDF767F9C3
:1031300042464B46FDF763F905E0FDF7D2F94246FA
:103140004B46FDF7CEF904460E460022284BFDF70C
:103150004FFA03D84FF0FF30014607E00022254B1D
:1031600020463146FDF7A4F8FDF72AFA102409E0BD
:10317000002C0ADB0A220023FDF769F8039B30329A
:103180001A55641E50EA0102F2D1641C039AC4F17C
:1031900011031444119A012A03D0012208430DD1CE
:1031A0000AE0084304D000204FF0110B119072E7A1
:1031B000A3EB0B056D1E0DE05B4504DD4FF0000237
:1031C00005F1010504E003DA4FF00002A5F1010565
:1031D000002AECD002981199C0E90231C0E90045FB
:1031E00079E70000000014400000F03F30000000CC
:1031F0000000F0430000E03F2DE9FF4F95B09A46F4
:10320000884606460025EEE1252877D1002427468A
:10321000F94A0121039400E0044316F8013F203BE2
:1032200001FA03F01042F7D130782A2811D06FF05C
:103230002F033078A0F13002092A16D8039A44F0FF
:10324000020402EB820203EB42021044761C03905C
:10325000EFE758F8042B0392002A03DA504244F4B3
:103260000054039044F00204761C30782E2816D1C6
:1032700016F8010F44F004042A280DD06FF02F0235
:103280003078A0F13003092B09D807EB870302EB54
:103290004303C718761CF3E758F8047B761C307894
:1032A0006C280FD006DC4C2817D068280DD06A286F
:1032B00014D104E0742810D07A280FD10DE044F422
:1032C00000140AE044F4801401E044F440147278DD
:1032D000824202D104F58014761C761C3078662870
:1032E0000BD013DC582877D009DC002875D045288E
:1032F000F6D04628F4D047281AD193E118E0632885
:1033000035D0642879D0652812D18BE1702873D02C
:1033100008DC6728F1D069286FD06E280DD06F289F
:1033200006D1ACE073282CD0752874D0782853D0FF
:103330005246179990476D1C54E1C4F3025002287D
:1033400009D003280DD0D8F8001004280DD00D6046
:1033500008F1040846E1D8F80010EA17C1E9005264
:10336000F6E7D8F800100D80F2E70D70F0E718F8D6
:10337000041B8DF8001000208DF80100EB460120A1
:1033800003E058F804BB4FF0FF3061074FF0000135
:1033900002D40DE009F101018946B9420FDA8145F5
:1033A000F8DB1BF809100029F4D108E009F101014C
:1033B00089468142FADB1BF809100029F6D10398EF
:1033C0005346A0EB090721463846179A00F080FAC9
:1033D000284400EB090507E044E008E10DE01BF894
:1033E000010B524617999047B9F10109F7D253469C
:1033F00021463846179AF2E039E00A21C4F3025216
:103400004FF0000B0091022A06D058F8040BC117A8
:10341000032A09D00AE023E008F1070020F00702A0
:10342000F2E80201904605E000B2C117042A01D17A
:1034300040B2C117002906DA0A460021404261EB7A
:1034400002012D2202E0220504D52B228DF8042052
:10345000012203E0E20701D02022F7E7914657E07E
:103460000A2100E010214FF0000B00910BE0102129
:103470004FF0000B44F004040827009103E00820FB
:103480004FF0000B0090C4F30252022A05D058F806
:10349000040B0021032A08D008E008F1070020F0FF
:1034A0000702F2E80201904603E080B2042A00D14C
:1034B000C0B24FF0000922072AD53278702A07D00F
:1034C000DDF800C08CF0100C5CEA0B0C05D00EE0AF
:1034D00040228DF80420012208E050EA010306D0C2
:1034E00030238DF804308DF8052002229146009B90
:1034F00083F0080353EA0B030AD150EA010201D119
:10350000620705D530228DF804204FF001097F1E97
:103510003278582A04D039A20C920CAA02920BE0FD
:103520003BA2F9E75B46009AFCF791FE0C9B9B5C83
:10353000029A521E0292137050EA0102F2D10298CE
:1035400004A9081A00F1200B600702D524F4803486
:1035500000E001275F4502DDA7EB0B0000E0002043
:1035600000EB0B01009003984944401A0390E003DC
:1035700006D453462146179A039800F0A9F905444A
:10358000002706E001A85246C05D179990476D1CC0
:103590007F1C4F45F6DBE0030CD553462146179AB6
:1035A000039800F095F9054404E03020524617993D
:1035B00090476D1C0099481E00900029F5DC08E03A
:1035C0000298029952460078491C02911799904737
:1035D0006D1CBBF10001ABF1010BF1DC5BE100F014
:1035E00065F90544761C307800287FF40DAE19B0DB
:1035F0002846BDE8F08F0000092801003031323341
:10360000343536373839616263646566000000001E
:103610003031323334353637383941424344454608
:1036200000000000600700D4062708F1070020F022
:103630000700F0E80223804603F0004C5FEA0C002C
:1036400001D097A009E0200501D596A005E0E0078C
:1036500001D095A001E0AFF24C001390307823F038
:10366000004365280CD006DC452809D046281DD02B
:1036700047287FD13BE0662818D067287AD136E00A
:103680000021112F01DB112000E0781CCDE90001A1
:1036900004A90CA8FFF7EEFCDDE90D010C9A4FF030
:1036A000000B07F10109109200914EE04FF000402D
:1036B0000097CDE9011004A90CA8FFF7DBFCDDE9B8
:1036C0000D020C9B0F994FF0000B91461093009246
:1036D00011B9791C00EB0109B7EB090003D4C0F163
:1036E000FF3B07F10109A9EB0700019042E0012F20
:1036F00000DA01270021112F01DD112000E03846FA
:10370000CDE9000104A90CA8FFF7B4FCDDE90D0127
:103710000C9A00914FF0000BB946109221070FD47C
:10372000009A4A4503DA914601E0A9F10109B9F18D
:10373000010F05DD109AA9F10101515C3029F4D087
:10374000B84202DA10F1040F03DA0121CDE90110C9
:1037500010E0002803DC8344A9EB000102E0411CD7
:10376000494500DD8946A0EB0B00401C01904FF05D
:1037700000400290200705D40198484502DB4FF035
:10378000FF30019000208DF84B0002980DF14B079F
:10379000B0F1004F25D002200C902B200D90029804
:1037A00000280CDA404202902D200D9007E00A21FB
:1037B0000298FCF736FD3031029007F8011D0C9994
:1037C000481E0C900029F2DC02980028EFD1791EE7
:1037D0000D980870307800F0200040F0450007F8A0
:1037E000020D11A8C01BC01D02901398007800B1F3
:1037F000012000EB0901019801EBE07102980144FE
:103800000398401A401E0390E00306D45346214615
:10381000179A039800F05CF805441398007818B1E3
:103820005246179990476D1CE00323D55346214615
:10383000179A039800F04CF805441BE0BBF1000F09
:1038400007DB0098584504DD1098179910F80B0015
:1038500001E0179930205246904701980BF1010B77
:10386000401E05F10105019004D12E205246179902
:1038700090476D1CB9F10001A9F10109DEDC05E0FA
:1038800017F8010B5246179990476D1C0299481E74
:1038900002900029F4DC53462146179A03989EE6CD
:1038A0002D0000002B000000200000002DE9F04159
:1038B000044600251E461746880404D405E0394610
:1038C0002020B0476D1C641EF9D52846BDE8F08164
:1038D0002DE9F041044600251E469046C80301D557
:1038E000302700E02027880404D505E0414638460B
:1038F000B0476D1C641EF9D52846BDE8F0814A68C2
:10390000002A06D00A68531C0B6010704868401EDD
:103910004860704710B54FF4FA60FEF7A5F9401CF7
:1039200038B90848D0F88C1007A088470B48FEF734
:10393000ADFE0448D0F88C1009A08847FEF7C6F801
:1039400010BD0000000000200D0A4A756D70207443
:103950006F20415050210D0A000000000080000837
:103960000D0A456E7465722074686520636F6D6D15
:10397000616E64206C696E652E0D0A0070B5044698
:103980000D461348006820B929462046FEF740FA44
:103990001CE00F48007800F0040020B129462046C2
:1039A000FEF79CFB12E00A48007800F0080020B106
:1039B00029462046FEF7BEFA08E00548007800F0E8
:1039C000200018B129462046FEF744FB70BD0000D8
:1039D0001401002010B5044603E04FF47A7000F0A3
:1039E00005F8201EA4F10104F7D110BD01464FF0E7
:1039F000E022126942F004024FF0E0231A61134AF8
:103A00001268134BB2FBF3F24A43521E4FF0E0230D
:103A10005A6100229A611A46126942F001021A6143
:103A200000BF4FF0E022106900F001021AB100F46B
:103A30008032002AF5D04FF0E022126922F0010214
:103A40004FF0E0231A6100229A61704718010020AC
:103A500040420F0070B5044614B94FF0FF3070BDFE
:103A6000402000F0B5FA6061606910B94FF0FF3096
:103A7000F5E765692068286060686860A068A860EC
:103A8000E068E860284600F059F90648A061064859
:103A9000E061064820620648606201202074002030
:103AA000DDE70000131C00083F1C0008E11B0008B4
:103AB000B91B000810B530210448FCF7A0FB0448EE
:103AC000024B30220021046AA04710BD5C11002087
:103AD0009C00002070B5094D00240BE005EBC402EA
:103AE000E006010E0648C36998470520FFF772FFFC
:103AF000601CC4B2062CF1D370BD00005C11002024
:103B00009C000020014611B94FF0FF307047054876
:103B1000C860054808610548486101200870002018
:103B2000F4E700008B1D0008CF1D0008751D00087C
:103B300010B5002821D0114B0022001F196803E0A6
:103B4000814203D80A4649680029F9D152B1136865
:103B5000841A9C4204D1006818441060104602E0A8
:103B6000506000E0186039B102680B1A934203D12B
:103B70000B681A4402604968416010BD3C01002096
:103B800070B53C48D0F800043B4D55F8202039482A
:103B9000D0F800143948D0F88C3039A0984735480F
:103BA000D0F80004294611F8200000F00300002896
:103BB00053D1FEF797F8002416E02E48B0F8000421
:103BC000000500EB84213A484FF48063294A056CD4
:103BD000A847384800EB842137484FF48063254AD2
:103BE0000569A847601CC4B22248D0F800042249E5
:103BF00051F82000B4EB902FDFD31E48D0F800041A
:103C000031F82000C0F3090000B31A48B0F80004EE
:103C1000000500EB84211748D0F80004164A32F85A
:103C20002000C0F309032248124A056CA847114836
:103C3000D0F80004104A32F82000C0F309031D48F0
:103C400000EB84211C480B4A0569A8470B48D0F8B3
:103C50008C101AA08847FDF7DFF80848D0F88C10C0
:103C60001FA088472348006820F001002149086010
:103C700070BD00008C1100205C11002000000020AD
:103C80000D0A4C6F61642074686520256474682097
:103C900070726F6772616D2C206C656E677468203E
:103CA00069732025642062797465732E0D0A000003
:103CB000C400002000800008441100200D0A41507B
:103CC000502075706461746520636F6D706C6574ED
:103CD00065642C2072657374617274210D0A000092
:103CE0000D0A4C656E677468206572726F72210DE3
:103CF0000A0000001401002010B50120FFF76AFE41
:103D00000B48D0F80404B0F57A7F08D30948D0F8FE
:103D10008C1009A0884700200549C1F80404044814
:103D2000D0F80404401C0249C1F8040410BD00008E
:103D30008C11002000000020430000001CB5044648
:103D400014B94FF0FF301CBD5F492068884204D190
:103D500001210846FDF780F834E05C49206888427C
:103D600004D101210220FDF777F82BE058492068A3
:103D7000884204D101210420FDF76EF822E0554964
:103D80002068884204D101210820FDF765F819E078
:103D900051492068884204D101211020FDF75CF8C8
:103DA00010E04E492068884204D101212020FDF70F
:103DB00053F807E04A492068884203D10121402096
:103DC000FDF74AF84049A068884204D1012108461D
:103DD000FDF742F834E03D49A068884204D1012152
:103DE0000220FDF739F82BE03949A068884204D158
:103DF00001210420FDF730F822E03649A06888420E
:103E000004D101210820FDF727F819E03249A06804
:103E1000884204D101211020FDF71EF810E02F493F
:103E2000A068884204D101212020FDF715F807E0A1
:103E30002B49A068884203D101214020FDF70CF8EE
:103E400001208DF804008DF80600606800900020C5
:103E50008DF8070002208DF8050069462068FCF700
:103E600017FF01208DF804008DF80600E06800902F
:103E700000208DF8070002208DF805006946A06833
:103E8000FCF706FF174860611748A0611748E0611A
:103E900017482062174860621748A0621748E0621E
:103EA00017482063174860631748A0631748E0630A
:103EB0000120207401212046FEF7E9FA0121204665
:103EC000FEF706FB00203EE700000240000402402F
:103ED00000080240000C02400010024000140240A2
:103EE00000180240672500089B25000827250008C8
:103EF00055240008F92400082D2400082B2300086D
:103F00009D230008CF25000825260008152300085A
:103F10004FF44070FCF776FF274800F0E9FB274894
:103F2000FFF798FD264801F07DFA2648FFF7EAFDE5
:103F30002148D0F88C1024A08847FFF7BBFDFFF77D
:103F4000E9FC38E01C48D0F88010D0F884008142A9
:103F500023D0194AD2F884209388174AD2F88420B3
:103F600012889A1A521C91B2134AD2F8842010680F
:103F7000FFF704FD1048D0F8840008300E49C1F85E
:103F800084000846D0F88410D0F88800814204D11B
:103F9000094830300849C1F884000C48007800F026
:103FA000020008B1FFF7A8FE0848007800F0010001
:103FB00008B1FFF7E5FDC5E7000000209C000020E8
:103FC000C4000020441100200D0A0000140100204C
:103FD000F0B50B30154D20F007010024144A0FE016
:103FE00003688B420BD38B4205D95E1A431847688E
:103FF000C3E9006700E04368136002C004E0021DEB
:1040000010680028ECD12046002802D1286808B1A9
:104010000020F0BD064A07481060074A121A22F035
:104020000702C0E9002401202860D7E740010020F2
:104030003C010020BC150020B817002030B587B027
:1040400004461CB94FF0FF3007B030BDF949206875
:10405000884204D101218014FCF73EFF10E0F649AC
:104060002068884204D101210014FCF715FF07E005
:10407000F2492068884203D10121C013FCF70CFFEC
:10408000EF496068884204D101210846FCF7E4FE4C
:1040900034E0EC496068884204D101210220FCF739
:1040A000DBFE2BE0E8496068884204D1012104204E
:1040B000FCF7D2FE22E0E5496068884204D1012184
:1040C0000820FCF7C9FE19E0E1496068884204D184
:1040D00001211020FCF7C0FE10E0DE496068884234
:1040E00004D101212020FCF7B7FE07E0DA4960681F
:1040F000884203D101214020FCF7AEFED049E068A0
:10410000884204D101210846FCF7A6FE34E0CD49DF
:10411000E068884204D101210220FCF79DFE2BE0DB
:10412000C949E068884204D101210420FCF794FECB
:1041300022E0C649E068884204D101210820FCF74A
:104140008BFE19E0C249E068884204D101211020A9
:10415000FCF782FE10E0BF49E068884204D10121EB
:104160002020FCF779FE07E0BB49E068884203D1D4
:1041700001214020FCF770FEB1496069884204D1FA
:1041800001210846FCF768FE34E0AE4960698842C8
:1041900004D101210220FCF75FFE2BE0AA496069EF
:1041A000884204D101210420FCF756FE22E0A749F1
:1041B0006069884204D101210820FCF74DFE19E016
:1041C000A3496069884204D101211020FCF744FE14
:1041D00010E0A0496069884204D101212020FCF749
:1041E0003BFE07E09C496069884203D101214020E1
:1041F000FCF732FE9249E069884204D10121084669
:10420000FCF72AFE34E08F49E069884204D101219D
:104210000220FCF721FE2BE08B49E069884204D1A3
:1042200001210420FCF718FE22E08849E069884259
:1042300004D101210820FCF70FFE19E08449E06950
:10424000884204D101211020FCF706FE10E08149CC
:10425000E069884204D101212020FCF7FDFD07E040
:104260007D49E069884203D101214020FCF7F4FD3B
:1042700002208DF8040000208DF80600A068009050
:1042800000208DF8070002208DF80500694660685F
:10429000FCF7FEFC02208DF8040000208DF80600DB
:1042A0002069009000208DF8070002208DF805009D
:1042B0006946E068FCF7ECFC02208DF80400002061
:1042C0008DF80600A069009000208DF807000220FC
:1042D0008DF8050069466069FCF7DAFC01208DF86D
:1042E000040000208DF80600206A009000208DF860
:1042F000070002208DF805006946E069FCF7C8FC5C
:104300004C4D2368AB4201D105230CE04A4D236894
:10431000AB4201D1052306E0484D2368AB4201D1F1
:10432000062300E000231A46A368012B01D10023D5
:1043300053E0A368022B01D101234EE0A368042BB4
:1043400001D1022349E0A368082B01D1032344E0F3
:10435000A368102B01D104233FE0A368202B01D1D7
:1043600005233AE0A368402B01D1062335E0A3687A
:10437000802B01D1072330E0A368B3F5807F01D102
:1043800008232AE0A368B3F5007F01D1092324E0C4
:10439000A368B3F5806F01D10A231EE0A368B3F5CB
:1043A000006F01D10B2318E0A368B3F5805F01D142
:1043B0000C2312E0A368B3F5005F01D10D230CE0DC
:1043C000A368B3F5804F01D10E2306E0A368B3F5CF
:1043D000004F01D10F2300E0002319466068FCF76D
:1043E0009FFC144D2368AB4201D105230CE0124D14
:1043F0002368AB4201D1052306E0104D2368AB4290
:1044000001D1062300E000231A462369012B01D1C4
:10441000002368E02369022B01D1012363E02369B3
:10442000042B01D102235EE02369082B16D103235C
:1044300059E000000030014000380040003C0040DE
:10444000000002400004024000080240000C02404C
:104450000010024000140240001802402369102B93
:1044600001D104233FE02369202B01D105233AE049
:104470002369402B01D1062335E02369802B01D12C
:10448000072330E02369B3F5807F01D108232AE0B8
:104490002369B3F5007F01D1092324E02369B3F533
:1044A000806F01D10A231EE02369B3F5006F01D1AB
:1044B0000B2318E02369B3F5805F01D10C2312E0D0
:1044C0002369B3F5005F01D10D230CE02369B3F537
:1044D000804F01D10E2306E02369B3F5004F01D1CF
:1044E0000F2300E000231946E068FCF719FC784D23
:1044F0002368AB4201D105230CE0764D2368AB4223
:1045000001D1052306E0744D2368AB4201D1062397
:1045100000E000231A46A369012B01D1002353E0D8
:10452000A369022B01D101234EE0A369042B01D121
:10453000022349E0A369082B01D1032344E0A369C6
:10454000102B01D104233FE0A369202B01D10523C7
:104550003AE0A369402B01D1062335E0A369802B03
:1045600001D1072330E0A369B3F5807F01D108238F
:104570002AE0A369B3F5007F01D1092324E0A369F0
:10458000B3F5806F01D10A231EE0A369B3F5006F74
:1045900001D10B2318E0A369B3F5805F01D10C238F
:1045A00012E0A369B3F5005F01D10D230CE0A3690C
:1045B000B3F5804F01D10E2306E0A369B3F5004F98
:1045C00001D10F2300E0002319466069FCF7A8FB26
:1045D0004FF48270ADF80A000020ADF80800ADF885
:1045E0000C00ADF81600A08C022801D1002023E0B9
:1045F000A08C042801D108201EE0A08C082801D13D
:10460000102019E0A08C102801D1182014E0A08CF3
:10461000202800D110E0A08C402801D128200BE0F8
:10462000A08C802801D1302006E0A08CB0F5807FDE
:1046300001D1382000E00020ADF8140094F82600E5
:1046400028B90020ADF80E00ADF810001EE094F877
:104650002600012806D10020ADF80E000120ADF89B
:10466000100013E094F82600022805D1ADF80E00E2
:104670000020ADF8100009E094F82600032805D1C9
:104680000220ADF80E000120ADF810004FF40070CC
:10469000ADF812000720ADF8180002A92068FCF759
:1046A00021FD01212068FCF7ABFC0C48E0620C48BE
:1046B00020630C4860630C48A0630C48E063012051
:1046C00084F8280001212046FEF71FF80020BBE4F3
:1046D0000030014000380040003C00400B2700083B
:1046E0003927000847270008552700081F2700081A
:1046F00030B587B004461CB94FF0FF3007B030BD6D
:10470000F7492068884201D100201FE0F549206860
:10471000884201D1012019E0F3492068884201D183
:10472000022013E0F1492068884201D103200DE006
:10473000EF492068884201D1042007E0ED49206854
:10474000884201D1052001E04FF0FF300546002DE1
:1047500002DBE94840F8254004F13000802108518F
:104760008421085148308821085180200059E1698E
:1047700001600020A085DA492068884204D1012127
:104780001020FCF7A9FB2BE0D6492068884204D111
:1047900001214804FCF780FB22E0D34920688842CD
:1047A00004D101218804FCF777FB19E0CF49206888
:1047B000884204D10121C804FCF76EFB10E0CC490B
:1047C0002068884204D101210805FCF765FB07E059
:1047D000C8492068884203D101212020FCF77CFBD6
:1047E000C649A068884204D101210846FCF734FB81
:1047F00034E0C349A068884204D101210220FCF7BB
:104800002BFB2BE0BF49A068884204D10121042082
:10481000FCF722FB22E0BC49A068884204D10121B8
:104820000820FCF719FB19E0B849A068884204D1B8
:1048300001211020FCF710FB10E0B549A068884268
:1048400004D101212020FCF707FB07E0B149A06853
:10485000884203D101214020FCF7FEFAA7492069D4
:10486000884204D101210846FCF7F6FA34E0A44955
:104870002069884204D101210220FCF7EDFA2BE0E7
:10488000A0492069884204D101210420FCF7E4FA00
:1048900022E09D492069884204D101210820FCF7CB
:1048A000DBFA19E099492069884204D101211020DE
:1048B000FCF7D2FA10E096492069884204D1012120
:1048C0002020FCF7C9FA07E092492069884203D109
:1048D00001214020FCF7C0FA02208DF804000020DE
:1048E0008DF80600E068009001208DF80700022096
:1048F0008DF805006946A068FCF7CAF902208DF81A
:10490000040000208DF806006069009001208DF8F9
:10491000070002208DF8050069462069FCF7B8F908
:104920006F492068884271D1E268012A01D10022D2
:1049300053E0E268022A01D101224EE0E268042A33
:1049400001D1022249E0E268082A01D1032244E0B1
:10495000E268102A01D104223FE0E268202A01D156
:1049600005223AE0E268402A01D1062235E0E268F9
:10497000802A01D1072230E0E268B2F5807F01D1C0
:1049800008222AE0E268B2F5007F01D1092224E082
:10499000E268B2F5806F01D10A221EE0E268B2F54A
:1049A000006F01D10B2218E0E268B2F5805F01D1FF
:1049B0000C2212E0E268B2F5005F01D10D220CE09A
:1049C000E268B2F5804F01D10E2206E0E268B2F54E
:1049D000004F01D10F2200E0002211460722A068FB
:1049E000FCF79EF96269012A01D1002254E0626954
:1049F000022A01D101224FE06269042A01D1022278
:104A00004AE06269082A02D1032245E04AE062696D
:104A1000102A01D104223FE06269202A01D1052237
:104A20003AE06269402A01D1062235E06269802AB3
:104A300001D1072230E06269B2F5807F01D10822FE
:104A40002AE06269B2F5007F01D1092224E062699F
:104A5000B2F5806F01D10A221EE06269B2F5006FE3
:104A600001D10B2218E06269B2F5805F01D10C22FE
:104A700012E06269B2F5005F01D10D220CE06269BB
:104A8000B2F5804F01D10E2206E06269B2F5004F07
:104A900001D10F2200E00022114607222069FCF715
:104AA0003FF9EBE30F49206888426ED1E268012AA2
:104AB00001D1002271E0E268022A01D101226CE0FA
:104AC000E268042A01D1022267E0E268082A01D1E3
:104AD000032262E0E268102A1ED104225DE0000099
:104AE000001001400044004000480040004C0040DD
:104AF00000500040001401409C15002000000240BE
:104B00000004024000080240000C02400010024075
:104B10000014024000180240E268202A01D1052258
:104B20003BE0E268402A01D1062236E0E268802AB2
:104B300001D1072231E0E268B2F5807F01D108227D
:104B40002BE0E268B2F5007F01D1092225E0E2689E
:104B5000B2F5806F01D10A221FE0E268B2F5006F62
:104B600001D10B2219E0E268B2F5805F01D10C227D
:104B700013E0E268B2F5005F01D10D220DE0E268BA
:104B8000B2F5804F02D10E2207E06AE0E268B2F58A
:104B9000004F01D10F2200E0002211460722A06839
:104BA000FCF7BEF86269012A01D1002253E0626974
:104BB000022A01D101224EE06269042A01D10222B7
:104BC00049E06269082A01D1032244E06269102A9F
:104BD00001D104223FE06269202A01D105223AE096
:104BE0006269402A01D1062235E06269802A01D13A
:104BF000072230E06269B2F5807F01D108222AE005
:104C00006269B2F5007F01D1092224E06269B2F540
:104C1000806F01D10A221EE06269B2F5006F01D1F6
:104C20000B2218E06269B2F5805F01D10C2212E01C
:104C30006269B2F5005F01D10D220CE06269B2F544
:104C4000804F01D10E2206E06269B2F5004F01D11A
:104C50000F2200E00022114607222069FCF760F8CD
:104C60000CE3F8492068884271D1E268012A01D139
:104C7000002253E0E268022A01D101224EE0E268FC
:104C8000042A01D1022249E0E268082A01D1032264
:104C900044E0E268102A01D104223FE0E268202AC1
:104CA00001D105223AE0E268402A01D1062235E02E
:104CB000E268802A01D1072230E0E268B2F5807F05
:104CC00001D108222AE0E268B2F5007F01D1092271
:104CD00024E0E268B2F5806F01D10A221EE0E268AA
:104CE000B2F5006F01D10B2218E0E268B2F5805FE7
:104CF00001D10C2212E0E268B2F5005F01D10D2271
:104D00000CE0E268B2F5804F01D10E2206E0E268C5
:104D1000B2F5004F01D10F2200E000221146072218
:104D2000A068FBF7FDFF6269012A01D1002254E06F
:104D30006269022A01D101224FE06269042A01D18D
:104D400002224AE06269082A02D1032245E04AE0D1
:104D50006269102A01D104223FE06269202A01D150
:104D600005223AE06269402A01D1062235E06269F3
:104D7000802A01D1072230E06269B2F5807F01D13B
:104D800008222AE06269B2F5007F01D1092224E0FD
:104D90006269B2F5806F01D10A221EE06269B2F544
:104DA000006F01D10B2218E06269B2F5805F01D17A
:104DB0000C2212E06269B2F5005F01D10D220CE015
:104DC0006269B2F5804F01D10E2206E06269B2F548
:104DD000004F01D10F2200E0002211460722206976
:104DE000FBF79EFF4AE298492068884271D1E26849
:104DF000012A01D1002253E0E268022A01D10122F6
:104E00004EE0E268042A01D1022249E0E268082A61
:104E100001D1032244E0E268102A01D104223FE0DC
:104E2000E268202A01D105223AE0E268402A01D155
:104E3000062235E0E268802A01D1072230E0E268EC
:104E4000B2F5807F01D108222AE0E268B2F5007F46
:104E500001D1092224E0E268B2F5806F01D10A2273
:104E60001EE0E268B2F5006F01D10B2218E0E268A3
:104E7000B2F5805F01D10C2212E0E268B2F5005F6A
:104E800001D10D220CE0E268B2F5804F01D10E2273
:104E900006E0E268B2F5004F01D10F2200E00022E7
:104EA00011460822A068FBF73BFF6269012A01D185
:104EB000002254E06269022A01D101224FE06269B6
:104EC000042A01D102224AE06269082A02D103229F
:104ED00045E04AE06269102A01D104223FE062699C
:104EE000202A01D105223AE06269402A01D1062236
:104EF00035E06269802A01D1072230E06269B2F5AB
:104F0000807F01D108222AE06269B2F5007F01D1D9
:104F1000092224E06269B2F5806F01D10A221EE005
:104F20006269B2F5006F01D10B2218E06269B2F537
:104F3000805F01D10C2212E06269B2F5005F01D1FD
:104F40000D220CE06269B2F5804F01D10E2206E01D
:104F50006269B2F5004F01D10F2200E00022114634
:104F600008222069FBF7DCFE88E138492068884286
:104F700067D1E268012A01D1002253E0E268022AE7
:104F800001D101224EE0E268042A01D1022249E067
:104F9000E268082A01D1032244E0E268102A01D124
:104FA00004223FE0E268202A01D105223AE0E268CB
:104FB000402A01D1062235E0E268802A01D1072289
:104FC00030E0E268B2F5807F01D108222AE0E26891
:104FD000B2F5007F01D1092224E0E268B2F5806FCA
:104FE00001D10A221EE0E268B2F5006F01D10B2266
:104FF00018E0E268B2F5805F01D10C2212E0E268AD
:10500000B2F5005F01D10D220CE0E268B2F5804FED
:1050100001D10E2206E0E268B2F5004F01D10F2265
:1050200000E0002211460822A068FBF779FE6269C1
:10503000012A01D100225AE06269022A08D1012224
:1050400055E05AE000480040004C0040005000404D
:105050006269042A01D1022249E06269082A01D169
:10506000032244E06269102A01D104223FE0626910
:10507000202A01D105223AE06269402A01D10622A4
:1050800035E06269802A01D1072230E06269B2F519
:10509000807F01D108222AE06269B2F5007F01D148
:1050A000092224E06269B2F5806F01D10A221EE074
:1050B0006269B2F5006F01D10B2218E06269B2F5A6
:1050C000805F01D10C2212E06269B2F5005F01D16C
:1050D0000D220CE06269B2F5804F01D10E2206E08C
:1050E0006269B2F5004F01D10F2200E000221146A3
:1050F00008222069FBF714FEC0E0B149206888420D
:1051000071D1E268012A01D1002253E0E268022A4B
:1051100001D101224EE0E268042A01D1022249E0D5
:10512000E268082A01D1032244E0E268102A01D192
:1051300004223FE0E268202A01D105223AE0E26839
:10514000402A01D1062235E0E268802A01D10722F7
:1051500030E0E268B2F5807F01D108222AE0E268FF
:10516000B2F5007F01D1092224E0E268B2F5806F38
:1051700001D10A221EE0E268B2F5006F01D10B22D4
:1051800018E0E268B2F5805F01D10C2212E0E2681B
:10519000B2F5005F01D10D220CE0E268B2F5804F5C
:1051A00001D10E2206E0E268B2F5004F01D10F22D4
:1051B00000E0002211460822A068FBF7B1FD6269F9
:1051C000012A01D1002254E06269022A01D10122A0
:1051D0004FE06269042A01D102224AE06269082A8A
:1051E00002D1032245E049E06269102A01D104227C
:1051F0003FE06269202A01D105223AE06269402A33
:1052000001D1062235E06269802A01D1072230E00F
:105210006269B2F5807F01D108222AE06269B2F5A5
:10522000007F01D1092224E06269B2F5806F01D1CB
:105230000A221EE06269B2F5006F01D10B2218E06C
:105240006269B2F5805F01D10C2212E06269B2F5A9
:10525000005F01D10D220CE06269B2F5804F01D1EF
:105260000E2206E06269B2F5004F01D10F2200E084
:105270000022114608222069FBF752FD6068039066
:105280000020ADF818000C20ADF816000020ADF895
:105290001400ADF81200ADF8100003A92068FCF767
:1052A0006BFB012240F224412068FCF740FB45499A
:1052B0002068884201D125201EE0434920688842A9
:1052C00001D1262018E041492068884201D12720D9
:1052D00012E03F492068884201D134200CE03D496A
:1052E0002068884201D1352006E03549206888428F
:1052F00001D1472000E000208DF8080001208DF842
:105300000B008DF809008DF80A0002A8FBF73EFD9E
:105310002046FDF767FB01212068FCF743FA294985
:105320002068884207D12C4844F88C0F2B486060D5
:105330002B48A0608C3C24492068884207D129482A
:1053400044F88C0F284860602848A0608C3C1F49B6
:105350002068884207D1264844F88C0F25486060B1
:105360002548A0608C3C1A492068884207D1234810
:1053700044F88C0F224860602248A0608C3C15499C
:105380002068884207D1204844F88C0F1F4860608D
:105390001F48A0608C3C0A492068884207D11D48FC
:1053A00044F88C0F1C4860601C48A0608C3C1C4872
:1053B000C4F89800012084F828000020FFF79EB967
:1053C000001401400010014000440040004800402B
:1053D000004C00400050004089270008C927000801
:1053E000B5270008E9270008292800081528000823
:1053F000492800088928000875280008A9280008FD
:10540000E9280008D52800080929000849290008CA
:105410003529000869290008A929000895290008EC
:10542000C929000870B5044614B94FF0FF3070BDAB
:105430004020FEF7CDFDA062A06A10B94FF0FF300A
:10544000F5E7A56A2068286060686860A068A860C1
:10545000E06868612069A8616069E860A069286106
:10546000E069E861206A28620220A884002085F8AB
:1054700026002846FEF7E2FD0A48E0620A4820635B
:105480000A4860630A48A0630A48E0630A48206447
:105490000A4860640A48A064012084F824000020BF
:1054A000C5E70000132E0008572D0008052F00083F
:1054B000652E0008DF2C0008BB2D0008E92E00082F
:1054C0002B2D00080D0A4C6F6164696E67207072A5
:1054D0006F6772616D732066726F6D206578746599
:1054E000726E616C20466C6173682C20706C656113
:1054F000736520656E746572207468652070726FC4
:105500006772616D206C6F636174696F6E20283102
:105510002D39292E0D0A00000D0A49415020646FD3
:10552000776E6C6F61642070726F6772616D73204B
:10553000746F2065787465726E616C20466C61735F
:10554000682C20706C6561736520656E74657220CF
:105550007468652070726F6772616D206C6F636133
:1055600074696F6E2028312D39292E0D0A00000034
:105570000D0A446F776E6C6F6164207468652070EB
:10558000726F6772616D20746F2074686520256486
:105590007468206C6F636174696F6E206F6620653C
:1055A000787465726E616C20466C617368207573E7
:1055B000696E672074686520586D6F64656D207032
:1055C000726F746F636F6C2C20706C6561736520F3
:1055D0007573652062696E20666F726D61742066F6
:1055E000696C652E0D0A00000856000800000020B6
:1055F00044010000600700085856000844010020DC
:10560000741A0000FC260008111410014033C20176
:1056100013024042021908220413440114204409D1
:1056200012201A0802391801735D04024040080272
:105630001C801A30C419B852205934190839341A48
:1056400008D04919012E847A030A6809010203046B
:08565000060708090CA910412E
:040000050800018965
:00000001FF
