:020000040800F2
:1000000080100020A9010008110C0008090C00084C
:100010000D0C000879070008CD1100080000000051
:10002000000000000000000000000000BB0100080C
:100030008109000800000000BF010008C10100089C
:10004000C3010008C3010008C3010008C301000880
:10005000C3010008C3010008C3010008C301000870
:10006000C3010008C3010008C3010008C301000860
:10007000C3010008C3010008C3010008C301000850
:10008000C3010008C3010008C3010008C301000840
:10009000C3010008C3010008C3010008C301000830
:1000A000C3010008C3010008C3010008C301000820
:1000B000C3010008C3010008C3010008C301000810
:1000C000C3010008C3010008C3010008C301000800
:1000D000C3010008CD0F0008DD0F0008ED0F000878
:1000E000C3010008C3010008C3010008C3010008E0
:1000F000C3010008C3010008C3010008C3010008D0
:10010000C3010008C3010008C3010008C3010008BF
:10011000AD0F0008BD0F0008C3010008C3010008AF
:10012000C3010008C3010008C3010008C30100089F
:10013000C3010008C3010008C3010008C30100088F
:10014000C3010008C3010008C3010008C30100087F
:10015000C3010008C3010008C3010008FD0F000827
:10016000C3010008C3010008C3010008C30100085F
:10017000C3010008C3010008C3010008C30100084F
:10018000C3010008C3010008DFF810D000F054FAE2
:10019000004800473D3E0008AFF30080801000207B
:1001A00080F30888704700000648804706480047EB
:1001B000FEE7FEE7FEE7FEE7FEE7FEE7FEE7FEE717
:1001C000FEE7FEE7450F00088901000840EA010349
:1001D0009B0703D009E008C9121F08C0042AFAD2FD
:1001E00003E011F8013B00F8013B521EF9D27047C1
:1001F000D2B201E000F8012B491EFBD27047002269
:10020000F6E710B513460A4604461946FFF7F0FF15
:10021000204610BD421C10F8011B0029FBD1801A9A
:1002200070470022CBB20178994200D10246401CAF
:100230000029F8D11046704730B50B460146002022
:100240002022012409E021FA02F59D4205D303FA98
:1002500002F5491B04FA02F52844151EA2F1010219
:10026000F1DC30BD2DE9F05F0546002092469B464B
:1002700088460646814640241BE0284641464746BC
:10028000224600F0FAF953465A46C01A914110D35B
:1002900011461846224600F0E1F92D1A67EB0108D5
:1002A0004F4622460120002100F0D8F917EB000943
:1002B0004E41201EA4F10104DFDC484631462A46A7
:1002C0004346BDE8F09F2DE9FE4F804681EA0300DA
:1002D000C00F0C46009021F0004123F00045B8EB20
:1002E0000200A94105D24046214690461C460B46D5
:1002F000024623F00040104347D0270DC7F30A0001
:10030000C3F30A510290401A019040286BDAC3F3FC
:10031000130040F4801B0098924620B10023D2EBDA
:10032000030A63EB0B0B01985946C0F1400250469B
:1003300000F094F906460D4650465946019A00F0E1
:10034000ACF910EB08006141002487EA115284EAFD
:10035000E7731A4340D0009A62B3019A012A4FEA28
:10036000075215DC001B61EB02014FF0004202EA6C
:100370000752CDE90042001C41F5801132462B4660
:1003800000F0ACF903B0BDE8F08F40462146F9E734
:10039000001B61EB0201001C41F5801300185B415A
:1003A0002018A2F5001747EB030140EAD570B619F3
:1003B0006D4111E06D084FEA360645EAC0754FEA17
:1003C0000752001B61EB0201001C41F58011490836
:1003D0004FEA30000019514132462B4603B0BDE8C8
:1003E000F04F00F06CB90098012240000023D0EBE0
:1003F000020263EBE073009821464FEAE074B8EB29
:10040000000061EB0401E9E783F000435BE781F062
:10041000004158E72DE9FE4F81EA030404F000444F
:1004200021F0004100944FF0000B23F0004350EA0C
:1004300001045ED052EA03045BD0C3F30A54C1F353
:100440000A552C44A4F2F3340194A0FB0254C1F3E6
:10045000130141F48011C3F3130343F4801301FB30
:10046000024400FB034E840A970A44EA815447EA97
:100470008357A4FB076802958D0A05FB07854FEAA1
:10048000932C04FB0C542705029D4FEA065847EABB
:100490001637B5EB08056EEB070C870E920E47EA90
:1004A000811742EA8312A7FB0201B6EB0B0164EB52
:1004B00000042B0D43EA0C335E1844EB1C50DA4663
:1004C0005146E7FB0201C5F313044FEA0B3343EA3D
:1004D00014534FEA0432019C43EA0603A4F10C04CE
:1004E0000294009CCDE900B400F0F8F803B0BDE838
:1004F000F08F00200146F9E72DE9F04D81EA030471
:1005000004F0004B21F0004514464FF0000A23F0A0
:10051000004150EA050220D054EA01021DD0C5F383
:100520000A570246C5F31303C1F31300C1F30A5679
:1005300040F4801543F48013A7EB0608101BD64641
:1005400008F2FD3873EB050002D308F1010801E061
:1005500092185B41B8F1000F03DA00200146BDE8B4
:10056000F08D00204FF48011064684460EE0171BE4
:1005700073EB050705D3121B63EB050306434CEA37
:10058000010C49084FEA300092185B4150EA01071C
:10059000EDD152EA030012D082EA040083EA050199
:1005A000084305D0101BAB4106D20122002306E010
:1005B00000224FF0004302E06FF0010253101AEBEB
:1005C00006004CEB085110EB0A0041EB0B01BDE8B3
:1005D000F04D00F074B8C1F30A52C1F3130140F2B8
:1005E000FF3341F480119A4202DA0020014670473D
:1005F00040F233439A42A2F2334202DC524200F00C
:100600003CB800F02BB8000030B5041E71F10004B6
:1006100004DB4FF00044404264EB0101141E73F10F
:10062000000405DB1C464FF00043524263EB040319
:10063000994208BF904230BD064C074D06E0E06885
:1006400040F0010394E8070098471034AC42F6D319
:10065000FFF79EFDC4500008E4500008202A04DB88
:10066000203A00FA02F1002070479140C2F12003C5
:1006700020FA03F3194390407047202A04DB203A04
:1006800021FA02F00021704721FA02F3D040C2F1B2
:1006900020029140084319467047202A06DBCB17F9
:1006A000203A41FA02F043EAE07306E041FA02F32D
:1006B000D040C2F12002914008431946704710B55E
:1006C000141E73F1000408DA401C41F10001921875
:1006D0005B411A4301D120F0010010BD2DE9F04D1E
:1006E00092469B4611B1B1FA81F202E0B0FA80F273
:1006F00020329046FFF7B2FF04460F4640EA0A0058
:1007000041EA0B0153465A46084313D0114653EAB7
:10071000010019D0C8F140025046FFF7AEFF054670
:100720000E46504659464246FFF798FF084305D00B
:10073000012004E020463946BDE8F08D0020054345
:1007400046EAE0762C4337430A986305E40AA0EBB7
:1007500008000022FD0A44EA47540A3002D500206E
:100760000146E9E7010510196941DDE9084500196D
:100770006941BDE8F04DA2E700BFFEE70246094B24
:100780009A4201D2084801E00648103801F00053AF
:100790001BB1064B0B40C36002E0044B0B4083606F
:1007A0007047000010640240006002407D0F7D0F22
:1007B00021B1026842F00102026003E0026822F007
:1007C0000102026070470000016821F00101016030
:1007D0000021016041608160C160016121214161AE
:1007E0004A49884204D13D21484A103A91608CE040
:1007F00046491831884205D14FF47461434A103A92
:10080000916082E041493031884205D14FF4741142
:100810003E4A103A916078E03C494831884205D11F
:100820004FF07461394A103A91606EE03749603197
:10083000884204D13649354A103AD16065E03349DF
:100840007831884204D13349304A103AD1605CE0B3
:100850002E499031884204D12F492C4A103AD16058
:1008600053E02A49A831884205D14FF03D51274A2B
:10087000103AD16049E02949884204D13D21274AF4
:10088000083A116041E025491831884205D14FF4FA
:100890007461224A083A116037E0204930318842B9
:1008A00005D14FF474111D4A083A11602DE01B491F
:1008B0004831884205D14FF07461184A083A1160F6
:1008C00023E016496031884204D11149134A121FAE
:1008D00011601AE011497831884204D10D490F4A5C
:1008E000121F116011E00D499031884204D10A496C
:1008F0000A4A121F116008E00849A831884204D151
:100900004FF03D51054A121F1160704710600240C0
:100910003D000020400F002000003D2010640240F8
:100920000146486880B2704710B500220268134B38
:100930001A40CC680B6823434C6923438C692343DA
:10094000CC6923430C6A23434C6A23438C6A2343B8
:100950004C6B23438C6B23431A430260426922F0A1
:100960000702D1E90B3423431A4342610B69436008
:100970004B6883608B68C36010BD00003F801CF033
:100980007047000001490860704700000C3C0240BD
:1009900070B504460A460026092502B909E0012A75
:1009A00001D1160205E0022A01D1160201E04FF43E
:1009B000407600F09FF80546092D28D115480068BB
:1009C00020F440701349086008460068304308600E
:1009D0000846006820F0F80008600846006844F007
:1009E000020108430B4908600846006840F4803063
:1009F000086000F07FF805460648006820F0020015
:100A0000044908600846006820F0F800086028469D
:100A100070BD0000103C024009201349096801F430
:100A20008031B1F5803F01D101201CE00E490968F9
:100A300001F0100109B1062015E00B49096801F425
:100A4000807109B102200EE00749096801F0E00158
:100A500009B1072007E00449096801F0020109B162
:100A6000082000E0092070470C3C02400348006861
:100A700040F000400149086070470000103C02400F
:100A800030B502460C46092500F034F80546092D1C
:100A900019D10E48006820F440700C4908600846DF
:100AA000006840F4007008600846006840F00100EB
:100AB0000860146000F01EF805460448006820F045
:100AC000010002490860284630BD0000103C024089
:100AD0000548006800F0004028B1044802490C397C
:100AE0000860034808607047103C024023016745D6
:100AF000AB89EFCD08B509200090FFF78DFF00907E
:100B000002E0FFF789FF00909DF800000128F8D06F
:100B10009DF8000008BDF0B50A460021002300241E
:100B200000BF3DE0012505FA01F3156805EA03045D
:100B30009C4234D105684F000326BE40B543056092
:100B400015794E00B5400668354305601579012DCD
:100B500002D01579022D16D185684F000326BE40BC
:100B6000B543856055794E00B5408668354385604C
:100B7000456801268E40B5434560456896798E40AC
:100B8000B6B235434560C5684F000326BE40B54345
:100B9000C560D5794E00B540C6683543C560491C6F
:100BA0001029BFD3F0BDF0B5002300244D07ED0E92
:100BB00002FA05F3CE1000F1200555F826504E0735
:100BC000F70E0F26BE40B543CF1000F1200646F8C1
:100BD0002750CE1000F1200555F8265045EA0304B1
:100BE000CE1000F1200545F82640F0BD0246002059
:100BF00013690B400BB1012000E0002070470AB1DF
:100C0000018300E04183704700BFFEE700BFFEE7BD
:100C10007047000070B5002100230F22C4781CB378
:100C2000174C246804F4E064C4F5E064C4F30721BD
:100C3000C1F10404E3B20A4144789C40E1B28478F3
:100C4000144021430C07210E0E4C057861550478A1
:100C500004F01F050124AC4005786D11AD0005F1CD
:100C6000E025C5F8004109E0047804F01F050124DF
:100C7000AC40054D0678761145F8264070BD000061
:100C80000CED00E000E400E080E100E002490143F7
:100C9000024A1160704700000000FA050CED00E008
:100CA00029B1064A12680243044B1A6004E0034A61
:100CB00012688243014B1A607047000030380240CE
:100CC00029B1064A12680243044B1A6004E0034A41
:100CD00012688243014B1A6070470000403802409E
:100CE00029B1064A12680243044B1A6004E0034A21
:100CF00012688243014B1A6070470000443802407A
:100D0000F0B5002100220024022500260223324FE4
:100D10003F6807F00C0121B1042905D0082937D11B
:100D200005E02E4F076036E02D4F076033E02A4F75
:100D30003F1F3F68C7F38056274F3F1F3F6807F0AC
:100D40003F036EB1264FB7FBF3F7DFF88CC0ACF171
:100D5000040CDCF800C0CCF3881C07FB0CF40CE09E
:100D60001E4FB7FBF3F7DFF870C0ACF1040CDCF8F2
:100D700000C0CCF3881C07FB0CF4174F3F1F3F68E3
:100D8000C7F301477F1C7D00B4FBF5F7076002E065
:100D9000124F076000BF00BF0F4F3F6807F0F00120
:100DA0000909104F7A5C0768D74047600A4F3F68CF
:100DB00007F4E051890A0B4F7A5C4768D740876097
:100DC000054F3F6807F46041490B064F7A5C47685E
:100DD000D740C760F0BD0000083802400024F4008E
:100DE00000127A006C00002021B1028842F040021B
:100DF000028004E002884FF6BF731A4002807047F9
:100E00000246002013890B400BB1012000E00020B6
:100E100070470146888970478181704710B500226C
:100E2000028802F441520B884C8823438C88234368
:100E3000CC8823430C8923434C8923438C89234347
:100E4000CC8923431A430280838B4FF2FF742340E3
:100E500083830B8A038210BD0CB5002001900090A3
:100E60003448006840F480303249086000BF31489F
:100E7000006800F4003000900198401C0190009838
:100E800018B90198B0F5A04FF1D12A48006800F4D4
:100E9000003010B10120009001E000200090009887
:100EA000012846D123484030006840F08050214955
:100EB000403108602048006840F440401E49086006
:100EC0001C48083000681B49083108600846006863
:100ED00040F4004008600846006840F4A0500860F4
:100EE0001648091F0860081F006840F08070091F3D
:100EF000086000BF0F48006800F000700028F9D0BB
:100F000040F205700E4908600A480830006820F079
:100F100003000849083108600846006840F00200F4
:100F2000086000BF03480830006800F00C00082883
:100F3000F8D10CBD00380240007000400854400752
:100F4000003C024010B51548006840F47000134999
:100F500008601348006840F0010011490860002053
:100F60000F49083108600E4800680E4908400C49D6
:100F700008600D48091D0860081F006820F48020E3
:100F8000091F0860002006490C310860FFF764FF64
:100F90004FF0006001498039086010BD88ED00E025
:100FA00000380240FFFFF6FE1030002410B5024862
:100FB00003F0BCFA10BD0000004C004010B5024820
:100FC00003F0B4FA10BD00000050004010B5024814
:100FD00003F0ACFA10BD00000010014010B502484B
:100FE00003F0A4FA10BD00000044004010B5024810
:100FF00003F09CFA10BD00000048004010B5024804
:1010000003F094FA10BD00000014014021B1828960
:1010100042F40052828104E082894DF6FF731A4047
:10102000828170471AB1838A0B43838202E0838AEC
:101030008B438382704702460020B1F5007F00D1C8
:1010400000BF13880B400BB1012000E00020704767
:1010500070B50246002400230025002040F66A16E1
:10106000B14200D100BFC1F3421501F01F030126B8
:1010700006FA03F3012D02D19689334006E0022DD2
:1010800002D1168A334001E0968A33400C120126C1
:1010900006FA04F41688344013B10CB1012000E0C4
:1010A000002070BDF0B50346002400260025002076
:1010B00040F66A17B94200D100BF1846C1F3421486
:1010C00001F01F06012707FA06F5012C01D10C30AB
:1010D00004E0022C01D1103000E014301AB107688E
:1010E0002F43076002E00768AF430760F0BD0000D0
:1010F0002DE9FF4705460E460024A14600BFA04645
:10110000B08900B100BF2C8A24F44054F088044315
:101110002C82AC8941F20C608443B0883189084349
:10112000718908430443AC81AC8A24F44074B089CB
:101130000443AC826846FFF7E3FD2048854202D0B5
:101140001F48854202D1DDF80C9001E0DDF80890DF
:10115000A88900F4004040B109EBC90000EB091078
:1011600031684900B0FBF1F707E009EBC90000EB7B
:10117000091031688900B0FBF1F76420B7FBF0F08B
:1011800004012009642101FB1078A88900F40040C3
:1011900040B1322000EBC800B0FBF1F000F00700D6
:1011A000044308E0322000EB08106421B0FBF1F0AA
:1011B00000F00F0004432C81BDE8FF8700100140C0
:1011C00000140140C1F308028280704700BFFEE7AF
:1011D0007CB50C001D461646014601D0601E00E09D
:1011E0000020CDE90010064B6A462946304600F043
:1011F000DBF8002C02D0009A002111707CBD0000A9
:10120000AF1A000802E008C8121F08C1002AFAD16C
:1012100070477047002001E001C1121F002AFBD176
:10122000704700002DE9FF5F82B00021DDE9043046
:10123000020DDDF840B0034318D044F61050A2F27E
:10124000FF3242431514119801281FD0A5EB0B0063
:10125000401C5FEA000A4FF000064E4FDFF838915D
:10126000B046504615D5CAF1000413E01198012488
:101270004AA3012801D16FEA0B010298119AC0E933
:101280000031C0E9024206B0BDE8F09FCBF100009A
:10129000DFE704460021404A491842EB0450CDE9FB
:1012A000001012E0E00707D032463B464046494670
:1012B000FFF7B0F88046894632463B46104619464D
:1012C000FFF7A8F806460F466410002CEAD1DDE9C6
:1012D0000401DDE90023BAF1000F06DAFFF79AF8FE
:1012E00042464B46FFF796F805E0FFF705F9424600
:1012F0004B46FFF701F904460E460022284BFFF744
:1013000083F903D84FF0FF30014607E00022254B58
:1013100020463146FEF7D7FFFFF75DF9102409E0BC
:10132000002C0ADB0A220023FEF79CFF039B3032CD
:101330001A55641E50EA0102F2D1641C039AC4F1EA
:1013400011031444119A012A03D0012208430DD13C
:101350000AE0084304D000204FF0110B119072E70F
:10136000A3EB0B056D1E0DE05B4504DD4FF00002A5
:1013700005F1010504E003DA4FF00002A5F10105D3
:10138000002AECD002981199C0E90231C0E9004569
:1013900079E70000000014400000F03F300000003A
:1013A0000000F0430000E03F2DE9FF4F95B09A4662
:1013B000884606460025EEE1252877D100242746F9
:1013C000F94A0121039400E0044316F8013F203B51
:1013D00001FA03F01042F7D130782A2811D06FF0CB
:1013E0002F033078A0F13002092A16D8039A44F06E
:1013F000020402EB820203EB42021044761C0390CB
:10140000EFE758F8042B0392002A03DA504244F421
:101410000054039044F00204761C30782E2816D134
:1014200016F8010F44F004042A280DD06FF02F02A3
:101430003078A0F13003092B09D807EB870302EBC2
:101440004303C718761CF3E758F8047B761C307802
:101450006C280FD006DC4C2817D068280DD06A28DD
:1014600014D104E0742810D07A280FD10DE044F490
:1014700000140AE044F4801401E044F4401472784B
:10148000824202D104F58014761C761C30786628DE
:101490000BD013DC582877D009DC002875D04528FC
:1014A000F6D04628F4D047281AD193E118E06328F3
:1014B00035D0642879D0652812D18BE1702873D09B
:1014C00008DC6728F1D069286FD06E280DD06F280E
:1014D00006D1ACE073282CD0752874D0782853D06E
:1014E0005246179990476D1C54E1C4F302500228EC
:1014F00009D003280DD0D8F8001004280DD00D60B5
:1015000008F1040846E1D8F80010EA17C1E90052D2
:10151000F6E7D8F800100D80F2E70D70F0E718F844
:10152000041B8DF8001000208DF80100EB4601200F
:1015300003E058F804BB4FF0FF3061074FF00001A3
:1015400002D40DE009F101018946B9420FDA814563
:10155000F8DB1BF809100029F4D108E009F10101BA
:1015600089468142FADB1BF809100029F6D103985D
:101570005346A0EB090721463846179A00F080FA37
:10158000284400EB090507E044E008E10DE01BF802
:10159000010B524617999047B9F10109F7D253460A
:1015A00021463846179AF2E039E00A21C4F3025284
:1015B0004FF0000B0091022A06D058F8040BC11717
:1015C000032A09D00AE023E008F1070020F007020F
:1015D000F2E80201904605E000B2C117042A01D1E9
:1015E00040B2C117002906DA0A460021404261EBE9
:1015F00002012D2202E0220504D52B228DF80420C1
:10160000012203E0E20701D02022F7E7914657E0EC
:101610000A2100E010214FF0000B00910BE0102197
:101620004FF0000B44F004040827009103E0082069
:101630004FF0000B0090C4F30252022A05D058F874
:10164000040B0021032A08D008E008F1070020F06D
:101650000702F2E80201904603E080B2042A00D1BA
:10166000C0B24FF0000922072AD53278702A07D07D
:10167000DDF800C08CF0100C5CEA0B0C05D00EE01D
:1016800040228DF80420012208E050EA010306D030
:1016900030238DF804308DF8052002229146009BFE
:1016A00083F0080353EA0B030AD150EA010201D187
:1016B000620705D530228DF804204FF001097F1E06
:1016C0003278582A04D039A20C920CAA02920BE06C
:1016D0003BA2F9E75B46009AFEF7C4FD0C9B9B5CBE
:1016E000029A521E0292137050EA0102F2D102983D
:1016F00004A9081A00F1200B600702D524F48034F5
:1017000000E001275F4502DDA7EB0B0000E00020B1
:1017100000EB0B01009003984944401A0390E0034A
:1017200006D453462146179A039800F0A9F90544B8
:10173000002706E001A85246C05D179990476D1C2E
:101740007F1C4F45F6DBE0030CD553462146179A24
:10175000039800F095F9054404E0302052461799AB
:1017600090476D1C0099481E00900029F5DC08E0A8
:101770000298029952460078491C029117999047A5
:101780006D1CBBF10001ABF1010BF1DC5BE100F082
:1017900065F90544761C307800287FF40DAE19B049
:1017A0002846BDE8F08F00000928010030313233AF
:1017B000343536373839616263646566000000008D
:1017C0003031323334353637383941424344454677
:1017D00000000000600700D4062708F1070020F091
:1017E0000700F0E80223804603F0004C5FEA0C009B
:1017F00001D097A009E0200501D596A005E0E007FB
:1018000001D095A001E0AFF24C001390307823F0A6
:10181000004365280CD006DC452809D046281DD099
:1018200047287FD13BE0662818D067287AD136E078
:101830000021112F01DB112000E0781CCDE900010F
:1018400004A90CA8FFF7EEFCDDE90D010C9A4FF09E
:10185000000B07F10109109200914EE04FF000409B
:101860000097CDE9011004A90CA8FFF7DBFCDDE926
:101870000D020C9B0F994FF0000B914610930092B4
:1018800011B9791C00EB0109B7EB090003D4C0F1D1
:10189000FF3B07F10109A9EB0700019042E0012F8E
:1018A00000DA01270021112F01DD112000E0384668
:1018B000CDE9000104A90CA8FFF7B4FCDDE90D0196
:1018C0000C9A00914FF0000BB946109221070FD4EB
:1018D000009A4A4503DA914601E0A9F10109B9F1FC
:1018E000010F05DD109AA9F10101515C3029F4D0F6
:1018F000B84202DA10F1040F03DA0121CDE9011038
:1019000010E0002803DC8344A9EB000102E0411C45
:10191000494500DD8946A0EB0B00401C01904FF0CB
:1019200000400290200705D40198484502DB4FF0A3
:10193000FF30019000208DF84B0002980DF14B070D
:10194000B0F1004F25D002200C902B200D90029872
:1019500000280CDA404202902D200D9007E00A2169
:101960000298FEF769FC3031029007F8011D0C99CE
:10197000481E0C900029F2DC02980028EFD1791E55
:101980000D980870307800F0200040F0450007F80E
:10199000020D11A8C01BC01D02901398007800B161
:1019A000012000EB0901019801EBE071029801446C
:1019B0000398401A401E0390E00306D45346214684
:1019C000179A039800F05CF805441398007818B152
:1019D0005246179990476D1CE00323D55346214684
:1019E000179A039800F04CF805441BE0BBF1000F78
:1019F00007DB0098584504DD1098179910F80B0084
:101A000001E0179930205246904701980BF1010BE5
:101A1000401E05F10105019004D12E205246179970
:101A200090476D1CB9F10001A9F10109DEDC05E068
:101A300017F8010B5246179990476D1C0299481EE2
:101A400002900029F4DC53462146179A03989EE63B
:101A50002D0000002B000000200000002DE9F041C7
:101A6000044600251E461746880404D405E039467E
:101A70002020B0476D1C641EF9D52846BDE8F081D2
:101A80002DE9F041044600251E469046C80301D5C5
:101A9000302700E02027880404D505E04146384679
:101AA000B0476D1C641EF9D52846BDE8F0814A6830
:101AB000002A06D00A68531C0B6010704868401E4C
:101AC00048607047F8B5054601F046FC06464021DF
:101AD0002846FEF794FB30682B4640220021C76859
:101AE0003046B847044644B105A31A220CA115A0FC
:101AF000009402F05DF92046F8BD0020FCE70000EC
:101B00004661696C656420746F207265616420654C
:101B10006570726F6D20646174613A202564000005
:101B20002E2E5C2E2E5C6170705C626F6F746C6F19
:101B3000616465725C626F6F745F73746F72652E3F
:101B4000630000005B4552524F525D002DE9F8439F
:101B50000646B04601F000FC0746002418E008EBFA
:101B6000C402E006010E3868836838469847054687
:101B70004DB118A337221FA127A0009502F018F934
:101B80002846BDE8F883052001F0D9FB601CC4B2EB
:101B9000082CE4D322A33E2216A12BA002F008F9C0
:101BA00040202BA33F2213A1009027A002F000F9B0
:101BB00008202DA340220FA1009023A002F0F8F8E6
:101BC00008202FA341220BA100901FA002F0F0F8E3
:101BD0000020D6E74661696C656420746F207772D7
:101BE00069746520656570726F6D20706167653A14
:101BF000202564002E2E5C2E2E5C6170705C626F5E
:101C00006F746C6F616465725C626F6F745F737424
:101C10006F72652E630000005B4552524F525D00AB
:101C200041707020696E666F207361766564207400
:101C30006F20454550524F4D207375636365737334
:101C400066756C6C790000005B494E464F5D200064
:101C5000202053697A652020202020203A20256406
:101C600020627974657300002020506167652073DD
:101C7000697A65203A2025642062797465730000D2
:101C80002020506167657320202020203A202564A1
:101C9000000000001CB5044600200190009015E0F3
:101CA000694601A801F066F8019860B10098012822
:101CB00009D101980078772803D001980078572837
:101CC00001D101201CBD012001F039FB201EA4F12F
:101CD00001018CB2E4D100BFF4E700000349D1F860
:101CE00000148143014AC2F8001470477C000020B0
:101CF00000B591B009A35A220EA116A002F058F81F
:101D000001A8FFF7DFFE0BA814A35D2209A1009034
:101D100010A002F04DF8002011B000BD43686563CB
:101D20006B204F54412076657273696F6E2E2E2E94
:101D3000000000002E2E5C2E2E5C6170705C626FC5
:101D40006F746C6F616465725C626F6F745F636DFA
:101D5000642E63005B494E464F5D200056657273EA
:101D6000696F6E3A2025730D0A00000010B500F06F
:101D7000C1FC10BD08B50920054B372205A1009014
:101D80000CA002F015F8102001F020F8002008BD8A
:101D9000584F00082E2E5C2E2E5C6170705C626FB6
:101DA0006F746C6F616465725C626F6F745F636D9A
:101DB000642E63005B494E464F5D200010B517A3AB
:101DC00049221BA122A001F0F3FF23A34A2218A15C
:101DD00031A001F0EDFF32A34B2215A12EA001F09E
:101DE000E7FF3FA34C2212A12BA001F0E1FF4CA37F
:101DF0004D220FA128A001F0DBFF59A34E220CA118
:101E000025A001F0D5FF14A34F2209A122A001F0C3
:101E1000CFFF402000F0DAFF002010BD496E69744A
:101E2000204F54412076657273696F6E2E2E2E00FE
:101E30002E2E5C2E2E5C6170705C626F6F746C6F06
:101E4000616465725C626F6F745F636D642E6300C2
:101E50005B494E464F5D20002A2A2A2A2A2A2A2A2E
:101E60002A2A2A2A2A2A2A2A2A2A2A2A2A2A2A2AD2
:101E70002A2A2A2A2A2A2A2A2A2A2A2A2A2A2A2AC2
:101E80002A2A2A2A2A2A2A2A2A2A2A2A2A2A2A2AB2
:101E90002A2A2A2A000000005B5741524E5D20008A
:101EA0002A20205741524E494E473A204F54412054
:101EB00076657273696F6E20696E697469616C69A9
:101EC0007A657220696E766F6B6564202020202011
:101ED00020202020202020202020202A0000000078
:101EE0002A202054686973206F7065726174696F6D
:101EF0006E206973206F6E6C7920666F7220646546
:101F000062756767696E67206F7220666163746FC0
:101F100072792073657475702020202A00000000FB
:101F20002A20204E6F742070617274206F66206EBC
:101F30006F726D616C204F544120776F726B666CCD
:101F40006F772020202020202020202020202020EB
:101F500020202020202020202020202A00000000F7
:101F60002A2020496E636F727265637420757365F1
:101F7000206D61792072657365742076657273696E
:101F80006F6E20737461746520756E65787065631B
:101F90007465646C792020202020202A0000000035
:101FA0001CB515A37B2221A128A001F001FF29A3C4
:101FB0007C221EA125A001F0FBFE0FA37D221BA108
:101FC00022A001F0F5FE00240DE02F4850F8340067
:101FD000611C2EA38022CDE9001014A11BA001F0EA
:101FE000E7FE601CC4B2072CEFD303A382220FA12B
:101FF00016A001F0DDFE1CBD3D3D3D3D3D3D3D3D9E
:102000003D3D3D3D3D3D3D3D3D3D3D3D3D3D3D3D00
:102010003D3D3D3D3D3D3D3D3D3D3D3D3D3D3D3DF0
:102020003D3D3D3D3D3D3D3D000000002E2E5C2EE2
:102030002E5C6170705C626F6F746C6F616465724E
:102040005C626F6F745F636D642E63005B494E4624
:102050004F5D20007C2020202020202020202020D8
:10206000426F6F744C6F61646572204F706572616E
:1020700074696F6E204D656E752020202020202011
:10208000202020207C000000744C00085B25645D4B
:1020900020252D333073000010B50CA3192213A195
:1020A0001AA001F085FE00F025FB1AA31B220FA148
:1020B00016A001F07DFE012000F088FE022000F055
:1020C00085FE00F06BFF002010BD0000494150204C
:1020D000646F776E6C6F6164206669726D77617290
:1020E0006520746F20466C6173682E002E2E5C2E66
:1020F0002E5C6170705C626F6F746C6F616465728E
:102100005C626F6F745F636D642E63005B494E4663
:102110004F5D200055736520586D6F64656D2074A8
:102120006F20646F776E6C6F616420612042494E4E
:102130002066696C6520746F20466C6173682E00A0
:1021400008B50920054B2A2205A100900CA001F03A
:102150002FFE042000F03AFE002008BDA84F000822
:102160002E2E5C2E2E5C6170705C626F6F746C6FD3
:10217000616465725C626F6F745F636D642E63008F
:102180005B494E464F5D200010B505A367220AA1AA
:1021900011A001F00DFE00F023FE002010BD000094
:1021A00053797374656D2072657374617274696EAE
:1021B000672E2E2E000000002E2E5C2E2E5C6170ED
:1021C000705C626F6F746C6F616465725C626F6F7C
:1021D000745F636D642E63005B494E464F5D200063
:1021E0002DE9F04192B004460F4601F01DF98046FA
:1021F000012F09D036A335223CA146A0009701F05B
:10220000D7FD12B0BDE8F0812078312802DB2078BC
:10221000392808D9207841A33B2234A100903DA061
:1022200001F0C6FDEDE720783038424908700420FF
:10223000FFF754FD012000F0C9FD022000F0C6FDAB
:10224000082000F0C3FD00F0A9FE02A8FFF73AFC49
:1022500000203849097802AA42F8210002A8FFF7B5
:1022600075FC3448007834A34B2220A100903EA096
:1022700001F09EFD00251DE02E48007805EB0011C1
:10228000D8F80000426940469047064636B138A368
:10229000502216A13EA0009601F08AFD1021681C74
:1022A0003DA35222CDE9000110A12FA001F080FD35
:1022B000681CC5B2102DDFD31E4800783BA3552201
:1022C0000AA1009028A001F073FD00BF99E700006B
:1022D000496E76616C696420696E707574206C65F6
:1022E0006E6774683A202564000000002E2E5C2E74
:1022F0002E5C6170705C626F6F746C6F616465728C
:102300005C626F6F745F6578745F666C6173682E72
:10231000630000005B5741524E5D2000496E7661BC
:102320006C696420696E707574206E756D3A202535
:10233000630000000400002045726173696E67202D
:102340007468652025647468206669726D776172AF
:1023500065206F662065787465726E616C20466CCE
:102360006173682E2E2E00005B494E464F5D2000A3
:102370004661696C656420746F20657261736520C5
:10238000626C6F636B20286572723D2564290000C2
:102390005B4552524F525D00457261736564206225
:1023A0006C6F636B2025642F2564000055736520D6
:1023B000586D6F64656D20746F20646F776E6C6FFD
:1023C000616420612042494E2066696C6520746F0B
:1023D0002065787465726E616C20466C617368204C
:1023E000736C6F742025642E000000000148007893
:1023F00070470000040000202DE9F04792B001F082
:1024000081F8814601F010F8804600F0EFF982462D
:102410003A48077802A8FFF755FB02A850F8275062
:1024200037A3822242A14CA0CDE9007501F0C0FC87
:1024300005F0030000280CD049A386223CA155A03A
:10244000009501F0B5FC2020FFF748FC12B0BDE874
:10245000F08700F04FF900241AE0380500EB8421E2
:10246000D8F8000053464FF48062D0F818C04046B8
:10247000E04726463146484600F09CF9A80A47A3A3
:1024800099222BA1CDE9004033A001F091FC641CFE
:10249000B4EB952FE1D3C5F30900B8B1380500EBD3
:1024A0008421C5F30902D8F800005346D0F818C0BB
:1024B0004046E047C5F309023E4800EB8421D9F8C5
:1024C00000005346D0F808C04846E0470B48007863
:1024D00038B902A8FFF7F6FA0020119002A8FFF71A
:1024E00035FB2020FFF7FAFB33A3B42210A11AA07A
:1024F00001F05EFC00F074FC00BFA7E704000020C0
:102500004C6F6164696E67206669726D7761726590
:102510002066726F6D20736C6F74202564202873A1
:10252000697A653D2564206279746573290000002D
:102530002E2E5C2E2E5C6170705C626F6F746C6FFF
:10254000616465725C626F6F745F6578745F666CFE
:102550006173682E630000005B494E464F5D2000AA
:10256000496E76616C6964206669726D7761726527
:102570002073697A6520286D757374206265203434
:102580002D6279746520616C69676E6564293A20F3
:10259000256400005B4552524F525D0055706461E6
:1025A0007465642025642F2564206368756E6B73E1
:1025B00000000000008000084669726D7761726556
:1025C000206C6F6164656420737563636573736603
:1025D000756C6C792C2072657374617274696E67A6
:1025E0002073797374656D2E2E2E000038B5044665
:1025F0000D46012D07D011A3612217A120A000953F
:1026000001F0D6FB38BD2078312802DB207839284C
:1026100008D920781CA367220FA1009018A001F010
:10262000C7FBEFE71020FFF759FB207830381C4933
:102630000870202000F0CAFB00BFE3E7496E766116
:102640006C696420696E707574206C656E6774685F
:102650003A202564000000002E2E5C2E2E5C617056
:10266000705C626F6F746C6F616465725C626F6FD7
:10267000745F6578745F666C6173682E6300000038
:102680005B5741524E5D2000496E76616C69642053
:10269000696E707574206E756D3A202563000000B8
:1026A0000400002000200149087070470400002049
:1026B0002DE9F04106460D460D480078000500EB77
:1026C000852700F093F8804600240CE008EB0423F3
:1026D00007EB042130684FF48072D0F808C0304610
:1026E000E047601CC4B2042CF0D3BDE8F0810000C8
:1026F0000400002010B500F005FF04460EA30F22D1
:1027000010A119A001F054FB206802220A2143689D
:102710002046984740B116A317220AA11CA001F039
:1027200047FB4FF0FF3010BD1BA32B2205A10EA0CD
:1027300001F03EFB0020F6E74572617365204150D1
:10274000502E00002E2E5C2E2E5C6170705C626F2D
:102750006F746C6F616465725C626F6F745F666CDE
:102760006173682E630000005B494E464F5D200098
:10277000466C617368206572617365206F70657265
:102780006174696F6E206661696C65642100000088
:102790005B4552524F525D0041505020657261734B
:1027A0006564207375636365737366756C6C7921FA
:1027B0000D0A00002DE9F04105460C46074800EBE4
:1027C000842600F013F88046286843464FF4806260
:1027D000314687682846B847BDE8F0810080000888
:1027E0000148D0F8000470477C0000200048704782
:1027F0007C0000202DE9FC4104460F46012F08D043
:102800001BA38F2221A129A0009701F0D1FABDE8D6
:10281000FC8120783138C6B2072E08D3207825A352
:1028200095221AA1009021A001F0C2FAEFE72648F4
:1028300000EBC600406888B1234901EBC601486837
:1028400080470546002D11D0207820A39C220FA19F
:10285000CDE9000527A001F0ABFA07E0207827A317
:102860009E220AA1009023A001F0A2FA00BFCEE7A9
:10287000496E76616C696420696E707574206C6550
:102880006E6774683A202564000000002E2E5C2ECE
:102890002E5C6170705C626F6F746C6F61646572E6
:1028A0005C626F6F745F636D642E63005B574152AF
:1028B0004E5D2000496E76616C696420636F6D6DBA
:1028C000616E643A20256300744C0008436F6D6D9F
:1028D000616E64205B25635D206578656375746552
:1028E000206661696C656420286572723D256429E3
:1028F000000000005B4552524F525D00436F6D6D0A
:10290000616E64205B25635D20686173206E6F20BB
:1029100068616E646C65720001460448D0F800047A
:10292000084008B1012070470020FCE77C0000202F
:10293000F8B505462C68B4F1005F02D3164884420E
:1029400007D916A341221DA125A0009401F030FA59
:10295000F8BD25A3442219A126A0009401F028FA6D
:102960002046FDF71DFC6F683E462448056000BF09
:1029700000BF00BFBFF34F8F00BF00BF00BF00BF4D
:1029800000BF00BFBFF36F8F00BF00BF00BF00F0EC
:102990000FFAB04700BFDBE7FFFF0120496E766109
:1029A0006C6964204D53503A20307825582C2061B2
:1029B000626F7274206A756D700000002E2E5C2E9E
:1029C0002E5C6170705C626F6F746C6F61646572B5
:1029D0005C626F6F745F636F72652E63000000004E
:1029E0005B5741524E5D20004D53503A20307825C0
:1029F000580000005B494E464F5D200008ED00E0A6
:102A000000B591B001A8FFF75DF80B491098884216
:102A100008D10AA312220DA114A001F0C9F90120C6
:102A200011B000BD109813A3162208A100900FA0AA
:102A300001F0BEF90020F3E72211BBAA4F54412058
:102A40007570677261646521000000002E2E5C2E97
:102A50002E5C6170705C626F6F746C6F6164657224
:102A60005C626F6F745F6F74612E63005B494E46EA
:102A70004F5D20004E6F204F5441206576656E7487
:102A80002C204F544120666C61673A2030782578BD
:102A90000000000030B593B005460C46142C10D34E
:102AA00018A32A2218A120A001F082F9142020A343
:102AB0002B2215A1CDE900041BA001F079F913B078
:102AC00030BD03A8FEF7FEFF14210DA8FDF797FB0C
:102AD000224629460DA8FDF779FB00210DA80155D6
:102AE00003A8FFF733F800B1E9E70DA81BA33822CC
:102AF00005A1009021A001F05BF94020FFF7EEF85E
:102B000000BFDCE7000000002E2E5C2E2E5C617002
:102B1000705C626F6F746C6F616465725C626F6F22
:102B2000745F6F74612E63005B4552524F525D00BB
:102B3000496E76616C69642076657273696F6E2088
:102B40006C656E20286D757374203C2025642062AE
:102B500079746573293A2025640000005665727304
:102B6000696F6E20696E6974207375636365737332
:102B700066756C6C793A2025730000005B494E46FF
:102B80004F5D200038B54FF4FA64022011A374227F
:102B900020A1009028A001F00BF92046FFF77AF859
:102BA00088B9FFF72DFF28B1202000F00FF9FFF7BB
:102BB00079FD08E022A37C2216A11FA001F0F8F8FD
:102BC0002648FFF7B5FE26A3822212A11AA001F023
:102BD000EFF838BD426F6F746C6F616465723A20B4
:102BE0005072657373202777272077697468696E40
:102BF000202564207365636F6E647320746F206595
:102C00006E74657220636F6D6D616E64206C696EA9
:102C1000652E00002E2E5C2E2E5C6170705C626F43
:102C20006F746C6F616465725C626F6F745F636F09
:102C300072652E63000000005B494E464F5D200028
:102C4000426F6F746C6F616465723A204A756D7083
:102C500020746F204150502E2E2E0000008000085E
:102C6000426F6F746C6F616465723A20456E746573
:102C70007220636F6D6D616E64206C696E652E00ED
:102C8000F8B506460D46EDB9002418E004EB440102
:102C9000254A12F82100FFF73FFE70B104EB440013
:102CA000214901EB8000406838B104EB44011E4A21
:102CB00002EB810148688047F8BD601CC4B2062C55
:102CC000E4D3F9E7FFF78CFD20B929463046FFF73A
:102CD00091FDF1E7002419E004EB4401124A12F8D7
:102CE0002100FFF719FE78B104EB44000E4901EB17
:102CF0008000806840B104EB440001EB800029466D
:102D0000826830469047D7E7601CC4B2062CE3D3F4
:102D1000FFF766FD074605A341220BA1009013A013
:102D200001F046F800BFC7E7AC4C0008496E766179
:102D30006C696420666C61672076616C75653A2009
:102D400030782530385800002E2E5C2E2E5C6170B5
:102D5000705C626F6F746C6F616465725C626F6FE0
:102D6000745F6576656E742E630000005B57415298
:102D70004E5D20002DE9FC4104460D4600F08AFA24
:102D8000064600200190009030686A4601A9036958
:102D90003046984707462FB100202060286038460B
:102DA000BDE8FC8101982060009828600020F7E7CA
:102DB000704770B504460D4600F06CFA0646306860
:102DC0002A462146C3683046984770BD0349D1F86A
:102DD00000140143014AC2F8001470477C0000202F
:102DE000C82000F0ACFA00BF00BF00BF00BF00BFAA
:102DF000BFF34F8F00BF00BF00BF0A48006800F458
:102E0000E06009490843001D0649086000BF00BF93
:102E100000BFBFF34F8F00BF00BF00BF00E000BF87
:102E2000FDE700000CED00E00000FA0530B50246B9
:102E30000B46002016E012F8015B80EA0520002115
:102E40000EE000F400442CB141F2210484EA400475
:102E5000A0B203E04FF6FF7404EA40004C1CA1B29C
:102E60000829EEDB1C1EA3F10105ABB2E3D130BD96
:102E700010B590B0FFF7BAFA04460220FEF72EFF15
:102E80000820FFF749FDB0B10820FEF727FF68468C
:102E9000FEF718FE0D484068C0014DF82400684652
:102EA000FEF754FE0AA3C3220FA118A000F080FF72
:102EB000FFF776F807E017A3C7220BA113A000F0D5
:102EC00077FFFFF78DFF10B010BD00000800002055
:102ED000446F776E6C6F616420636F6D706C6574A6
:102EE0006564210D0A0000002E2E5C2E2E5C6170A0
:102EF000705C626F6F746C6F616465725C626F6F3F
:102F0000745F786D6F64656D2E6300005B494E469B
:102F10004F5D2000494150207570646174652063E5
:102F20006F6D706C657465642C207265737461726A
:102F300074210D0A000000002DE9F04700F0E2FACC
:102F4000054600F071FA8246FFF750FC074611482B
:102F5000007900F007064FEAC6180E484068C4081A
:102F60000EB9BDE8F0870820FFF7D6FC20B1214656
:102F70005046FFF79DFB0BE0074800EB84292868CB
:102F80003B4642464946D0F808C02846E04700BFC5
:102F900000BFE6E70800002000800008002002498A
:102FA0000860486070470000080000202DE9F05FCD
:102FB000044600F0A7FA824600F036FA8346FFF78F
:102FC00015FC074694F8840094F8831040EA012821
:102FD0008021E01CFFF72AFF8146C14504D0002074
:102FE00000F04BF8BDE8F09F15484068401C1449BC
:102FF000486008460079401E00F0070507EBC51041
:103000008022E11CFDF7E2F80D4840680121C1EB88
:10301000D0060B48007900F0070060B90820FFF7E0
:103020007BFC20B131465846FFF742FB03E03146B6
:103030005046FFF7BFFB012000F01FF800BFD1E7AB
:103040000800002070B504460D46852D08D1207873
:10305000012805D1FEF742FE2046FFF7A7FF0BE04F
:10306000012D09D12078042806D1012000F005F8AF
:10307000FFF762FFFFF7FCFE70BD38B504460CB1E8
:10308000062000E01520009001216846FFF791FE20
:1030900038BD000010B5012000F051F90848006863
:1030A000B0F57A7F06D3012106A0FFF782FE00204B
:1030B0000349086002480068401C0149086010BDCF
:1030C00008000020430000002DE9F8434FF4407051
:1030D000FDF7DCFD00F02CF98146D9F8000001680D
:1030E0004846884704464CB12DA3192234A13AA082
:1030F000009400F05DFE2046BDE8F88300F022FA5F
:1031000005462868016828468847044644B134A328
:1031100020222BA130A0009400F04AFE2046EBE7CD
:1031200000F01AF9064630680168304688470446C0
:1031300044B133A3272222A127A0009400F038FE37
:103140002046D9E700F0DEF90746386801683846BE
:103150008847044644B132A32E2219A11EA0009430
:1031600000F026FE2046C7E700F05EF98046D8F85A
:103170000000016840468847044644B130A3352228
:103180000FA115A0009400F013FE2046B4E735A36C
:1031900039220BA13DA000F00BFE0020ACE700009F
:1031A0004661696C656420746F20696E6974206281
:1031B00073702064656C61793A202564000000001A
:1031C0002E2E5C2E2E5C6273705C6273705F636F78
:1031D0006D6D6F6E2E6300005B4552524F525D0065
:1031E0004661696C656420746F20696E6974206241
:1031F0007370206932635F6275733A202564000042
:103200004661696C656420746F20696E6974206220
:10321000737020656570726F6D3A20256400000040
:103220004661696C656420746F20696E6974206200
:10323000737020666C6173683A202564000000009A
:103240004661696C656420746F20696E69742062E0
:1032500073702065787420666C6173683A20256409
:10326000000000003D3D3D3D3D3D205B4253502070
:10327000496E6974205375636365737366756C6C0E
:10328000795D203D3D3D3D3D3D0D0A005B494E468B
:103290004F5D2000004870471000002010B5044624
:1032A0000249606800F02CFA10BD0000F44C0008E0
:1032B0000FB438B505466C6806A8009054B1E06AB2
:1032C00040B1E06A006828B1E06A03682046009ACD
:1032D000059998470020009038BC5DF814FB2DE953
:1032E000F04104460E4617466568E86A3A4631469C
:1032F000036928469847BDE8F0812DE9F04104466E
:103300000E4617466568E86A3A463146836828469D
:1033100098470020BDE8F081F7B504460E46656881
:10332000E86A036831462846029A9847FEBD0000C5
:10333000004870471800002001460020704710B573
:103340000446204600F046F910BD10B5044620465C
:1033500000F050F910BD0000004870472000002028
:1033600010B5044600F0F2F8074908600846006806
:1033700010B96FF0040010BD08200349087160689F
:1033800000F06EF9F7E70000280000202DE9F04179
:1033900005460E46174698466C681CB96FF0040047
:1033A000BDE8F081A06843463A463146D0F808C0EF
:1033B0002046E047F4E72DE9F04105460E46174662
:1033C0006C681CB96FF00400BDE8F081A0683A4653
:1033D0003146036820469847F6E72DE9F041054657
:1033E0000E4617466C681CB96FF00400BDE8F0810A
:1033F000A0683A463146436820469847F6E770B5DC
:1034000004460E466568E8683146026928469047DA
:1034100070BD70B504460E466568E8683146C268FE
:103420002846904770BD0000004870473C000020CF
:1034300070B504460649074800F04CF945B20DB195
:10344000284670BD0449606800F08CF9F9E7000077
:10345000444D0008BC090020644D00082DE9F041EE
:1034600004460E46174698466568E86843463A465D
:103470003146D0F814C02846E047BDE8F0812DE978
:10348000F04104460E4617466568E8683A463146FC
:10349000036828469847BDE8F0812DE9F0410446CD
:1034A0000E46174698466568E86843463A463146F0
:1034B000D0F808C02846E047BDE8F0812DE9F0418A
:1034C00004460E46174698466568E86843463A46FD
:1034D0003146D0F804C02846E047BDE8F0812DE928
:1034E000F04105460F4616466C681CB96FF00400A3
:1034F000BDE8F081F2B2206839464368204698471B
:10350000F6E70000004870474800002010B5044668
:10351000606800F0B5F810BD2DE9F04105460E4693
:10352000174698466C681CB96FF00400BDE8F0813E
:10353000206843463A463146D0F808C02046E04766
:10354000F4E7000000487047500000200048704732
:10355000B44D000810B504460249606800F09CF8BC
:1035600010BD0000984D0008F8B504460D461646FB
:103570001F4605480097806933462A462146D0F801
:103580001CC00148E047F8BDF00900202DE9F041DA
:1035900004460D4616460548806933462A462146AC
:1035A000076A0248B847BDE8F0810000F009002032
:1035B000F8B504460D4616461F4605480097806933
:1035C00033462A462146D0F824C00148E047F8BDDA
:1035D000F009002010B5044604B910BD03E04FF413
:1035E0007A7000F007F8201EA4F10104F7D100BFA3
:1035F000F3E7000000B970474FF0E022126942F093
:1036000004024FF0E0231A61134A1268134BB2FB15
:10361000F3F24243521E4FF0E0235A6100229A61B6
:103620001A46126942F001021A6100BF4FF0E0220F
:10363000116901F001021AB101F48032002AF5D0BB
:103640004FF0E022126922F001024FF0E0231A61EC
:1036500000229A6100BFCEE75800002040420F00D0
:10366000024602B111B96FF004007047D1E90003BE
:10367000C2E90003014890600020F6E7044F00080B
:10368000014611B96FF0040070470248086000203D
:10369000FAE70000C44E000870B505460C4605B1B7
:1036A00014B96FF0040070BD182221462846FCF7BB
:1036B0008DFD0748A861204600F09AF901212846AF
:1036C00000F063FA0121284600F085FA0020EAE7BD
:1036D000984E000870B505460C4605B114B96FF058
:1036E000040070BD202221462846FCF76FFD0348E8
:1036F0002862204600F0A4FC0020F2E7884E000873
:1037000070B506460D4606B115B96FF0040070BDE0
:10371000698CA88C401C814202DA6FF00500F6E744
:10372000286800F08DFF044614B96FF00500EEE73D
:10373000201D6065A0654830E065E869616D08603E
:10374000002020802666346028222946301DFCF7A0
:103750003DFD0348F062284600F019FE0020D6E740
:10376000704E000870B505460C4605B114B96FF0EF
:10377000040070BD94E8070085E807000348E8608E
:10378000204601F0D5F80020F3E70000C04D000806
:10379000014611B96FF0040070470020886000BF37
:1037A000FAE72DE9F04104460D4616461F461CB9BE
:1037B0006FF00400BDE8F08120683B4632462946A0
:1037C000D0F808C05020E047F4E770B504460D4635
:1037D000164614B96FF0040070BD206832462946C1
:1037E000036850209847F7E72DE9F04104460E465C
:1037F00015461CB96FF00400BDE8F08122792068FD
:103800002B46314647685020B847F5E72DE9F0418F
:1038100005462F212846FCF704FD06465C21284674
:10382000FCF7FFFC0746BE4201D9304600E03846AF
:10383000044614B1601CBDE8F0812846FBE7014650
:1038400011B96FF0040070470020086000BFFAE76C
:1038500003466FF0040070472DE9F04781460E469D
:103860001746FDF735F9F320FDF78CF8002412E038
:1038700038190C4951F8208002214046FDF788F89C
:103880000546092D05D0FDF7F1F86FF00700BDE8FA
:10389000F087601CC4B2B442EADBFDF7E7F8002011
:1038A000F5E70000D44E00082DE9F04781460D46AB
:1038B00016461F4605F0030018B16FF00400BDE87E
:1038C000F08706F0030010B16FF00400F7E7FDF792
:1038D000FFF8F320FDF756F800240FE0A20857F890
:1038E00022102819FDF7CCF88046B8F1090F04D052
:1038F000FDF7BCF86FF00700E1E7241DB442EDD3FB
:10390000FDF7B4F80020DAE7014611B96FF00400C2
:1039100070470020886100BFFAE7000010B5044638
:103920001F49601A8C4223D009DC1E48204480B114
:10393000B0F5806F12D0B0F5006F2DD113E0B0F567
:10394000806F1AD0B0F5006F1CD0B0F5406F23D156
:103950001DE001210846FDF7A3F91EE00121022028
:10396000FDF79EF919E001210420FDF799F914E013
:1039700001210820FDF794F90FE001211020FDF747
:103980008FF90AE001212020FDF78AF905E00121E5
:103990004020FDF785F900E000BF00BF10BD00002A
:1039A000000C02400000FEBF1CB5044601208DF84B
:1039B00004008DF8060000208DF8070002208DF825
:1039C00005006068009069462068FDF7A4F8E0688B
:1039D00000906946A068FDF79EF81CBD70B50546CD
:1039E0000C461646A1B232462846FDF708F970BDCE
:1039F00010B504462068FFF791FFA068FFF78EFF1F
:103A00002046FFF7D1FF10BDF8B505460C46164617
:103A10001F4615B96FF00400F8BD284600F01FF9E5
:103A20006006010E284600F0FCF86946284600F0C2
:103A30006CF83146284600F0F4F86946284600F054
:103A400064F8284600F00BF9012000EB4400C1B2F5
:103A5000284600F0E6F86946284600F056F8394650
:103A6000284600F06BF80121284600F0C5F82846EA
:103A700000F00DF90020CFE72DE9F84307460D4689
:103A800090461E46DDF820901FB96FF00400BDE897
:103A9000F883384600F0E3F86806010E384600F077
:103AA000C0F86946384600F030F84146384600F024
:103AB000B8F86946384600F028F8384600F0CFF8E4
:103AC000012000EB4500C1B2384600F0AAF8694673
:103AD000384600F01AF8002410E009EB04013846DB
:103AE00000F02CF8701EA04201D1012000E000205F
:103AF0000146384600F080F8601C84B2B442ECDB2A
:103B0000384600F0C4F80020C1E770B504460D4601
:103B100014B96FF0040070BD0121204600F05BF87D
:103B20000121204600F031F82946204600F03EF8F9
:103B30000021204600F029F80020ECE7F8B5064601
:103B40000C4616B96FF00400F8BD0020207001216A
:103B5000304600F040F8072513E00121304600F020
:103B600014F86946304600F021F820789DF80010DE
:103B7000A940084320700021304600F006F8681E76
:103B800045B2002DE9DA0020DEE770B504460D46A7
:103B900014B96FF0040070BD2A46D4E90001FFF7A4
:103BA0001DFFD4E9040188470020F4E72DE9F04126
:103BB00004460D461CB96FF00400BDE8F081D4E95D
:103BC0000267B9B23046FDF711F82870D4E9040154
:103BD00088470020F1E770B504460D4614B96FF030
:103BE000040070BD2A46D4E90201FFF7F7FED4E9CC
:103BF000040188470020F4E770B504460D4614B967
:103C00006FF0040070BD29462046FFF7E4FF012154
:103C10002046FFF7BAFF00212046FFF7B6FF00203D
:103C2000F0E770B505460E4615B96FF0040070BD9B
:103C3000002410E08020204100EA06012846FFF71A
:103C4000CAFF01212846FFF7A0FF00212846FFF701
:103C50009CFF601CC4B2082CECDB0020E7E710B529
:103C6000044614B96FF0040010BD01212046FFF78F
:103C7000B2FF01212046FFF788FF00212046FFF711
:103C8000AAFF00212046FFF780FF0020ECE710B5D7
:103C9000044614B96FF0040010BD00212046FFF760
:103CA00074FF00212046FFF796FF01212046FFF711
:103CB0006CFF01212046FFF78EFF0020ECE7F8B5EE
:103CC00004460D4616461F4614B96FF00400F8BDB1
:103CD0002046FFF7C4FF6806010E2046FFF7A1FF4C
:103CE00069462046FFF711FF31462046FFF799FF4E
:103CF00069462046FFF709FF39462046FFF791FF46
:103D000069462046FFF701FF2046FFF7C0FF00206D
:103D1000DDE72DE9F84305460E4617469846DDF8DF
:103D200020901DB96FF00400BDE8F8832846FFF726
:103D300096FF7006010E2846FFF773FF6946284676
:103D4000FFF7E3FE39462846FFF76BFF6946284632
:103D5000FFF7DBFE00240AE019F804102846FFF7FD
:103D600060FF69462846FFF7D0FE601C84B24445D8
:103D7000F2DB2846FFF78BFF0020D5E710B5FFF7F1
:103D800089FA094908600846006800680168064821
:103D9000006888470448006800680449826802484F
:103DA0000068904710BD000000000020144F00087C
:103DB0000FB42DE9FC4104460D4616461A4800682A
:103DC00018B9BDE8FC015DF814FB2846FFF71EFD9D
:103DD000804615480096006800684346224613A1B5
:103DE000876811480068B8470CA801900E48006821
:103DF000006868B10C4800680068406840B10A4833
:103E00000068006843680848019A0B990068984761
:103E10000020019004480068006807A182680248F9
:103E20000068904700BFCCE70000002025732025E4
:103E3000733A25643A2000000D0A00001CB50020EA
:103E400001900090FFF79AFFFFF73EF9FEF79AFE08
:103E5000FEF7A6F807E0694601A8FEF78BFFDDE94B
:103E60000010FEF70DFFF6E770B504460D46044856
:103E7000006A2A46214603680148984770BD000041
:103E8000BC09002070B504460D460448006A2A4665
:103E9000214643680148984770BD0000BC090020D6
:103EA00070B504460D460448006A2A4621468368D8
:103EB0000148984770BD0000BC090020014611B9B7
:103EC0006FF0040070470020086200BFFAE770B589
:103ED00004460D4629462046FCF792FF08B1012012
:103EE00070BD0020FCE70146002006E00122824070
:103EF0000A4002B17047421CD0B21028F6DBFF2006
:103F0000F8E7000010B504461F49601A8C4223D020
:103F100009DC1E48204480B1B0F5806F12D0B0F5A6
:103F2000006F2DD113E0B0F5806F1AD0B0F5006F9F
:103F30001CD0B0F5406F23D11DE001210846FCF7ED
:103F4000AFFE1EE001210220FCF7AAFE19E00121CC
:103F50000420FCF7A5FE14E001210820FCF7A0FED8
:103F60000FE001211020FCF79BFE0AE00121202038
:103F7000FCF796FE05E001214020FCF791FE00E0F1
:103F800000BF00BF10BD0000000C02400000FEBFDB
:103F90007CB5044602208DF805008DF80400002051
:103FA0008DF806008DF80700A068009069466068EB
:103FB000FCF7B1FDA069009069466069FCF7ABFDB4
:103FC000206900906946E068FCF7A5FD2068164965
:103FD000014439B1B1F5806F06D0B1F5784F05D104
:103FE000052104E0052102E0062100E0FF210D4645
:103FF000A068FFF778FF06462A4631466068FCF75E
:10400000D2FDA069FFF76FFF06462A463146606978
:10401000FCF7C9FD2069FFF766FF06462A463146D0
:10402000E068FCF7C0FD7CBD00C8FFBF70B5054669
:104030000C461646A1B232462846FCF7E0FD70BD9C
:1040400010B50446206800F011F86068FFF75AFFC9
:10405000E068FFF757FF6069FFF754FF2046FFF75E
:1040600097FF204600F022F810BD000010B504466E
:104070000D48204450B1B0F5806F0CD0B0F5784FAA
:104080000ED101210803FCF72BFE0AE00121880371
:10409000FCF716FE05E00121C803FCF711FE00E065
:1040A00000BF00BF10BD000000C8FFBF10B586B044
:1040B00004464FF48270ADF806000020ADF804000D
:1040C000ADF80800ADF81200A08BADF81000A07F8D
:1040D00000B100BF0020ADF80A00A07F00B100BF12
:1040E0000020ADF80C004FF40070ADF80E00072072
:1040F000ADF8140001A92068FCF790FE01212068AA
:10410000FCF772FE06B010BD70B506460C461546AB
:1041100016B96FF0040070BD002229462046FFF753
:1041200085FF0020F7E770B506460C46154616B920
:104130006FF0040070BD012229462046FFF776FF8C
:104140000020F7E72DE9F04104460F4616461CB95A
:104150006FF00400BDE8F08100BF02212068FFF786
:10416000B6FE0028F9D0D4F8008039464046FCF766
:1041700053FE00BF00BF01212068FFF7A8FE002802
:10418000F9D0D4F800804046FCF743FE054600BF56
:1041900006B135700020DDE770B5044614B96FF044
:1041A000040070BD2568284600F074FA00202060E5
:1041B000E06200BFF5E70000024600210DE001EBE0
:1041C0004100084B53F83000904204D101EB41000C
:1041D00003EBC0007047481CC1B20629EFD3002092
:1041E000F8E70000E04D000810B504460748844297
:1041F00002D00748844204D101218805FCF750FD14
:1042000003E001214805FCF74BFD10BD0010014003
:104210000014014030B58FB004462068FFF7CCFF92
:104220000546E868FCF7D0FAA86800902068001DF1
:104230000190002007900590E0690290002008900E
:104240004FF480600690A08C401C049000200390E6
:1042500009904FF400300A9000200B9003200C903E
:1042600000200E900D906946E868FCF75DFB012187
:10427000E868FCF79DFA012240212068FCF7D2FE95
:104280000FB030BD0146002006E0012282400A4006
:1042900002B17047421CD0B21028F6DBFF20F8E7CD
:1042A00010B504461F49601A8C4223D009DC1E4811
:1042B000204480B1B0F5806F12D0B0F5006F2DD1E1
:1042C00013E0B0F5806F1AD0B0F5006F1CD0B0F5D8
:1042D000406F23D11DE001210846FCF7E1FC1EE000
:1042E00001210220FCF7DCFC19E001210420FCF78D
:1042F000D7FC14E001210820FCF7D2FC0FE00121DB
:104300001020FCF7CDFC0AE001212020FCF7C8FCBE
:1043100005E001214020FCF7C3FC00E000BF00BF26
:1043200010BD0000000C02400000FEBF7CB504463A
:1043300002208DF8040000208DF8060001208DF881
:10434000070002208DF80500E06800906946A0682B
:10435000FCF7E1FB6069009069462069FCF7DBFB34
:104360002068FFF729FF0546E068FFF78BFF064648
:104370002A7D3146A068FCF716FC6069FFF782FFD2
:1043800006462A7D31462069FCF70DFC7CBD10B540
:104390000446A068FFF784FF2069FFF781FF2068CB
:1043A00000F04EF82068FFF71FFF2046FFF7BEFF22
:1043B000204600F083F82046FFF72CFF10BD2DE9C2
:1043C000F04104460D46174698464246394628466F
:1043D000069BFCF7FDFE00260CE000BF8021206854
:1043E000FCF729FE0028F9D0A95D2068FCF7EAFE59
:1043F000701C86B22846FBF70DFFB042EDD800BF17
:1044000040212068FCF717FE0028F9D0BDE8F081B4
:104410002DE9F04104460E46174600250BE0715D7C
:104420002068FCF7CFFE00BF80212068FCF703FE68
:104430000028F9D06D1CBD42F1D3BDE8F081000029
:1044400010B504461B49601A8C4225D009DC1A4875
:10445000204490B1B0F5806F14D0B0F5006F25D135
:1044600015E0B0F5404F03D0B0F5444F1ED118E031
:1044700001211020FCF734FC19E001214804FCF76D
:104480001FFC14E001218804FCF71AFC0FE0012155
:10449000C804FCF715FC0AE001210805FCF710FC34
:1044A00005E001212020FCF71BFC00E000BF00BF5D
:1044B00010BD00000050004000BCFFBF30B585B00B
:1044C00004462068FFF778FE0546606801900020EA
:1044D000ADF810000C20ADF80E000020ADF80C0077
:1044E000ADF80A00ADF8080001A92068FCF700FE4D
:1044F000012240F224412068FCF7D4FD28798DF890
:10450000000001208DF8030094F826008DF80100CA
:1045100094F827008DF802006846FCF77BFB012128
:104520002068FCF773FD05B030BD00002DE9F84FA1
:1045300083465846FFF740FE0546687D00EB800144
:1045400001EBC000334901EBC004266EB6F82880A9
:1045500000BF40F224412868FCF77AFD08B1012031
:1045600000E00020002852D000BF28680088C0B2B8
:10457000009028688088C0B2009000BF00BFE86843
:10458000FCF7CEF908F10101081A218808442080BF
:104590002088401E316A0844616D4860606D0830B3
:1045A0006065E16D606D884201D1201D6065F08C11
:1045B0002188401A404505DB2188306A0844616D36
:1045C000086004E0306A616D086000202080606D42
:1045D000D0F8009008F101001FFA80FAEF6800217E
:1045E0003846FCF7E5F800BF00BF386800F001006E
:1045F0000028FAD1C7F804A0C7F80C9038462969FA
:10460000FCF7BCF801213846FCF7D2F800BFBDE842
:10461000F88F00000C0A00200FB438B504460CB126
:10462000059810B938BC5DF814FB06A80090204628
:10463000009A059900F0A5F80020009000BFF1E76E
:1046400070B506463046FFF7B7FD05460DB90020A8
:1046500070BD6C7D04EB840000EBC4000C4901EBE1
:10466000C00090F8640008B10020F1E7012004EBDD
:10467000840101EBC401064A02EBC10181F8640028
:1046800004EB840000EBC400114601EBC000DFE73F
:104690000C0A002010B1002180F864107047F0B5BA
:1046A00004460B460CB103B112B96FF00400F0BD23
:1046B0002168D1E91507B84205D1002018601060C3
:1046C0006FF00A00F3E7886D0568886D40688F6DAC
:1046D0003F68C01B461C1D601660886D08308865E9
:1046E000D1E91607B84201D1081D88650020DEE730
:1046F0002DE9F04105460E4605B11EB96FF00400E4
:10470000BDE8F0812C68D4E91501884202D16FF030
:104710000A00F5E7A06DD0F80080A06D4068A16D9B
:104720000968401A471C288DB84201D8288D471EB9
:104730003A4641463046FBF749FD0020F055A06D52
:104740000830A065D4E91601884201D1201DA0657A
:104750000020D5E72DE9F04104460D4616460CB180
:1047600005B11EB96FF00400BDE8F0816068FFF785
:1047700023FD0746324629463846FFF749FE00200A
:10478000F2E777B581B004460D4604B105B97FBDA7
:104790006068FFF711FD064603980090A28C2B4637
:1047A0003046E169FFF70BFE00BFF0E7014611B9A3
:1047B0006FF0040070470020C86000BFFAE770B5D2
:1047C00004460D4614B96FF0040070BD204600F099
:1047D000FAF9D4E90030A1681A68904720680021EE
:1047E0004268D82090472904C1F3074021684A68ED
:1047F000002190472904C1F3072021684A6800215D
:1048000090472904C8B221684A6800219047D4E93A
:104810000030A1689A689047204600F005F9002012
:10482000D3E770B504460D4614B96FF0040070BDAF
:10483000204600F0C8F9D4E90030A1681A68904712
:1048400020680021426820209047206800214268AB
:10485000C5F307409047206800214268C5F3072050
:104860009047E8B221684A6800219047D4E90030B7
:10487000A1689A689047204600F0D6F80020D6E755
:1048800010B504461E49601A8C4223D009DC1D482D
:10489000204480B1B0F5806F12D0B0F5006F2DD1FB
:1048A00013E0B0F5806F1AD0B0F5006F1CD0B0F5F2
:1048B000406F23D11DE001210846FCF7F1F91DE00E
:1048C00001210220FCF7ECF918E001210420FCF79B
:1048D000E7F913E001210820FCF7E2F90EE00121DD
:1048E0001020FCF7DDF909E001212020FCF7D8F9C0
:1048F00004E001214020FCF7D3F900BF00BF10BD48
:10490000000C02400000FEBF1CB5044601208DF8DB
:10491000040000208DF806008DF8070002208DF8B5
:104920000500A068009069466068FCF7F4F81CBDBB
:104930002DE9F04104466068FFF7A2FF2046FFF72B
:10494000E3FF0127D4E90156B1B23A462846FCF705
:1049500056F900BFBDE8F0812DE9F04104460D464F
:10496000174698461CB96FF00400BDE8F081D4E901
:104970000030A1681A68904720680021426803202F
:104980009047206800214268C5F30740904720689F
:1049900000214268C5F307209047E8B221684A68C1
:1049A00000219047002606E008EB060120684268D7
:1049B000FF209047761CBE42F6D3D4E90030A168B0
:1049C0009A6890470020D0E77CB504460E4615460D
:1049D00014B96FF004007CBDD4E90030A1681A68F6
:1049E00090472068002142689F2090472068314608
:1049F0004268FF209047206801A94268FF20904745
:104A0000206869464268FF209047D4E90030A168D9
:104A10009A6890479DF800009DF8041040EA012034
:104A200028800020D7E7000038B5044614B96FF09D
:104A3000040038BDD4E90030A1681A6890472068A6
:104A400000214268052090470E4D0AE02068694623
:104A50004268FF2090479DF8000000F0010000B977
:104A600003E0281EA5F10105F0D100BF15B96FF0D4
:104A70000600DEE7D4E90030A1689A68904700207C
:104A8000D7E7000040420F0010B5044614B96FF09C
:104A9000040010BDD4E90030A1681A68904720686E
:104AA00000214268AB209047D4E90030A1689A68A1
:104AB00090470020EDE72DE9F84F83460D46164656
:104AC0001F464FF00008C146C24600240020009057
:104AD00005F0FF0ACAF10000C4B2C6F3072806F0C9
:104AE000FF09BAF1000F23D1B8F1000F06D13B4600
:104AF00032462946584600F07DF861E00AE03B4620
:104B00004FF480722946584600F074F805F5807518
:104B100007F58077B8F10000A8F1010101F0FF0866
:104B2000EDD13B464A462946584600F063F847E037
:104B3000B8F1000F1BD1A14512DDA9EB0400C0B2F2
:104B400000903B4622462946584600F053F825443B
:104B500027443B4629465846009A00F04BF82FE080
:104B60003B4632462946584600F044F828E0361BBA
:104B7000C6F3072806F0FF093B4622462946584659
:104B800000F038F8254427440AE03B464FF4807291
:104B90002946584600F02EF805F5807507F5807710
:104BA000B8F10000A8F1010101F0FF08EDD1B9F161
:104BB000000F05D03B464A462946584600F01AF8F1
:104BC0000020BDE8F88F10B5044614B96FF004005A
:104BD00010BDD4E90030A1681A6890472068002110
:104BE000426806209047D4E90030A1689A6890474F
:104BF0000020EDE72DE9F04104460D4617469846A2
:104C00001CB96FF00400BDE8F0812046FFF7DBFF20
:104C1000D4E90030A1681A689047206800214268F2
:104C200002209047206800214268C5F30740904762
:104C3000206800214268C5F307209047E8B2216848
:104C40004A6800219047002607E018F8060021680E
:104C50004A6800219047701C86B2BE42F5D3D4E961
:104C60000030A1689A6890472046FFF7DDFE0020DB
:104C7000C9E70000A05000086D1D0008FC4F0008A7
:104C8000992000084C5000084121000828500008D5
:104C9000751D00088C500008BD1D000878500008E4
:104CA000F11C0008B4500008892100080100000030
:104CB000953000080000000020000000F9230008E3
:104CC0000000000002000000000000004530000865
:104CD0000400000000000000E121000810000000B6
:104CE00000000000ED25000840000000000000006A
:104CF000952A00080010014000100E00000002403C
:104D0000000200000000024000040000B004002087
:104D1000B005002000010004000200009D320008E0
:104D200019330008B1320008FB320008DF320008F6
:104D30003933000861330008B7330008DB3300085B
:104D40008D330008003800400004024000040000D9
:104D50000004024000400000000402400080000007
:104D60000000000030000020000802400010000099
:104D7000313400087F340008BD3400089B3400083B
:104D800013340008FF3300085D3400080D350008B7
:104D9000DF3400081935000800040240400000001C
:104DA0000004024080000000010000004B330008B6
:104DB000553500088D350008B13500086935000803
:104DC000C9490008F54B0008B74A00082348000805
:104DD000BF47000859490008894A0008AD47000844
:104DE0000010014025000000000000088864024017
:104DF00000080020070000000044004026000000DA
:104E00000000000888600240000800200701000040
:104E10000048004027000000000000082860024011
:104E20000008001007020000004C004034000000A1
:104E3000000000084060024000002010080300004D
:104E400000500040350000000000000810600240E3
:104E5000200000100804000000140140470000007A
:104E60000000000A28640240000800100805000045
:104E7000834700081946000855470008F146000816
:104E80009F46000899410008094100082741000891
:104E900045410008BD3E00085F3C00088F3C00080B
:104EA000233C00083D3B0008F93B00080B3B000891
:104EB000093A0008793A0008BF3C0008133D000891
:104EC000093900085138000859380008A938000885
:104ED0003F3800080000000008000000100000003B
:104EE0001800000020000000280000003000000032
:104EF00038000000400000004800000050000000A2
:104F000058000000CB370008E9370008A337000835
:104F1000913700080D0A0D0A3D3D3D3D3D3D3D3DAB
:104F20003D3D3D3D3D3D3D3D205B53797374656D99
:104F300020696E697469616C697A696E672E2E2EBC
:104F40005D203D3D3D3D3D3D3D3D3D3D3D3D3D3D8E
:104F50003D3D0D0A0D0A00004C6F616420666972C8
:104F60006D776172652066726F6D20457874657229
:104F70006E616C20466C6173682C20706C65617387
:104F80006520656E74657220746865206669726D4F
:104F900077617265206C6F636174696F6E20283170
:104FA0002D2564292E00000049415020646F776E42
:104FB0006C6F6164206669726D7761726520746FD1
:104FC0002045787465726E616C20466C6173682C44
:104FD00020706C6561736520656E746572207468FD
:104FE00065206669726D77617265206C6F636174AC
:104FF000696F6E2028312D2564292E004941503AD1
:1050000020446F776E6C6F6164206669726D7761A2
:10501000726520746F20496E7465726E616C2046F3
:105020006C617368000000004C6F616420666972F7
:105030006D776172652066726F6D20457874657258
:105040006E616C20466C6173680000004941503A03
:1050500020446F776E6C6F6164206669726D776152
:10506000726520746F2045787465726E616C20469D
:105070006C61736800000000436865636B204F54E7
:10508000412076657273696F6E000000496E697425
:10509000204F54412076657273696F6E00000000E6
:1050A000457261736520415050207061727469745B
:1050B000696F6E0053797374656D207265737461E6
:1050C00072740000E4500008000000207C00000022
:1050D00004120008605100087C0000200410000049
:1050E0001412000800000000000000000000000092
:1050F000000000001C4D000880040020304D000816
:1051000000000000344D0008B0090020000000003D
:1051100000000000693E0008A13E0008853E00082E
:10512000704D0008E0090020000000008C4D0008D0
:1051300044000020B04D0008F0090020007A030A66
:105140000000000000000000010203040607080937
:10515000000000000102030401020304060708091D
:040000050800018965
:00000001FF
