:020000040800F2
:10000000501600200D010008A10B0008990B0008F4
:100010009D0B0008DD060008151100080000000017
:10002000000000000000000000000000D10D0008EA
:100030008908000800000000290C0008BD0E000817
:1000400027010008270100082701000827010008F0
:1000500027010008270100082701000827010008E0
:1000600027010008270100082701000827010008D0
:1000700027010008270100082701000827010008C0
:1000800027010008270100082701000827010008B0
:1000900027010008270100082701000827010008A0
:1000A0002701000827010008270100082701000890
:1000B0002701000827010008270100082701000880
:1000C0002701000827010008270100082701000870
:1000D00027010008210F0008310F0008410F000818
:1000E000270100082701000827010008DFF810D0C9
:1000F00000F054FA00480047F1370008AFF30080E1
:100100005016002080F3088870470000064880479A
:1001100006480047FEE7FEE7FEE7FEE7FEE7FEE7EC
:10012000FEE7FEE7FEE7FEE7C10E0008ED0000086F
:1001300040EA01039B0703D009E008C9121F08C069
:10014000042AFAD203E011F8013B00F8013B521EE9
:10015000F9D27047D2B201E000F8012B491EFBD260
:1001600070470022F6E710B513460A4604461946C2
:10017000FFF7F0FF204610BD421C10F8011B0029BC
:10018000FBD1801A70470022CBB20178994200D18E
:100190000246401C0029F8D11046704730B50B4686
:1001A000014600202022012409E021FA02F59D42A7
:1001B00005D303FA02F5491B04FA02F52844151E7B
:1001C000A2F10102F1DC30BD2DE9F05F054600200F
:1001D00092469B4688460646814640241BE02846B8
:1001E00041464746224600F0FAF953465A46C01A9D
:1001F000914110D311461846224600F0E1F92D1A1C
:1002000067EB01084F4622460120002100F0D8F993
:1002100017EB00094E41201EA4F10104DFDC484623
:1002200031462A464346BDE8F09F2DE9FE4F804601
:1002300081EA0300C00F0C46009021F0004123F03A
:100240000045B8EB0200A94105D240462146904640
:100250001C460B46024623F00040104347D0270DB2
:10026000C7F30A00C3F30A510290401A01904028D4
:100270006BDAC3F3130040F4801B0098924620B160
:100280000023D2EB030A63EB0B0B01985946C0F134
:100290004002504600F094F906460D465046594635
:1002A000019A00F0ACF910EB08006141002487EAE4
:1002B000115284EAE7731A4340D0009A62B3019A5C
:1002C000012A4FEA075215DC001B61EB02014FF0D7
:1002D000004202EA0752CDE90042001C41F58011BC
:1002E00032462B4600F0ACF903B0BDE8F08F404633
:1002F0002146F9E7001B61EB0201001C41F5801368
:1003000000185B412018A2F5001747EB030140EAF3
:10031000D570B6196D4111E06D084FEA360645EA11
:10032000C0754FEA0752001B61EB0201001C41F54A
:10033000801149084FEA30000019514132462B46DE
:1003400003B0BDE8F04F00F06CB900980122400006
:100350000023D0EB020263EBE073009821464FEAE2
:10036000E074B8EB000061EB0401E9E783F00043BF
:100370005BE781F0004158E72DE9FE4F81EA030475
:1003800004F0004421F0004100944FF0000B23F0F2
:10039000004350EA01045ED052EA03045BD0C3F389
:1003A0000A54C1F30A552C44A4F2F3340194A0FB7F
:1003B0000254C1F3130141F48011C3F3130343F456
:1003C000801301FB024400FB034E840A970A44EAAF
:1003D000815447EA8357A4FB076802958D0A05FB01
:1003E00007854FEA932C04FB0C542705029D4FEA26
:1003F000065847EA1637B5EB08056EEB070C870E73
:10040000920E47EA811742EA8312A7FB0201B6EB7C
:100410000B0164EB00042B0D43EA0C335E1844EB34
:100420001C50DA465146E7FB0201C5F313044FEABC
:100430000B3343EA14534FEA0432019C43EA0603A8
:10044000A4F10C040294009CCDE900B400F0F8F88B
:1004500003B0BDE8F08F00200146F9E72DE9F04D2B
:1004600081EA030404F0004B21F0004514464FF0EC
:10047000000A23F0004150EA050220D054EA0102AC
:100480001DD0C5F30A570246C5F31303C1F3130089
:10049000C1F30A5640F4801543F48013A7EB060815
:1004A000101BD64608F2FD3873EB050002D308F1A5
:1004B000010801E092185B41B8F1000F03DA002057
:1004C0000146BDE8F08D00204FF4801106468446B9
:1004D0000EE0171B73EB050705D3121B63EB050337
:1004E00006434CEA010C49084FEA300092185B4180
:1004F00050EA0107EDD152EA030012D082EA04006B
:1005000083EA0501084305D0101BAB4106D2012246
:10051000002306E000224FF0004302E06FF00102EA
:1005200053101AEB06004CEB085110EB0A0041EB9C
:100530000B01BDE8F04D00F074B8C1F30A52C1F3ED
:10054000130140F2FF3341F480119A4202DA002095
:100550000146704740F233439A42A2F2334202DC32
:10056000524200F03CB800F02BB8000030B5041E39
:1005700071F1000404DB4FF00044404264EB0101E0
:10058000141E73F1000405DB1C464FF00043524279
:1005900063EB0403994208BF904230BD064C074DFF
:1005A00006E0E06840F0010394E807009847103443
:1005B000AC42F6D3FFF79EFDCC4A0008EC4A000897
:1005C000202A04DB203A00FA02F100207047914013
:1005D000C2F1200320FA03F3194390407047202A08
:1005E00004DB203A21FA02F00021704721FA02F3DD
:1005F000D040C2F120029140084319467047202A9A
:1006000006DBCB17203A41FA02F043EAE07306E03A
:1006100041FA02F3D040C2F120029140084319464A
:10062000704710B5141E73F1000408DA401C41F144
:10063000000192185B411A4301D120F0010010BD66
:100640002DE9F04D92469B4611B1B1FA81F202E0DC
:10065000B0FA80F220329046FFF7B2FF04460F4610
:1006600040EA0A0041EA0B0153465A46084313D0B8
:10067000114653EA010019D0C8F140025046FFF775
:10068000AEFF05460E46504659464246FFF798FFD4
:10069000084305D0012004E020463946BDE8F08D2E
:1006A0000020054346EAE0762C4337430A98630569
:1006B000E40AA0EB08000022FD0A44EA47540A308D
:1006C00002D500200146E9E7010510196941DDE97D
:1006D000084500196941BDE8F04DA2E700BFFEE7FB
:1006E00021B1026842F00102026004E002684FF6A4
:1006F000FE731A400260704701684FF6FE721140A7
:1007000001600021016041608160C1604B49884205
:1007100008D14A490839496841F00F01474A083A67
:1007200051608AE045491431884208D1434908396B
:10073000496841F0F001414A083A51607DE03F4983
:100740002831884208D13D490839496841F470612F
:100750003A4A083A516070E038493C31884208D141
:1007600036490839496841F47041344A083A5160C1
:1007700063E032495031884208D13049083949682C
:1007800041F470212D4A083A516056E02B496431FA
:10079000884208D129490839496841F47001274A3B
:1007A000083A516049E025497831884208D1234907
:1007B0000839496841F07061204A083A51603CE0CC
:1007C0001F49884206D1011F096841F00F01021F2D
:1007D000116032E01A491431884208D11849091FC2
:1007E000096841F0F001164A121F116025E0144912
:1007F0002831884208D11249091F096841F4706103
:100800000F4A121F116018E00D493C31884208D18F
:100810000B49091F096841F47041094A121F116010
:100820000BE007495031884207D10549091F096883
:1008300041F47021024A121F116070470800024003
:10084000080402400146486880B2704710B5002293
:10085000026847F6F0739A430C6A8B6823430C696D
:1008600023434C6923438C692343CC6923434C6A5B
:1008700023438C6A23431A430260CB6843600B68AE
:1008800083604B68C36010BD704700000149C860B9
:10089000704700000020024030B5044604254FF4A4
:1008A000302000F085F80546042D17D10C4800696A
:1008B00040F002000A49086108464461006940F0BE
:1008C000400008614FF4302000F072F805460448FB
:1008D000006941F6FD71084001490861284630BDB4
:1008E0000020024004200B49C96801F0010109B150
:1008F00001200EE00749C96801F0040109B1022096
:1009000007E00449C96801F0100109B1032000E0C3
:1009100004207047002002400348006940F0800036
:1009200001490861704700000020024078B5064682
:100930000C46042500200090E80200F039F8054636
:10094000042D24D11348006940F0010011490861C9
:100950003480E80200F02CF80546042D10D1B01CBC
:100960000090200C00990880E80200F021F805466C
:100970000848006941F6FE7108400649086106E032
:100980000448006941F6FE710840024908612846A2
:1009900078BD000000200240024803494860034837
:1009A000486070472301674500200240AB89EFCDC6
:1009B00000B502460423FFF795FF034603E0FFF767
:1009C00091FF0346521E012B01D1002AF7D102B933
:1009D0000523184600BD2DE9F041024600250026FA
:1009E000002000230024002791F803C00CF00F051D
:1009F00091F803C00CF0100CBCF1000F03D091F87B
:100A000002C04CEA050591F800C0BCF1000F31D0DE
:100A1000146800202BE04FF0010C0CFA00F3B1F841
:100A200000C00CEA03069E4220D183004FF00F0C59
:100A30000CFA03F7BC4305FA03FC4CEA040491F8F2
:100A400003C0BCF1280F06D14FF0010C0CFA00FCDA
:100A5000C2F814C00AE091F803C0BCF1480F05D1F8
:100A60004FF0010C0CFA00FCC2F810C0401C082822
:100A7000D1D31460B1F800C0BCF1FF0F34DD54686D
:100A800000202EE000F1080C4FF0010808FA0CF3EA
:100A9000B1F800C00CEA03069E4221D183004FF05A
:100AA0000F0C0CFA03F7BC4305FA03FC4CEA0404F0
:100AB00091F803C0BCF1280F05D100F1080C08FA29
:100AC0000CF8C2F8148091F803C0BCF1480F07D1AC
:100AD00000F1080C4FF0010808FA0CF8C2F8108079
:100AE000401C0828CED35460BDE8F081F0B50A461A
:100AF000002300240021002500F00046B6F1004F3D
:100B000002D11D4EF16901E01B4E7168C0F303452F
:100B100083B200F44016B6F5401F08D121F0706191
:100B2000154E766826F07066134F7E6012E000F472
:100B30008016B6F5801F06D1032606FA05F4A143F8
:100B400041F0706106E0460D360103FA06F6B14346
:100B500041F0706122B1460D360103FA06F63143C9
:100B600000F00046B6F1004F02D1034EF16101E002
:100B7000014E7160F0BD00000000014002460020FF
:100B800093680B400BB1012000E0002070470AB1D0
:100B9000016100E04161704700BFFEE700BFFEE772
:100BA0007047000070B5002100230F22C47804B301
:100BB000154C246804F4E064C4F5E064210AC1F132
:100BC0000403CA40447804FA03F1847814402143B2
:100BD00009010E4C0678A155047804F01F05012484
:100BE000AC4005786D11AD0005F1E025C5F8004178
:100BF00009E0047804F01F050124AC40044D067898
:100C0000761145F8264070BD0CED00E000E400E0F0
:100C100080E100E002490143024A11607047000090
:100C20000000FA050CED00E07047000029B1064A0B
:100C300052690243044B5A6104E0034A52698243F9
:100C4000014B5A61704700000010024029B1064A6A
:100C5000D2690243044BDA6104E0034AD269824359
:100C6000014BDA61704700000010024029B1064ACA
:100C700092690243044B9A6104E0034A92698243F9
:100C8000014B9A61704700000010024030B500210E
:100C90000022002400232D4D6D6805F00C0121B1C8
:100CA000042905D0082923D105E0294D056022E05B
:100CB000274D05601FE0254D6D6805F47012234D2A
:100CC0006D6805F48034022505EB92421CB9214D74
:100CD000554305600BE01D4D6D6805F400351DB1F1
:100CE0001C4D5543056002E0194D5543056002E077
:100CF000174D056000BF00BF144D6D6805F0F00191
:100D00000909154D6B5C0568DD4045600F4D6D6848
:100D100005F4E061090A104D6B5C4568DD408560B3
:100D20000A4D6D6805F46051C90A0B4D6B5C45684E
:100D3000DD40C560054D6D6805F44041890B074DE8
:100D40006B5CC568B5FBF3F5056130BD0010024072
:100D500000127A0000093D006000002070000020B1
:100D600021B1028842F04002028004E002884FF67E
:100D7000BF731A40028070470246002013890B405F
:100D80000BB1012000E000207047014688897047C0
:100D90008181704710B50022028802F441520B880D
:100DA0004C8823438C882343CC8823430C892343DA
:100DB0004C8923438C892343CC8923431A430280E3
:100DC000838B4FF2FF74234083830B8A038210BD11
:100DD000704710B500F002F810BD00000CB50020FF
:100DE000019000903348006840F480303149086039
:100DF00000BF3048006800F4003000900198401CAB
:100E00000190009818B90198B0F5A06FF1D1294868
:100E1000006800F4003010B10120009001E00020D3
:100E200000900098012843D12348006840F010004A
:100E3000214908600846006820F003000860084661
:100E4000006840F0020008601A484068194948608C
:100E50000846406848600846406840F48060486042
:100E60000846406820F47C1048600846406840F41A
:100E7000E81048600846006840F08070086000BFD5
:100E80000C48006800F000700028F9D0094840685C
:100E900020F00300074948600846406840F002001F
:100EA000486000BF0348406800F00C000828F9D1F2
:100EB0000CBD0000001002400020024070470000FE
:100EC00010B51348006840F0010011490860084659
:100ED0004068104908400E494860084600680E49BD
:100EE00008400B4908600846006820F4802008602C
:100EF0000846406820F4FE0048604FF41F008860F8
:100F0000FFF767FF4FF000600449086010BD000064
:100F1000001002400000FFF8FFFFF6FE08ED00E0C1
:100F200010B5024803F098F810BD000000380140E9
:100F300010B5024803F090F810BD000000440040D6
:100F400010B5024803F088F810BD000000480040CA
:100F500021B1828942F40052828104E082894DF6F7
:100F6000FF731A40828170471AB1838A0B438382D0
:100F700002E0838A8B438382704702460020B1F5EA
:100F8000007F00D100BF13880B400BB1012000E0AF
:100F90000020704770B50246002400230025002081
:100FA00040F66A16B14200D100BFC1F3421501F00C
:100FB0001F03012606FA03F3012D02D1968933405F
:100FC00006E0022D02D1168A334001E0968A3340B2
:100FD0000C12012606FA04F41688344013B10CB141
:100FE000012000E0002070BDF0B50346002400267B
:100FF0000025002040F66A17B94200D100BF18460C
:10100000C1F3421401F01F06012707FA06F5012C6F
:1010100001D10C3004E0022C01D1103000E014307A
:101020001AB107682F43076002E00768AF43076003
:10103000F0BD00002DE9F04786B005460E460024BD
:10104000A24600BFA1460027B08900B100BF2F46CD
:101050002C8A4CF6FF700440F08804432C82AC8943
:101060004EF6F3100440B088318908437189084373
:101070000443AC81AC8A4FF6FF400440B08904437E
:10108000AC8201A8FFF702FE1F48874202D1DDF8BB
:1010900010A001E0DDF80CA0A88900F4004040B1E8
:1010A0000AEBCA0000EB0A1031684900B0FBF1F806
:1010B00007E00AEBCA0000EB0A1031688900B0FBB8
:1010C000F1F86420B8FBF0F004012009642101FB71
:1010D0001089A88900F4004040B1322000EBC9001B
:1010E000B0FBF1F000F00700044308E0322000EB11
:1010F00009106421B0FBF1F000F00F0004432C81D3
:1011000006B0BDE8F087000000380140C1F30802D6
:101110008280704700BFFEE77CB50C001D46164676
:10112000014601D0601E00E00020CDE90010064B12
:101130006A462946304600F0DBF8002C02D0009ABF
:10114000002111707CBD0000F719000802E008C8FA
:10115000121F08C1002AFAD170477047002001E031
:1011600001C1121F002AFBD1704700002DE9FF5F6B
:1011700082B00021DDE90430020DDDF840B0034308
:1011800018D044F61050A2F2FF32424315141198C1
:1011900001281FD0A5EB0B00401C5FEA000A4FF0AE
:1011A00000064E4FDFF83891B046504615D5CAF1CB
:1011B000000413E0119801244AA3012801D16FEA29
:1011C0000B010298119AC0E90031C0E9024206B051
:1011D000BDE8F09FCBF10000DFE704460021404A64
:1011E000491842EB0450CDE9001012E0E00707D0A7
:1011F00032463B4640464946FFF7BEF880468946A0
:1012000032463B4610461946FFF7B6F806460F46EB
:101210006410002CEAD1DDE90401DDE90023BAF114
:10122000000F06DAFFF7A8F842464B46FFF7A4F88E
:1012300005E0FFF713F942464B46FFF70FF9044666
:101240000E460022284BFFF791F903D84FF0FF30EC
:10125000014607E00022254B20463146FEF7E5FF18
:10126000FFF76BF9102409E0002C0ADB0A220023A7
:10127000FEF7AAFF039B30321A55641E50EA0102A2
:10128000F2D1641C039AC4F111031444119A012A87
:1012900003D0012208430DD10AE0084304D0002006
:1012A0004FF0110B119072E7A3EB0B056D1E0DE0D3
:1012B0005B4504DD4FF0000205F1010504E003DAAF
:1012C0004FF00002A5F10105002AECD00298119917
:1012D000C0E90231C0E9004579E700000000144090
:1012E0000000F03F300000000000F0430000E03F4D
:1012F0002DE9FF4F95B09A46884606460025EEE157
:10130000252877D100242746F94A0121039400E0DB
:10131000044316F8013F203B01FA03F01042F7D1D5
:1013200030782A2811D06FF02F033078A0F13002E6
:10133000092A16D8039A44F0020402EB820203EB56
:1013400042021044761C0390EFE758F8042B0392F6
:10135000002A03DA504244F40054039044F002049B
:10136000761C30782E2816D116F8010F44F00404AC
:101370002A280DD06FF02F023078A0F13003092B0E
:1013800009D807EB870302EB4303C718761CF3E782
:1013900058F8047B761C30786C280FD006DC4C287B
:1013A00017D068280DD06A2814D104E0742810D012
:1013B0007A280FD10DE044F400140AE044F48014BC
:1013C00001E044F440147278824202D104F58014A2
:1013D000761C761C307866280BD013DC582877D022
:1013E00009DC002875D04528F6D04628F4D04728D7
:1013F0001AD193E118E0632835D0642879D06528A4
:1014000012D18BE1702873D008DC6728F1D06928ED
:101410006FD06E280DD06F2806D1ACE073282CD089
:10142000752874D0782853D05246179990476D1C70
:1014300054E1C4F30250022809D003280DD0D8F893
:10144000001004280DD00D6008F1040846E1D8F81A
:101450000010EA17C1E90052F6E7D8F800100D8035
:10146000F2E70D70F0E718F8041B8DF8001000206B
:101470008DF80100EB46012003E058F804BB4FF063
:10148000FF3061074FF0000102D40DE009F10101C6
:101490008946B9420FDA8145F8DB1BF809100029AB
:1014A000F4D108E009F1010189468142FADB1BF819
:1014B00009100029F6D103985346A0EB09072146ED
:1014C0003846179A00F080FA284400EB090507E037
:1014D00044E008E10DE01BF8010B524617999047D4
:1014E000B9F10109F7D2534621463846179AF2E07E
:1014F00039E00A21C4F302524FF0000B0091022A96
:1015000006D058F8040BC117032A09D00AE023E0DB
:1015100008F1070020F00702F2E80201904605E01A
:1015200000B2C117042A01D140B2C117002906DA5E
:101530000A460021404261EB02012D2202E0220511
:1015400004D52B228DF80420012203E0E20701D00C
:101550002022F7E7914657E00A2100E010214FF0E2
:10156000000B00910BE010214FF0000B44F004043D
:101570000827009103E008204FF0000B0090C4F30F
:101580000252022A05D058F8040B0021032A08D081
:1015900008E008F1070020F00702F2E80201904697
:1015A00003E080B2042A00D1C0B24FF00009220744
:1015B0002AD53278702A07D0DDF800C08CF0100CE4
:1015C0005CEA0B0C05D00EE040228DF804200122CD
:1015D00008E050EA010306D030238DF804308DF87E
:1015E000052002229146009B83F0080353EA0B0377
:1015F0000AD150EA010201D1620705D530228DF8E7
:1016000004204FF001097F1E3278582A04D039A2F5
:101610000C920CAA02920BE03BA2F9E75B46009AFF
:10162000FEF7D2FD0C9B9B5C029A521E0292137035
:1016300050EA0102F2D1029804A9081A00F1200B25
:10164000600702D524F4803400E001275F4502DD05
:10165000A7EB0B0000E0002000EB0B0100900398CB
:101660004944401A0390E00306D453462146179A92
:10167000039800F0A9F90544002706E001A85246A6
:10168000C05D179990476D1C7F1C4F45F6DBE0034A
:101690000CD553462146179A039800F095F9054456
:1016A00004E030205246179990476D1C0099481E5F
:1016B00000900029F5DC08E0029802995246007873
:1016C000491C0291179990476D1CBBF10001ABF1C9
:1016D000010BF1DC5BE100F065F90544761C307824
:1016E00000287FF40DAE19B02846BDE8F08F000049
:1016F00009280100303132333435363738396162E8
:1017000063646566000000003031323334353637AB
:10171000383941424344454600000000600700D488
:10172000062708F1070020F00700F0E802238046B2
:1017300003F0004C5FEA0C0001D097A009E02005FF
:1017400001D596A005E0E00701D095A001E0AFF239
:101750004C001390307823F0004365280CD006DC51
:10176000452809D046281DD047287FD13BE0662870
:1017700018D067287AD136E00021112F01DB112023
:1017800000E0781CCDE9000104A90CA8FFF7EEFCED
:10179000DDE90D010C9A4FF0000B07F101091092E1
:1017A00000914EE04FF000400097CDE9011004A9F0
:1017B0000CA8FFF7DBFCDDE90D020C9B0F994FF045
:1017C000000B91461093009211B9791C00EB0109AE
:1017D000B7EB090003D4C0F1FF3B07F10109A9EB06
:1017E0000700019042E0012F00DA01270021112FAC
:1017F00001DD112000E03846CDE9000104A90CA864
:10180000FFF7B4FCDDE90D010C9A00914FF0000BDD
:10181000B946109221070FD4009A4A4503DA91463F
:1018200001E0A9F10109B9F1010F05DD109AA9F153
:101830000101515C3029F4D0B84202DA10F1040FF2
:1018400003DA0121CDE9011010E0002803DC834414
:10185000A9EB000102E0411C494500DD8946A0EBEF
:101860000B00401C01904FF000400290200705D46F
:101870000198484502DB4FF0FF30019000208DF8C1
:101880004B0002980DF14B07B0F1004F25D002201C
:101890000C902B200D90029800280CDA4042029008
:1018A0002D200D9007E00A210298FEF777FC3031D9
:1018B000029007F8011D0C99481E0C900029F2DCDB
:1018C00002980028EFD1791E0D980870307800F04A
:1018D000200040F0450007F8020D11A8C01BC01DF4
:1018E00002901398007800B1012000EB09010198E3
:1018F00001EBE071029801440398401A401E0390E6
:10190000E00306D453462146179A039800F05CF88A
:1019100005441398007818B15246179990476D1CEA
:10192000E00323D553462146179A039800F04CF85C
:1019300005441BE0BBF1000F07DB0098584504DDB0
:101940001098179910F80B0001E0179930205246B3
:10195000904701980BF1010B401E05F10105019024
:1019600004D12E205246179990476D1CB9F1000101
:10197000A9F10109DEDC05E017F8010B52461799C1
:1019800090476D1C0299481E02900029F4DC5346D2
:101990002146179A03989EE62D0000002B000000B8
:1019A000200000002DE9F041044600251E461746A0
:1019B000880404D405E039462020B0476D1C641E1D
:1019C000F9D52846BDE8F0812DE9F041044600250F
:1019D0001E469046C80301D5302700E02027880422
:1019E00004D505E041463846B0476D1C641EF9D564
:1019F0002846BDE8F0814A68002A06D00A68531CD0
:101A00000B6010704868401E48607047F8B5054686
:101A100001F03AF9064628212846FEF7A2FB306875
:101A20002B4628220021C7683046B847044644B1F7
:101A300005A31A220CA115A0009401F09FFE2046D8
:101A4000F8BD0020FCE700004661696C6564207405
:101A50006F207265616420656570726F6D206461CE
:101A600074613A20256400002E2E5C2E2E5C61707D
:101A7000705C626F6F746C6F616465725C626F6FD3
:101A8000745F73746F72652E630000005B45525281
:101A90004F525D002DE9F8430646B04601F0F4F8D8
:101AA0000746002418E008EBC402E006010E38687F
:101AB00083683846984705464DB109A3312210A1E5
:101AC00018A0009501F05AFE2846BDE8F8830520CD
:101AD00001F0CDF8601CC4B2052CE4D30020F4E77B
:101AE0004661696C656420746F2077726974652043
:101AF000656570726F6D20706167653A20256400BE
:101B00002E2E5C2E2E5C6170705C626F6F746C6F39
:101B1000616465725C626F6F745F73746F72652E5F
:101B2000630000005B4552524F525D001CB50446F5
:101B300000200190009015E0694601A800F010FE19
:101B4000019860B10098012809D1019800787728A0
:101B500003D001980078572801D101201CBD012035
:101B600001F085F8201EA4F101018CB2E4D100BF80
:101B7000F4E700002DE9F843804601F05BF90646E2
:101B800000251AA315221CA123A001F0F7FD30683F
:101B900014222C2143683046984740B120A31922D3
:101BA00015A127A001F0EAFD681EBDE8F883264FC5
:101BB000002405E057F82400401C00B16D1C641C93
:101BC000B4F5305FF6D34DB120A324220AA11CA0A6
:101BD000009501F0D3FD6FF00100E6E725A3282270
:101BE00005A10DA001F0CAFD0020DEE7457261737A
:101BF00065204150502E00002E2E5C2E2E5C617010
:101C0000705C626F6F746C6F616465725C626F6F41
:101C1000745F636D642E63005B494E464F5D200028
:101C2000466C617368206572617365206F706572C0
:101C30006174696F6E206661696C656421000000E3
:101C40005B4552524F525D00005000084661696C7E
:101C5000656420746F206572617365204150502067
:101C600028766572696679206572726F723D2564A7
:101C7000292100005375636365737366756C6C7915
:101C80002065726173656420415050210D0A000087
:101C900038B504460920074B542207A100900EA036
:101CA00001F06CFDD4F8100440F01000C4F81004EA
:101CB000002038BD884900082E2E5C2E2E5C6170F5
:101CC000705C626F6F746C6F616465725C626F6F81
:101CD000745F636D642E63005B494E464F5D200068
:101CE0001CB519A3742225A12CA001F047FD2DA33A
:101CF000752222A129A001F041FD13A376221FA184
:101D000026A001F03BFD002414E004EB440032491E
:101D100001EB8000406804EB44012F4A12F82110C7
:101D20002EA37922CDE9001014A11CA001F026FDFC
:101D3000601CC4B2052CE8D303A37B220FA117A01B
:101D400001F01CFD1CBD00003D3D3D3D3D3D3D3DC8
:101D50003D3D3D3D3D3D3D3D3D3D3D3D3D3D3D3DB3
:101D60003D3D3D3D3D3D3D3D3D3D3D3D3D3D3D3DA3
:101D70003D3D3D3D3D3D3D3D000000002E2E5C2E95
:101D80002E5C6170705C626F6F746C6F6164657201
:101D90005C626F6F745F636D642E63005B494E46D7
:101DA0004F5D20007C20202020202020202020208B
:101DB000426F6F744C6F61646572204F7065726121
:101DC00074696F6E204D656E7520202020202020C4
:101DD000202020207C000000484700085B25635D30
:101DE00020252D333073000010B504460DA3332297
:101DF00014A11CA001F0C2FC2046FFF7BBFE1BA3F0
:101E0000352210A117A001F0B9FC04F20444E068E7
:101E100040F00300E060002020606060A060A4F259
:101E2000044410BD49415020646F776E6C6F61644B
:101E3000206669726D7761726520746F20466C61EF
:101E400073682E002E2E5C2E2E5C6170705C626FAB
:101E50006F746C6F616465725C626F6F745F636DE9
:101E6000642E63005B494E464F5D2000506C6561F7
:101E70007365207573652062696E20666F726D618F
:101E8000742066696C652E0038B504460920074B3E
:101E9000462207A100900EA001F070FCD4F81004B7
:101EA00040F00400C4F81004002038BDD8490008F0
:101EB0002E2E5C2E2E5C6170705C626F6F746C6F86
:101EC000616465725C626F6F745F636D642E630042
:101ED0005B494E464F5D200010B5044604A36222C4
:101EE00009A111A001F04AFC00F066FC002010BD21
:101EF00053797374656D2072657374617274696E61
:101F0000672E2E2E000000002E2E5C2E2E5C61709F
:101F1000705C626F6F746C6F616465725C626F6F2E
:101F2000745F636D642E63005B494E464F5D200015
:101F30002DE9F0438DB004460D46904600F00CFFAD
:101F40008146B8F1010F0AD034A318223AA144A067
:101F5000CDF8008001F012FC0DB0BDE8F0832878C8
:101F6000312802DB2878392808D928783EA31E2298
:101F700031A100903AA001F001FCEDE703A8FFF7C2
:101F800045FD04F58064206920F004002061287874
:101F900030382060206940F00B0020610020606034
:101FA000A06003AA216842F821002068A4F580649B
:101FB00033A32D2220A100903DA001F0DFFB0026DD
:101FC0001EE0B4F8000406EB001081B2D9F800005E
:101FD000426948469047074637B137A3322216A1D7
:101FE00040A0009701F0CAFB1021701C3FA33422CF
:101FF000CDE9000110A12EA001F0C0FB701CC6B2FB
:10200000102EDED3D4F800043DA337220AA100909D
:1020100027A001F0B3FB00BF9EE70000496E766188
:102020006C696420696E707574206C656E67746885
:102030003A202564000000002E2E5C2E2E5C61707C
:10204000705C626F6F746C6F616465725C626F6FFD
:10205000745F6578745F666C6173682E630000005E
:102060005B5741524E5D2000496E76616C69642079
:10207000696E707574206E756D3A202563000000DE
:1020800045726173696E67207468652025647468A1
:10209000206669726D77617265206F66206578745D
:1020A00065726E616C20466C6173682E2E2E000086
:1020B0005B494E464F5D20004661696C6564207443
:1020C0006F2065726173652065787420666C61733A
:1020D0006820626C6F636B20286572723D256429ED
:1020E000000000005B4552524F525D004572617323
:1020F000656420626C6F636B2025642F256400008B
:1021000055736520586D6F64656D20746F20646F22
:10211000776E6C6F616420612042494E2066696C65
:102120006520746F2065787465726E616C20466CF2
:1021300061736820736C6F742025642E00000000AA
:10214000F0B58DB0044600F075FE064600F004FEC2
:10215000074603A8FFF75AFC03A9D4F8000451F876
:102160002000D4F800143CA36022CDE9001045A162
:102170004EA001F003FB03A9D4F8000411F82000DD
:1021800000F0030068B14BA366223EA14DA001F010
:10219000F5FAD4F8100420F02000C4F810040DB0B3
:1021A000F0BD2046FFF7E6FC002519E0B4F8000476
:1021B000000500EB8521386823464FF48062D0F893
:1021C00018C03846E047414800EB85213068234677
:1021D0004FF48062D0F808C03046E047681CC5B2B2
:1021E00003A9D4F8000451F82000B5EB902FDDD3FB
:1021F000D4F8000431F82000C0F3090008B3B4F8A3
:102200000004000500EB852103ABD4F8000433F88B
:102210002000C0F3090238682346D0F818C03846B9
:10222000E04703ABD4F8000433F82000C0F3090200
:10223000264800EB852130682346D0F808C0304698
:10224000E04723A38D220FA118A001F097FA00F018
:10225000B3FA00BFA3E700004C6F616420746865A7
:1022600020256474682070726F6772616D2C206C19
:10227000656E6774682069732025642062797465CF
:10228000732E00002E2E5C2E2E5C6170705C626FCF
:102290006F746C6F616465725C626F6F745F657898
:1022A000745F666C6173682E630000005B494E4684
:1022B0004F5D20004C656E677468206572726F72A6
:1022C000210000005B4552524F525D000050000853
:1022D0004150502075706461746520636F6D706C3F
:1022E000657465642C2072657374617274210000DA
:1022F000F8B504460D461646012E07D013A3442216
:1023000019A123A0009601F039FAF8BD28783128E8
:1023100002DB2878392808D928781FA34A2212A17D
:1023200000901BA001F02AFAEFE704F58064206911
:1023300020F010002061287830382060206940F0BB
:1023400020002061A4F5806400BFDEE7496E76615D
:102350006C696420696E707574206C656E67746852
:102360003A202564000000002E2E5C2E2E5C617049
:10237000705C626F6F746C6F616465725C626F6FCA
:10238000745F6578745F666C6173682E630000002B
:102390005B5741524E5D2000496E76616C69642046
:1023A000696E707574206E756D3A202563000000AB
:1023B0002DE9FC4180460D461746012F08D023A386
:1023C0008A2229A130A0009701F0D8F9BDE8FC814C
:1023D00000242EE004EB44002D4911F82000297858
:1023E000884224D104EB4400294901EB8000806835
:1023F000A0B104EB44000A4602EB8000816840462D
:1024000088470646002E11D0287822A3932216A1D1
:10241000CDE9000629A001F0B1F907E0287829A349
:10242000952211A1009025A001F0A8F9CEE7601C2B
:10243000C4B2052CCED3287829A39B220AA10090F0
:1024400011A001F09BF900BFC0E70000496E766162
:102450006C696420696E707574206C656E67746851
:102460003A202564000000002E2E5C2E2E5C617048
:10247000705C626F6F746C6F616465725C626F6FC9
:10248000745F636D642E63005B5741524E5D2000A4
:1024900048470008436F6D6D616E64205B25635D86
:1024A0002065786563757465206661696C65642074
:1024B000287265743D256429000000005B45525276
:1024C0004F525D00436F6D6D616E64205B25635DEF
:1024D00020686173206E6F2068616E646C657200A5
:1024E000496E76616C696420636F6D6D616E643AEC
:1024F00020256300F8B505462C68B4F1005F02D3CF
:102500001048844207D910A3362217A11FA00094B7
:1025100001F034F9F8BD1FA3392213A120A00094C3
:1025200001F02CF92046FDF7EDFD6E6837461E4898
:102530000560BFF34F8FBFF3608F00F02FF9B847EE
:1025400000BFE7E7FF4F0020496E76616C696420A9
:102550004D53503A20307825582C2061626F7274A8
:10256000206A756D700000002E2E5C2E2E5C61704E
:10257000705C626F6F746C6F616465725C626F6FC8
:10258000745F636F72652E63000000005B574152F9
:102590004E5D20004D53503A203078255800000001
:1025A0005B494E464F5D200008ED00E038B54FF422
:1025B000FA6402200FA369221CA1009024A001F05C
:1025C000DDF82046FFF7B2FA48B923A36D2217A120
:1025D0001FA001F0D3F82448FFF78CFF38BD23A3D8
:1025E000732212A11AA001F0C9F8FFF779FB00BF0E
:1025F000F4E70000456E7465722022772220776927
:102600007468696E202564207365636F6E6473203F
:10261000746F20656E7465722074686520636F6DD9
:102620006D616E64206C696E652E00002E2E5C2E2E
:102630002E5C6170705C626F6F746C6F6164657248
:102640005C626F6F745F636F72652E6300000000E1
:102650005B494E464F5D20004A756D7020746F20B7
:10266000415050210000000000500008456E746584
:10267000722074686520636F6D6D616E64206C6993
:102680006E652E00F8B504460E46154695B994F8C9
:10269000100400F0010018B1204600F0CFF93CE032
:1026A00094F8100400F02000002836D02046FFF7F0
:1026B00047FD32E0D4F8100428B92A4631462046B6
:1026C000FFF776FE29E094F8100400F0020028B12C
:1026D000AAB23146204600F085F81EE094F81004B6
:1026E00000F0040028B1AAB231462046FFF720FCD2
:1026F00013E094F8100400F0100028B1AAB231469B
:102700002046FFF7F5FD08E0D4F8100403A32C22BF
:1027100008A1009010A001F031F8F8BD496E766173
:102720006C696420666C61673A20307825303858CF
:10273000000000002E2E5C2E2E5C6170705C626FBB
:102740006F746C6F616465725C626F6F745F6576E5
:10275000656E742E630000005B5741524E5D200091
:102760002DE9FC4104460D4600F0CCFB0646002056
:102770000190009030686A4601A903693046984785
:1027800007462FB10020206028603846BDE8FC8154
:1027900001982060009828600020F7E7704770B526
:1027A00004460D4600F0AEFB064630682A46214638
:1027B00043683046984770BDC82000F058FA00BF03
:1027C0000648006800F4E06005490843001D03491D
:1027D0000860BFF34F8F00BF00BFFEE70CED00E0C5
:1027E0000000FA052DE9F04F8BB004460E4617465F
:1027F00000F020FB804600F0AFFA8146852F6AD1B9
:102800003078012867D1D4F8100420F00100C4F812
:1028100010048021F01C01F074FFC4F80C0496F839
:10282000840096F8831040EA012AD4F80C0450453D
:102830004CD1D4F80804401CC4F8080494F80814D7
:10284000491E01F0070104EBC1108022F11CFDF7C5
:102850006FFC94F8080400F0070008BB94F810041B
:1028600000F00800E8B1002518E0B4F80004020503
:102870004FF0010BD4F80804CBEBD00002EB802022
:1028800000EB052104EB0523D9F800004FF480721A
:10289000D0F808C04846E047681CC5B2042DE4D310
:1028A0000FE00122D4F80804C2EBD000464A02EB44
:1028B0008021D8F8000023465214D0F808C04046C2
:1028C000E047012141A0FFF76AFF03E0012140A09A
:1028D000FFF765FF74E0012F72D1307804286FD1C3
:1028E00001213AA0FFF75BFF94F8080400F007000D
:1028F000B0B394F8100400F00800D0B1002515E042
:10290000B4F800040205D4F80804C00802EB8020E3
:1029100000EB052104EB0523D9F800004FF4807289
:10292000D0F808C04846E047681CC5B2042DE7D37C
:1029300016E094F8080400F0070A4FEACA1BD4F81E
:102940000804C008204901EB80200090D8F800005E
:1029500023465A46D0F808C040460099E04700BFD9
:10296000D4F8100420F00200C4F8100494F8100405
:1029700000F00800E0B1D4F8100420F00800C4F81A
:10298000100401A8FFF742F8D4F80804C00101AA16
:10299000D4F8001442F8210001A8FFF77BF80DA33A
:1029A000942212A11AA000F0E9FEFFF799F907E0BE
:1029B00019A399220DA116A000F0E0FEFFF7FCFE7E
:1029C0000BB0BDE8F08F00000050000806000000CA
:1029D00015000000446F776E6C6F616420636F6D4B
:1029E000706C65746564210D0A0000002E2E5C2E4B
:1029F0002E5C6170705C626F6F746C6F6164657285
:102A00005C626F6F745F786D6F64656D2E6300003C
:102A10005B494E464F5D200049415020757064610E
:102A2000746520636F6D706C657465642C207265CD
:102A30007374617274210D0A0000000010B5044621
:102A4000012000F014F9D4F80404B0F57A7F06D31D
:102A5000012106A0FFF7A3FE0020C4F80404D4F867
:102A60000404401CC4F8040410BD0000430000002E
:102A70002DE9F8434FF44070FEF7CCF801210846E9
:102A8000FEF7F4F801213748FEF730F83648406881
:102A900020F020003449486000F0E2F88146D9F87F
:102AA000000001684846884704464CB12FA31C2209
:102AB00036A13CA0009400F061FE2046BDE8F883FA
:102AC00000F0D8F90546286801682846884704467A
:102AD00044B136A323222DA132A0009400F04EFE73
:102AE0002046EBE700F0D0F8064630680168304633
:102AF0008847044644B135A32A2224A129A0009482
:102B000000F03CFE2046D9E700F094F9074638680B
:102B1000016838468847044644B134A331221BA1DA
:102B200020A0009400F02AFE2046C7E700F014F928
:102B30008046D8F80000016840468847044644B102
:102B400032A3382211A117A0009400F017FE2046EE
:102B5000B4E737A33C220DA13FA000F00FFE0020F8
:102B6000ACE7000000023000002004E04661696C20
:102B7000656420746F20696E6974206273702064CC
:102B8000656C61793A202564000000002E2E5C2ED1
:102B90002E5C6273705C6273705F636F6D6D6F6EDD
:102BA0002E6300005B4552524F525D004661696CD6
:102BB000656420746F20696E697420627370206987
:102BC00032635F6275733A20256400004661696C68
:102BD000656420746F20696E69742062737020656B
:102BE0006570726F6D3A2025640000004661696C63
:102BF000656420746F20696E69742062737020664A
:102C00006C6173683A202564000000004661696CBD
:102C1000656420746F20696E69742062737020652A
:102C2000787420666C6173683A20256400000000A7
:102C30003D3D3D3D3D3D205B42535020496E697412
:102C4000205375636365737366756C6C795D203DA5
:102C50003D3D3D3D3D0D0A005B494E464F5D200028
:102C6000004870470400002001460020704710B55E
:102C70000446204600F096F910BD10B504462046E3
:102C800000F0A0F910BD0000004870470C000020C3
:102C900010B5044600F0F2F80749086008460068DD
:102CA00010B96FF0040010BD082003490871606876
:102CB00000F0BEF9F7E70000140000202DE9F04114
:102CC00005460E46174698466C681CB96FF004001E
:102CD000BDE8F081A06843463A463146D0F808C0C6
:102CE0002046E047F4E72DE9F04105460E46174639
:102CF0006C681CB96FF00400BDE8F081A0683A462A
:102D00003146036820469847F6E72DE9F04105462D
:102D10000E4617466C681CB96FF00400BDE8F081E0
:102D2000A0683A463146436820469847F6E770B5B2
:102D300004460E466568E8683146026928469047B1
:102D400070BD70B504460E466568E8683146C268D5
:102D50002846904770BD00000048704728000020BA
:102D600070B504460649074800F09CF945B20DB11C
:102D7000284670BD0449606800F0DEF9F9E70000FC
:102D80009847000814050020B84700082DE9F041D5
:102D900004460E46174698466568E86843463A4634
:102DA0003146D0F814C02846E047BDE8F0812DE94F
:102DB000F04104460E4617466568E8683A463146D3
:102DC000036828469847BDE8F0812DE9F0410446A4
:102DD0000E46174698466568E86843463A463146C7
:102DE000D0F808C02846E047BDE8F0812DE9F04161
:102DF00004460E46174698466568E86843463A46D4
:102E00003146D0F804C02846E047BDE8F0812DE9FE
:102E1000F04105460E4617466C681CB96FF0040079
:102E2000BDE8F08120683A4631460368204698475D
:102E3000F6E70000004870473400002010B5044653
:102E4000606800F005F910BD2DE9F04105460E4619
:102E5000174698466C681CB96FF00400BDE8F08115
:102E6000206843463A463146D0F808C02046E0473D
:102E7000F4E70000004870473C000020004870471D
:102E80000848000810B504460249606800F0ECF8F4
:102E900010BD0000EC470008F8B504460D46164684
:102EA0001F4605480097806933462A462146D0F8D8
:102EB0001CC00148E047F8BD480500202DE9F0415D
:102EC00004460D4616460548806933462A46214683
:102ED000076A0248B847BDE8F081000048050020B5
:102EE000F8B504460D4616461F460548009780690A
:102EF00033462A462146D0F824C00148E047F8BDB1
:102F000048050020004870474400002010B50446E2
:102F10000249606800F0DCF810BD000014480008A9
:102F20000FB4F8B505466E6808A8009080210B48DC
:102F3000009B079AFEF7F0F8044600200090002C52
:102F400002DAF8BC5DF814FB802C00D98024F06A0A
:102F5000214642680148904700BFF2E7940E0020E6
:102F60002DE9F04104460D4616466768F86A314679
:102F7000C26828469047BDE8F08170B50446656890
:102F8000E96A8868804770BD2DE9F04104460D4626
:102F900016466768F86A314642682846904700201E
:102FA000BDE8F08110B5044604B910BD03E04FF44C
:102FB0007A7000F007F8201EA4F10104F7D100BFD9
:102FC000F3E7000000B970474FF0E022126942F0C9
:102FD00004024FF0E0231A61134A1268134BB2FB4C
:102FE000F3F24243521E4FF0E0235A6100229A61ED
:102FF0001A46126942F001021A6100BF4FF0E02246
:10300000116901F001021AB101F48032002AF5D0F1
:103010004FF0E022126922F001024FF0E0231A6122
:1030200000229A6100BFCEE74C00002040420F0012
:10303000024602B111B96FF004007047D1E90003F4
:10304000C2E90003014890600020F6E750480008FC
:10305000014611B96FF00400704702480860002073
:10306000FAE700006048000870B505460C4605B157
:1030700014B96FF0040070BD182221462846FDF7F0
:1030800057F80748A861204600F097F90121284623
:1030900000F060FA0121284600F082FA0020EAE7F9
:1030A0007048000870B505460C4605B114B96FF0BC
:1030B000040070BD202221462846FDF739F8034858
:1030C0002862204600F060FC0020F2E79C480008DF
:1030D000FEB505460E4605B116B96FF00400FEBDFB
:1030E000306801F027F8044614B96FF00500F6E7E0
:1030F000201D6065A0654830E065F069616D08607D
:103100000020208025662C6028223146281DFDF7EE
:103110000FF8084A07CA8DE80700306800F01CFE67
:103120000746387B5DF82000E862304600F0DCFEA0
:103130000020D4E71849000870B505460C4605B1D3
:1031400014B96FF0040070BD94E8070085E807002B
:103150000348E860204601F034F90020F3E700005E
:1031600024490008014611B96FF00400704700209F
:10317000886000BFFAE72DE9F04104460D46164687
:103180001F461CB96FF00400BDE8F08120683B4683
:1031900032462946D0F808C05020E047F4E770B521
:1031A00004460D46164614B96FF0040070BD206841
:1031B00032462946036850209847F7E72DE9F04149
:1031C00004460E4615461CB96FF00400BDE8F081B8
:1031D000227920682B46314647685020B847F5E7EA
:1031E0002DE9F04105462F212846FCF7CCFF064685
:1031F0005C212846FCF7C7FF0746BE4201D930468E
:1032000000E03846044614B1601CBDE8F081284651
:10321000FBE7014611B96FF0040070470020086019
:1032200000BFFAE72DE9F04180460D461646FDF74E
:10323000B3FB1520FDF72AFB002411E030194FF0F5
:10324000006101EB80273846FDF726FB042805D0F6
:10325000FDF762FB6FF00700BDE8F081601C84B2EF
:10326000AC42EBDBFDF758FB0020F5E703466FF0BF
:10327000040070472DE9F04781460D4616461F466B
:1032800005F0030018B16FF00400BDE8F08706F008
:10329000030010B16FF00400F7E7FDF77DFB352068
:1032A000FDF7F4FA00240FE0A20857F822102819BD
:1032B000FDF73CFB8046B8F1040F04D0FDF72CFB72
:1032C0006FF00700E1E7241DB442EDD3FDF724FBC6
:1032D0000020DAE7014611B96FF0040070470020C2
:1032E000886100BFFAE7000010B504461F49601A64
:1032F0008C4223D009DC1E48204480B1B0F5806F99
:1033000012D0B0F5006F2DD113E0B0F5806F1AD058
:10331000B0F5006F1CD0B0F5406F23D11DE0012146
:103320000420FDF7A3FC1EE001210820FDF79EFC10
:1033300019E001211020FDF799FC14E00121202063
:10334000FDF794FC0FE001214020FDF78FFC0AE01F
:1033500001218020FDF78AFC05E001210802FDF72C
:1033600085FC00E000BF00BF10BD0000001401405C
:1033700000F8FEBF38B5044614208DF80300032082
:103380008DF80200A08880B2ADF800006946206880
:10339000FDF721FBA08980B2ADF800006946A06866
:1033A000FDF719FB38BD70B505460C461646A1B2AF
:1033B00032462846FDF7EBFB70BD10B50446206889
:1033C000FFF792FFA068FFF78FFF2046FFF7D2FFBD
:1033D00010BDF8B505460C4616461F4615B96FF0E8
:1033E0000400F8BD284600F01FF96006010E2846CB
:1033F00000F0FCF86946284600F06CF83146284693
:1034000000F0F4F86946284600F064F8284600F019
:103410000BF9012000EB4400C1B2284600F0E6F8A9
:103420006946284600F056F83946284600F06BF801
:103430000121284600F0C5F8284600F00DF90020CB
:10344000CFE72DE9F84307460D4690461E46DDF8C6
:1034500020901FB96FF00400BDE8F883384600F0F3
:10346000E3F86806010E384600F0C0F869463846B1
:1034700000F030F84146384600F0B8F86946384662
:1034800000F028F8384600F0CFF8012000EB4500A6
:10349000C1B2384600F0AAF86946384600F01AF87A
:1034A000002410E009EB0401384600F02CF8701EEF
:1034B000A04201D1012000E000200146384600F082
:1034C00080F8601C84B2B442ECDB384600F0C4F8EB
:1034D0000020C1E770B504460D4614B96FF0040032
:1034E00070BD0121204600F05BF80121204600F06C
:1034F00031F82946204600F03EF80021204600F031
:1035000029F80020ECE7F8B506460C4616B96FF02E
:103510000400F8BD002020700121304600F040F882
:10352000072513E00121304600F014F869463046C3
:1035300000F021F820789DF80010A9400843207081
:103540000021304600F006F8681E45B2002DE9DA89
:103550000020DEE770B504460D4614B96FF0040094
:1035600070BD2A46D4E90001FFF71DFFD4E904012C
:1035700088470020F4E72DE9F04104460D461CB9C8
:103580006FF00400BDE8F081D4E90267B9B23046BB
:10359000FDF7F4FA2870D4E9040188470020F1E728
:1035A00070B504460D4614B96FF0040070BD2A468C
:1035B000D4E90201FFF7F7FED4E9040188470020AF
:1035C000F4E770B504460D4614B96FF0040070BD01
:1035D00029462046FFF7E4FF01212046FFF7BAFF06
:1035E00000212046FFF7B6FF0020F0E770B5054642
:1035F0000E4615B96FF0040070BD002410E0802065
:10360000204100EA06012846FFF7CAFF01212846AB
:10361000FFF7A0FF00212846FFF79CFF601CC4B203
:10362000082CECDB0020E7E710B5044614B96FF076
:10363000040010BD01212046FFF7B2FF0121204602
:10364000FFF788FF00212046FFF7AAFF0021204650
:10365000FFF780FF0020ECE710B5044614B96FF0C7
:10366000040010BD00212046FFF774FF0021204612
:10367000FFF796FF01212046FFF76CFF012120464E
:10368000FFF78EFF0020ECE7F8B504460D4616461E
:103690001F4614B96FF00400F8BD2046FFF7C4FFC1
:1036A0006806010E2046FFF7A1FF69462046FFF796
:1036B00011FF31462046FFF799FF69462046FFF784
:1036C00009FF39462046FFF791FF69462046FFF77C
:1036D00001FF2046FFF7C0FF0020DDE72DE9F8439A
:1036E00005460E4617469846DDF820901DB96FF046
:1036F0000400BDE8F8832846FFF796FF7006010E28
:103700002846FFF773FF69462846FFF7E3FE394670
:103710002846FFF76BFF69462846FFF7DBFE0024CB
:103720000AE019F804102846FFF760FF69462846AA
:10373000FFF7D0FE601C84B24445F2DB2846FFF759
:103740008BFF0020D5E7000010B5FFF7DBFB094930
:1037500008600846006800680168064800688847F5
:10376000044800680068044982680248006890477D
:1037700010BD000000000020444900080FB42DE9EE
:10378000FE4304460D4616461348006818B9BDE8C6
:10379000FE035DF814FB0EA8029080210F48029BE7
:1037A0000D9AFDF7B9FC002002900C4981F87F00CA
:1037B0002846FFF715FD80460848CDE90060064819
:1037C000006800684346224605A1876802480068F1
:1037D000B84700BFDBE7000000000020880400209D
:1037E00025732025733A25643A2025730D0A0000BD
:1037F0001CB5002001900090FFF7A6FFFFF738F9F5
:10380000FEF7D4FE08E0694601A8FEF7A9FF0348C9
:10381000DDE90021FEF736FFF5E700007400002027
:1038200070B504460D460448006A2A4621460368DE
:103830000148984770BD00001405002070B504468B
:103840000D460448006A2A462146436801489847C5
:1038500070BD00001405002070B504460D460448F4
:10386000006A2A46214683680148984770BD0000D7
:1038700014050020014611B96FF0040070470020C4
:10388000086200BFFAE770B504460D462946204697
:10389000FDF772FA08B1012070BD0020FCE70000BE
:1038A00010B504461F49601A8C4223D009DC1E481B
:1038B000204480B1B0F5806F12D0B0F5006F2DD1EB
:1038C00013E0B0F5806F1AD0B0F5006F1CD0B0F5E2
:1038D000406F23D11DE001210420FDF7C7F91EE050
:1038E00001210820FDF7C2F919E001211020FDF7A0
:1038F000BDF914E001212020FDF7B8F90FE0012106
:103900004020FDF7B3F90AE001218020FDF7AEF970
:1039100005E001210802FDF7A9F900E000BF00BFA2
:1039200010BD00000014014000F8FEBF38B5044689
:1039300003208DF8020018208DF80300208980B242
:10394000ADF8000069466068FDF745F8208B80B24D
:10395000ADF8000069466069FDF73DF848208DF834
:103960000300208A80B2ADF800006946E068FDF7E8
:1039700032F838BD70B505460C461646A1B232463F
:103980002846FDF704F970BD10B50446206800F024
:1039900011F86068FFF784FFE068FFF781FF606956
:1039A000FFF77EFF2046FFF7C1FF204600F022F818
:1039B00010BD000010B504460D48204450B1B0F5CC
:1039C000806F0CD0B0F5784F0ED101210803FDF7C0
:1039D0004DF90AE001218803FDF738F905E00121DE
:1039E000C803FDF733F900E000BF00BF10BD0000C1
:1039F00000C8FFBF10B586B004464FF48270ADF822
:103A000006000020ADF80400ADF80800ADF8120083
:103A1000A08BADF81000A07F00B100BF0020ADF872
:103A20000A00A07F00B100BF0020ADF80C004FF4E9
:103A30000070ADF80E000720ADF8140001A9206851
:103A4000FDF7A8F901212068FDF78AF906B010BD3D
:103A500070B506460C46154616B96FF0040070BDE9
:103A6000002229462046FFF785FF0020F7E770B5C2
:103A700006460C46154616B96FF0040070BD0122CB
:103A800029462046FFF776FF0020F7E72DE9F041B1
:103A900004460F4616461CB96FF00400BDE8F081DD
:103AA00000BF02212068FFF7EEFE0028F9D0D4F80D
:103AB000008039464046FDF76BF900BF00BF012189
:103AC0002068FFF7E0FE0028F9D0D4F800804046D7
:103AD000FDF75BF9054600BF06B135700020DDE754
:103AE0000FB47CB50D4800F037F90446207B00EB9D
:103AF000800101EBC0000A4901EBC000056E07A878
:103B0000019001980090AA8CE9692046069B00F07C
:103B100003FA002001907CBC5DF814FB00380140E2
:103B2000140F00202DE9F04104460D46094800F02D
:103B300013F90646307B00EB800101EBC00006491B
:103B400001EBC000076E2A462146384600F021FBF3
:103B5000BDE8F08100380140140F002070B508481E
:103B600000F0FAF80446207B00EB800101EBC00076
:103B7000044901EBC000056E284600F033FB70BD20
:103B800000380140140F002070B504460D4605486A
:103B900000F0E2F806462A462146304600F0E5F9F4
:103BA00070BD0000003801400FB47CB50D4800F036
:103BB000D3F80446207B00EB800101EBC0000A49EA
:103BC00001EBC000056E07A8019001980090AA8C37
:103BD000E9692046069B00F09FF9002001907CBC1B
:103BE0005DF814FB00440040140F00202DE9F04163
:103BF00004460D46094800F0AFF80646307B00EB5E
:103C0000800101EBC000064901EBC000076E2A46A7
:103C10002146384600F0BDFABDE8F081004400407E
:103C2000140F002070B5084800F096F80446207B79
:103C300000EB800101EBC000044901EBC000056E00
:103C4000284600F0CFFA70BD00440040140F002059
:103C500070B504460D46054800F07EF806462A4633
:103C60002146304600F081F970BD0000004400405C
:103C70000FB47CB50D4800F06FF80446207B00EBD4
:103C8000800101EBC0000A4901EBC000056E07A8E6
:103C9000019001980090AA8CE9692046069B00F0EB
:103CA0003BF9002001907CBC5DF814FB004800400B
:103CB000140F00202DE9F04104460D46094800F09C
:103CC0004BF80646307B00EB800101EBC000064953
:103CD00001EBC000076E2A462146384600F059FA2B
:103CE000BDE8F08100480040140F002070B508487E
:103CF00000F032F80446207B00EB800101EBC000AD
:103D0000044901EBC000056E284600F06BFA70BD57
:103D100000480040140F002070B504460D460548C9
:103D200000F01AF806462A462146304600F01DF9F2
:103D300070BD00000048004070B5044614B96FF033
:103D4000040070BD2568284600F01EFA002020609F
:103D5000E06200BFF5E70000024600210BE00848E2
:103D600000EB01100068904203D1054800EB011000
:103D70007047481CC1B20329F1D30020F8E70000C6
:103D8000AC48000810B504460A48844205D00A48E9
:103D9000844202D00948844204D101210846FCF73C
:103DA00045FF06E00648844203D101210220FCF7CA
:103DB0003DFF10BD00380140004400400048004075
:103DC000004C004030B58BB004462068FFF7C4FFBC
:103DD0000546A868FCF790FC2068001D00900020B4
:103DE00006900490E06901900020079080200590E3
:103DF00040F2012003900020029008900A904FF4B6
:103E0000005009906946A868FCF720FD0121A868C8
:103E1000FCF766FC012240212068FDF7A5F80BB0F5
:103E200030BD000010B504461F49601A8C4223D0F3
:103E300009DC1E48204480B1B0F5806F12D0B0F587
:103E4000006F2DD113E0B0F5806F1AD0B0F5006F80
:103E50001CD0B0F5406F23D11DE001210420FCF7F8
:103E600005FF1EE001210820FCF700FF19E00121F9
:103E70001020FCF7FBFE14E001212020FCF7F6FEE9
:103E80000FE001214020FCF7F1FE0AE00121802033
:103E9000FCF7ECFE05E001210802FCF7E7FE00E07C
:103EA00000BF00BF10BD00000014014000F8FEBFBD
:103EB00038B5044618208DF8030003208DF8020061
:103EC000A08980B2ADF800006946A068FCF783FDC8
:103ED00048208DF80300A08A80B2ADF80000694642
:103EE0002069FCF778FD38BD10B50446A068FFF7DF
:103EF00099FF2069FFF796FF206800F04DF82068D1
:103F0000FFF740FF2046FFF7D3FF204600F06CF894
:103F10002046FFF757FF10BD2DE9F04104460D463E
:103F200017469846424639462846069BFDF7F4F860
:103F300000260CE000BF80212068FDF71EF8002855
:103F4000F9D0A95D2068FDF7E1F8701C86B228461B
:103F5000FCF712F9B042EDD800BF40212068FDF710
:103F60000CF80028F9D0BDE8F0812DE9F0410446B5
:103F70000E46174600250BE0715D2068FDF7C6F878
:103F800000BF80212068FCF7F8FF0028F9D06D1CE5
:103F9000BD42F1D3BDE8F08110B50446114820447C
:103FA00068B1B0F5806F0FD0B0F5006F11D0B0F5EB
:103FB000744F13D101218803FCF758FE0FE0012153
:103FC0004804FCF743FE0AE001218804FCF73EFEAA
:103FD00005E00121C804FCF739FE00E000BF00BF86
:103FE00010BD000000BCFFBF30B585B0044620689E
:103FF000FFF7B2FE0546606801900020ADF81000A2
:104000000C20ADF80E000020ADF80C00ADF80A0051
:10401000ADF8080001A92068FDF70CF8012240F274
:1040200024412068FCF7E0FF28798DF8000001208A
:104030008DF8030094F824008DF8010094F8250011
:104040008DF802006846FCF7ADFD01212068FCF701
:104050007FFF05B030BD00002DE9F84F8246504685
:10406000FFF77AFE0546287B00EB800101EBC000DC
:104070002F4901EBC004266E00BF40F2244128689E
:10408000FCF788FF08B1012000E0002000284DD097
:1040900000BF28680088C0B2009028688088C0B23D
:1040A000009000BF00BFA868FCF7CCFB40F20121E4
:1040B000081A2188084420802088401E316A08445C
:1040C000616D4860606D08306065E16D606D8842CB
:1040D00001D1201D6065F08C2188401AB0F5007F69
:1040E00005DB2188306A0844616D086004E0306AAD
:1040F000616D086000202080606D40F20129D0F8D9
:104100000080AF6800213846FCF7EAFA00BF00BF24
:10411000386800F001000028FAD1C7F80490C7F809
:104120000C8001213846FCF7DBFA00BFBDE8F88FB0
:10413000140F002070B506463046FFF70DFE054609
:104140000DB9002070BD2C7B04EB840000EBC40093
:104150000C4901EBC00090F8640008B10020F1E7C1
:10416000012004EB840101EBC401064A02EBC1010A
:1041700081F8640004EB840000EBC400114601EBFD
:10418000C000DFE7140F002010B1002180F8641098
:104190007047F0B504460B460CB103B112B96FF08D
:1041A0000400F0BD2168D1E91507B84205D100200F
:1041B000186010606FF00A00F3E7886D0568886D7D
:1041C00040688F6D3F68C01B461C1D601660886D7F
:1041D00008308865D1E91607B84201D1081D886505
:1041E0000020DEE72DE9F041054615B90020BDE8C5
:1041F000F0812C68D4E9150188421FD0A06D0768B2
:10420000A06D4068A16D0968401A461CB6F5007F94
:1042100001D94FF40076324639460948FBF788FF4A
:10422000002007498855A06D0830A065D4E9160123
:10423000884201D1201DA0650148D8E70020D6E7BB
:104240004C100020014611B96FF0040070470020A7
:10425000C86000BFFAE770B504460D4614B96FF0A8
:10426000040070BD204600F0F6F9D4E90030A168E2
:104270001A689047206800214268D8209047290496
:10428000C1F3074021684A68002190472904C1F31F
:10429000072021684A68002190472904C8B2216894
:1042A0004A6800219047D4E90030A1689A68904795
:1042B000204600F001F90020D3E770B504460D4612
:1042C00014B96FF0040070BD204600F0C4F9D4E9C1
:1042D0000030A1681A6890472068002142682020B9
:1042E0009047206800214268C5F307409047206846
:1042F00000214268C5F307209047E8B221684A6868
:1043000000219047D4E90030A1689A689047204680
:1043100000F0D2F80020D6E710B504461E49601A16
:104320008C4223D009DC1D48204480B1B0F5806F59
:1043300012D0B0F5006F2DD113E0B0F5806F1AD018
:10434000B0F5006F1CD0B0F5406F23D11DE0012106
:104350000420FCF78BFC1DE001210820FCF786FC03
:1043600018E001211020FCF781FC13E0012120203E
:10437000FCF77CFC0EE001214020FCF777FC09E013
:1043800001218020FCF772FC04E001210802FCF707
:104390006DFC00BF00BF10BD0014014000F8FEBF5F
:1043A00038B5044610208DF8030003208DF8020074
:1043B000208980B2ADF8000069466068FCF70BFB0D
:1043C00038BD2DE9F04104466068FFF7A5FF20469F
:1043D000FFF7E6FF0127D4E90156B1B23A46284675
:1043E000FCF7D5FB00BFBDE8F0812DE9F0410446A4
:1043F0000D46174698461CB96FF00400BDE8F081E1
:10440000D4E90030A1681A6890472068002142680A
:1044100003209047206800214268C5F30740904779
:10442000206800214268C5F307209047E8B2216860
:104430004A6800219047002606E008EB0601206844
:104440004268FF209047761CBE42F6D3D4E9003084
:10445000A1689A6890470020D0E77CB504460E46D4
:10446000154614B96FF004007CBDD4E90030A16892
:104470001A6890472068002142689F209047206872
:1044800031464268FF209047206801A94268FF201A
:104490009047206869464268FF209047D4E9003081
:1044A000A1689A6890479DF800009DF8041040EAC2
:1044B000012028800020D7E738B5044614B96FF0F2
:1044C000040038BDD4E90030A1681A68904720681C
:1044D00000214268052090470E4D0AE02068694699
:1044E0004268FF2090479DF8000000F0010000B9ED
:1044F00003E0281EA5F10105F0D100BF15B96FF04A
:104500000600DEE7D4E90030A1689A6890470020F1
:10451000D7E7000040420F0010B5044614B96FF011
:10452000040010BDD4E90030A1681A6890472068E3
:1045300000214268AB209047D4E90030A1689A6816
:1045400090470020EDE72DE9F84F83460D461646CB
:104550001F464FF00008C146C246002400200090CC
:1045600005F0FF0ACAF10000C4B2C6F3072806F03E
:10457000FF09BAF1000F23D1B8F1000F06D13B4675
:1045800032462946584600F07DF861E00AE03B4695
:104590004FF480722946584600F074F805F580758E
:1045A00007F58077B8F10000A8F1010101F0FF08DC
:1045B000EDD13B464A462946584600F063F847E0AD
:1045C000B8F1000F1BD1A14512DDA9EB0400C0B268
:1045D00000903B4622462946584600F053F82544B1
:1045E00027443B4629465846009A00F04BF82FE0F6
:1045F0003B4632462946584600F044F828E0361B30
:10460000C6F3072806F0FF093B46224629465846CE
:1046100000F038F8254427440AE03B464FF4807206
:104620002946584600F02EF805F5807507F5807785
:10463000B8F10000A8F1010101F0FF08EDD1B9F1D6
:10464000000F05D03B464A462946584600F01AF866
:104650000020BDE8F88F10B5044614B96FF00400CF
:1046600010BDD4E90030A1681A6890472068002185
:10467000426806209047D4E90030A1689A689047C4
:104680000020EDE72DE9F04104460D461746984617
:104690001CB96FF00400BDE8F0812046FFF7DBFF96
:1046A000D4E90030A1681A68904720680021426868
:1046B00002209047206800214268C5F307409047D8
:1046C000206800214268C5F307209047E8B22168BE
:1046D0004A6800219047002607E018F80600216884
:1046E0004A6800219047701C86B2BE42F5D3D4E9D7
:1046F0000030A1689A6890472046FFF7DDFE002051
:10470000C9E730B502460B46002016E012F8015BFF
:1047100080EA052000210EE000F400442CB141F2B3
:10472000210484EA4004A0B203E04FF6FF7404EAD7
:1047300040004C1CA1B20829EEDB1C1EA3F10105B0
:10474000ABB2E3D130BD000031000000A84A000840
:10475000751B0008320000002C4A0008E91D000803
:10476000330000007C4A0008891E00083400000065
:10477000584A0008911C000835000000BC4A000897
:10478000D91E0008692C0008912C0008E72C0008AD
:104790000B2D0008BD2C000800380040000C014023
:1047A00000200000000C014000400000000C01400F
:1047B00000800000000000001C00002000080140F4
:1047C00000800000612D0008AF2D0008ED2D0008CD
:1047D000CB2D0008432D00082F2D00088D2D00083B
:1047E0003D2E00080F2E0008492E0008000C014045
:1047F00040000000000C01408000000001000000AB
:104800007B2C0008852E0008BD2E0008E12E000834
:10481000992E00080038014000C201000008014044
:104820000002000000080140000400009405002080
:104830009406002000010008000000000D2F000871
:10484000892F0008212F00087B2F0008612F000806
:104850009F310008BD31000877310008653100083C
:10486000253200086D320008753200081332000846
:104870002936000859360008ED35000807350008CC
:10488000C3350008D5340008D3330008433400088A
:1048900089360008DD360008D5320008513A000894
:1048A0006F3A00088D3A000875380008003801405A
:1048B00025000000580002400000000000440040B5
:1048C000260000006C00024001000000004800408B
:1048D000270000003000024002000000E13A00081A
:1048E000893B00085D3B0008253B0008393D000876
:1048F000A93B0008513C0008253C0008ED3B00089E
:10490000393D0008713C0008193D0008ED3C0008E5
:10491000B53C0008393D0008DC480008F0480008B4
:10492000044900085B440008854600084745000824
:10493000BB42000857420008EB4300081945000835
:10494000454200080D0A0D0A3D3D3D3D3D3D3D3DC2
:104950003D3D3D3D3D3D3D3D205B53797374656D6F
:1049600020696E697469616C697A696E672E2E2E92
:104970005D203D3D3D3D3D3D3D3D3D3D3D3D3D3D64
:104980003D3D0D0A0D0A00004C6F6164206669729E
:104990006D776172652066726F6D204578746572FF
:1049A0006E616C20466C6173682C20706C6561735D
:1049B0006520656E746572207468652070726F671B
:1049C00072616D206C6F636174696F6E2028312D88
:1049D0002564292E0000000049415020646F776E45
:1049E0006C6F6164206669726D7761726520746FA7
:1049F0002045787465726E616C20466C6173682C1A
:104A000020706C6561736520656E746572207468D2
:104A1000652070726F6772616D206C6F636174697D
:104A20006F6E2028312D2564292E00004941503A0F
:104A300020446F776E6C6F6164206669726D776178
:104A4000726520746F20496E7465726E616C2046C9
:104A50006C617368000000004C6F616420666972CD
:104A60006D776172652066726F6D2045787465722E
:104A70006E616C20466C6173680000004941503AD9
:104A800020446F776E6C6F6164206669726D776128
:104A9000726520746F2045787465726E616C204673
:104AA0006C617368000000004572617365204150BD
:104AB0005020706172746974696F6E0053797374F9
:104AC000656D20726573746172740000EC4A0008B1
:104AD00000000020740000004C110008604B00082A
:104AE00074000020DC1500005C11000800000000CC
:104AF00084470008000000008847000808050020DF
:104B000000000000000000002138000859380008AB
:104B10003D380008C44700083805002000000000A8
:104B2000E047000830000020044800084805002045
:104B30003C4800086405002000A24A040000000070
:104B4000000000000102030406070809000000003D
:104B5000010203040102030406070809020406080F
:04000005080000ED02
:00000001FF
