:020000040800F2
:10500000C02400201D5100089D5600089556000838
:10501000995600088D5600086159000800000000EC
:10502000000000000000000000000000A55600087D
:105030009156000800000000A1560008A95600087B
:105040003751000837510008375100083751000820
:105050003751000837510008375100083751000810
:105060003751000837510008375100083751000800
:1050700037510008375100083751000837510008F0
:1050800037510008375100083751000837510008E0
:1050900037510008375100083751000837510008D0
:1050A00037510008375100083751000837510008C0
:1050B00037510008375100083751000837510008B0
:1050C00037510008375100083751000837510008A0
:1050D00037510008C9570008375100089558000893
:1050E0003751000837510008375100080000000010
:1050F00000000000000000000000000000000000B0
:1051000037510008DFF810D000F020FA00480047BF
:10511000BD650008AFF30080C0240020064880472A
:1051200006480047FEE7FEE7FEE7FEE7FEE7FEE78C
:10513000FEE7FEE7FEE7FEE7AD5600080551000872
:10514000421C10F8011B0029FBD1801A704730B5B2
:105150000B46014600202022012409E021FA02F535
:105160009D4205D303FA02F5491B04FA02F52844CF
:10517000151EA2F10102F1DC30BD2DE9F05F0546FC
:10518000002092469B4688460646814640241BE006
:10519000284641464746224600F0F9F953465A460A
:1051A000C01A914110D311461846224600F0E0F98A
:1051B0002D1A67EB01084F4622460120002100F01E
:1051C000D7F917EB00094E41201EA4F10104DFDCE2
:1051D000484631462A464346BDE8F09F2DE9FE4F3A
:1051E000804681EA0300C00F0C46009021F0004188
:1051F00023F00045B8EB0200A94105D24046214604
:1052000090461C460B46024623F00040104347D010
:10521000270DC7F30A00C3F30A510290401A019008
:1052200040286BDAC3F3130040F4801B00989246C9
:1052300020B10023D2EB030A63EB0B0B0198594614
:10524000C0F14002504600F093F906460D46504624
:105250005946019A00F0ABF910EB080061410024B7
:1052600087EA115284EAE7731A4340D0009A62B386
:10527000019A012A4FEA075215DC001B61EB02017B
:105280004FF0004202EA0752CDE90042001C41F50E
:10529000801132462B4600F0ABF903B0BDE8F08F29
:1052A00040462146F9E7001B61EB0201001C41F575
:1052B000801300185B412018A2F5001747EB03018B
:1052C00040EAD570B6196D4111E06D084FEA360617
:1052D00045EAC0754FEA0752001B61EB0201001C52
:1052E00041F5801149084FEA30000019514132461A
:1052F0002B4603B0BDE8F04F00F06BB900980122D7
:1053000040000023D0EB020263EBE07300982146DB
:105310004FEAE074B8EB000061EB0401E9E783F0C9
:1053200000435BE781F0004158E72DE9FE4F81EA39
:10533000030404F0004421F0004100944FF0000BFE
:1053400023F0004350EA01045ED052EA03045BD02C
:10535000C3F30A54C1F30A552C44A4F2F334019464
:10536000A0FB0254C1F3130141F48011C3F31303F2
:1053700043F4801301FB024400FB034E840A970AA6
:1053800044EA815447EA8357A4FB076802958D0AD3
:1053900005FB07854FEA932C04FB0C542705029D5F
:1053A0004FEA065847EA1637B5EB08056EEB070CCF
:1053B000870E920E47EA811742EA8312A7FB020189
:1053C000B6EB0B0164EB00042B0D43EA0C335E18C3
:1053D00044EB1C50DA465146E7FB0201C5F31304C7
:1053E0004FEA0B3343EA14534FEA0432019C43EA79
:1053F0000603A4F10C040294009CCDE900B400F073
:10540000F7F803B0BDE8F08F00200146F9E72DE979
:10541000F04D81EA030404F0004B21F000451446EE
:105420004FF0000A23F0004150EA050220D054EA70
:1054300001021DD0C5F30A570246C5F31303C1F399
:105440001300C1F30A5640F4801543F48013A7EB10
:105450000608101BD64608F2FD3873EB050002D390
:1054600008F1010801E092185B41B8F1000F03DA7E
:1054700000200146BDE8F08D00204FF48011064663
:1054800084460EE0171B73EB050705D3121B63EB75
:10549000050306434CEA010C49084FEA3000921814
:1054A0005B4150EA0107EDD152EA030012D082EAD3
:1054B000040083EA0501084305D0101BAB4106D266
:1054C0000122002306E000224FF0004302E06FF0CB
:1054D000010253101AEB06004CEB085110EB0A00C6
:1054E00041EB0B01BDE8F04D00F073B8C1F30A5277
:1054F000C1F3130140F2FF3341F480119A4202DA02
:1055000000200146704740F233439A42A2F23342F0
:1055100002DC524200F03BB800F02AB830B5041E5D
:1055200071F1000404DB4FF00044404264EB0101E0
:10553000141E73F1000405DB1C464FF00043524279
:1055400063EB0403994208BF904230BD064C074DFF
:1055500006E0E06840F0010394E807009847103443
:10556000AC42F6D3FFF7D2FD586D0008686D000815
:10557000202A04DB203A00FA02F100207047914013
:10558000C2F1200320FA03F3194390407047202A08
:1055900004DB203A21FA02F00021704721FA02F3DD
:1055A000D040C2F120029140084319467047202A9A
:1055B00006DBCB17203A41FA02F043EAE07306E03B
:1055C00041FA02F3D040C2F120029140084319464B
:1055D000704710B5141E73F1000408DA401C41F145
:1055E000000192185B411A4301D120F0010010BD67
:1055F0002DE9F04D92469B4611B1B1FA81F202E0DD
:10560000B0FA80F220329046FFF7B2FF04460F4610
:1056100040EA0A0041EA0B0153465A46084313D0B8
:10562000114653EA010019D0C8F140025046FFF775
:10563000AEFF05460E46504659464246FFF798FFD4
:10564000084305D0012004E020463946BDE8F08D2E
:105650000020054346EAE0762C4337430A98630569
:10566000E40AA0EB08000022FD0A44EA47540A308D
:1056700002D500200146E9E7010510196941DDE97D
:10568000084500196941BDE8F04DA2E700BFFEE7FB
:1056900000BFFEE700BFFEE700BFFEE700BFFEE77A
:1056A00000BFFEE700BFFEE7704700001CB54248A0
:1056B000006840F001004049086000BF3E480068B3
:1056C00000F002000028F9D03B48406800F00C00D0
:1056D000082838D100BF0020019002E00198401C4A
:1056E000019001985028F9D3334840680090009801
:1056F00020F0F0000090009840F0800000902E49CB
:10570000009848600020019002E00198401C019040
:1057100001985028F9D3284840680090009820F05C
:10572000F0000090009840F090000090224900980E
:1057300048600020019002E00198401C019001980F
:105740005028F9D300BF1C48406820F003001A49D4
:105750004860642000F06DFD174800681749084054
:1057600015490860084640681549084012494860D4
:1057700008460068114908400F490860084600685B
:1057800020F480200860084640680E4908400A4915
:1057900048600846006809490840074908604FF416
:1057A0001F00886001F0BCF84FF4A0414FF000608A
:1057B00000F082FF1CBD000000100240FFFFF6FE5B
:1057C0000C00FFE8FFFF00F710B52D492D4801F050
:1057D0007EFA002852D004212A4801F05CFA2948B8
:1057E00001F0F8F90421284800F081FE40F201118F
:1057F000081A264909880844244908800846008870
:10580000401E234908442149496D48601F48406DA6
:1058100008301E4948650846406DC96D884203D16D
:105820001A48001D011F486518480088C0F500602F
:10583000FF2807DD15480088154908441349496DBC
:10584000086006E012481149496D086000200F49C0
:10585000088004210C4800F0FFFC40F201120421F2
:10586000094800F031FE0948406D042102680648ED
:1058700000F00CFE0421044800F007FD10BD0000FC
:105880000403040000380140000002400020002012
:105890000008002010B52D492D4801F018FA002805
:1058A00052D004212A4801F0F6F9294801F092F972
:1058B0000221284800F01BFE40F20111081A264977
:1058C000098808442449088008460088401E234966
:1058D00008442149496D48601F48406D08301E4901
:1058E00048650846406DC96D884203D11A48001DBD
:1058F000011F486518480088C0F50060FF2807DDD3
:1059000015480088154908441349496D086006E0A8
:1059100012481149496D086000200F490880022192
:105920000C4800F099FC40F201120221094800F0F5
:10593000CBFD0948406D02210268064800F0A6FD33
:105940000221044800F0A1FC10BD00000403040083
:1059500000480040000002406020002000180020A5
:1059600000BFFEE737B514460846064B6A46214697
:1059700000F0DCF804466946002000F068FC204690
:105980003EBD00004F62000802E008C8121F08C1B7
:10599000002AFAD170477047002001E001C1121FB0
:1059A000002AFBD1704700002DE9FF5F82B0002183
:1059B000DDE90430020DDDF840B0034318D044F6B1
:1059C0001050A2F2FF3242431514119801281FD043
:1059D000A5EB0B00401C5FEA000A4FF000064E4F9B
:1059E000DFF83891B046504615D5CAF1000413E0EF
:1059F000119801244AA3012801D16FEA0B010298F2
:105A0000119AC0E90031C0E9024206B0BDE8F09F3A
:105A1000CBF10000DFE704460021404A491842EB81
:105A20000450CDE9001012E0E00707D032463B46B3
:105A300040464946FFF779FC8046894632463B4658
:105A400010461946FFF771FC06460F466410002CFD
:105A5000EAD1DDE90401DDE90023BAF1000F06DA3D
:105A6000FFF763FC42464B46FFF75FFC05E0FFF79C
:105A7000CEFC42464B46FFF7CAFC04460E460022C7
:105A8000284BFFF74BFD03D84FF0FF30014607E0EE
:105A90000022254B20463146FFF7A0FBFFF726FDED
:105AA000102409E0002C0ADB0A220023FFF765FB23
:105AB000039B30321A55641E50EA0102F2D1641C75
:105AC000039AC4F111031444119A012A03D001224C
:105AD00008430DD10AE0084304D000204FF0110B19
:105AE000119072E7A3EB0B056D1E0DE05B4504DD25
:105AF0004FF0000205F1010504E003DA4FF0000267
:105B0000A5F10105002AECD002981199C0E90231F3
:105B1000C0E9004579E70000000014400000F03FB4
:105B2000300000000000F0430000E03F2DE9FF4F8F
:105B300095B09A46884606460025EEE1252877D19D
:105B400000242746F94A0121039400E0044316F893
:105B5000013F203B01FA03F01042F7D130782A28A8
:105B600011D06FF02F033078A0F13002092A16D837
:105B7000039A44F0020402EB820203EB4202104457
:105B8000761C0390EFE758F8042B0392002A03DAFF
:105B9000504244F40054039044F00204761C3078E0
:105BA0002E2816D116F8010F44F004042A280DD02F
:105BB0006FF02F023078A0F13003092B09D807EBE2
:105BC000870302EB4303C718761CF3E758F8047BFE
:105BD000761C30786C280FD006DC4C2817D068284B
:105BE0000DD06A2814D104E0742810D07A280FD17F
:105BF0000DE044F400140AE044F4801401E044F49D
:105C000040147278824202D104F58014761C761C0E
:105C1000307866280BD013DC582877D009DC0028B0
:105C200075D04528F6D04628F4D047281AD193E1FC
:105C300018E0632835D0642879D0652812D18BE12B
:105C4000702873D008DC6728F1D069286FD06E28DF
:105C50000DD06F2806D1ACE073282CD0752874D0F5
:105C6000782853D05246179990476D1C54E1C4F3DD
:105C70000250022809D003280DD0D8F800100428BB
:105C80000DD00D6008F1040846E1D8F80010EA17BD
:105C9000C1E90052F6E7D8F800100D80F2E70D7068
:105CA000F0E718F8041B8DF8001000208DF80100B3
:105CB000EB46012003E058F804BB4FF0FF306107CA
:105CC0004FF0000102D40DE009F101018946B9420B
:105CD0000FDA8145F8DB1BF809100029F4D108E040
:105CE00009F1010189468142FADB1BF809100029FC
:105CF000F6D103985346A0EB090721463846179A78
:105D000000F080FA284400EB090507E044E008E1D0
:105D10000DE01BF8010B524617999047B9F10109A4
:105D2000F7D2534621463846179AF2E039E00A2165
:105D3000C4F302524FF0000B0091022A06D058F82B
:105D4000040BC117032A09D00AE023E008F1070079
:105D500020F00702F2E80201904605E000B2C11708
:105D6000042A01D140B2C117002906DA0A460021EF
:105D7000404261EB02012D2202E0220504D52B22D4
:105D80008DF80420012203E0E20701D02022F7E78A
:105D9000914657E00A2100E010214FF0000B0091DE
:105DA0000BE010214FF0000B44F004040827009191
:105DB00003E008204FF0000B0090C4F30252022AC7
:105DC00005D058F8040B0021032A08D008E008F198
:105DD000070020F00702F2E80201904603E080B2DB
:105DE000042A00D1C0B24FF0000922072AD5327828
:105DF000702A07D0DDF800C08CF0100C5CEA0B0CA8
:105E000005D00EE040228DF80420012208E050EA7F
:105E1000010306D030238DF804308DF805200222CE
:105E20009146009B83F0080353EA0B030AD150EA22
:105E3000010201D1620705D530228DF804204FF010
:105E400001097F1E3278582A04D039A20C920CAA7C
:105E500002920BE03BA2F9E75B46009AFFF78DF94F
:105E60000C9B9B5C029A521E0292137050EA010234
:105E7000F2D1029804A9081A00F1200B600702D59C
:105E800024F4803400E001275F4502DDA7EB0B001E
:105E900000E0002000EB0B01009003984944401AF9
:105EA0000390E00306D453462146179A039800F066
:105EB000A9F90544002706E001A85246C05D1799DC
:105EC00090476D1C7F1C4F45F6DBE0030CD5534615
:105ED0002146179A039800F095F9054404E0302014
:105EE0005246179990476D1C0099481E0090002952
:105EF000F5DC08E00298029952460078491C0291AC
:105F0000179990476D1CBBF10001ABF1010BF1DC5F
:105F10005BE100F065F90544761C307800287FF4D9
:105F20000DAE19B02846BDE8F08F00000928010029
:105F300030313233343536373839616263646566FF
:105F400000000000303132333435363738394142C1
:105F50004344454600000000600700D4062708F1CE
:105F6000070020F00700F0E80223804603F0004C11
:105F70005FEA0C0001D097A009E0200501D596A0AA
:105F800005E0E00701D095A001E0AFF24C001390CE
:105F9000307823F0004365280CD006DC452809D072
:105FA00046281DD047287FD13BE0662818D06728B7
:105FB0007AD136E00021112F01DB112000E0781C9E
:105FC000CDE9000104A90CA8FFF7EEFCDDE90D0105
:105FD0000C9A4FF0000B07F10109109200914EE06E
:105FE0004FF000400097CDE9011004A90CA8FFF77D
:105FF000DBFCDDE90D020C9B0F994FF0000B914685
:106000001093009211B9791C00EB0109B7EB09005C
:1060100003D4C0F1FF3B07F10109A9EB0700019090
:1060200042E0012F00DA01270021112F01DD1120AC
:1060300000E03846CDE9000104A90CA8FFF7B4FC44
:10604000DDE90D010C9A00914FF0000BB94610925A
:1060500021070FD4009A4A4503DA914601E0A9F1DD
:106060000109B9F1010F05DD109AA9F10101515C97
:106070003029F4D0B84202DA10F1040F03DA01211A
:10608000CDE9011010E0002803DC8344A9EB0001F6
:1060900002E0411C494500DD8946A0EB0B00401C95
:1060A00001904FF000400290200705D40198484528
:1060B00002DB4FF0FF30019000208DF84B0002987A
:1060C0000DF14B07B0F1004F25D002200C902B2092
:1060D0000D90029800280CDA404202902D200D907D
:1060E00007E00A210298FFF732F83031029007F8F2
:1060F000011D0C99481E0C900029F2DC0298002822
:10610000EFD1791E0D980870307800F0200040F033
:10611000450007F8020D11A8C01BC01D029013987E
:10612000007800B1012000EB0901019801EBE0715A
:10613000029801440398401A401E0390E00306D4DD
:1061400053462146179A039800F05CF805441398CB
:10615000007818B15246179990476D1CE00323D57B
:1061600053462146179A039800F04CF805441BE06B
:10617000BBF1000F07DB0098584504DD1098179914
:1061800010F80B0001E01799302052469047019813
:106190000BF1010B401E05F10105019004D12E20E9
:1061A0005246179990476D1CB9F10001A9F10109F8
:1061B000DEDC05E017F8010B5246179990476D1C7D
:1061C0000299481E02900029F4DC53462146179A92
:1061D00003989EE62D0000002B0000002000000028
:1061E0002DE9F041044600251E461746880404D4D4
:1061F00005E039462020B0476D1C641EF9D52846BD
:10620000BDE8F0812DE9F041044600251E46904688
:10621000C80301D5302700E02027880404D505E015
:1062200041463846B0476D1C641EF9D52846BDE886
:10623000F08108B50021009102E00099491C00910D
:1062400000EB8001009AB2EB410FF6D308BD0A685B
:10625000531C0B601070704770B505460C46214604
:10626000284600F025F908B900BFFEE704EB8400DA
:10627000810005F10800405820F0010104EB840082
:10628000820005F10800815070BD70B505460C46CE
:106290002146284600F00CF908B900BFFEE704EBE0
:1062A0008400810005F10800405840F0010104EB32
:1062B0008400820005F10800815070BD70B505466C
:1062C0000C462146284600F0F3F808B900BFFEE767
:1062D00004EB8400810005F10800405820F0200103
:1062E00004EB8400820005F10800815070BD70B598
:1062F00004460D462946204600F0DAF808B900BFEA
:10630000FEE705EB8500810004F10800405820F00D
:10631000010105EB8500820004F108008150002195
:1063200005EB8500820004F10800815005EB850033
:10633000820004F10C00815005EB8500820004F11D
:106340001000815005EB8500820004F1140081509B
:106350006068AA000F2191400843606070BD2DE97C
:10636000F04104460D4616462946204600F0A0F8A6
:1063700008B900BFFEE705EB8500820004F11000BC
:106380003168815005EB8500820004F11400B1688A
:106390008150308A81B205EB8500820004F10C0047
:1063A000815005EB8500810004F10800475827F46F
:1063B0007C57F1687068084371690843074305EB2F
:1063C0008500810004F108004750307E01280ED17D
:1063D00005EB8500810004F10800405840F04001C1
:1063E00005EB8500820004F1080081500DE005EB0B
:1063F0008500810004F10800405820F0400105EBC1
:106400008500820004F108008150707E01280ED1C1
:1064100005EB8500810004F10800405840F0800140
:1064200005EB8500820004F1080081500DE005EBCA
:106430008500810004F10800405820F0800105EB40
:106440008500820004F108008150B07E70B905EB30
:106450008500810004F10800405820F0100105EB90
:106460008500820004F1080081500DE005EB8500F5
:10647000810004F10800405840F0100105EB850050
:10648000820004F108008150BDE8F08170B5064635
:106490000C4615462146304600F00AF808B900BF00
:1064A000FEE704EB8400810006F11400455070BD46
:1064B00002460120034B9A4202D1042900DD00204C
:1064C000704700000004024070B506460C461546B1
:1064D00021463046FFF7ECFF08B900BFFEE7A9B23E
:1064E00004EB8400820006F10C00815070BD70B591
:1064F00005460C4621462846FFF7DAFF08B900BFDB
:10650000FEE704EB8400810005F10C00405870BDEB
:10651000F0B5044616460025002201F00F0501F0F3
:10652000100707B1354300201EE0012787401F40B8
:10653000C7B122684FEA800C0F2707FA0CF7BA435D
:10654000870005FA07F73A43282904D10127874035
:106550001F40676105E0482903D1012787401F409C
:1065600027612260471CB8B20828DED3082022E049
:10657000012787401F40E7B16268A0F108074FEA92
:10658000870C0F2707FA0CF7BA43A0F10807BF00E2
:1065900005FA07F73A43282904D1012787401F400D
:1065A000676105E0482903D1012787401F40276123
:1065B0006260471CB8B21028DAD3F0BD4FF4A06077
:1065C00000F070F84FF4612000F0F2F90A2103A006
:1065D00000F03CFA01E000F067FAFCE754686973E8
:1065E0002069732074686520466C617368204120BF
:1065F000415050210D0A00002DE9F04103460D469F
:10660000164600240027A0462448006800F4E060F5
:10661000B0F5A06F15D006DCB0F5407F18D0B0F50E
:10662000806F19D110E0B0F5C06F06D0B0F5E06F03
:1066300012D100274FF0040815E001274FF003089E
:1066400011E00227B8460EE003274FF001080AE0E8
:1066500004274FF0000806E04FF4A06000F022F895
:106660000227B84600BF00BFC7F1040005FA00F4D6
:10667000C8F104010F20C8403040044324010848F9
:10668000C45403F01F01012088405911890001F111
:10669000E021C1F80001BDE8F08100000CED00E050
:1066A00000E400E002490143024A11607047000023
:1066B0000000FA050CED00E0034A0A400243034BD8
:1066C0001A60BFF34F8F704780FFFF1F08ED00E097
:1066D0002DE9F04F8BB00746002009903EA090E8CE
:1066E000004CC068CDE905BECDF810A007900FF2B0
:1066F000EC0ADAE9000ACDE9020A0FF2E00ADAE967
:10670000000ACDE9000A38484068C0F381000A90C9
:106710000A9820B1012804D0022829D103E0334986
:1067200028E0324926E03048406800F48038B8F567
:10673000803F09D12D4C2C48406800F40039B9F550
:10674000003F02D1641000E0294C27484068C0F3A4
:1067500083422548406800F0006008B142F0100212
:106760000F2A01D2921C00E0521C04FB02F101E04E
:106770001E4900BF00BF1C484068C0F3031504A8B1
:10678000465D21FA06F318484068C0F3022502A8C6
:10679000465D23FA06FC14484068C0F3C2251DF884
:1067A000056023FA06F0089037B1012F06D0022FBA
:1067B00006D0032F0AD106E0099108E0099306E00C
:1067C000CDF824C003E00898099000E000BF00BFA6
:1067D00009980BB0BDE8F08F000000000000000039
:1067E00001020304060708090010024000127A00A3
:1067F00000093D00064A02EB9011096800F01F03F2
:1068000001229A401143024B03EB90121160704732
:1068100000100240064A02EB9011096800F01F03C5
:1068200001229A409143024B03EB90121160704792
:1068300000100240064A02EB9011096800F01F03A5
:1068400001229A401143024B03EB901211607047F2
:106850000010024008B5002000212E4A126842F4C0
:1068600080322C4B1A6000BF401C2A4A126802F486
:10687000003119B94FF6FF729042F5D1254A1268DE
:1068800002F400320AB900BFFEE7224A5268214BE7
:106890005A601A4652685A601A46526842F4806238
:1068A0005A601A46526822F440325A601A465268B8
:1068B00042F440325A601A465268174B1A40154B40
:1068C0005A601A465268154B1A43124B5A601A46C0
:1068D000126842F080721A6000BF0E4A126802F01D
:1068E0000072002AF9D00B4A52680092009A22F0F6
:1068F00003020092009A42F002020092054B009AB5
:106900005A6000BF034A526802F00C02082AF9D10B
:1069100008BD000000100240FFFFC3F70000280878
:1069200010B5FFF797FF10BD0448011F4865886543
:106930004830C8650248496D08607047042000204F
:106940000008002000B587B04FF4A060FFF752FFA9
:1069500004211448FFF7CBFC13480090002001905D
:10696000124802900020039040F2011004904FF46E
:106970000050059000208DF8180001208DF81900B6
:1069800000208DF81A006A4604210648FFF7E7FC4C
:1069900004210448FFF792FC04210248FFF775FC2C
:1069A00007B000BD0000024004380140000800208C
:1069B00010B5044640F20E60FFF71CFF40F2026083
:1069C000FFF718FF4FF40073032218211D48FFF74B
:1069D0009FFD4FF48063032204211A48FFF798FDBE
:1069E000194800F001F92146174800F0ABF80021E2
:1069F000154800F088F90021134800F0A4F900219F
:106A0000114800F090F908210F4800F094F9042192
:106A10000D4800F080F940210B4800F02DF90022CC
:106A200011462520FFF7E8FD4FF44171064800F0BC
:106A300041F9FFF787FFFFF777FF034800F026F9DA
:106A400010BD000000080140003801400FB438B507
:106A500005A800901248009A0499FEF783FF0020D1
:106A6000009000240DE000BF07210E4800F013F94C
:106A70000128F9D10A48015D0A4800F0B0F8601C0D
:106A800084B20748FEF75CFBA042ECD800BF0621A9
:106A9000044800F000F90128F9D138BC5DF814FB76
:106AA000000000200038014010B51C48406D1B4913
:106AB000896D884230D01948806D4068174A926DC0
:106AC0001268801A411C16A0FFF7C0FF002408E0DE
:106AD0001248806D0068015D19A0FFF7B7FF601CC8
:106AE00084B20E48806D40680C49896D0968401A6F
:106AF000401CA042ECDC11A0FFF7A8FF0748806D06
:106B00000830064988650846806DC96D884203D102
:106B10000248001D011F886510BD000000200020F4
:106B200052656365697665642025642062797465C1
:106B30007320746869732074696D653A0D0A0000EA
:106B4000256300002DE9F04704460D460027B846AE
:106B5000B94600261D49601A8C421CD006DC1C4830
:106B6000204470B1B0F5806F1FD10FE0B0F5806F99
:106B700016D0B0F56C4F18D10320FFF7A9FD0746DA
:106B800014E00220FFF7A4FD07460FE00220FFF704
:106B90009FFD07460AE00220FFF79AFD074605E041
:106BA0000220FFF795FD074600E000BF00BF07EB9E
:106BB0005500B0FBF5F64FF6F07006EA000806F057
:106BC0000F0948EA0900A060BDE8F087004C0040CA
:106BD00000BCFFBF01464868C0F308007047C1F31E
:106BE000080242607047000010B504462049601A50
:106BF0008C4228D006DC1F48204490B1B0F5806F4D
:106C000033D117E0B0F5806F26D0B0F56C4F2CD1A2
:106C100040F20E30FFF70EFE40F20E30FFF7FAFDA5
:106C200024E040F21140FFF705FE40F21140FFF76B
:106C3000F1FD1BE040F21240FFF7FCFD40F2124074
:106C4000FFF7E8FD12E040F21340FFF7F3FD40F2DA
:106C50001340FFF7DFFD09E040F21440FFF7EAFDC3
:106C600040F21440FFF7D6FD00E000BF00BF10BDAA
:106C7000004C004000BCFFBF426922F0400242616C
:106C8000426901F040031A4342617047C16841F410
:106C90000051C160704710B5024602EB91100068C8
:106CA00001F01F040123A340184008B1012010BDCA
:106CB0000020FCE710B5C1F38912825801F01F04CF
:106CC0000123A3401A43C1F38913C25010BD70B50C
:106CD000024600230024C1F38910105801F01F065A
:106CE0000125B54000EA050302EB91500068C1F3AD
:106CF00004460125B54000EA050414B10BB101209A
:106D000070BD0020FCE7C26822F4C062C260C268A5
:106D10000A43C26070470A460021C16821F004019D
:106D20001143C1607047026922F440520261026956
:106D30000A43026170470A460021C16821F0080138
:106D40001143C1607047C26822F48052C260C268B9
:106D50000A43C26070470000686D00080000002010
:086D6000C0240000985900084E
:040000050800510599
:00000001FF
