:020000040800F2
:10800000E0230020A18100081D8A0008158A0008CD
:10801000198A0008358700086D8F000800000000ED
:10802000000000000000000000000000B381000814
:108030003D89000800000000B7810008B9810008F0
:10804000BB810008BB810008BB810008BB81000820
:10805000BB810008BB810008BB810008BB81000810
:10806000BB810008BB810008BB810008BB81000800
:10807000BB810008BB810008BB810008BB810008F0
:10808000BB810008BB810008BB810008BB810008E0
:10809000BB810008BB810008BB810008BB810008D0
:1080A000BB810008BB810008BB810008BB810008C0
:1080B000BB810008BB810008BB810008BB810008B0
:1080C000BB810008BB810008BB810008BB810008A0
:1080D000BB8100086D8D00087D8D00088D8D000826
:1080E000BB810008BB810008BB810008BB81000880
:1080F000BB810008BB810008BB810008BB81000870
:10810000BB810008BB810008BB810008BB8100085F
:108110004D8D00085D8D0008BB810008BB81000803
:10812000BB810008BB810008BB810008BB8100083F
:10813000BB810008BB810008BB810008BB8100082F
:10814000BB810008BB810008BB810008BB8100081F
:10815000BB810008BB810008BB8100089D8D000821
:10816000BB810008BB810008BB810008BB810008FF
:10817000BB810008BB810008BB810008BB810008EF
:10818000BB810008BB810008DFF810D000F032FA94
:1081900000480047C9980008AFF30080E0230020A2
:1081A0000648804706480047FEE7FEE7FEE7FEE791
:1081B000FEE7FEE7FEE7FEE7FEE7FEE7E18C0008EC
:1081C0008981000840EA01039B0703D009E008C940
:1081D000121F08C0042AFAD203E011F8013B00F88C
:1081E000013B521EF9D27047421C10F8011B0029B6
:1081F000FBD1801A704730B50B4601460020202283
:10820000012409E021FA02F59D4205D303FA02F5A3
:10821000491B04FA02F52844151EA2F10102F1DC03
:1082200030BD2DE9F05F0546002092469B4688460A
:108230000646814640241BE02846414647462246E2
:1082400000F0F9F953465A46C01A914110D311462D
:108250001846224600F0E0F92D1A67EB01084F4658
:1082600022460120002100F0D7F917EB00094E410A
:10827000201EA4F10104DFDC484631462A4643466D
:10828000BDE8F09F2DE9FE4F804681EA0300C00F54
:108290000C46009021F0004123F00045B8EB0200AD
:1082A000A94105D24046214690461C460B4602464F
:1082B00023F00040104347D0270DC7F30A00C3F353
:1082C0000A510290401A019040286BDAC3F3130060
:1082D00040F4801B0098924620B10023D2EB030AA1
:1082E00063EB0B0B01985946C0F14002504600F079
:1082F00093F906460D4650465946019A00F0ABF9EF
:1083000010EB08006141002487EA115284EAE77308
:108310001A4340D0009A62B3019A012A4FEA0752E9
:1083200015DC001B61EB02014FF0004202EA07522C
:10833000CDE90042001C41F5801132462B4600F089
:10834000ABF903B0BDE8F08F40462146F9E7001BCA
:1083500061EB0201001C41F5801300185B412018FD
:10836000A2F5001747EB030140EAD570B6196D413D
:1083700011E06D084FEA360645EAC0754FEA07522C
:10838000001B61EB0201001C41F5801149084FEA16
:1083900030000019514132462B4603B0BDE8F04F82
:1083A00000F06BB90098012240000023D0EB0202DC
:1083B00063EBE073009821464FEAE074B8EB0000ED
:1083C00061EB0401E9E783F000435BE781F00041E2
:1083D00058E72DE9FE4F81EA030404F0004421F040
:1083E000004100944FF0000B23F0004350EA0104D9
:1083F0005ED052EA03045BD0C3F30A54C1F30A55BA
:108400002C44A4F2F3340194A0FB0254C1F31301F1
:1084100041F48011C3F3130343F4801301FB0244BE
:1084200000FB034E840A970A44EA815447EA8357C3
:10843000A4FB076802958D0A05FB07854FEA932C7C
:1084400004FB0C542705029D4FEA065847EA1637ED
:10845000B5EB08056EEB070C870E920E47EA811705
:1084600042EA8312A7FB0201B6EB0B0164EB0004A6
:108470002B0D43EA0C335E1844EB1C50DA46514690
:10848000E7FB0201C5F313044FEA0B3343EA14532D
:108490004FEA0432019C43EA0603A4F10C0402945F
:1084A000009CCDE900B400F0F7F803B0BDE8F08F10
:1084B00000200146F9E72DE9F04D81EA030404F0BC
:1084C000004B21F0004514464FF0000A23F0004114
:1084D00050EA050220D054EA01021DD0C5F30A5724
:1084E0000246C5F31303C1F31300C1F30A5640F467
:1084F000801543F48013A7EB0608101BD64608F23C
:10850000FD3873EB050002D308F1010801E0921871
:108510005B41B8F1000F03DA00200146BDE8F08DA1
:1085200000204FF48011064684460EE0171B73EBC3
:10853000050705D3121B63EB050306434CEA010C48
:1085400049084FEA300092185B4150EA0107EDD12B
:1085500052EA030012D082EA040083EA05010843CC
:1085600005D0101BAB4106D20122002306E00022F9
:108570004FF0004302E06FF0010253101AEB0600C7
:108580004CEB085110EB0A0041EB0B01BDE8F04D3C
:1085900000F073B8C1F30A52C1F3130140F2FF3384
:1085A00041F480119A4202DA00200146704740F2FD
:1085B00033439A42A2F2334202DC524200F03BB80B
:1085C00000F02AB830B5041E71F1000404DB4FF04E
:1085D0000044404264EB0101141E73F1000405DB0A
:1085E0001C464FF00043524263EB0403994208BF1C
:1085F000904230BD064C074D06E0E06840F00103B4
:1086000094E8070098471034AC42F6D3FFF7C0FD5A
:10861000CCA40008ECA40008202A04DB203A00FACD
:1086200002F1002070479140C2F1200320FA03F3C9
:10863000194390407047202A04DB203A21FA02F0C7
:108640000021704721FA02F3D040C2F1200291408C
:10865000084319467047202A06DBCB17203A41FA17
:1086600002F043EAE07306E041FA02F3D040C2F1BF
:108670002002914008431946704710B5141E73F14B
:10868000000408DA401C41F1000192185B411A43D2
:1086900001D120F0010010BD2DE9F04D92469B461E
:1086A00011B1B1FA81F202E0B0FA80F220329046C4
:1086B000FFF7B2FF04460F4640EA0A0041EA0B0109
:1086C00053465A46084313D0114653EA010019D0C5
:1086D000C8F140025046FFF7AEFF05460E46504631
:1086E00059464246FFF798FF084305D0012004E0B1
:1086F00020463946BDE8F08D0020054346EAE07685
:108700002C4337430A986305E40AA0EB08000022D3
:10871000FD0A44EA47540A3002D500200146E9E741
:10872000010510196941DDE9084500196941BDE8F5
:10873000F04DA2E700BFFEE70246094B9A4201D284
:10874000084801E00648103801F000531BB1064B01
:108750000B40C36002E0044B0B4083607047000095
:1087600010640240006002407D0F7D0F21B102685D
:1087700042F00102026003E0026822F0010202609E
:1087800070470000016821F00101016000210160D3
:1087900041608160C1600161212141614A49884293
:1087A00004D13D21484A103A91608CE04649183185
:1087B000884205D14FF47461434A103A916082E0D7
:1087C00041493031884205D14FF474113E4A103A84
:1087D000916078E03C494831884205D14FF074619E
:1087E000394A103A91606EE037496031884204D1CD
:1087F0003649354A103AD16065E0334978318842CC
:1088000004D13349304A103AD1605CE02E499031AE
:10881000884204D12F492C4A103AD16053E02A49AA
:10882000A831884205D14FF03D51274A103AD16016
:1088300049E02949884204D13D21274A083A11607C
:1088400041E025491831884205D14FF47461224A2C
:10885000083A116037E020493031884205D14FF4A1
:1088600074111D4A083A11602DE01B4948318842B5
:1088700005D14FF07461184A083A116023E0164997
:108880006031884204D11149134A121F11601AE065
:1088900011497831884204D10D490F4A121F1160E5
:1088A00011E00D499031884204D10A490A4A121F49
:1088B000116008E00849A831884204D14FF03D51C9
:1088C000054A121F11607047106002403D000020F1
:1088D000400F002000003D2010640240014648681F
:1088E00080B2704710B500220268134B1A40CC6862
:1088F0000B6823434C6923438C692343CC6923438E
:108900000C6A23434C6A23438C6A23434C6B2343F6
:108910008C6B23431A430260426922F00702D1E9BB
:108920000B3423431A4342610B6943604B688360F5
:108930008B68C36010BD00003F801CF07047F0B52D
:108940000A4600210023002400BF3DE0012505FA6E
:1089500001F3156805EA03049C4234D105684F0011
:108960000326BE40B543056015794E00B540066844
:10897000354305601579012D02D01579022D16D1E8
:1089800085684F000326BE40B543856055794E008B
:10899000B540866835438560456801268E40B543FD
:1089A0004560456896798E40B6B235434560C568E6
:1089B0004F000326BE40B543C560D5794E00B54093
:1089C000C6683543C560491C1029BFD3F0BDF0B55A
:1089D000002300244D07ED0E02FA05F3CE1000F13E
:1089E000200555F826504E07F70E0F26BE40B5431A
:1089F000CF1000F1200646F82750CE1000F12005D8
:108A000055F8265045EA0304CE1000F1200545F83C
:108A10002640F0BD00BFFEE700BFFEE77047000044
:108A200070B5002100230F22C4781CB3174C2468B2
:108A300004F4E064C4F5E064C4F30721C1F1040464
:108A4000E3B20A4144789C40E1B284781440214367
:108A50000C07210E0E4C05786155047804F01F05B3
:108A60000124AC4005786D11AD0005F1E025C5F895
:108A7000004109E0047804F01F050124AC40054DD5
:108A80000678761145F8264070BD00000CED00E038
:108A900000E400E080E100E002490143024A116085
:108AA000704700000000FA050CED00E029B1064A0D
:108AB00012680243044B1A6004E0034A12688243BE
:108AC000014B1A60704700003038024029B1064A55
:108AD00012680243044B1A6004E0034A126882439E
:108AE000014B1A60704700004038024029B1064A25
:108AF00012680243044B1A6004E0034A126882437E
:108B0000014B1A607047000044380240F0B5002164
:108B100000220024022500260223324F3F6807F07E
:108B20000C0121B1042905D0082937D105E02E4FC9
:108B3000076036E02D4F076033E02A4F3F1F3F6844
:108B4000C7F38056274F3F1F3F6807F03F036EB1C2
:108B5000264FB7FBF3F7DFF88CC0ACF1040CDCF860
:108B600000C0CCF3881C07FB0CF40CE01E4FB7FBD5
:108B7000F3F7DFF870C0ACF1040CDCF800C0CCF304
:108B8000881C07FB0CF4174F3F1F3F68C7F30147D2
:108B90007F1C7D00B4FBF5F7076002E0124F076011
:108BA00000BF00BF0F4F3F6807F0F0010909104FE9
:108BB0007A5C0768D74047600A4F3F6807F4E05186
:108BC000890A0B4F7A5C4768D7408760054F3F683A
:108BD00007F46041490B064F7A5C4768D740C7608D
:108BE000F0BD0000083802400024F40000127A00B2
:108BF0003C0000200CB50020019000903448006833
:108C000040F480303249086000BF3148006800F409
:108C1000003000900198401C0190009818B901980C
:108C2000B0F5A04FF1D12A48006800F4003010B12F
:108C30000120009001E0002000900098012846D11A
:108C400023484030006840F080502149403108609E
:108C50002048006840F440401E4908601C48083025
:108C600000681B49083108600846006840F400406D
:108C700008600846006840F4A05008601648091FC4
:108C80000860081F006840F08070091F086000BF7E
:108C90000F48006800F000700028F9D040F205701D
:108CA0000E4908600A480830006820F003000849AF
:108CB000083108600846006840F00200086000BF04
:108CC00003480830006800F00C000828F8D10CBDFB
:108CD000003802400070004008544007003C024049
:108CE00010B51548006840F4700013490860134837
:108CF000006840F001001149086000200F49083168
:108D000008600E4800680E4908400C4908600D488C
:108D1000091D0860081F006820F48020091F0860F2
:108D2000002006490C310860FFF764FF064802493D
:108D30008039086010BD000088ED00E00038024076
:108D4000FFFFF6FE103000240080000810B5024836
:108D500001F0B4F910BD0000004C004010B502480D
:108D600001F0ACF910BD00000050004010B5024801
:108D700001F0A4F910BD00000010014010B5024838
:108D800001F09CF910BD00000044004010B50248FD
:108D900001F094F910BD00000048004010B50248F1
:108DA00001F08CF910BD00000014014021B182894E
:108DB00042F40052828104E082894DF6FF731A402A
:108DC000828170471AB1838A0B43838202E0838ACF
:108DD0008B438382704702460020B1F5007F00D1AB
:108DE00000BF13880B400BB1012000E0002070474A
:108DF00070B50246002400230025002040F66A16C4
:108E0000B14200D100BFC1F3421501F01F0301269A
:108E100006FA03F3012D02D19689334006E0022DB4
:108E200002D1168A334001E0968A33400C120126A3
:108E300006FA04F41688344013B10CB1012000E0A6
:108E4000002070BDF0B50346002400260025002058
:108E500040F66A17B94200D100BF1846C1F3421468
:108E600001F01F06012707FA06F5012C01D10C308D
:108E700004E0022C01D1103000E014301AB1076870
:108E80002F43076002E00768AF430760F0BD0000B2
:108E90002DE9FF4705460E460024A14600BFA04627
:108EA000B08900B100BF2C8A24F44054F0880443F8
:108EB0002C82AC8941F20C608443B088318908432C
:108EC000718908430443AC81AC8A24F44074B089AE
:108ED0000443AC826846FFF719FE2048854202D061
:108EE0001F48854202D1DDF80C9001E0DDF80890C2
:108EF000A88900F4004040B109EBC90000EB09105B
:108F000031684900B0FBF1F707E009EBC90000EB5D
:108F1000091031688900B0FBF1F76420B7FBF0F06D
:108F200004012009642101FB1078A88900F40040A5
:108F300040B1322000EBC800B0FBF1F000F00700B8
:108F4000044308E0322000EB08106421B0FBF1F08C
:108F500000F00F0004432C81BDE8FF8700100140A2
:108F600000140140C1F308028280704700BFFEE791
:108F70007CB50C001D461646014601D0601E00E07F
:108F80000020CDE90010064B6A462946304600F025
:108F9000DBF8002C02D0009A002111707CBD00008B
:108FA0004F98000802E008C8121F08C1002AFAD131
:108FB00070477047002001E001C1121F002AFBD159
:108FC000704700002DE9FF5F82B00021DDE9043029
:108FD000020DDDF840B0034318D044F61050A2F261
:108FE000FF3242431514119801281FD0A5EB0B0046
:108FF000401C5FEA000A4FF000064E4FDFF8389140
:10900000B046504615D5CAF1000413E0119801246A
:109010004AA3012801D16FEA0B010298119AC0E915
:109020000031C0E9024206B0BDE8F09FCBF100007C
:10903000DFE704460021404A491842EB0450CDE9DD
:10904000001012E0E00707D032463B464046494652
:10905000FFF7BFF98046894632463B46104619461F
:10906000FFF7B7F906460F466410002CEAD1DDE998
:109070000401DDE90023BAF1000F06DAFFF7A9F9D0
:1090800042464B46FFF7A5F905E0FFF714FA4246C2
:109090004B46FFF710FA04460E460022284BFFF716
:1090A00091FA03D84FF0FF30014607E00022254B2C
:1090B00020463146FFF7E6F8FFF76CFA102409E086
:1090C000002C0ADB0A220023FFF7ABF8039B3032A7
:1090D0001A55641E50EA0102F2D1641C039AC4F1CD
:1090E00011031444119A012A03D0012208430DD11F
:1090F0000AE0084304D000204FF0110B119072E7F2
:10910000A3EB0B056D1E0DE05B4504DD4FF0000287
:1091100005F1010504E003DA4FF00002A5F10105B5
:10912000002AECD002981199C0E90231C0E900454B
:1091300079E70000000014400000F03F300000001C
:109140000000F0430000E03F2DE9FF4F95B09A4644
:10915000884606460025EEE1252877D100242746DB
:10916000F94A0121039400E0044316F8013F203B33
:1091700001FA03F01042F7D130782A2811D06FF0AD
:109180002F033078A0F13002092A16D8039A44F050
:10919000020402EB820203EB42021044761C0390AD
:1091A000EFE758F8042B0392002A03DA504244F404
:1091B0000054039044F00204761C30782E2816D117
:1091C00016F8010F44F004042A280DD06FF02F0286
:1091D0003078A0F13003092B09D807EB870302EBA5
:1091E0004303C718761CF3E758F8047B761C3078E5
:1091F0006C280FD006DC4C2817D068280DD06A28C0
:1092000014D104E0742810D07A280FD10DE044F472
:1092100000140AE044F4801401E044F4401472782D
:10922000824202D104F58014761C761C30786628C0
:109230000BD013DC582877D009DC002875D04528DE
:10924000F6D04628F4D047281AD193E118E06328D5
:1092500035D0642879D0652812D18BE1702873D07D
:1092600008DC6728F1D069286FD06E280DD06F28F0
:1092700006D1ACE073282CD0752874D0782853D050
:109280005246179990476D1C54E1C4F302500228CE
:1092900009D003280DD0D8F8001004280DD00D6097
:1092A00008F1040846E1D8F80010EA17C1E90052B5
:1092B000F6E7D8F800100D80F2E70D70F0E718F827
:1092C000041B8DF8001000208DF80100EB460120F2
:1092D00003E058F804BB4FF0FF3061074FF0000186
:1092E00002D40DE009F101018946B9420FDA814546
:1092F000F8DB1BF809100029F4D108E009F101019D
:1093000089468142FADB1BF809100029F6D103983F
:109310005346A0EB090721463846179A00F080FA19
:10932000284400EB090507E044E008E10DE01BF8E4
:10933000010B524617999047B9F10109F7D25346EC
:1093400021463846179AF2E039E00A21C4F3025266
:109350004FF0000B0091022A06D058F8040BC117F9
:10936000032A09D00AE023E008F1070020F00702F1
:10937000F2E80201904605E000B2C117042A01D1CB
:1093800040B2C117002906DA0A460021404261EBCB
:1093900002012D2202E0220504D52B228DF80420A3
:1093A000012203E0E20701D02022F7E7914657E0CF
:1093B0000A2100E010214FF0000B00910BE010217A
:1093C0004FF0000B44F004040827009103E008204C
:1093D0004FF0000B0090C4F30252022A05D058F857
:1093E000040B0021032A08D008E008F1070020F050
:1093F0000702F2E80201904603E080B2042A00D19D
:10940000C0B24FF0000922072AD53278702A07D05F
:10941000DDF800C08CF0100C5CEA0B0C05D00EE0FF
:1094200040228DF80420012208E050EA010306D012
:1094300030238DF804308DF8052002229146009BE0
:1094400083F0080353EA0B030AD150EA010201D169
:10945000620705D530228DF804204FF001097F1EE8
:109460003278582A04D039A20C920CAA02920BE04E
:109470003BA2F9E75B46009AFEF7D3FE0C9B9B5C90
:10948000029A521E0292137050EA0102F2D102981F
:1094900004A9081A00F1200B600702D524F48034D7
:1094A00000E001275F4502DDA7EB0B0000E0002094
:1094B00000EB0B01009003984944401A0390E0032D
:1094C00006D453462146179A039800F0A9F905449B
:1094D000002706E001A85246C05D179990476D1C11
:1094E0007F1C4F45F6DBE0030CD553462146179A07
:1094F000039800F095F9054404E03020524617998E
:1095000090476D1C0099481E00900029F5DC08E08A
:109510000298029952460078491C02911799904787
:109520006D1CBBF10001ABF1010BF1DC5BE100F064
:1095300065F90544761C307800287FF40DAE19B02B
:109540002846BDE8F08F0000092801003031323391
:10955000343536373839616263646566000000006F
:109560003031323334353637383941424344454659
:1095700000000000600700D4062708F1070020F073
:109580000700F0E80223804603F0004C5FEA0C007D
:1095900001D097A009E0200501D596A005E0E007DD
:1095A00001D095A001E0AFF24C001390307823F089
:1095B000004365280CD006DC452809D046281DD07C
:1095C00047287FD13BE0662818D067287AD136E05B
:1095D0000021112F01DB112000E0781CCDE90001F2
:1095E00004A90CA8FFF7EEFCDDE90D010C9A4FF081
:1095F000000B07F10109109200914EE04FF000407E
:109600000097CDE9011004A90CA8FFF7DBFCDDE908
:109610000D020C9B0F994FF0000B91461093009296
:1096200011B9791C00EB0109B7EB090003D4C0F1B3
:10963000FF3B07F10109A9EB0700019042E0012F70
:1096400000DA01270021112F01DD112000E038464A
:10965000CDE9000104A90CA8FFF7B4FCDDE90D0178
:109660000C9A00914FF0000BB946109221070FD4CD
:10967000009A4A4503DA914601E0A9F10109B9F1DE
:10968000010F05DD109AA9F10101515C3029F4D0D8
:10969000B84202DA10F1040F03DA0121CDE901101A
:1096A00010E0002803DC8344A9EB000102E0411C28
:1096B000494500DD8946A0EB0B00401C01904FF0AE
:1096C00000400290200705D40198484502DB4FF086
:1096D000FF30019000208DF84B0002980DF14B07F0
:1096E000B0F1004F25D002200C902B200D90029855
:1096F00000280CDA404202902D200D9007E00A214C
:109700000298FEF778FD3031029007F8011D0C99A0
:10971000481E0C900029F2DC02980028EFD1791E37
:109720000D980870307800F0200040F0450007F8F0
:10973000020D11A8C01BC01D02901398007800B143
:10974000012000EB0901019801EBE071029801444E
:109750000398401A401E0390E00306D45346214666
:10976000179A039800F05CF805441398007818B134
:109770005246179990476D1CE00323D55346214666
:10978000179A039800F04CF805441BE0BBF1000F5A
:1097900007DB0098584504DD1098179910F80B0066
:1097A00001E0179930205246904701980BF1010BC8
:1097B000401E05F10105019004D12E205246179953
:1097C00090476D1CB9F10001A9F10109DEDC05E04B
:1097D00017F8010B5246179990476D1C0299481EC5
:1097E00002900029F4DC53462146179A03989EE61E
:1097F0002D0000002B000000200000002DE9F041AA
:10980000044600251E461746880404D405E0394660
:109810002020B0476D1C641EF9D52846BDE8F081B4
:109820002DE9F041044600251E469046C80301D5A7
:10983000302700E02027880404D505E0414638465B
:10984000B0476D1C641EF9D52846BDE8F0814A6812
:10985000002A06D00A68531C0B6010704868401E2E
:109860004860704770B506460D4606B115B96FF0F1
:10987000040070BD698CA88C401C814202DA6FF034
:109880000500F6E7286800F0A3FC044614B96FF061
:109890000500EEE7201D6065A0654830E065E869D9
:1098A000616D0860002020802666346028222946E9
:1098B000301DFEF787FC0348F062284600F02FFBBE
:1098C0000020D6E7B4A40008ADF5407D4FF4407009
:1098D000FFF7E2F87E497F48FFF7C4FF7E497F48E3
:1098E000FFF7C0FF7E497F48FFF7BCFF7E497F48F6
:1098F000FFF7B8FF7E497F48FFF7B4FF7E497F48F6
:10990000FFF7B0FF7348C06A0A227D498368714837
:1099100098477248C06A0A227A4983686F48984714
:109920007048C06A0A22784983686E4898476F4831
:10993000C06A0A22754983686C4898476D48C06AB6
:109940000A22734983686B4898476C48C06A0A22A8
:1099500070498368694898476FA37B226FA15D486F
:1099600000F0CCF96CA37B2274A15C4800F0C6F92E
:1099700069A37B2279A15B4800F0C0F966A37B2232
:109980007EA15A4800F0BAF963A37B2283A159480B
:1099900000F0B4F960A37B2288A1584800F0AEF92A
:1099A0004C48C06A8DA142684A4890474B48C06AFB
:1099B0008FA14268494890474A48C06A91A14268CD
:1099C000484890474948C06A93A142684748904731
:1099D0004848C06A95A14268464890474748C06ACF
:1099E00097A142684548904771E03A48C06AA0A9EB
:1099F000C2683848904758B9A0A8FEF7F5FB05465D
:109A00003448C06AA0AB2A4692A144683148A047B6
:109A10003248C06A80A9C2683048904758B980A8C7
:109A2000FEF7E2FB05462D48C06A80AB2A4690A1AE
:109A300044682A48A0472B48C06A60A9C2682948E0
:109A4000904758B960A8FEF7CFFB05462548C06A85
:109A500060AB2A468DA144682248A0472348C06ACB
:109A600040A9C2682148904758B940A8FEF7BCFBFE
:109A700005461E48C06A40AB2A468BA144681B4875
:109A8000A0471C48C06A20A9C2681A48904758B924
:109A900020A8FEF7A9FB05461648C06A20AB2A4657
:109AA00088A144681348A0471448C06A6946C26840
:109AB0001248904758B96846FEF796FB05460F488E
:109AC000C06A6B462A4686A144680C48A0478CE7CA
:109AD00034A300084C0000205CA300087C04002094
:109AE00084A30008AC080020ACA30008DC0C002014
:109AF000D4A300080C110020FCA300083C15002092
:109B0000000000200A000020140000201E00002099
:109B10002800002032000020616263000D0A5541D8
:109B200052543120767072696E7466207465737455
:109B30003A2025642025730D0A0000000D0A5541C6
:109B400052543220767072696E7466207465737434
:109B50003A2025642025730D0A0000000D0A5541A6
:109B600052543320767072696E7466207465737413
:109B70003A2025642025730D0A0000000D0A554186
:109B800052543420767072696E74662074657374F2
:109B90003A2025642025730D0A0000000D0A554166
:109BA00052543520767072696E74662074657374D1
:109BB0003A2025642025730D0A0000000D0A554146
:109BC00052543620767072696E74662074657374B0
:109BD0003A2025642025730D0A0000000D0A546800
:109BE0006973206973205541525431210D0A0000D8
:109BF0000D0A54686973206973205541525432210B
:109C00000D0A00000D0A54686973206973205541DC
:109C1000525433210D0A00000D0A546869732069FB
:109C200073205541525434210D0A00000D0A546826
:109C30006973206973205541525435210D0A000083
:109C40000D0A5468697320697320554152543621B6
:109C50000D0A00005541525431207265637620256B
:109C6000642062797465733A2025730D0A00000040
:109C70005541525432207265637620256420627902
:109C80007465733A2025730D0A0000005541525443
:109C90003320726563762025642062797465733A97
:109CA0002025730D0A00000055415254342072657E
:109CB00063762025642062797465733A2025730DDC
:109CC0000A00000055415254352072656376202504
:109CD000642062797465733A2025730D0A000000D0
:109CE000554152543620726563762025642062798E
:109CF0007465733A2025730D0A0000000FB438B55F
:109D0000044606A8009054B1E06A40B1E06A0068D9
:109D100028B1E06A03682046009A05999847002018
:109D2000009038BC5DF814FB70B5044614B96FF0B0
:109D3000040070BD2568284600F074FA00202060F9
:109D4000E06200BFF5E70000024600210DE001EBF4
:109D50004100084B53F83000904204D101EB410020
:109D600003EBC0007047481CC1B20629EFD30020A6
:109D7000F8E7000024A4000810B504460748844210
:109D800002D00748844204D101218805FEF78EFEE7
:109D900003E001214805FEF789FE10BD00100140D7
:109DA0000014014030B58FB004462068FFF7CCFFA7
:109DB0000546E868FEF7E6FCA86800902068001DEC
:109DC0000190002007900590E06902900020089023
:109DD0004FF480600690A08C401C049000200390FB
:109DE00009904FF400300A9000200B9003200C9053
:109DF00000200E900D906946E868FEF773FD012182
:109E0000E868FEF7B3FC012240212068FEF7DAFF84
:109E10000FB030BD0146002006E0012282400A401A
:109E200002B17047421CD0B21028F6DBFF20F8E7E1
:109E300010B504461F49601A8C4223D009DC1E4825
:109E4000204480B1B0F5806F12D0B0F5006F2DD1F5
:109E500013E0B0F5806F1AD0B0F5006F1CD0B0F5EC
:109E6000406F23D11DE001210846FEF71FFE1EE0D2
:109E700001210220FEF71AFE19E001210420FEF75D
:109E800015FE14E001210820FEF710FE0FE001216D
:109E90001020FEF70BFE0AE001212020FEF706FE4F
:109EA00005E001214020FEF701FE00E000BF00BFF9
:109EB00010BD0000000C02400000FEBF7CB504464F
:109EC00002208DF8040000208DF8060001208DF896
:109ED000070002208DF80500E06800906946A06840
:109EE000FEF72DFD6069009069462069FEF727FDA9
:109EF0002068FFF729FF0546E068FFF78BFF06465D
:109F00002A7D3146A068FEF762FD6069FFF782FF97
:109F100006462A7D31462069FEF759FD7CBD10B505
:109F20000446A068FFF784FF2069FFF781FF2068DF
:109F300000F04EF82068FFF71FFF2046FFF7BEFF36
:109F4000204600F083F82046FFF72CFF10BD2DE9D6
:109F5000F04104460D461746984642463946284683
:109F6000069BFFF705F800260CE000BF8021206863
:109F7000FEF731FF0028F9D0A95D2068FEF7F2FF57
:109F8000701C86B22846FEF72FF9B042EDD800BF0C
:109F900040212068FEF71FFF0028F9D0BDE8F081BE
:109FA0002DE9F04104460E46174600250BE0715D91
:109FB0002068FEF7D7FF00BF80212068FEF70BFF67
:109FC0000028F9D06D1CBD42F1D3BDE8F08100003E
:109FD00010B504461B49601A8C4225D009DC1A488A
:109FE000204490B1B0F5806F14D0B0F5006F25D14A
:109FF00015E0B0F5404F03D0B0F5444F1ED118E046
:10A0000001211020FEF772FD19E001214804FEF73E
:10A010005DFD14E001218804FEF758FD0FE00121E9
:10A02000C804FEF753FD0AE001210805FEF74EFDC6
:10A0300005E001212020FEF759FD00E000BF00BF30
:10A0400010BD00000050004000BCFFBF30B585B01F
:10A0500004462068FFF778FE0546606801900020FE
:10A06000ADF810000C20ADF80E000020ADF80C008B
:10A07000ADF80A00ADF8080001A92068FEF708FF56
:10A08000012240F224412068FEF7DCFE28798DF899
:10A09000000001208DF8030094F826008DF80100DF
:10A0A00094F827008DF802006846FEF7B9FC0121FC
:10A0B0002068FEF77BFE05B030BD00002DE9F84FAB
:10A0C00083465846FFF740FE0546687D00EB800159
:10A0D00001EBC000334901EBC004266EB6F82880BE
:10A0E00000BF40F224412868FEF782FE08B101203B
:10A0F00000E00020002852D000BF28680088C0B2CD
:10A10000009028688088C0B2009000BF00BFE86857
:10A11000FEF7E4FB08F10101081A218808442080B9
:10A120002088401E316A0844616D4860606D0830C7
:10A130006065E16D606D884201D1201D6065F08C25
:10A140002188401A404505DB2188306A0844616D4A
:10A15000086004E0306A616D086000202080606D56
:10A16000D0F8009008F101001FFA80FAEF68002192
:10A170003846FEF7FBFA00BF00BF386800F0010068
:10A180000028FAD1C7F804A0C7F80C90384629690E
:10A19000FEF7D2FA01213846FEF7E8FA00BFBDE823
:10A1A000F88F00006C1900200FB438B504460CB1CC
:10A1B000059810B938BC5DF814FB06A8009020463D
:10A1C000009A059900F0A0F80020009000BFF1E788
:10A1D00070B506463046FFF7B7FD05460DB90020BD
:10A1E00070BD6C7D04EB840000EBC4000C4901EBF6
:10A1F000C00090F8640008B10020F1E7012004EBF2
:10A20000840101EBC401064A02EBC10181F864003C
:10A2100004EB840000EBC400114601EBC000DFE753
:10A220006C19002010B1002180F864107047F0B55F
:10A2300004460B460CB103B112B96FF00400F0BD37
:10A240002168D1E91507B84205D1002018601060D7
:10A250006FF00A00F3E7886D0568886D40688F6DC0
:10A260003F68C01B461C1D601660886D08308865FD
:10A27000D1E91607B84201D1081D88650020DEE744
:10A280002DE9F04106460D4606B11DB96FF00400F8
:10A29000BDE8F0813468D4E91501884202D16FF03D
:10A2A0000A00F5E7A06DD0F80080A06D4068A16DB0
:10A2B0000968401A471C3A4641462846FDF782FF86
:10A2C0000020E855A06D0830A065D4E91601884249
:10A2D00001D1201DA0650020DAE72DE9F0410446F8
:10A2E0000D4616460CB105B11EB96FF00400BDE86D
:10A2F000F0816068FFF728FD074632462946384658
:10A30000FFF74EFE0020F2E777B581B004460D4618
:10A3100004B105B97FBD6068FFF716FD06460398D6
:10A320000090A28C2B463046E169FFF710FE00BF7B
:10A33000F0E700000010014000100E000000024095
:10A340000002000000000240000400007C00002029
:10A350007C020020000200020001000000440040D6
:10A3600000100E0000000240040000000000024047
:10A3700008000000AC040020AC060020000200022F
:10A38000000100000048004000100E0000040240E0
:10A39000000400000004024000080000DC08002067
:10A3A000DC0A00200002000200010000004C004016
:10A3B00000100E00000802400004000000080240E7
:10A3C000000800000C0D00200C0F0020000200020D
:10A3D000000100000050004000100E000008024084
:10A3E00000100000000C0240040000003C1100209E
:10A3F0003C13002000020002000100000014014094
:10A4000000100E000008024040000000000802405A
:10A41000800000006C1500206C1700200002000274
:10A4200000010000001001402500000000000008AD
:10A43000886402400008002007000000004400403B
:10A44000260000000000000888600240000800208C
:10A45000070100000048004027000000000000083D
:10A46000286002400008001007020000004C004075
:10A47000340000000000000840600240000020108E
:10A4800008030000005000403500000000000008F4
:10A490001060024020000010080400000014014079
:10A4A000470000000000000A286402400008001075
:10A4B0000805000009A30008A9A10008DBA2000804
:10A4C00081A200082FA20008299D0008ECA4000822
:10A4D000000000204C000000A48F000838A50008F0
:10A4E0004C00002094230000B48F000841424344F4
:10A4F00045464748494A4142434445464748494AF8
:10A500004142434445464748494A414243444546FF
:10A510004748494A4142434445464748494A4142DF
:10A52000434445464748494A0000000001020304ED
:08A530000102030406070809FB
:0400000508008189E5
:00000001FF
