:020000040800F2
:10000000B81B00200D010008A10C0008990C000885
:100010009D0C00081B070008AD150008000000003B
:100020000000000000000000000000008D0F00082C
:10003000C9080008000000004D0D000879100008F4
:1000400027010008270100082701000827010008F0
:1000500027010008270100082701000827010008E0
:1000600027010008270100082701000827010008D0
:1000700027010008270100082701000827010008C0
:1000800027010008270100082701000827010008B0
:1000900027010008270100082701000827010008A0
:1000A0002701000827010008270100082701000890
:1000B0002701000827010008270100082701000880
:1000C0002701000827010008270100082701000870
:1000D00027010008DD100008AD1100087D1200089E
:1000E000270100082701000827010008DFF810D0C9
:1000F00000F048FA00480047CD370008AFF3008011
:10010000B81B002080F3088870470000064880472D
:1001100006480047FEE7FEE7FEE7FEE7FEE7FEE7EC
:10012000FEE7FEE7FEE7FEE77D100008ED000008B1
:1001300040EA01039B0703D009E008C9121F08C069
:10014000042AFAD203E011F8013B00F8013B521EE9
:10015000F9D27047D2B201E000F8012B491EFBD260
:1001600070470022F6E710B513460A4604461946C2
:10017000FFF7F0FF204610BD421C10F8011B0029BC
:10018000FBD1801A704730B50B4601460020202273
:10019000012409E021FA02F59D4205D303FA02F594
:1001A000491B04FA02F52844151EA2F10102F1DCF4
:1001B00030BD2DE9F05F0546002092469B468846FB
:1001C0000646814640241BE02846414647462246D3
:1001D00000F0F9F953465A46C01A914110D311461E
:1001E0001846224600F0E0F92D1A67EB01084F4649
:1001F00022460120002100F0D7F917EB00094E41FB
:10020000201EA4F10104DFDC484631462A4643465D
:10021000BDE8F09F2DE9FE4F804681EA0300C00F44
:100220000C46009021F0004123F00045B8EB02009D
:10023000A94105D24046214690461C460B4602463F
:1002400023F00040104347D0270DC7F30A00C3F343
:100250000A510290401A019040286BDAC3F3130050
:1002600040F4801B0098924620B10023D2EB030A91
:1002700063EB0B0B01985946C0F14002504600F069
:1002800093F906460D4650465946019A00F0ABF9DF
:1002900010EB08006141002487EA115284EAE773F9
:1002A0001A4340D0009A62B3019A012A4FEA0752DA
:1002B00015DC001B61EB02014FF0004202EA07521D
:1002C000CDE90042001C41F5801132462B4600F07A
:1002D000ABF903B0BDE8F08F40462146F9E7001BBB
:1002E00061EB0201001C41F5801300185B412018EE
:1002F000A2F5001747EB030140EAD570B6196D412E
:1003000011E06D084FEA360645EAC0754FEA07521C
:10031000001B61EB0201001C41F5801149084FEA06
:1003200030000019514132462B4603B0BDE8F04F72
:1003300000F06BB90098012240000023D0EB0202CC
:1003400063EBE073009821464FEAE074B8EB0000DD
:1003500061EB0401E9E783F000435BE781F00041D2
:1003600058E72DE9FE4F81EA030404F0004421F030
:10037000004100944FF0000B23F0004350EA0104C9
:100380005ED052EA03045BD0C3F30A54C1F30A55AA
:100390002C44A4F2F3340194A0FB0254C1F31301E2
:1003A00041F48011C3F3130343F4801301FB0244AF
:1003B00000FB034E840A970A44EA815447EA8357B4
:1003C000A4FB076802958D0A05FB07854FEA932C6D
:1003D00004FB0C542705029D4FEA065847EA1637DE
:1003E000B5EB08056EEB070C870E920E47EA8117F6
:1003F00042EA8312A7FB0201B6EB0B0164EB000497
:100400002B0D43EA0C335E1844EB1C50DA46514680
:10041000E7FB0201C5F313044FEA0B3343EA14531D
:100420004FEA0432019C43EA0603A4F10C0402944F
:10043000009CCDE900B400F0F7F803B0BDE8F08F00
:1004400000200146F9E72DE9F04D81EA030404F0AC
:10045000004B21F0004514464FF0000A23F0004104
:1004600050EA050220D054EA01021DD0C5F30A5714
:100470000246C5F31303C1F31300C1F30A5640F457
:10048000801543F48013A7EB0608101BD64608F22C
:10049000FD3873EB050002D308F1010801E0921862
:1004A0005B41B8F1000F03DA00200146BDE8F08D92
:1004B00000204FF48011064684460EE0171B73EBB4
:1004C000050705D3121B63EB050306434CEA010C39
:1004D00049084FEA300092185B4150EA0107EDD11C
:1004E00052EA030012D082EA040083EA05010843BD
:1004F00005D0101BAB4106D20122002306E00022EA
:100500004FF0004302E06FF0010253101AEB0600B7
:100510004CEB085110EB0A0041EB0B01BDE8F04D2C
:1005200000F073B8C1F30A52C1F3130140F2FF3374
:1005300041F480119A4202DA00200146704740F2ED
:1005400033439A42A2F2334202DC524200F03BB8FB
:1005500000F02AB830B5041E71F1000404DB4FF03E
:100560000044404264EB0101141E73F1000405DBFA
:100570001C464FF00043524263EB0403994208BF0C
:10058000904230BD064C074D06E0E06840F00103A4
:1005900094E8070098471034AC42F6D3FFF7AAFD61
:1005A000B0410008D0410008202A04DB203A00FABC
:1005B00002F1002070479140C2F1200320FA03F3BA
:1005C000194390407047202A04DB203A21FA02F0B8
:1005D0000021704721FA02F3D040C2F1200291407D
:1005E000084319467047202A06DBCB17203A41FA08
:1005F00002F043EAE07306E041FA02F3D040C2F1B0
:100600002002914008431946704710B5141E73F13B
:10061000000408DA401C41F1000192185B411A43C2
:1006200001D120F0010010BD2DE9F04D92469B460E
:1006300011B1B1FA81F202E0B0FA80F220329046B4
:10064000FFF7B2FF04460F4640EA0A0041EA0B01F9
:1006500053465A46084313D0114653EA010019D0B5
:10066000C8F140025046FFF7AEFF05460E46504621
:1006700059464246FFF798FF084305D0012004E0A1
:1006800020463946BDE8F08D0020054346EAE07675
:100690002C4337430A986305E40AA0EB08000022C4
:1006A000FD0A44EA47540A3002D500200146E9E732
:1006B000010510196941DDE9084500196941BDE8E6
:1006C000F04DA2E770B58C1810F8015B15F0070328
:1006D00001D110F8013B2A1106D110F8012B03E0DB
:1006E00010F8016B01F8016B5B1EF9D12B0705D4E3
:1006F0000023521E0DD401F8013BFAE710F8013B2C
:10070000CB1A921C03E013F8015B01F8015B521E47
:10071000F9D5A142D8D3002070BD00BFFEE721B1BA
:10072000026842F00102026004E002684FF6FE73C4
:100730001A4002607047000001684FF6FE721140D7
:1007400001600021016041608160C1604B498842C5
:1007500008D14A490839496841F00F01474A083A27
:1007600051608AE045491431884208D1434908392B
:10077000496841F0F001414A083A51607DE03F4943
:100780002831884208D13D490839496841F47061EF
:100790003A4A083A516070E038493C31884208D101
:1007A00036490839496841F47041344A083A516081
:1007B00063E032495031884208D1304908394968EC
:1007C00041F470212D4A083A516056E02B496431BA
:1007D000884208D129490839496841F47001274AFB
:1007E000083A516049E025497831884208D12349C7
:1007F0000839496841F07061204A083A51603CE08C
:100800001F49884206D1011F096841F00F01021FEC
:10081000116032E01A491431884208D11849091F81
:10082000096841F0F001164A121F116025E01449D1
:100830002831884208D11249091F096841F47061C2
:100840000F4A121F116018E00D493C31884208D14F
:100850000B49091F096841F47041094A121F1160D0
:100860000BE007495031884207D10549091F096843
:1008700041F47021024A121F1160704708000240C3
:10088000080402400146486880B2704710B5002253
:10089000026847F6F0739A430C6A8B6823430C692D
:1008A00023434C6923438C692343CC6923434C6A1B
:1008B00023438C6A23431A430260CB6843600B686E
:1008C00083604B68C36010BD7047000030B50446BC
:1008D00004254FF4302000F085F80546042D17D18B
:1008E0000C48006940F002000A490861084644616A
:1008F000006940F0400008614FF4302000F072F8C9
:1009000005460448006941F6FD7108400149086147
:10091000284630BD0020024004200B49C96801F080
:10092000010109B101200EE00749C96801F0040185
:1009300009B1022007E00449C96801F0100109B1BA
:10094000032000E0042070470020024003480069B3
:1009500040F080000149086170470000002002401B
:1009600078B506460C46042500200090E80200F009
:1009700039F80546042D24D11348006940F00100E0
:10098000114908613480E80200F02CF80546042D76
:1009900010D1B01C0090200C00990880E80200F0F3
:1009A00021F805460848006941F6FE7108400649ED
:1009B000086106E00448006941F6FE7108400249FA
:1009C0000861284678BD0000002002400248034923
:1009D0004860034848607047230167450020024093
:1009E000AB89EFCD00B502460423FFF795FF034620
:1009F00003E0FFF791FF0346521E012B01D1002AAD
:100A0000F7D102B90523184600BD000010B5044611
:100A10002948844208D10121042000F0D9F900219D
:100A2000042000F0D5F946E02448844208D1012191
:100A3000082000F0CDF90021082000F0C9F93AE0C3
:100A40001F48844208D10121102000F0C1F9002183
:100A5000102000F0BDF92EE01A48844208D101218F
:100A6000202000F0B5F90021202000F0B1F922E0AB
:100A70001548844208D10121402000F0A9F9002145
:100A8000402000F0A5F916E01048844208D1012169
:100A9000802000F09DF90021802000F099F90AE003
:100AA0000B48844207D10121801500F091F9002103
:100AB000A01500F08DF910BD00080140000C0140A8
:100AC000001001400014014000180140001C0140CA
:100AD000002001402DE9F0410246002500260020BB
:100AE00000230024002791F803C00CF00F0591F8B3
:100AF00003C00CF0100CBCF1000F03D091F802C041
:100B00004CEA050591F800C0BCF1000F31D0146823
:100B100000202BE04FF0010C0CFA00F3B1F800C0FC
:100B20000CEA03069E4220D183004FF00F0C0CFA12
:100B300003F7BC4305FA03FC4CEA040491F803C034
:100B4000BCF1280F06D14FF0010C0CFA00FCC2F8E2
:100B500014C00AE091F803C0BCF1480F05D14FF072
:100B6000010C0CFA00FCC2F810C0401C0828D1D3BC
:100B70001460B1F800C0BCF1FF0F34DD54680020F0
:100B80002EE000F1080C4FF0010808FA0CF3B1F860
:100B900000C00CEA03069E4221D183004FF00F0CE7
:100BA0000CFA03F7BC4305FA03FC4CEA040491F881
:100BB00003C0BCF1280F05D100F1080C08FA0CF8AD
:100BC000C2F8148091F803C0BCF1480F07D100F1BE
:100BD000080C4FF0010808FA0CF8C2F81080401C0D
:100BE0000828CED35460BDE8F0810000F0B50A4675
:100BF000002300240021002500F00046B6F1004F3C
:100C000002D11D4EF16901E01B4E7168C0F303452E
:100C100083B200F44016B6F5401F08D121F0706190
:100C2000154E766826F07066134F7E6012E000F471
:100C30008016B6F5801F06D1032606FA05F4A143F7
:100C400041F0706106E0460D360103FA06F6B14345
:100C500041F0706122B1460D360103FA06F63143C8
:100C600000F00046B6F1004F02D1034EF16101E001
:100C7000014E7160F0BD00000000014002460020FE
:100C800093680B400BB1012000E0002070470AB1CF
:100C9000016100E04161704700BFFEE700BFFEE771
:100CA0007047000070B5002100230F22C47804B300
:100CB000154C246804F4E064C4F5E064210AC1F131
:100CC0000403CA40447804FA03F1847814402143B1
:100CD00009010E4C0678A155047804F01F05012483
:100CE000AC4005786D11AD0005F1E025C5F8004177
:100CF00009E0047804F01F050124AC40044D067897
:100D0000761145F8264070BD0CED00E000E400E0EF
:100D100080E100E002490143024A1160704700008F
:100D20000000FA050CED00E00648006800F4E06001
:100D300005490843001D03490860BFF34F8F00BFFA
:100D4000FEE700000CED00E00000FA05704700002F
:100D500029B1064A52690243044B5A6104E0034A2E
:100D600052698243014B5A617047000000100240F3
:100D700029B1064AD2690243044BDA6104E0034A0E
:100D8000D2698243014BDA617047000000100240D3
:100D900029B1064A12690243044B1A6104E0034A6E
:100DA00012698243014B1A61704700000010024033
:100DB00029B1064A92690243044B9A6104E0034A4E
:100DC00092698243014B9A61704700000010024013
:100DD00029B1064AD2680243044BDA6004E0034AB0
:100DE000D2688243014BDA60704700000010024075
:100DF00030B500210022002400232D4D6D6805F040
:100E00000C0121B1042905D0082923D105E0294D81
:100E1000056022E0274D05601FE0254D6D6805F453
:100E20007012234D6D6805F48034022505EB924263
:100E30001CB9214D554305600BE01D4D6D6805F44F
:100E400000351DB11C4D5543056002E0194D554359
:100E5000056002E0174D056000BF00BF144D6D68CE
:100E600005F0F0010909154D6B5C0568DD40456032
:100E70000F4D6D6805F4E061090A104D6B5C456823
:100E8000DD4085600A4D6D6805F46051C90A0B4D5F
:100E90006B5C4568DD40C560054D6D6805F44041FB
:100EA000890B074D6B5CC568B5FBF3F5056130BD7B
:100EB0000010024000127A0000093D002C010020C1
:100EC0003C01002021B1028842F04002028004E08F
:100ED00002884FF6BF731A400280704710B504466F
:100EE0001148844208D101218014FFF771FF0021CD
:100EF000A014FFF76DFF16E00C48844208D10121D1
:100F00000014FFF745FF00212014FFF741FF0AE01E
:100F10000748844207D10121C013FFF739FF0021A0
:100F2000E013FFF735FF10BD0030014000380040EE
:100F3000003C00400246002013890B400BB1012009
:100F400000E0002070470146888970478181704722
:100F500010B50022028802F441520B884C882343CA
:100F60008C882343CC8823430C8923434C89234317
:100F70008C892343CC8923431A430280838B4FF20D
:100F8000FF74234083830B8A038210BD704710B522
:100F900000F002F810BD00000CB500200190009098
:100FA0003348006840F480303149086000BF304861
:100FB000006800F4003000900198401C01900098F7
:100FC00018B90198B0F5A06FF1D12948006800F474
:100FD000003010B10120009001E000200090009846
:100FE000012843D12348006840F0100021490860DF
:100FF0000846006820F0030008600846006840F0DA
:10100000020008601A48406819494860084640686C
:1010100048600846406840F4806048600846406880
:1010200020F47C1048600846406840F4E8104860AE
:101030000846006840F08070086000BF0C480068F7
:1010400000F000700028F9D00948406820F0030043
:10105000074948600846406840F00200486000BF09
:101060000348406800F00C000828F9D10CBD0000CE
:1010700000100240002002407047000010B51348E5
:10108000006840F0010011490860084640681049B6
:1010900008400E494860084600680E4908400B4960
:1010A00008600846006820F4802008600846406810
:1010B00020F4FE0048604FF41F008860FFF767FFD0
:1010C0004FF000600449086010BD000000100240AD
:1010D0000000FFF8FFFFF6FE08ED00E038B53048ED
:1010E000046804B938BD40F224412E4800F09FF94D
:1010F000002853D02B480088C0B200902948001D1A
:101100000088C0B200902848FFF7BCFBA18C491CA6
:10111000081AA18D0844A085A08D401EE1690144F4
:1011200080200059416080200059083080210851FA
:101130008020015988200059814203D104F13000F8
:1011400080210851608CA18D401AA18C884206DB59
:10115000A18DE069014480200059016005E08020F4
:101160000059E16901600020A08500210E48FFF7C9
:10117000D6FA00BF0C485838806D00F001000028F6
:10118000F8D1A08C401C08495839C8658020005906
:101190000068486601210448FFF7C1FA00BFA1E7D3
:1011A000A0150020003801405800024038B53048F2
:1011B000446804B938BD40F224412E4800F037F9A4
:1011C000002853D02B480088C0B200902948001D49
:1011D0000088C0B200902848FFF754FBA18C491C3E
:1011E000081AA18D0844A085A08D401EE169014424
:1011F000802000594160802000590830802108512A
:101200008020015988200059814203D104F1300027
:1012100080210851608CA18D401AA18C884206DB88
:10122000A18DE069014480200059016005E0802023
:101230000059E16901600020A08500210E48FFF7F8
:101240006EFA00BF0C486C38C06E00F00100002838
:10125000F8D1A08C401C08496C39086780200059DF
:101260000068886701210448FFF759FA00BFA1E729
:10127000A0150020004400406C00024038B5304802
:10128000846804B938BD40F224412E4800F0CFF8FC
:10129000002853D02B480088C0B200902948001D78
:1012A0000088C0B200902848FFF7ECFAA18C491CD6
:1012B000081AA18D0844A085A08D401EE169014453
:1012C0008020005941608020005908308021085159
:1012D0008020015988200059814203D104F1300057
:1012E00080210851608CA18D401AA18C884206DBB8
:1012F000A18DE069014480200059016005E0802053
:101300000059E16901600020A08500210E48FFF727
:1013100006FA00BF0C483038006B00F001000028CE
:10132000F8D1A08C401C084930394863802000590E
:101330000068C86301210448FFF7F1F900BFA1E785
:10134000A0150020004800403000024021B18289F1
:1013500042F40052828104E082894DF6FF731A4004
:10136000828170471AB1838A0B43838202E0838AA9
:101370008B4383827047000010B5044620488442A6
:1013800009D101218803FFF723FD00214FF480409C
:10139000FFF71EFD32E01B48844209D101214804B9
:1013A000FFF7F6FC00214FF40030FFF7F1FC25E0D9
:1013B0001548844209D101218804FFF7E9FC002186
:1013C0004FF48020FFF7E4FC18E01048844209D174
:1013D0000121C804FFF7DCFC00214FF40020FFF7D7
:1013E000D7FC0BE00A48844208D101210805FFF729
:1013F000CFFC00214FF48010FFF7CAFC10BD0000A5
:10140000003801400044004000480040004C0040CB
:101410000050004002460020B1F5007F00D100BF1F
:1014200013880B400BB1012000E00020704770B51D
:101430000246002400230025002040F66A16B1422F
:1014400000D100BFC1F3421501F01F03012606FAC7
:1014500003F3012D02D19689334006E0022D02D11B
:10146000168A334001E0968A33400C12012606FAB0
:1014700004F41688344013B10CB1012000E00020C0
:1014800070BDF0B50346002400260025002040F67C
:101490006A17B94200D100BF1846C1F3421401F0E7
:1014A0001F06012707FA06F5012C01D10C3004E0D4
:1014B000022C01D1103000E014301AB107682F431C
:1014C000076002E00768AF430760F0BD2DE9F04711
:1014D00086B005460E460024A24600BFA14600275E
:1014E000B08900B100BF2F462C8A4CF6FF70044033
:1014F000F08804432C82AC894EF6F3100440B08887
:1015000031890843718908430443AC81AC8A4FF6A2
:10151000FF400440B0890443AC8201A8FFF768FC97
:101520001F48874202D1DDF810A001E0DDF80CA0D1
:10153000A88900F4004040B10AEBCA0000EB0A1091
:1015400031684900B0FBF1F807E00AEBCA0000EB94
:101550000A1031688900B0FBF1F86420B8FBF0F0A4
:1015600004012009642101FB1089A88900F40040CE
:1015700040B1322000EBC900B0FBF1F000F00700F1
:10158000044308E0322000EB09106421B0FBF1F0C5
:1015900000F00F0004432C8106B0BDE8F087000086
:1015A00000380140C1F308028280704700BFFEE7A7
:1015B0007CB50C001D461646014601D0601E00E0B9
:1015C0000020CDE90010064B6A462946304601F05E
:1015D00077FA002C02D0009A002111707CBD000027
:1015E000C731000810B50848FFF7C6FE0748FFF7E7
:1015F000A3F80748FFF70AFA0648FFF707FA064874
:10160000FFF76CFC10BD000000380140580002409C
:1016100000080140000C01400038004010B50F48A0
:10162000D0F88C100EA088470C48D0F88C100DA074
:1016300088470A48D0F88C100EA088470748D0F891
:101640008C1016A088470548D0F88C101FA088473A
:101650000248D0F88C1028A0884710BD0000002058
:101660000D0A00005B315D45726173652041505089
:101670000D0A00005B325D49415020646F776E6C4B
:101680006F6164207468652070726F6772616D208D
:10169000746F20466C6173680D0A00005B335D490E
:1016A000415020646F776E6C6F61642070726F6759
:1016B00072616D7320746F2065787465726E616CF1
:1016C00020466C6173680D0A000000005B345D4CBD
:1016D0006F6164696E672070726F6772616D7320ED
:1016E00066726F6D2065787465726E616C20466CF1
:1016F0006173680D0A0000005B355D5265737461AB
:1017000072740D0A0000000070B504460CB1207C14
:1017100010B94FF0FF3070BD65692846E96B884706
:10172000606901F069FE00206061207400BFF2E78B
:101730002DE9F84304460E46174698460CB1207C26
:1017400018B94FF0FF30BDE8F8836569CDF8008027
:101750003B46324650212846D5F830C0E0470020AD
:10176000F1E72DE9F04104460E4617460CB1207C06
:1017700018B94FF0FF30BDE8F08165693B4632464D
:1017800050212846D5F834C0E0470020F3E7F8B5EB
:1017900004460E4617460CB1207C10B94FF0FF30BE
:1017A000F8BD656900970823324650212846D5F8D0
:1017B00038C0E0470020F3E770B504464FF47A7074
:1017C00094FBF0F50B482946D0F88C200AA09047EE
:1017D00009E00848C0690078772801D1002070BD71
:1017E000012001F05BFD201EA4F101018CB2F0D1BB
:1017F000401EF4E7000000200D0A456E746572205B
:101800002277222077697468696E202564207365C9
:10181000636F6E647320746F20656E7465722074DC
:10182000686520636F6D6D616E64206C696E652EF6
:101830000D0A000010B50848D0F88C1007A08847A2
:101840000A482C221421836898470348D0F88C104A
:1018500007A0884710BD0000000000200D0A457257
:10186000617365204150502E0D0A00004811002080
:101870005375636365737366756C6C79206572610B
:1018800073656420415050210D0A0000014609B1E2
:10189000087810B94FF0FF3070470020087000BF83
:1018A000FAE72DE9F04105460E4617460DB12878B6
:1018B00018B94FF0FF30BDE8F081FFF787F800243A
:1018C00009E04FF0006101EB862101EB8420FEF777
:1018D000FDFF601C84B2BC42F3DBFFF737F8002049
:1018E000E9E72DE9F04104460D4616461F460CB1C6
:1018F000207818B94FF0FF30BDE8F081FFF766F8A7
:1019000006E028463168FFF72BF83F1F2D1D361DD6
:10191000002FF6D1FFF71AF80020EDE770B5044666
:101920000D46012D05D12078312802D1FFF782FF25
:101930004EE0012D1BD12078322818D12548D0F84F
:101940008C1025A08847FFF775FF2248D0F88C102F
:101950002BA088473248006840F0060030490860F4
:1019600000203049C1F80404C1F8080430E0012D1A
:101970000ED1207833280BD11648D0F88C102A4885
:1019800088472748006840F00800254908601FE0A4
:10199000012D0ED1207834280BD10E48D0F88C10B0
:1019A000224888471E48006840F020001C49086013
:1019B0000EE0012D0CD12078352809D10548D0F84A
:1019C0008C101BA08847642001F068FCFFF7ACF97D
:1019D00070BD0000000000200D0A49415020646FD6
:1019E000776E6C6F6164207468652070726F6772C7
:1019F000616D20746F20466C6173682E0D0A0000C3
:101A00000D0A506C65617365207573652062696E9F
:101A100020666F726D61742066696C652E0D0A0018
:101A20001401002090110020E04000088C400008C4
:101A30000D0A52657374617274210D0A0000000072
:101A400070B504460E46012E46D1207831283DDB84
:101A5000207839283ADC2348006820F00800214922
:101A60000860207830382049C1F800041D4800681B
:101A700040F016001B49086000201B49C1F804040F
:101A8000C1F80804D1F80014184A42F82100164899
:101A9000D0F800141648D0F88C2016A090470025E6
:101AA00009E01148B0F8000405EB001081B22048AD
:101AB000C26B90476D1C102DF3DB0B48D0F800145F
:101AC0000B48D0F88C201B4890470AE00848D0F813
:101AD0008C1019A0884704E00548D0F88C101AA093
:101AE000884770BD14010020901100206011002073
:101AF000000000200D0A45726173696E67207468EA
:101B00006520256474682070726F6772616D206251
:101B10006C6F636B206F662065787465726E616CA4
:101B200020466C6173682E2E2E0D0D0A00000000F9
:101B3000C4000020384100084E756D626572206552
:101B400072726F72210D0A0044617461206C656EBF
:101B5000677468206572726F72210D0A00000000C0
:101B600070B504460D46012D1DD12078312814DBB7
:101B70002078392811DC0F48006820F020000D493A
:101B80000860207830380C49C1F800040948006822
:101B900040F00100074908600AE00848D0F88C10BE
:101BA00007A0884704E00548D0F88C1008A08847B3
:101BB00070BD0000140100209011002000000020E2
:101BC0004E756D626572206572726F72210D0A002A
:101BD00044617461206C656E677468206572726F11
:101BE00072210D0A000000002DE9F04105460E4665
:101BF000852E6FD1287801286CD17148006820F0BB
:101C000002006F4908608021E81C00F074FE6D49F5
:101C1000C1F80C0495F8841095F8830001EB0020BE
:101C20006849D1F80C1488424FD16648D0F80804AE
:101C3000401C6449C1F8080491F80814491E01F0D9
:101C40000701604A02EBC1108022E91CFEF770FA1E
:101C50005C4890F8080400F0070008BB584800787A
:101C600000F01000E8B1002418E05648B0F8000475
:101C700003055448D0F808044FF0010CCCEBD00019
:101C800003EB802000EB04214E4800EB04224E4879
:101C90004FF48073076BB847601CC4B2042CE4DBBC
:101CA0000DE04848D0F808040122C2EBD000474AB2
:101CB00002EB802146485314424A0769B847454819
:101CC000D0F88C1044A0884704E04248D0F88C102B
:101CD00042A08847012E71D1287804286ED13D4852
:101CE000D0F88C103CA08847364890F8080400F0E3
:101CF000070078B33248007800F01000D0B100241B
:101D000015E03048B0F8000403052E48D0F8080468
:101D1000C00803EB802000EB04212A4800EB0422DA
:101D200029484FF48073076BB847601CC4B2042C79
:101D3000E7DB0FE0234890F808044007830D2148B3
:101D4000D0F80804C008214A02EB802120481D4A2F
:101D50000769B8471A48006820F00400184908606D
:101D60000846007800F01000D8B10846006820F05E
:101D7000100008601348D0F80804C0011149D1F8D8
:101D80000014174A42F8210001F008FB1148D0F86E
:101D90008C1014A08847642001F080FAFFF73EFC05
:101DA0000CE0C82001F07AFA0A48D0F88C1013A091
:101DB0008847C82001F072FAFEF7B6FFBDE8F0814F
:101DC0001401002090110020C400002000500008E1
:101DD000481100200000002006000000150000004F
:101DE00060110020446F776E6C6F616420636F6DCB
:101DF000706C65746564210D0A0000004941502033
:101E000075706461746520636F6D706C6574656472
:101E10002C2072657374617274210D0A0000000039
:101E2000014609B1087C10B94FF0FF30704700201F
:101E3000087400BFFAE72DE9F04104460D46164646
:101E40001F460CB1207C18B94FF0FF30BDE8F0817F
:101E5000204600F00EF96806010E204600F0E9F871
:101E6000204600F069F83146204600F0E2F82046AE
:101E700000F062F8204600F0FCF8012000EB45007D
:101E8000C1B2204600F0D5F8204600F055F82046B3
:101E900000F066F838700121204600F0B3F82046C3
:101EA00000F001F90020D1E72DE9F04705460E4684
:101EB00090461F46DDF820900DB1287C18B94FF0F0
:101EC000FF30BDE8F087284600F0D3F87006010E19
:101ED000284600F0AEF8284600F02EF84146284685
:101EE00000F0A7F8284600F027F8284600F0C1F8CF
:101EF000012000EB4600C1B2284600F09AF82846BF
:101F000000F01AF8002410E0284600F029F809F83B
:101F10000400781EA04201D1012000E0002001460B
:101F2000284600F06FF8601C84B2BC42ECDB284607
:101F300000F0B9F80020C4E770B50446012120463E
:101F400000F04CF80121204600F027F8204600F070
:101F500038F805460021204600F01FF8284670BDDD
:101F600070B5064600250121304600F037F80724F9
:101F70000FE00121304600F010F8304600F021F863
:101F8000A0402843C5B20021304600F006F8601E8C
:101F900044B2002CEDDA284670BD70B504460D46FB
:101FA0000CB1207C10B94FF0FF3070BDA28891B207
:101FB0002A462068FEF76BFE012001F07BF9002025
:101FC000F3E770B50446A28991B2A068FEF756FE09
:101FD0000546012001F06EF9284670BD70B5044633
:101FE0000D460CB1207C10B94FF0FF3070BDA289B6
:101FF00091B22A46A068FEF74AFE012001F05AF984
:102000000020F3E770B504460D460CB1207C10B9F2
:102010004FF0FF3070BD29462046FFF7DFFF01215A
:102020002046FFF7BAFF00212046FFF7B6FF002049
:10203000F0E770B504460E460CB1207C10B94FF0A5
:10204000FF3070BD002510E08020284100EA060125
:102050002046FFF7C3FF01212046FFF79EFF002126
:102060002046FFF79AFF681CC5B2082DECDB002064
:10207000E7E710B504460CB1207C10B94FF0FF30F3
:1020800010BD01212046FFF7A9FF01212046FFF7DF
:1020900084FF00212046FFF7A1FF00212046FFF723
:1020A0007CFF0020ECE710B504460CB1207C10B991
:1020B0004FF0FF3010BD00212046FFF76EFF0021DA
:1020C0002046FFF78BFF01212046FFF766FF012125
:1020D0002046FFF783FF0020ECE72DE9F04104469E
:1020E0000D4616461F460CB1207C18B94FF0FF3044
:1020F000BDE8F0812046FFF7BCFF6806010E2046D0
:10210000FFF797FF2046FFF717FF31462046FFF7FE
:1021100090FF2046FFF710FF39462046FFF789FF62
:102120002046FFF709FF2046FFF7BDFF0020DFE74D
:102130002DE9F04705460E4617469846DDF82090F3
:102140000DB1287C18B94FF0FF30BDE8F087284664
:10215000FFF78FFF7006010E2846FFF76AFF28463B
:10216000FFF7EAFE39462846FFF763FF2846FFF7E8
:10217000E3FE002409E019F804102846FFF759FF90
:102180002846FFF7D9FE601C84B24445F3DB28469D
:10219000FFF789FF0020D8E710B504462068B0F1AA
:1021A000005F0FD30A49206888420BD82068FDF7EA
:1021B000A9FF084960680860FFF714FA054800683D
:1021C000804704E00448D0F88C1004A0884710BD74
:1021D000FF4F002010010020000000200D0A4A756A
:1021E0006D70696E6720746F204150502066616980
:1021F0006C6564210D0A000002E008C8121F08C1C6
:10220000002AFAD170477047002001E001C1121F77
:10221000002AFBD1704770B504460D46228C91B25E
:102220002A46E069FEF733FD70BD014611B191F811
:10223000280010B94FF0FF307047002081F82800C7
:1022400000BFF9E710B5044600212046FFF7E3FF81
:1022500010BD10B5044601212046FFF7DCFF10BD7C
:1022600070B504460D4600BF02212068FEF762FEED
:102270000128F9D129462068FEF768FE00BF012138
:102280002068FEF757FE0128F9D12068FEF75BFEB3
:10229000C0B270BD0FB438B50848046814B938BC72
:1022A0005DF814FB05A800902046009A049900F000
:1022B0001BF90020009000BFF1E70000A0150020EE
:1022C00010B503480468204600F034F910BD000042
:1022D000A015002070B504460D460548066806B9ED
:1022E00070BD2A462146304600F046F900BFF7E7A8
:1022F000A01500200FB438B50848446814B938BC9C
:102300005DF814FB05A800902046009A049900F09F
:10231000EBF80020009000BFF1E70000A0150020BE
:1023200010B503484468204600F004F910BD0000D1
:10233000A015002070B504460D460548466806B94C
:1023400070BD2A462146304600F016F900BFF7E777
:10235000A01500200FB438B50848846814B938BCFB
:102360005DF814FB05A800902046009A049900F03F
:10237000BBF80020009000BFF1E70000A01500208E
:1023800010B503488468204600F0D4F810BD000062
:10239000A015002070B504460D460548866806B9AC
:1023A00070BD2A462146304600F0E6F800BFF7E748
:1023B000A0150020014611B191F8280010B94FF086
:1023C000FF307047002081F8280000BFF9E70000C7
:1023D00010B58CB0044640492068884204D10121E0
:1023E0000846FEF7B5FC10E03C492068884204D15D
:1023F00001210846FEF7ACFC07E039492068884215
:1024000003D101210846FEF7A3FC334A216891421B
:1024100001D134490EE0314A2168914202D131495B
:10242000143107E02E4A2168914202D12D49283902
:1024300000E000210846FEF77FF92068001D0190AA
:10244000002007900590E06902900020089080200D
:102450000690A08C401C04900020039009900B90E3
:102460004FF400500A901C4A2168914201D11D4945
:102470000EE01A4A2168914202D11A49143107E04C
:10248000174A2168914202D11649283900E00021FB
:10249000084601A9FEF7FAF90F4A2168914201D1D5
:1024A00010490EE00D4A2168914202D10D491431C4
:1024B00007E00B4A2168914202D10A49283900E01D
:1024C000002108460121FEF72AF901224021206857
:1024D000FEF748FF0CB010BD00380140004400403A
:1024E0000048004058000240F7B504460E46218CD3
:1024F000A0693246029BFFF75BF800250DE000BFA4
:1025000080212068FEF786FF0128F9D1A269515D7C
:102510002068FFF747F8681C85B2A069FDF72CFE1C
:10252000A842ECD800BF40212068FEF773FF0128C5
:10253000F9D1FEBD01468020435884204058834293
:1025400018D00023842040584068437084204058AD
:10255000026884204058083084235850842043580F
:1025600088204058834203D101F130008423585021
:10257000104670470020FCE72DE9F04104460E4666
:10258000174600250BE0715D2068FFF70BF800BFD0
:1025900080212068FEF73EFF0028F9D06D1CBD4267
:1025A000F1D3BDE8F08170B506460D46B46A3046F9
:1025B00000F093F92046216B8847D8212046A26B72
:1025C00090472804C0F307412046A26B9047280497
:1025D000C0F307212046A26B90472804C1B22046D1
:1025E000A26B90472046616B8847304600F0C2F8E6
:1025F00070BD70B5044614B194F8240010B94FF0C2
:10260000FF3070BDA56A2846E96B8847A06A00F0D4
:10261000F3FE0020A06284F8240000BFF1E72DE95A
:10262000F04707460D4690469946BC6A384600F08A
:1026300054F92046216B884702212046A26B90471F
:10264000C5F307412046A26B9047C5F307212046FA
:10265000A26B9047E9B22046A26B9047002606E0A5
:1026600018F806102046A26B9047701C86B24E45A3
:10267000F6DB2046616B8847384600F07BF8BDE802
:10268000F0872DE9F04707460D4690469946BC6A0B
:102690002046216B884703212046A26B9047C5F353
:1026A00007412046A26B9047C5F307212046A26B45
:1026B0009047E9B22046A26B9047002606E0FF2132
:1026C0002046A26B904708F80600761C4E45F6D3CC
:1026D0002046616B8847BDE8F0872DE9F04106464A
:1026E0000F461546B46A2046216B88479F21204635
:1026F000A26B9047FF212046A26B90473870FF21C4
:102700002046A26B9047288028884FF6FF7101EA87
:1027100000202880FF212046A26B9047298808438B
:1027200028802046616B8847BDE8F08170B5064679
:102730000D46B46A304600F0D0F82046216B884739
:1027400020212046A26B9047C5F307412046A26B8B
:102750009047C5F307212046A26B9047E9B2204677
:10276000A26B90472046616B8847304600F002F824
:1027700070BD000070B50546AC6A2046216B8847E5
:1027800005212046A26B9047084E02E0761E06B94E
:1027900007E0FF212046A26B904700F001000028CF
:1027A000F4D100BF2046616B884770BDA086010050
:1027B00070B50546AC6A2046216B8847AB212046A0
:1027C000A26B90472046616B884770BD2DE9F84F9A
:1027D00083460E4617461C464FF00008C146C246C7
:1027E00000250020009006F0FF0ACAF10000C5B2E3
:1027F000C4F3072804F0FF09BAF1000F23D1B8F1A0
:10280000000F06D1A3B23A4631465846FFF707FFFC
:1028100061E00AE04FF480733A4631465846FFF7CC
:10282000FEFE06F5807607F58077B8F10000A8F186
:10283000010101F0FF08EDD14B463A4631465846BA
:10284000FFF7EDFE47E0B8F1000F1BD1A94512DDFF
:10285000A9EB0500C0B200902B463A4631465846D7
:10286000FFF7DDFE2E442F443A4631465846009B82
:10287000FFF7D5FE2FE0A3B23A4631465846FFF7A0
:10288000CEFE28E0641BC4F3072804F0FF092B46A2
:102890003A4631465846FFF7C2FE2E442F440AE01E
:1028A0004FF480733A4631465846FFF7B8FE06F5B6
:1028B000807607F58077B8F10000A8F1010101F0FA
:1028C000FF08EDD1B9F1000F05D04B463A4631462D
:1028D0005846FFF7A4FEBDE8F88F70B50546AC6A10
:1028E0002046216B884706212046A26B9047204650
:1028F000616B884770BD70B502460B46002041F2FF
:10290000210414E0157880EA052000210CE000F491
:1029100000451DB184EA4005A8B203E04FF6FF75FB
:1029200005EA40004D1CE9B20829F0DB521C1D1ECF
:10293000A3F10106B3B2E5D170BD00002DE9FF5F40
:1029400082B00021DDE90430020DDDF840B0034320
:1029500018D044F61050A2F2FF32424315141198D9
:1029600001281FD0A5EB0B00401C5FEA000A4FF0C6
:1029700000064E4FDFF83891B046504615D5CAF1E3
:10298000000413E0119801244AA3012801D16FEA41
:102990000B010298119AC0E90031C0E9024206B069
:1029A000BDE8F09FCBF10000DFE704460021404A7C
:1029B000491842EB0450CDE9001012E0E00707D0BF
:1029C00032463B4640464946FDF7CBFC80468946A9
:1029D00032463B4610461946FDF7C3FC06460F46F5
:1029E0006410002CEAD1DDE90401DDE90023BAF12D
:1029F000000F06DAFDF7B5FC42464B46FDF7B1FC89
:102A000005E0FDF720FD42464B46FDF71CFD044660
:102A10000E460022284BFDF79DFD03D84FF0FF30F6
:102A2000014607E00022254B20463146FDF7F2FB28
:102A3000FDF778FD102409E0002C0ADB0A220023B0
:102A4000FDF7B7FB039B30321A55641E50EA0102B2
:102A5000F2D1641C039AC4F111031444119A012A9F
:102A600003D0012208430DD10AE0084304D000201E
:102A70004FF0110B119072E7A3EB0B056D1E0DE0EB
:102A80005B4504DD4FF0000205F1010504E003DAC7
:102A90004FF00002A5F10105002AECD0029811992F
:102AA000C0E90231C0E9004579E7000000001440A8
:102AB0000000F03F300000000000F0430000E03F65
:102AC0002DE9FF4F95B09A46884606460025EEE16F
:102AD000252877D100242746F94A0121039400E0F4
:102AE000044316F8013F203B01FA03F01042F7D1EE
:102AF00030782A2811D06FF02F033078A0F13002FF
:102B0000092A16D8039A44F0020402EB820203EB6E
:102B100042021044761C0390EFE758F8042B03920E
:102B2000002A03DA504244F40054039044F00204B3
:102B3000761C30782E2816D116F8010F44F00404C4
:102B40002A280DD06FF02F023078A0F13003092B26
:102B500009D807EB870302EB4303C718761CF3E79A
:102B600058F8047B761C30786C280FD006DC4C2893
:102B700017D068280DD06A2814D104E0742810D02A
:102B80007A280FD10DE044F400140AE044F48014D4
:102B900001E044F440147278824202D104F58014BA
:102BA000761C761C307866280BD013DC582877D03A
:102BB00009DC002875D04528F6D04628F4D04728EF
:102BC0001AD193E118E0632835D0642879D06528BC
:102BD00012D18BE1702873D008DC6728F1D0692806
:102BE0006FD06E280DD06F2806D1ACE073282CD0A2
:102BF000752874D0782853D05246179990476D1C89
:102C000054E1C4F30250022809D003280DD0D8F8AB
:102C1000001004280DD00D6008F1040846E1D8F832
:102C20000010EA17C1E90052F6E7D8F800100D804D
:102C3000F2E70D70F0E718F8041B8DF80010002083
:102C40008DF80100EB46012003E058F804BB4FF07B
:102C5000FF3061074FF0000102D40DE009F10101DE
:102C60008946B9420FDA8145F8DB1BF809100029C3
:102C7000F4D108E009F1010189468142FADB1BF831
:102C800009100029F6D103985346A0EB0907214605
:102C90003846179A00F080FA284400EB090507E04F
:102CA00044E008E10DE01BF8010B524617999047EC
:102CB000B9F10109F7D2534621463846179AF2E096
:102CC00039E00A21C4F302524FF0000B0091022AAE
:102CD00006D058F8040BC117032A09D00AE023E0F4
:102CE00008F1070020F00702F2E80201904605E033
:102CF00000B2C117042A01D140B2C117002906DA77
:102D00000A460021404261EB02012D2202E0220529
:102D100004D52B228DF80420012203E0E20701D024
:102D20002022F7E7914657E00A2100E010214FF0FA
:102D3000000B00910BE010214FF0000B44F0040455
:102D40000827009103E008204FF0000B0090C4F327
:102D50000252022A05D058F8040B0021032A08D099
:102D600008E008F1070020F00702F2E802019046AF
:102D700003E080B2042A00D1C0B24FF0000922075C
:102D80002AD53278702A07D0DDF800C08CF0100CFC
:102D90005CEA0B0C05D00EE040228DF804200122E5
:102DA00008E050EA010306D030238DF804308DF896
:102DB000052002229146009B83F0080353EA0B038F
:102DC0000AD150EA010201D1620705D530228DF8FF
:102DD00004204FF001097F1E3278582A04D039A20E
:102DE0000C920CAA02920BE03BA2F9E75B46009A18
:102DF000FDF7DFF90C9B9B5C029A521E0292137046
:102E000050EA0102F2D1029804A9081A00F1200B3D
:102E1000600702D524F4803400E001275F4502DD1D
:102E2000A7EB0B0000E0002000EB0B0100900398E3
:102E30004944401A0390E00306D453462146179AAA
:102E4000039800F0A9F90544002706E001A85246BE
:102E5000C05D179990476D1C7F1C4F45F6DBE00362
:102E60000CD553462146179A039800F095F905446E
:102E700004E030205246179990476D1C0099481E77
:102E800000900029F5DC08E002980299524600788B
:102E9000491C0291179990476D1CBBF10001ABF1E1
:102EA000010BF1DC5BE100F065F90544761C30783C
:102EB00000287FF40DAE19B02846BDE8F08F000061
:102EC0000928010030313233343536373839616200
:102ED00063646566000000003031323334353637C4
:102EE000383941424344454600000000600700D4A1
:102EF000062708F1070020F00700F0E802238046CB
:102F000003F0004C5FEA0C0001D097A009E0200517
:102F100001D596A005E0E00701D095A001E0AFF251
:102F20004C001390307823F0004365280CD006DC69
:102F3000452809D046281DD047287FD13BE0662888
:102F400018D067287AD136E00021112F01DB11203B
:102F500000E0781CCDE9000104A90CA8FFF7EEFC05
:102F6000DDE90D010C9A4FF0000B07F101091092F9
:102F700000914EE04FF000400097CDE9011004A908
:102F80000CA8FFF7DBFCDDE90D020C9B0F994FF05D
:102F9000000B91461093009211B9791C00EB0109C6
:102FA000B7EB090003D4C0F1FF3B07F10109A9EB1E
:102FB0000700019042E0012F00DA01270021112FC4
:102FC00001DD112000E03846CDE9000104A90CA87C
:102FD000FFF7B4FCDDE90D010C9A00914FF0000BF6
:102FE000B946109221070FD4009A4A4503DA914658
:102FF00001E0A9F10109B9F1010F05DD109AA9F16C
:103000000101515C3029F4D0B84202DA10F1040F0A
:1030100003DA0121CDE9011010E0002803DC83442C
:10302000A9EB000102E0411C494500DD8946A0EB07
:103030000B00401C01904FF000400290200705D487
:103040000198484502DB4FF0FF30019000208DF8D9
:103050004B0002980DF14B07B0F1004F25D0022034
:103060000C902B200D90029800280CDA4042029020
:103070002D200D9007E00A210298FDF784F83031E9
:10308000029007F8011D0C99481E0C900029F2DCF3
:1030900002980028EFD1791E0D980870307800F062
:1030A000200040F0450007F8020D11A8C01BC01D0C
:1030B00002901398007800B1012000EB09010198FB
:1030C00001EBE071029801440398401A401E0390FE
:1030D000E00306D453462146179A039800F05CF8A3
:1030E00005441398007818B15246179990476D1C03
:1030F000E00323D553462146179A039800F04CF875
:1031000005441BE0BBF1000F07DB0098584504DDC8
:103110001098179910F80B0001E0179930205246CB
:10312000904701980BF1010B401E05F1010501903C
:1031300004D12E205246179990476D1CB9F1000119
:10314000A9F10109DEDC05E017F8010B52461799D9
:1031500090476D1C0299481E02900029F4DC5346EA
:103160002146179A03989EE62D0000002B000000D0
:10317000200000002DE9F041044600251E461746B8
:10318000880404D405E039462020B0476D1C641E35
:10319000F9D52846BDE8F0812DE9F0410446002527
:1031A0001E469046C80301D5302700E0202788043A
:1031B00004D505E041463846B0476D1C641EF9D57C
:1031C0002846BDE8F0814A68002A06D00A68531CE8
:1031D0000B6010704868401E4860704710B54FF48F
:1031E000FA60FEF7E9FA401C38B90848D0F88C10AC
:1031F00007A088470B48FEF7CFFF0448D0F88C1093
:1032000009A08847FEF70AFA10BD00000000002060
:103210000D0A4A756D7020746F20415050210D0ABF
:1032200000000000005000080D0A456E7465722011
:1032300074686520636F6D6D616E64206C696E6586
:103240002E0D0A0070B504460D461348006820B9DB
:1032500029462046FEF762FB1CE00F48007800F08C
:10326000040020B129462046FEF7BEFC12E00A48C1
:10327000007800F0080020B129462046FEF7E0FB68
:1032800008E00548007800F0200018B129462046E3
:10329000FEF766FC70BD00001401002010B5044666
:1032A00003E04FF47A7000F005F8201EA4F1010449
:1032B000F7D110BD01464FF0E022126942F004023E
:1032C0004FF0E0231A61134A1268134BB2FBF3F27A
:1032D0004A43521E4FF0E0235A6100229A611A4677
:1032E000126942F001021A6100BF4FF0E02210693A
:1032F00000F001021AB100F48032002AF5D04FF03C
:10330000E022126922F001024FF0E0231A6100224C
:103310009A6170471801002040420F0070B50446C2
:1033200014B94FF0FF3070BD402000F0C1FA606169
:10333000606910B94FF0FF30F5E7656920682860D3
:1033400060686860A068A860E068E860284600F0EF
:1033500059F90648A0610648E0610648206206481F
:103360006062012020740020DDE700006317000880
:103370008F170008311700080917000810B5302111
:103380000448FCF7EEFE0448024B30220021046A98
:10339000A04710BD601100209C00002070B5094DB1
:1033A00000240BE005EBC402E006010E0648C369E9
:1033B00098470520FFF772FF601CC4B2062CF1D3BA
:1033C00070BD0000601100209C000020014611B972
:1033D0004FF0FF3070470548886005480861054890
:1033E0004861012008700020F4E70000A3180008DD
:1033F000E31800088D18000810B5002821D0114BE3
:103400000022001F196803E0814203D80A46496878
:103410000029F9D152B11368841A9C4204D1006882
:1034200018441060104602E0506000E0186039B1A6
:1034300002680B1A934203D10B681A440260496870
:10344000416010BD4001002070B53C48D0F8000438
:103450003B4D55F820203948D0F800143948D0F8B1
:103460008C3039A098473548D0F80004294611F827
:10347000200000F00300002853D1FEF7DBF9002400
:1034800016E02E48B0F80004000500EB84213A480D
:103490004FF48063294A056CA847384800EB842123
:1034A00037484FF48063254A0569A847601CC4B2B9
:1034B0002248D0F80004224951F82000B4EB902FA4
:1034C000DFD31E48D0F8000431F82000C0F3090013
:1034D00000B31A48B0F80004000500EB8421174837
:1034E000D0F80004164A32F82000C0F3090322483D
:1034F000124A056CA8471148D0F80004104A32F867
:103500002000C0F309031D4800EB84211C480B4A2E
:103510000569A8470B48D0F88C101AA08847FDF71A
:1035200003FC0848D0F88C101FA088472348006887
:1035300020F001002149086070BD000090110020BA
:1035400060110020000000200D0A4C6F616420749F
:10355000686520256474682070726F6772616D2CD5
:10356000206C656E67746820697320256420627919
:103570007465732E0D0A0000C4000020005000087E
:10358000481100200D0A4150502075706461746527
:1035900020636F6D706C657465642C207265737444
:1035A000617274210D0A00000D0A4C656E67746823
:1035B000206572726F72210D0A0000001401002054
:1035C00010B50120FFF76AFE0B48D0F80404B0F5EF
:1035D0007A7F08D30948D0F88C1009A088470020CA
:1035E0000549C1F804040448D0F80404401C024909
:1035F000C1F8040410BD000090110020000000205C
:103600004300000038B5044614B94FF0FF3038BD10
:103610005C492068884204D101210420FDF7C8FBE1
:1036200034E059492068884204D101210820FDF77F
:10363000BFFB2BE055492068884204D101211020AE
:10364000FDF7B6FB22E052492068884204D10121EF
:103650002020FDF7ADFB19E04E492068884204D1D7
:1036600001214020FDF7A4FB10E04B49206888426F
:1036700004D101218020FDF79BFB07E0474920682A
:10368000884203D101218015FDF792FB3D49A068D6
:10369000884204D101210420FDF78AFB34E03A4935
:1036A000A068884204D101210820FDF781FB2BE0AE
:1036B0003649A068884204D101211020FDF778FB2B
:1036C00022E03349A068884204D101212020FDF77F
:1036D0006FFB19E02F49A068884204D101214020E6
:1036E000FDF766FB10E02C49A068884204D1012157
:1036F0008020FDF75DFB07E02849A068884203D1E0
:1037000001218015FDF754FB14208DF803000320E0
:103710008DF80200A08880B2ADF8000069462068EC
:10372000FDF7D8F914208DF8030003208DF802006E
:10373000A08980B2ADF800006946A068FDF7CAF91B
:10374000174860611748A0611748E0611748206278
:10375000174860621748A0621748E0621748206364
:10376000174860631748A0631748E063012020747E
:1037700001212046FEF711FC01212046FEF72EFC18
:10378000002044E700080140000C01400010014007
:103790000014014000180140001C014000200140BD
:1037A00073200008A720000833200008611F0008CC
:1037B00005200008391F0008371E0008A91E000850
:1037C000DB20000831210008211E00084FF4407062
:1037D000FDF7A0FA01210846FDF7EAFA01212C487D
:1037E000FDF704FA2B48406820F020002949486082
:1037F000294800F083FA2948FFF790FD284800F097
:10380000F5FB2848FFF7E2FD2348D0F88C1026A0EE
:103810008847FFF7B3FDFFF7E1FC38E01E48D0F81A
:103820008010D0F88400814223D01B4AD2F8842033
:103830009388194AD2F8842012889A1A521C91B29D
:10384000154AD2F884201068FFF7FCFC1248D0F823
:10385000840008301049C1F884000846D0F884106C
:10386000D0F88800814204D10B4830300A49C1F8B1
:1038700084000E48007800F0020008B1FFF7A0FEB7
:103880000A48007800F0010008B1FFF7DDFDC5E748
:1038900000023000002004E0000000209C00002016
:1038A000C4000020481100200D0A0000140100206F
:1038B000F0B50B30154D20F007010024144A0FE03D
:1038C00003688B420BD38B4205D95E1A43184768B5
:1038D000C3E9006700E04368136002C004E0021D12
:1038E00010680028ECD12046002802D1286808B1D1
:1038F0000020F0BD064A07481060074A121A22F05D
:103900000702C0E9002401202860D7E74401002015
:1039100040010020BC150020B817002010B586B06B
:1039200004461CB94FF0FF3006B010BDE4492068D2
:10393000884204D101218014FDF73AFA10E0E149F0
:103940002068884204D101210014FDF711FA07E034
:10395000DD492068884203D10121C013FDF708FA30
:10396000DA496068884204D101210420FDF720FA79
:1039700034E0D7496068884204D101210820FDF76E
:1039800017FA2BE0D3496068884204D10121102046
:10399000FDF70EFA22E0D0496068884204D1012187
:1039A0002020FDF705FA19E0CC496068884204D16F
:1039B00001214020FDF7FCF910E0C9496068884208
:1039C00004D101218020FDF7F3F907E0C5496068C3
:1039D000884203D101218015FDF7EAF9BB49E0686F
:1039E000884204D101210420FDF7E2F934E0B8490E
:1039F000E068884204D101210820FDF7D9F92BE0C5
:103A0000B449E068884204D101211020FDF7D0F9C3
:103A100022E0B149E068884204D101212020FDF76D
:103A2000C7F919E0AD49E068884204D1012140207E
:103A3000FDF7BEF910E0AA49E068884204D10121EF
:103A40008020FDF7B5F907E0A649E068884203D178
:103A500001218015FDF7ACF99C496069884204D1C9
:103A600001210420FDF7A4F934E0994960698842F6
:103A700004D101210820FDF79BF92BE095496069ED
:103A8000884204D101211020FDF792F922E09249E9
:103A90006069884204D101212020FDF789F919E0ED
:103AA0008E496069884204D101214020FDF780F9E8
:103AB00010E08B496069884204D101218020FDF724
:103AC00077F907E087496069884203D101218015B1
:103AD000FDF76EF97D49E069884204D10121042097
:103AE000FDF766F934E07A49E069884204D10121A2
:103AF0000820FDF75DF92BE07649E069884204D1A2
:103B000001211020FDF754F922E07349E069884251
:103B100004D101212020FDF74BF919E06F49E0693C
:103B2000884204D101214020FDF742F910E06C49A0
:103B3000E069884204D101218020FDF739F907E0CE
:103B40006849E069884203D101218015FDF730F909
:103B500018208DF8030003208DF80200208980B220
:103B6000ADF8000069466068FCF7B4FF18208DF8D6
:103B7000030003208DF80200208A80B2ADF8000017
:103B80006946E068FCF7A6FF48208DF80300032093
:103B90008DF80200208B80B2ADF8000069466069A4
:103BA000FCF798FF10208DF8030003208DF8020029
:103BB000208C80B2ADF800006946E069FCF78AFF0E
:103BC0004FF48270ADF806000020ADF80400ADF8A7
:103BD0000800ADF81200A08C022801D1002023E0DB
:103BE000A08C042801D108201EE0A08C082801D157
:103BF000102019E0A08C102801D1182014E0A08C0E
:103C0000202800D110E0A08C402801D128200BE012
:103C1000A08C802801D1302006E0A08CB0F5807FF8
:103C200001D1382000E00020ADF8100094F8260003
:103C300028B90020ADF80A00ADF80C001EE094F899
:103C40002600012806D10020ADF80A000120ADF8B9
:103C50000C0013E094F82600022805D1ADF80A0004
:103C60000020ADF80C0009E094F82600032805D1E7
:103C70000220ADF80A000120ADF80C004FF40070EE
:103C8000ADF80E000720ADF8140001A92068FDF77B
:103C90005FF901212068FDF715F91348E062134828
:103CA0002063134860631348A0631348E063012056
:103CB00084F8280001212046FEF7ADFA002033E603
:103CC0000030014000380040003C00400008014046
:103CD000000C014000100140001401400018014098
:103CE000001C014000200140172200084522000866
:103CF00053220008612200082B22000830B587B04B
:103D000004461CB94FF0FF3007B030BDA24920680F
:103D1000884201D100200DE0A0492068884201D1ED
:103D2000012007E09E492068884201D1022001E07D
:103D30004FF0FF300546002D02DB9A4840F8254041
:103D400004F1300080210851842108514830882135
:103D5000085180200059E16901600020A0858E494A
:103D60002068884204D101218803FDF721F810E082
:103D70008A492068884204D101214804FCF7F8FFF1
:103D800007E087492068884203D101218804FCF7B5
:103D9000EFFF8549A068884204D101210420FDF786
:103DA00007F834E08149A068884204D10121082045
:103DB000FCF7FEFF2BE07E49A068884204D1012178
:103DC0001020FCF7F5FF22E07A49A068884204D170
:103DD00001212020FCF7ECFF19E07749A068884218
:103DE00004D101214020FCF7E3FF10E07349A068F3
:103DF000884204D101218020FCF7DAFF07E07049F6
:103E0000A068884203D101218015FCF7D1FF6649E3
:103E10002069884204D101210420FCF7C9FF34E065
:103E200062492069884204D101210820FCF7C0FFC3
:103E30002BE05F492069884204D101211020FCF762
:103E4000B7FF22E05B492069884204D1012120208C
:103E5000FCF7AEFF19E058492069884204D10121DE
:103E60004020FCF7A5FF10E054492069884204D1A6
:103E700001218020FCF79CFF07E05149206988421E
:103E800003D101218015FCF793FF18208DF807005E
:103E900003208DF80600A08980B2ADF8040001A9C6
:103EA000A068FCF717FE48208DF8070003208DF866
:103EB0000600A08A80B2ADF8040001A92069FCF7D1
:103EC00009FE606803900020ADF818000C20ADF8E2
:103ED00016000020ADF81400ADF81200ADF8100087
:103EE00003A92068FDF7F2FA012240F2244120687C
:103EF000FDF7C7FA28492068884201D125200CE047
:103F000026492068884201D1262006E024492068FD
:103F1000884201D1272000E000208DF80800012010
:103F20008DF80B008DF809008DF80A0002A8FCF747
:103F3000B9FE2046FEF74CFA01212068FDF706FA8B
:103F400015492068884207D11E4844F88C0F1E4846
:103F500060601E48A0608C3C10492068884207D1F0
:103F60001B4844F88C0F1B4860601B48A0608C3CC9
:103F70000B492068884207D1184844F88C0F18482C
:103F800060601848A0608C3C1748C4F89800012075
:103F900084F828000020B7E60038014000440040C3
:103FA00000480040A015002000080140000C01401E
:103FB000001001400014014000180140001C0140A5
:103FC0000020014095220008D5220008C1220008E7
:103FD000F522000835230008212300085523000896
:103FE0009523000881230008B523000870B5044616
:103FF00014B94FF0FF3070BD4020FFF759FCA062AC
:10400000A06A10B94FF0FF30F5E7A56A2068286074
:1040100060686860A068A860E06868612069A8615D
:104020006069E860A0692861E069E861206A286247
:104030000220A884002085F826002846FFF76EFCA1
:104040000A48E0620A4820630A4860630A48A0639D
:104050000A48E0630A4820640A4860640A48A06489
:10406000012084F824000020C5E70000DB260008BA
:104070001F260008CD2700082D270008A7250008C7
:1040800083260008B1270008F32500080D0A4C6FAD
:104090006164696E672070726F6772616D7320660C
:1040A000726F6D2065787465726E616C20466C610C
:1040B00073682C20706C6561736520656E74657221
:1040C000207468652070726F6772616D206C6F6319
:1040D0006174696F6E2028312D39292E0D0A000078
:1040E0000D0A49415020646F776E6C6F61642070D7
:1040F000726F6772616D7320746F2065787465727A
:104100006E616C20466C6173682C20706C65617305
:104110006520656E746572207468652070726F67C3
:1041200072616D206C6F636174696F6E2028312D30
:1041300039292E0D0A0000000D0A446F776E6C6F4E
:104140006164207468652070726F6772616D20749D
:104150006F207468652025647468206C6F636174D7
:10416000696F6E206F662065787465726E616C2071
:10417000466C617368207573696E6720746865208A
:10418000586D6F64656D2070726F746F636F6C2C07
:1041900020706C65617365207573652062696E209F
:1041A000666F726D61742066696C652E0D0A000081
:1041B000D04100080000002048010000C4060008AB
:1041C0002842000848010020701A00000822000858
:1041D000111438014023C2011A08083202290822AA
:1041E000041348011420480912201A080229180152
:1041F000745D0C01404008021C8012382A402419CA
:10420000AE392C190E4908293529D0091B3D011753
:1042100084A24A04680901020304060708090C691C
:084220001085020406080000ED
:04000005080000ED02
:00000001FF
