:020000040800F2
:10000000801B00200D010008490C0008410C00086D
:10001000450C0008C5060008B913000800000000E0
:10002000000000000000000000000000350F000884
:100030007108000800000000F50C000821100008FD
:1000400027010008270100082701000827010008F0
:1000500027010008270100082701000827010008E0
:1000600027010008270100082701000827010008D0
:1000700027010008270100082701000827010008C0
:1000800027010008270100082701000827010008B0
:1000900027010008270100082701000827010008A0
:1000A0002701000827010008270100082701000890
:1000B0002701000827010008270100082701000880
:1000C0002701000827010008270100082701000870
:1000D00027010008851000082701000827010008F3
:1000E000270100082701000827010008DFF810D0C9
:1000F00000F048FA00480047A9340008AFF3008038
:10010000801B002080F30888704700000648804765
:1001100006480047FEE7FEE7FEE7FEE7FEE7FEE7EC
:10012000FEE7FEE7FEE7FEE725100008ED00000809
:1001300040EA01039B0703D009E008C9121F08C069
:10014000042AFAD203E011F8013B00F8013B521EE9
:10015000F9D27047D2B201E000F8012B491EFBD260
:1001600070470022F6E710B513460A4604461946C2
:10017000FFF7F0FF204610BD421C10F8011B0029BC
:10018000FBD1801A704730B50B4601460020202273
:10019000012409E021FA02F59D4205D303FA02F594
:1001A000491B04FA02F52844151EA2F10102F1DCF4
:1001B00030BD2DE9F05F0546002092469B468846FB
:1001C0000646814640241BE02846414647462246D3
:1001D00000F0F9F953465A46C01A914110D311461E
:1001E0001846224600F0E0F92D1A67EB01084F4649
:1001F00022460120002100F0D7F917EB00094E41FB
:10020000201EA4F10104DFDC484631462A4643465D
:10021000BDE8F09F2DE9FE4F804681EA0300C00F44
:100220000C46009021F0004123F00045B8EB02009D
:10023000A94105D24046214690461C460B4602463F
:1002400023F00040104347D0270DC7F30A00C3F343
:100250000A510290401A019040286BDAC3F3130050
:1002600040F4801B0098924620B10023D2EB030A91
:1002700063EB0B0B01985946C0F14002504600F069
:1002800093F906460D4650465946019A00F0ABF9DF
:1002900010EB08006141002487EA115284EAE773F9
:1002A0001A4340D0009A62B3019A012A4FEA0752DA
:1002B00015DC001B61EB02014FF0004202EA07521D
:1002C000CDE90042001C41F5801132462B4600F07A
:1002D000ABF903B0BDE8F08F40462146F9E7001BBB
:1002E00061EB0201001C41F5801300185B412018EE
:1002F000A2F5001747EB030140EAD570B6196D412E
:1003000011E06D084FEA360645EAC0754FEA07521C
:10031000001B61EB0201001C41F5801149084FEA06
:1003200030000019514132462B4603B0BDE8F04F72
:1003300000F06BB90098012240000023D0EB0202CC
:1003400063EBE073009821464FEAE074B8EB0000DD
:1003500061EB0401E9E783F000435BE781F00041D2
:1003600058E72DE9FE4F81EA030404F0004421F030
:10037000004100944FF0000B23F0004350EA0104C9
:100380005ED052EA03045BD0C3F30A54C1F30A55AA
:100390002C44A4F2F3340194A0FB0254C1F31301E2
:1003A00041F48011C3F3130343F4801301FB0244AF
:1003B00000FB034E840A970A44EA815447EA8357B4
:1003C000A4FB076802958D0A05FB07854FEA932C6D
:1003D00004FB0C542705029D4FEA065847EA1637DE
:1003E000B5EB08056EEB070C870E920E47EA8117F6
:1003F00042EA8312A7FB0201B6EB0B0164EB000497
:100400002B0D43EA0C335E1844EB1C50DA46514680
:10041000E7FB0201C5F313044FEA0B3343EA14531D
:100420004FEA0432019C43EA0603A4F10C0402944F
:10043000009CCDE900B400F0F7F803B0BDE8F08F00
:1004400000200146F9E72DE9F04D81EA030404F0AC
:10045000004B21F0004514464FF0000A23F0004104
:1004600050EA050220D054EA01021DD0C5F30A5714
:100470000246C5F31303C1F31300C1F30A5640F457
:10048000801543F48013A7EB0608101BD64608F22C
:10049000FD3873EB050002D308F1010801E0921862
:1004A0005B41B8F1000F03DA00200146BDE8F08D92
:1004B00000204FF48011064684460EE0171B73EBB4
:1004C000050705D3121B63EB050306434CEA010C39
:1004D00049084FEA300092185B4150EA0107EDD11C
:1004E00052EA030012D082EA040083EA05010843BD
:1004F00005D0101BAB4106D20122002306E00022EA
:100500004FF0004302E06FF0010253101AEB0600B7
:100510004CEB085110EB0A0041EB0B01BDE8F04D2C
:1005200000F073B8C1F30A52C1F3130140F2FF3374
:1005300041F480119A4202DA00200146704740F2ED
:1005400033439A42A2F2334202DC524200F03BB8FB
:1005500000F02AB830B5041E71F1000404DB4FF03E
:100560000044404264EB0101141E73F1000405DBFA
:100570001C464FF00043524263EB0403994208BF0C
:10058000904230BD064C074D06E0E06840F00103A4
:1005900094E8070098471034AC42F6D3FFF7AAFD61
:1005A000E43D0008043E0008202A04DB203A00FA5B
:1005B00002F1002070479140C2F1200320FA03F3BA
:1005C000194390407047202A04DB203A21FA02F0B8
:1005D0000021704721FA02F3D040C2F1200291407D
:1005E000084319467047202A06DBCB17203A41FA08
:1005F00002F043EAE07306E041FA02F3D040C2F1B0
:100600002002914008431946704710B5141E73F13B
:10061000000408DA401C41F1000192185B411A43C2
:1006200001D120F0010010BD2DE9F04D92469B460E
:1006300011B1B1FA81F202E0B0FA80F220329046B4
:10064000FFF7B2FF04460F4640EA0A0041EA0B01F9
:1006500053465A46084313D0114653EA010019D0B5
:10066000C8F140025046FFF7AEFF05460E46504621
:1006700059464246FFF798FF084305D0012004E0A1
:1006800020463946BDE8F08D0020054346EAE07675
:100690002C4337430A986305E40AA0EB08000022C4
:1006A000FD0A44EA47540A3002D500200146E9E732
:1006B000010510196941DDE9084500196941BDE8E6
:1006C000F04DA2E700BFFEE721B1026842F001024F
:1006D000026004E002684FF6FE731A400260704741
:1006E00001684FF6FE721140016000210160416017
:1006F0008160C1604B49884208D14A49083949683C
:1007000041F00F01474A083A51608AE045491431E7
:10071000884208D143490839496841F0F001414A0B
:10072000083A51607DE03F492831884208D13D496F
:100730000839496841F470613A4A083A516070E0FA
:1007400038493C31884208D136490839496841F472
:100750007041344A083A516063E03249503188426E
:1007600008D130490839496841F470212D4A083AC6
:10077000516056E02B496431884208D12949083933
:10078000496841F47001274A083A516049E0254917
:100790007831884208D123490839496841F07061AD
:1007A000204A083A51603CE01F49884206D1011FA7
:1007B000096841F00F01021F116032E01A4914313B
:1007C000884208D11849091F096841F0F001164A0A
:1007D000121F116025E014492831884208D11249BE
:1007E000091F096841F470610F4A121F116018E077
:1007F0000D493C31884208D10B49091F096841F471
:100800007041094A121F11600BE0074950318842BC
:1008100007D10549091F096841F47021024A121FD6
:100820001160704708000240080402400146486811
:1008300080B2704710B50022026847F6F0739A4301
:100840000C6A8B6823430C6923434C6923438C69EE
:100850002343CC6923434C6A23438C6A23431A43C2
:100860000260CB6843600B6883604B68C36010BD57
:100870007047000030B5044604254FF4302000F0E6
:1008800085F80546042D17D10C48006940F0020098
:100890000A49086108464461006940F04000086167
:1008A0004FF4302000F072F805460448006941F624
:1008B000FD71084001490861284630BD0020024012
:1008C00004200B49C96801F0010109B101200EE0C3
:1008D0000749C96801F0040109B1022007E0044991
:1008E000C96801F0100109B1032000E0042070473D
:1008F000002002400348006940F08000014908617F
:10090000704700000020024078B506460C460425DA
:1009100000200090E80200F039F80546042D24D1AB
:100920001348006940F00100114908613480E80271
:1009300000F02CF80546042D10D1B01C0090200CBE
:1009400000990880E80200F021F80546084800698F
:1009500041F6FE7108400649086106E00448006956
:1009600041F6FE71084002490861284678BD000042
:10097000002002400248034948600348486070472D
:100980002301674500200240AB89EFCD00B5024648
:100990000423FFF795FF034603E0FFF791FF0346AB
:1009A000521E012B01D1002AF7D102B905231846A6
:1009B00000BD000010B504462948844208D1012139
:1009C000042000F0D9F90021042000F0D5F946E018
:1009D0002448844208D10121082000F0CDF90021EB
:1009E000082000F0C9F93AE01F48844208D10121EB
:1009F000102000F0C1F90021102000F0BDF92EE018
:100A00001A48844208D10121202000F0B5F90021C4
:100A1000202000F0B1F922E01548844208D10121DC
:100A2000402000F0A9F90021402000F0A5F916E0CF
:100A30001048844208D10121802000F09DF9002156
:100A4000802000F099F90AE00B48844207D1012187
:100A5000801500F091F90021A01500F08DF910BD6E
:100A600000080140000C014000100140001401404A
:100A700000180140001C0140002001402DE9F04118
:100A8000024600250026002000230024002791F8BC
:100A900003C00CF00F0591F803C00CF0100CBCF172
:100AA000000F03D091F802C04CEA050591F800C090
:100AB000BCF1000F31D0146800202BE04FF0010C86
:100AC0000CFA00F3B1F800C00CEA03069E4220D1F4
:100AD00083004FF00F0C0CFA03F7BC4305FA03FC3C
:100AE0004CEA040491F803C0BCF1280F06D14FF082
:100AF000010C0CFA00FCC2F814C00AE091F803C023
:100B0000BCF1480F05D14FF0010C0CFA00FCC2F803
:100B100010C0401C0828D1D31460B1F800C0BCF14B
:100B2000FF0F34DD546800202EE000F1080C4FF078
:100B3000010808FA0CF3B1F800C00CEA03069E4263
:100B400021D183004FF00F0C0CFA03F7BC4305FAD8
:100B500003FC4CEA040491F803C0BCF1280F05D152
:100B600000F1080C08FA0CF8C2F8148091F803C0E0
:100B7000BCF1480F07D100F1080C4FF0010808FA4A
:100B80000CF8C2F81080401C0828CED35460BDE891
:100B9000F0810000F0B50A46002300240021002562
:100BA00000F00046B6F1004F02D11D4EF16901E0A0
:100BB0001B4E7168C0F3034583B200F44016B6F5CE
:100BC000401F08D121F07061154E766826F07066DE
:100BD000134F7E6012E000F48016B6F5801F06D138
:100BE000032606FA05F4A14341F0706106E0460DC4
:100BF000360103FA06F6B14341F0706122B1460DA9
:100C0000360103FA06F6314300F00046B6F1004F14
:100C100002D1034EF16101E0014E7160F0BD0000B0
:100C2000000001400246002093680B400BB10120F8
:100C300000E0002070470AB1016100E041617047A7
:100C400000BFFEE700BFFEE77047000070B500215F
:100C500000230F22C47804B3154C246804F4E06424
:100C6000C4F5E064210AC1F10403CA40447804FADF
:100C700003F184781440214309010E4C0678A155F4
:100C8000047804F01F050124AC4005786D11AD0017
:100C900005F1E025C5F8004109E0047804F01F05DE
:100CA0000124AC40044D0678761145F8264070BD0D
:100CB0000CED00E000E400E080E100E002490143C7
:100CC000024A1160704700000000FA050CED00E0D8
:100CD0000648006800F4E06005490843001D034928
:100CE0000860BFF34F8F00BFFEE700000CED00E08F
:100CF0000000FA057047000029B1064A5269024314
:100D0000044B5A6104E0034A52698243014B5A6121
:100D1000704700000010024029B1064AD269024320
:100D2000044BDA6104E0034AD2698243014BDA6181
:100D3000704700000010024029B1064A12690243C0
:100D4000044B1A6104E0034A12698243014B1A61A1
:100D5000704700000010024029B1064A9269024320
:100D6000044B9A6104E0034A92698243014B9A6101
:100D7000704700000010024029B1064AD2680243C1
:100D8000044BDA6004E0034AD2688243014BDA6024
:100D9000704700000010024030B5002100220024FE
:100DA00000232D4D6D6805F00C0121B1042905D0FB
:100DB000082923D105E0294D056022E0274D056073
:100DC0001FE0254D6D6805F47012234D6D6805F424
:100DD0008034022505EB92421CB9214D5543056034
:100DE0000BE01D4D6D6805F400351DB11C4D5543DC
:100DF000056002E0194D5543056002E0174D05609E
:100E000000BF00BF144D6D6805F0F0010909154DD4
:100E10006B5C0568DD4045600F4D6D6805F4E06171
:100E2000090A104D6B5C4568DD4085600A4D6D68B0
:100E300005F46051C90A0B4D6B5C4568DD40C56027
:100E4000054D6D6805F44041890B074D6B5CC56825
:100E5000B5FBF3F5056130BD0010024000127A00C9
:100E600000093D00AC000020BC00002021B1028838
:100E700042F04002028004E002884FF6BF731A403D
:100E80000280704710B504461148844208D1012100
:100E90008014FFF771FF0021A014FFF76DFF16E02B
:100EA0000C48844208D101210014FFF745FF0021BE
:100EB0002014FFF741FF0AE00748844207D10121CF
:100EC000C013FFF739FF0021E013FFF735FF10BD16
:100ED0000030014000380040003C00400246002045
:100EE00013890B400BB1012000E000207047014640
:100EF000888970478181704710B50022028802F40A
:100F000041520B884C8823438C882343CC8823434D
:100F10000C8923434C8923438C892343CC89234365
:100F20001A430280838B4FF2FF74234083830B8A22
:100F3000038210BD704710B500F002F810BD00002C
:100F40000CB50020019000903348006840F48030D8
:100F50003149086000BF3048006800F4003000905C
:100F60000198401C0190009818B90198B0F5A06F45
:100F7000F1D12948006800F4003010B10120009040
:100F800001E0002000900098012843D12348006828
:100F900040F01000214908600846006820F0030076
:100FA00008600846006840F0020008601A4840687F
:100FB000194948600846406848600846406840F45F
:100FC000806048600846406820F47C10486008460D
:100FD000406840F4E81048600846006840F08070BF
:100FE000086000BF0C48006800F000700028F9D0CD
:100FF0000948406820F003000749486008464068F7
:1010000040F00200486000BF0348406800F00C0058
:101010000828F9D10CBD0000001002400020024059
:101020007047000010B51348006840F001001149F6
:10103000086008464068104908400E494860084664
:1010400000680E4908400B4908600846006820F413
:10105000802008600846406820F4FE0048604FF495
:101060001F008860FFF767FF4FF0006004490860C9
:1010700010BD0000001002400000FFF8FFFFF6FE68
:1010800008ED00E008B540F224412F4800F0D5F803
:10109000002858D02C480088C0B200902A48001D73
:1010A0000088C0B200902948FFF7C0FB40F2012140
:1010B000081A2749098808442549088008460088F5
:1010C000401E244908442249496D48602048406D2B
:1010D00008301F4948650846406DC96D884203D1F4
:1010E0001B48001D011F486519480088C0F50060B5
:1010F000B0F5007F07DB16480088164908441449FC
:10110000496D086006E013481149496D08600020E8
:101110000F49088000210D48FFF7D6FA00BF0B48A1
:101120005838806D00F001000028F8D140F201200D
:1011300006495839C8650648406D0068486601216F
:101140000248FFF7C1FA08BD0038014058000240CC
:1011500020150020200D002021B1828942F4005288
:10116000828104E082894DF6FF731A4082817047C4
:101170001AB1838A0B43838202E0838A8B43838282
:101180007047000010B504462048844209D101216F
:101190008803FFF7F1FD00214FF48040FFF7ECFDDD
:1011A00032E01B48844209D101214804FFF7C4FD05
:1011B00000214FF40030FFF7BFFD25E015488442C1
:1011C00009D101218804FFF7B7FD00214FF48020E9
:1011D000FFF7B2FD18E01048844209D10121C8048C
:1011E000FFF7AAFD00214FF40020FFF7A5FD0BE05B
:1011F0000A48844208D101210805FFF79DFD00211E
:101200004FF48010FFF798FD10BD0000003801403A
:101210000044004000480040004C004000500040A6
:1012200002460020B1F5007F00D100BF13880B40BB
:101230000BB1012000E00020704770B50246002489
:1012400000230025002040F66A16B14200D100BFFD
:10125000C1F3421501F01F03012606FA03F3012D25
:1012600002D19689334006E0022D02D1168A33401E
:1012700001E0968A33400C12012606FA04F416881F
:10128000344013B10CB1012000E0002070BDF0B576
:101290000346002400260025002040F66A17B942C4
:1012A00000D100BF1846C1F3421401F01F06012708
:1012B00007FA06F5012C01D10C3004E0022C01D113
:1012C000103000E014301AB107682F43076002E0C5
:1012D0000768AF430760F0BD2DE9F04786B00546CB
:1012E0000E460024A24600BFA1460027B08900B1E7
:1012F00000BF2F462C8A4CF6FF700440F088044350
:101300002C82AC894EF6F3100440B0883189084332
:10131000718908430443AC81AC8A4FF6FF40044016
:10132000B0890443AC8201A8FFF736FD1F4887420D
:1013300002D1DDF810A001E0DDF80CA0A88900F4CE
:10134000004040B10AEBCA0000EB0A1031684900C6
:10135000B0FBF1F807E00AEBCA0000EB0A103168B5
:101360008900B0FBF1F86420B8FBF0F0040120091B
:10137000642101FB1089A88900F4004040B13220AB
:1013800000EBC900B0FBF1F000F00700044308E0F7
:10139000322000EB09106421B0FBF1F000F00F00E7
:1013A00004432C8106B0BDE8F087000000380140FE
:1013B000C1F308028280704700BFFEE737B51446CC
:1013C0000846064B6A46214601F0ECF90446694698
:1013D000002001F06AFD20463EBD0000AB2E000853
:1013E00010B50848FFF7CEFE0748FFF779F9074820
:1013F000FFF7E0FA0648FFF7DDFA0648FFF742FD7F
:1014000010BD0000003801405800024000080140B3
:10141000000C01400038004010B50C48C1690CA018
:1014200088470A48C1690BA088470848C1690DA0D0
:1014300088470648C16915A088470448C1691FA0AC
:1014400088470248C16928A0884710BD00000020D5
:101450000D0A00005B315D4572617365204150509B
:101460000D0A00005B325D49415020646F776E6C5D
:101470006F6164207468652070726F6772616D209F
:10148000746F20466C6173680D0A00005B335D4920
:10149000415020646F776E6C6F61642070726F676B
:1014A00072616D7320746F2065787465726E616C03
:1014B00020466C6173680D0A000000005B345D4CCF
:1014C0006F6164696E672070726F6772616D7320FF
:1014D00066726F6D2065787465726E616C20466C03
:1014E0006173680D0A0000005B355D5265737461BD
:1014F00072740D0A0000000070B504460CB1207C27
:1015000010B94FF0FF3070BD65692846E96B884718
:10151000606901F0E5FD00206061207400BFF2E722
:101520002DE9F84304460E46174698460CB1207C38
:1015300018B94FF0FF30BDE8F8836569CDF8008039
:101540003B46324650212846D5F830C0E0470020BF
:10155000F1E72DE9F04104460E4617460CB1207C18
:1015600018B94FF0FF30BDE8F08165693B4632465F
:1015700050212846D5F834C0E0470020F3E7F8B5FD
:1015800004460E4617460CB1207C10B94FF0FF30D0
:10159000F8BD656900970823324650212846D5F8E2
:1015A00038C0E0470020F3E770B504464FF47A7086
:1015B00094FBF0F50A482946C2690AA0904708E062
:1015C00017480078772801D1002070BD012001F074
:1015D000D9FC201EA4F101018CB2F1D1401EF4E728
:1015E000000000200D0A456E7465722022772220CB
:1015F00077697468696E202564207365636F6E6413
:101600007320746F20656E74657220746865206342
:101610006F6D6D616E64206C696E652E0D0A000041
:10162000200D002010B50748C16907A088470A4867
:101630002C221421836898470248C16907A0884773
:1016400010BD0000000000200D0A45726173652086
:101650004150502E0D0A0000C800002053756363EE
:1016600065737366756C6C7920657261736564204F
:10167000415050210D0A0000014609B1087810B907
:101680004FF0FF3070470020087000BFFAE72DE9E7
:10169000F04105460E4617460DB1287818B94FF0AF
:1016A000FF30BDE8F081FFF765F9002409E04FF055
:1016B000006101EB862101EB8420FFF7DBF8601C61
:1016C00084B2BC42F3DBFFF715F90020E9E72DE90E
:1016D000F04104460D4616461F460CB1207818B955
:1016E0004FF0FF30BDE8F081FFF744F906E02846EF
:1016F0003168FFF709F93F1F2D1D361D002FF6D168
:10170000FFF7F8F80020EDE770B504460D46012D0F
:1017100005D12078312802D1FFF784FF49E0012D5F
:1017200019D12078322816D12248C16922A08847D1
:10173000FFF778FF1F48C16929A088473048006833
:1017400040F006002E49086000202E49C1F804042C
:10175000C1F808042DE0012D0DD1207833280AD1DD
:101760001448C169284888472548006840F00800A7
:10177000234908601DE0012D0DD1207834280AD1BD
:101780000C48C169214888471D48006840F0200086
:101790001B4908600DE0012D0BD12078352808D1B8
:1017A0000448C1691AA08847642001F0EBFBFFF7E9
:1017B0008FFA70BD000000200D0A49415020646F6F
:1017C000776E6C6F6164207468652070726F6772E9
:1017D000616D20746F20466C6173682E0D0A0000E5
:1017E0000D0A506C65617365207573652062696EC2
:1017F00020666F726D61742066696C652E0D0A003B
:10180000A400002010010020143D0008C03C000886
:101810000D0A52657374617274210D0A0000000094
:1018200070B504460E46012E43D1207831283BDBAB
:101830002078392838DC2148006820F008001F494A
:101840000860207830381E49C1F800041B48006841
:1018500040F016001949086000201949C1F8040435
:10186000C1F80804D1F80014164A42F821001448BF
:10187000D0F800141448C26914A09047002509E06C
:101880000F48B0F8000405EB001081B21E48C26B8F
:1018900090476D1C102DF3DB0948D0F800140A485E
:1018A000C2691A48904708E00748C16918A08847EC
:1018B00003E00548C1691AA0884770BDA400002054
:1018C00010010020E0000020000000200D0A4572F9
:1018D0006173696E67207468652025647468207080
:1018E000726F6772616D20626C6F636B206F662030
:1018F00065787465726E616C20466C6173682E2E1B
:101900002E0D0D0A00000000540000206C3D000860
:101910004E756D626572206572726F72210D0A00DC
:1019200044617461206C656E677468206572726FC3
:1019300072210D0A0000000070B504460D46012D0D
:101940001CD12078312814DB2078392811DC0E488E
:10195000006820F020000C490860207830380B49DE
:10196000C1F800040848006840F00100064908601A
:1019700008E00748C16907A0884703E00448C16937
:1019800008A0884770BD0000A400002010010020BE
:10199000000000204E756D626572206572726F7274
:1019A000210D0A0044617461206C656E67746820C3
:1019B0006572726F72210D0A000000002DE9F0417E
:1019C00005460E46852E6DD1287801286AD16F48CC
:1019D000006820F002006D4908608021E81C00F0DA
:1019E000FCFD6B49C1F80C0495F8841095F8830050
:1019F00001EB00206649D1F80C1488424ED16448AE
:101A0000D0F80804401C6249C1F8080491F8081491
:101A1000491E01F007015E4A02EBC1108022E91C59
:101A2000FEF786FB5A4890F8080400F0070008BB50
:101A30005648007800F01000E8B1002418E054483F
:101A4000B0F8000403055248D0F808044FF0010C28
:101A5000CCEBD00003EB802000EB04214C4800EBE2
:101A600004224C484FF48073076BB847601CC4B223
:101A7000042CE4DB0DE04648D0F808040122C2EB58
:101A8000D000454A02EB802144485314404A07697C
:101A9000B8474348C16943A0884703E04048C1694B
:101AA00041A08847012E6ED1287804286BD13C488C
:101AB000C1693CA08847364890F8080400F0070048
:101AC00078B33248007800F01000D0B1002415E05F
:101AD0002F48B0F8000403052D48D0F80804C008CA
:101AE00003EB802000EB0421294800EB0422294865
:101AF0004FF48073076BB847601CC4B2042CE7DB5B
:101B00000FE0234890F808044007830D2048D0F8E0
:101B10000804C008204A02EB802120481C4A0769BB
:101B2000B8471A48006820F00400184908600846C1
:101B3000007800F01000D0B10846006820F01000D6
:101B400008601348D0F80804C0011149D1F8001406
:101B5000164A42F8210001F095FA1148C16914A013
:101B60008847642001F00EFAFFF756FC0BE0C8200E
:101B700001F008FA0A48C16913A08847C82001F09B
:101B800001FAFFF7A5F8BDE8F0810000A4000020ED
:101B9000100100205400002000500008C800002060
:101BA000000000200600000015000000E0000020FA
:101BB000446F776E6C6F616420636F6D706C6574D9
:101BC0006564210D0A000000494150207570646170
:101BD000746520636F6D706C657465642C2072652C
:101BE0007374617274210D0A00000000014609B18E
:101BF000087C10B94FF0FF3070470020087400BF18
:101C0000FAE72DE9F04104460D4616461F460CB191
:101C1000207C18B94FF0FF30BDE8F081204600F07D
:101C200008F96806010E204600F0E5F8204600F0AD
:101C300069F83146204600F0DEF8204600F062F8F0
:101C4000204600F0F6F8012000EB4500C1B2204626
:101C500000F0D1F8204600F055F8204600F066F874
:101C600038700121204600F0B1F8204600F0F9F864
:101C70000020D1E72DE9F04705460E4690461F4665
:101C8000DDF820900DB1287C18B94FF0FF30BDE889
:101C9000F087284600F0CDF87006010E284600F0C7
:101CA000AAF8284600F02EF84146284600F0A3F88E
:101CB000284600F027F8284600F0BBF8012000EB8A
:101CC0004600C1B2284600F096F8284600F01AF8FF
:101CD000002410E0284600F029F809F80400781ED6
:101CE000A04201D1012000E000200146284600F07A
:101CF0006DF8601C84B2BC42ECDB284600F0B1F801
:101D00000020C4E770B504460121204600F04BF8DE
:101D10000121204600F027F8204600F037F805465C
:101D20000021204600F01FF8284670BD70B5064619
:101D300000250121304600F036F807240FE001218C
:101D4000304600F010F8304600F020F8A04028435C
:101D5000C5B20021304600F006F8601E44B2002CE7
:101D6000EDDA284670BD70B504460D46207C10B9EA
:101D70004FF0FF3070BDA28891B22A462068FEF76E
:101D80005AFF012001F00AF90020F3E770B504467C
:101D9000A28991B2A068FEF745FF0546012001F037
:101DA000FDF8284670BD70B504460D46207C10B97C
:101DB0004FF0FF3070BDA28991B22A46A068FEF7AD
:101DC0003AFF012001F0EAF80020F3E770B504467D
:101DD0000D4614B94FF0FF3070BD29462046FFF77D
:101DE000E2FF01212046FFF7BEFF00212046FFF75A
:101DF000BAFF0020F0E770B505460E4615B94FF062
:101E0000FF3070BD002410E08020204100EA060170
:101E10002846FFF7C8FF01212846FFF7A4FF00214D
:101E20002846FFF7A0FF601CC4B2082CECDB0020A2
:101E3000E7E710B5044614B94FF0FF3010BD01219B
:101E40002046FFF7B0FF01212046FFF78CFF00215D
:101E50002046FFF7A8FF00212046FFF784FF00205F
:101E6000ECE710B5044614B94FF0FF3010BD002167
:101E70002046FFF778FF00212046FFF794FF01215D
:101E80002046FFF770FF01212046FFF78CFF00205E
:101E9000ECE72DE9F04104460D4616461F460CB10D
:101EA000207C18B94FF0FF30BDE8F0812046FFF7E5
:101EB000C0FF6806010E2046FFF79DFF2046FFF792
:101EC00021FF31462046FFF796FF2046FFF71AFF15
:101ED00039462046FFF78FFF2046FFF713FF2046C5
:101EE000FFF7BFFF0020DFE72DE9F04705460E466C
:101EF00017469846DDF820900DB1287C18B94FF0B0
:101F0000FF30BDE8F0872846FFF793FF7006010E0B
:101F10002846FFF770FF2846FFF7F4FE39462846AB
:101F2000FFF769FF2846FFF7EDFE002409E019F8E6
:101F300004102846FFF75FFF2846FFF7E3FE601C0A
:101F400084B24445F3DB2846FFF78BFF0020D8E737
:101F500010B504462068B0F1005F0FD30A4920682D
:101F600088420BD82068FEF7CDF808496068086001
:101F7000FFF736FA05480068804703E00448C16966
:101F800004A0884710BD0000FF4F0020A0000020E3
:101F9000000000200D0A4A756D70696E6720746F2D
:101FA00020415050206661696C6564210D0A000073
:101FB00002E008C8121F08C1002AFAD17047704712
:101FC000002001E001C1121F002AFBD1704770B54B
:101FD00004460D46228C91B22A46E069FEF72BFE9C
:101FE00070BD014611B191F8280010B94FF0FF30D3
:101FF0007047002081F8280000BFF9E710B50446BB
:1020000000212046FFF7E3FF10BD10B50446012173
:102010002046FFF7DCFF10BD70B504460D4600BF3B
:1020200002212068FEF75AFF0128F9D129462068CD
:10203000FEF760FF00BF01212068FEF74FFF012877
:10204000F9D12068FEF753FFC0B270BD0FB438B5A8
:1020500005A800901248009A0499FFF7AFF90020F4
:10206000009000240DE000BF80210E48FFF7D8F853
:102070000128F9D10A48015D0A48FFF799F9601C67
:1020800084B20748FEF778F8A042ECD800BF4021A0
:102090000448FFF7C5F80128F9D138BC5DF814FBF6
:1020A00020050020003801400F48406D0E4A926D17
:1020B000904217D000200C4A926D526850700A4826
:1020C000806D01680848806D0830074A90651046A9
:1020D000806DD26D904203D10348001D021F9065B0
:1020E000084670470020FCE72015002070B5054623
:1020F0000E4600240BE0295D0648FFF759F900BFA2
:1021000080210448FFF78CF80028F9D0641CB44201
:10211000F1D370BD00380140084A016891420CD1EA
:1021200007490A1F516591654831D1650549526DCE
:1021300011600021024A121F1180704700380140CF
:1021400024150020200D0020014609B1087E10B999
:102150004FF0FF3070470020087600BFFAE700001C
:1021600010B58CB0044644492068884204D101214E
:102170000846FEF7C1FD10E040492068884204D1BE
:1021800001210846FEF7B8FD07E03D492068884276
:1021900003D101210846FEF7AFFD374A216891427D
:1021A00001D138490EE0354A2168914202D13549C2
:1021B000143107E0324A2168914202D1314928396D
:1021C00000E000210846FEF78BFA2068001D019010
:1021D00000200790059028492068884201D12A48AC
:1021E00002900020089080200690234920688842B1
:1021F00002D140F2012004900020039009900B903E
:102200004FF400500A901C4A2168914201D11D49A7
:102210000EE01A4A2168914202D11A49143107E0AE
:10222000174A2168914202D11649283900E000215D
:10223000084601A9FEF7FEFA0F4A2168914201D132
:1022400010490EE00D4A2168914202D10D49143126
:1022500007E00B4A2168914202D10A49283900E07F
:10226000002108460121FEF72FFA012240212068B3
:10227000FEF77EFF0CB010BD003801400044004066
:102280000048004058000240200D002070B506466E
:102290000D46B46A304600F092F92046216B88471B
:1022A00020212046A26B90472804C0F30741204616
:1022B000A26B90472804C0F307212046A26B9047E9
:1022C0002804C1B22046A26B90472046616B884724
:1022D000304600F0C1F870BD70B5044614B194F8F2
:1022E000240010B94FF0FF3070BDA56A2846E96B95
:1022F0008847A06A00F0F4FE0020A06284F8240061
:1023000000BFF1E72DE9F04707460D469046994694
:10231000BC6A384600F053F92046216B88470221F9
:102320002046A26B9047C5F307412046A26B904719
:10233000C5F307212046A26B9047E9B22046A26B65
:102340009047002606E018F806102046A26B90473A
:10235000701C86B24E45F6DB2046616B88473846D6
:1023600000F07AF8BDE8F0872DE9F04707460D4602
:1023700090469946BC6A2046216B88470321204637
:10238000A26B9047C5F307412046A26B9047C5F367
:1023900007212046A26B9047E9B22046A26B9047E6
:1023A000002606E0FF212046A26B904708F80600B1
:1023B000761C4E45F6D32046616B8847BDE8F08712
:1023C0002DE9F04106460F461546B46A2046216BBA
:1023D00088479F212046A26B9047FF212046A26B91
:1023E00090473870FF212046A26B904728802888AC
:1023F0004FF6FF7101EA00202880FF212046A26BE2
:1024000090472988084328802046616B8847BDE8AB
:10241000F08170B506460D46B46A304600F0CFF83C
:102420002046216B884720212046A26B9047C5F3A8
:1024300007412046A26B9047C5F307212046A26BB7
:102440009047E9B22046A26B90472046616B8847CF
:10245000304600F001F870BD70B50546AC6A204604
:10246000216B884705212046A26B9047084E02E069
:10247000761E06B907E0FF212046A26B904700F0C8
:1024800001000028F4D100BF2046616B884770BD71
:10249000A086010070B50546AC6A2046216B8847CE
:1024A000AB212046A26B90472046616B884770BDE8
:1024B0002DE9F84F83460E4617461C464FF000089C
:1024C000C146C24600250020009006F0FF0ACAF16E
:1024D0000000C5B2C4F3072804F0FF09BAF1000FE9
:1024E00023D1B8F1000F06D1A3B23A46314658467F
:1024F000FFF708FF61E00AE04FF480733A46314687
:102500005846FFF7FFFE06F5807607F58077B8F1AD
:102510000000A8F1010101F0FF08EDD14B463A4659
:1025200031465846FFF7EEFE47E0B8F1000F1BD1E9
:10253000A94512DDA9EB0500C0B200902B463A4632
:1025400031465846FFF7DEFE2E442F443A463146C8
:102550005846009BFFF7D6FE2FE0A3B23A4631461D
:102560005846FFF7CFFE28E0641BC4F3072804F0A9
:10257000FF092B463A4631465846FFF7C3FE2E4424
:102580002F440AE04FF480733A4631465846FFF72D
:10259000B9FE06F5807607F58077B8F10000A8F15E
:1025A000010101F0FF08EDD1B9F1000F05D04B4654
:1025B0003A4631465846FFF7A5FEBDE8F88F70B59C
:1025C0000546AC6A2046216B884706212046A26B4F
:1025D00090472046616B884770BD70B502460B4638
:1025E000002041F2210414E0157880EA0520002142
:1025F0000CE000F400451DB184EA4005A8B203E0F8
:102600004FF6FF7505EA40004D1CE9B20829F0DBE2
:10261000521C1D1EA3F10106B3B2E5D170BD00002E
:102620002DE9FF5F82B00021DDE90430020DDDF805
:1026300040B0034318D044F61050A2F2FF32424398
:102640001514119801281FD0A5EB0B00401C5FEA60
:10265000000A4FF000064E4FDFF83891B046504662
:1026600015D5CAF1000413E0119801244AA30128EA
:1026700001D16FEA0B010298119AC0E90031C0E95B
:10268000024206B0BDE8F09FCBF10000DFE7044650
:102690000021404A491842EB0450CDE9001012E0F5
:1026A000E00707D032463B4640464946FDF759FE13
:1026B0008046894632463B4610461946FDF751FE94
:1026C00006460F466410002CEAD1DDE90401DDE97D
:1026D0000023BAF1000F06DAFDF743FE42464B46EF
:1026E000FDF73FFE05E0FDF7AEFE42464B46FDF727
:1026F000AAFE04460E460022284BFDF72BFF03D806
:102700004FF0FF30014607E00022254B20463146BE
:10271000FDF780FDFDF706FF102409E0002C0ADB21
:102720000A220023FDF745FD039B30321A55641E33
:1027300050EA0102F2D1641C039AC4F1110314445B
:10274000119A012A03D0012208430DD10AE008435F
:1027500004D000204FF0110B119072E7A3EB0B0592
:102760006D1E0DE05B4504DD4FF0000205F1010533
:1027700004E003DA4FF00002A5F10105002AECD0D5
:1027800002981199C0E90231C0E9004579E70000DB
:10279000000014400000F03F300000000000F04353
:1027A0000000E03F2DE9FF4F95B09A468846064667
:1027B0000025EEE1252877D100242746F94A01219A
:1027C000039400E0044316F8013F203B01FA03F0B4
:1027D0001042F7D130782A2811D06FF02F033078CB
:1027E000A0F13002092A16D8039A44F0020402EB41
:1027F000820203EB42021044761C0390EFE758F884
:10280000042B0392002A03DA504244F4005403904C
:1028100044F00204761C30782E2816D116F8010FE9
:1028200044F004042A280DD06FF02F023078A0F174
:102830003003092B09D807EB870302EB4303C718C2
:10284000761CF3E758F8047B761C30786C280FD0A0
:1028500006DC4C2817D068280DD06A2814D104E073
:10286000742810D07A280FD10DE044F400140AE047
:1028700044F4801401E044F440147278824202D19E
:1028800004F58014761C761C307866280BD013DC97
:10289000582877D009DC002875D04528F6D046287E
:1028A000F4D047281AD193E118E0632835D0642882
:1028B00079D0652812D18BE1702873D008DC6728A5
:1028C000F1D069286FD06E280DD06F2806D1ACE00A
:1028D00073282CD0752874D0782853D05246179975
:1028E00090476D1C54E1C4F30250022809D003281C
:1028F0000DD0D8F8001004280DD00D6008F10408A0
:1029000046E1D8F80010EA17C1E90052F6E7D8F816
:1029100000100D80F2E70D70F0E718F8041B8DF839
:10292000001000208DF80100EB46012003E058F86C
:1029300004BB4FF0FF3061074FF0000102D40DE0FF
:1029400009F101018946B9420FDA8145F8DB1BF82C
:1029500009100029F4D108E009F1010189468142FA
:10296000FADB1BF809100029F6D103985346A0EBB7
:10297000090721463846179A00F080FA284400EBF0
:10298000090507E044E008E10DE01BF8010B5246A1
:1029900017999047B9F10109F7D2534621463846B5
:1029A000179AF2E039E00A21C4F302524FF0000B0B
:1029B0000091022A06D058F8040BC117032A09D047
:1029C0000AE023E008F1070020F00702F2E8020124
:1029D000904605E000B2C117042A01D140B2C117E8
:1029E000002906DA0A460021404261EB02012D224D
:1029F00002E0220504D52B228DF80420012203E0F9
:102A0000E20701D02022F7E7914657E00A2100E0D3
:102A100010214FF0000B00910BE010214FF0000B44
:102A200044F004040827009103E008204FF0000B55
:102A30000090C4F30252022A05D058F8040B00217A
:102A4000032A08D008E008F1070020F00702F2E8A6
:102A50000201904603E080B2042A00D1C0B24FF0D8
:102A6000000922072AD53278702A07D0DDF800C085
:102A70008CF0100C5CEA0B0C05D00EE040228DF8B7
:102A80000420012208E050EA010306D030238DF82B
:102A900004308DF8052002229146009B83F0080344
:102AA00053EA0B030AD150EA010201D1620705D5AE
:102AB00030228DF804204FF001097F1E3278582A09
:102AC00004D039A20C920CAA02920BE03BA2F9E7C7
:102AD0005B46009AFDF76DFB0C9B9B5C029A521EB5
:102AE0000292137050EA0102F2D1029804A9081A66
:102AF00000F1200B600702D524F4803400E00127A8
:102B00005F4502DDA7EB0B0000E0002000EB0B01AE
:102B1000009003984944401A0390E00306D45346BA
:102B20002146179A039800F0A9F90544002706E00A
:102B300001A85246C05D179990476D1C7F1C4F45F8
:102B4000F6DBE0030CD553462146179A039800F0B4
:102B500095F9054404E030205246179990476D1CC2
:102B60000099481E00900029F5DC08E002980299BF
:102B700052460078491C0291179990476D1CBBF191
:102B80000001ABF1010BF1DC5BE100F065F90544FC
:102B9000761C307800287FF40DAE19B02846BDE8C9
:102BA000F08F0000092801003031323334353637D8
:102BB0003839616263646566000000003031323389
:102BC0003435363738394142434445460000000029
:102BD000600700D4062708F1070020F00700F0E89E
:102BE0000223804603F0004C5FEA0C0001D097A05E
:102BF00009E0200501D596A005E0E00701D095A0E9
:102C000001E0AFF24C001390307823F000436528C8
:102C10000CD006DC452809D046281DD047287FD196
:102C20003BE0662818D067287AD136E00021112FC2
:102C300001DB112000E0781CCDE9000104A90CA8FB
:102C4000FFF7EEFCDDE90D010C9A4FF0000B07F1E8
:102C50000109109200914EE04FF000400097CDE93D
:102C6000011004A90CA8FFF7DBFCDDE90D020C9BA9
:102C70000F994FF0000B91461093009211B9791CF7
:102C800000EB0109B7EB090003D4C0F1FF3B07F1EA
:102C90000109A9EB0700019042E0012F00DA0127AA
:102CA0000021112F01DD112000E03846CDE900019F
:102CB00004A90CA8FFF7B4FCDDE90D010C9A009102
:102CC0004FF0000BB946109221070FD4009A4A45E5
:102CD00003DA914601E0A9F10109B9F1010F05DD1F
:102CE000109AA9F10101515C3029F4D0B84202DAFE
:102CF00010F1040F03DA0121CDE9011010E00028E2
:102D000003DC8344A9EB000102E0411C494500DDDE
:102D10008946A0EB0B00401C01904FF00040029050
:102D2000200705D40198484502DB4FF0FF300190A1
:102D300000208DF84B0002980DF14B07B0F1004FC9
:102D400025D002200C902B200D90029800280CDA40
:102D5000404202902D200D9007E00A210298FDF7D5
:102D600012FA3031029007F8011D0C99481E0C90A0
:102D70000029F2DC02980028EFD1791E0D98087026
:102D8000307800F0200040F0450007F8020D11A84F
:102D9000C01BC01D02901398007800B1012000EB09
:102DA0000901019801EBE071029801440398401A6F
:102DB000401E0390E00306D453462146179A039819
:102DC00000F05CF805441398007818B15246179942
:102DD00090476D1CE00323D553462146179A03986C
:102DE00000F04CF805441BE0BBF1000F07DB009836
:102DF000584504DD1098179910F80B0001E0179959
:102E000030205246904701980BF1010B401E05F10E
:102E10000105019004D12E205246179990476D1C50
:102E2000B9F10001A9F10109DEDC05E017F8010B99
:102E30005246179990476D1C0299481E029000292E
:102E4000F4DC53462146179A03989EE62D000000B5
:102E50002B000000200000002DE9F0410446002571
:102E60001E461746880404D405E039462020B047A2
:102E70006D1C641EF9D52846BDE8F0812DE9F041AE
:102E8000044600251E469046C80301D5302700E0C1
:102E90002027880404D505E041463846B0476D1C1C
:102EA000641EF9D52846BDE8F0810A68531C0B6002
:102EB0001070704710B54FF4FA60FEF775FB401CB8
:102EC00030B90748C16907A088470B48FFF740F8A9
:102ED0000348C16909A08847FEF79EFA10BD0000AB
:102EE000000000200D0A4A756D7020746F2041505B
:102EF00050210D0A00000000005000080D0A456E28
:102F00007465722074686520636F6D6D616E6420F6
:102F10006C696E652E0D0A0070B504460D461348A7
:102F2000006820B929462046FEF7EEFB1CE00F485A
:102F3000007800F0040020B129462046FEF73EFD4F
:102F400012E00A48007800F0080020B12946204627
:102F5000FEF766FC08E00548007800F0200018B194
:102F600029462046FEF7E8FC70BD0000A4000020C2
:102F7000024908800121024A11707047AA0000200E
:102F8000A800002010B5044603E04FF47A7000F06A
:102F900005F8201EA4F10104F7D110BD0146174A1F
:102FA000127802B970474FF0E022126942F0040231
:102FB0004FF0E0231A61124A12884A435A610022F4
:102FC0009A611A46126942F001021A6100BF4FF07D
:102FD000E022106900F001021AB100F48032002AE8
:102FE000F5D04FF0E022126922F001024FF0E02309
:102FF0001A6100229A6100BFD4E70000A8000020F7
:10300000AA00002070B5044614B94FF0FF3070BD1F
:10301000402000F0B7FA6061606910B94FF0FF30EE
:10302000F5E765692068286060686860A068A86046
:10303000E068E860284600F053F90648A0610648B9
:10304000E06106482062064860620120207400208A
:10305000DDE70000531500087F1500082115000862
:10306000F914000810B530210448FDF77AF8044837
:10307000024B30220021046AA04710BDE00000206E
:103080002C00002070B5094D00240BE005EBC402B4
:10309000E006010E0648C36998470520FFF772FF56
:1030A000601CC4B2062CF1D370BD0000E00000200B
:1030B0002C000020014611B94FF0FF307047054841
:1030C00088600548086105484861012008700020B3
:1030D000F4E700008F160008CF16000879160008E4
:1030E00010B5002821D0114B0022001F196803E001
:1030F000814203D80A4649680029F9D152B11368C0
:10310000841A9C4204D1006818441060104602E002
:10311000506000E0186039B102680B1A934203D185
:103120000B681A4402604968416010BDC00000206D
:1031300070B53A48D0F80004394D55F8202037488A
:10314000D0F800143748C36937A098473348D0F8FF
:103150000004294611F8200000F00300002852D195
:10316000FEF760FA002416E02C48B0F800040005D1
:1031700000EB842138484FF48063284A056CA84747
:10318000364800EB842136484FF48063234A0569B2
:10319000A847601CC4B22148D0F80004204951F867
:1031A0002000B4EB902FDFD31C48D0F8000431F896
:1031B0002000C0F3090000B31848B0F8000400056F
:1031C00000EB84211548D0F80004154A32F820009D
:1031D000C0F309032048114A056CA8470F48D0F8EE
:1031E00000040F4A32F82000C0F309031B4800EB2B
:1031F00084211B48094A0569A8470A48C16919A0E2
:103200008847FDF765FD0748C1691FA08847234827
:10321000006820F001002149086070BD1001002005
:10322000E0000020000000200D0A4C6F6164207453
:10323000686520256474682070726F6772616D2CF8
:10324000206C656E6774682069732025642062793C
:103250007465732E0D0A0000540000200050000811
:10326000C80000200D0A41505020757064617465DB
:1032700020636F6D706C657465642C207265737467
:10328000617274210D0A00000D0A4C656E67746846
:10329000206572726F72210D0A000000A4000020E8
:1032A00010B50120FFF76EFE0A48D0F80404B0F50F
:1032B0007A7F07D30848C16908A0884700200549DC
:1032C000C1F804040348D0F80404401C0149C1F8C3
:1032D000040410BD10010020000000204300000085
:1032E00038B5044614B94FF0FF3038BD5C4920684A
:1032F000884204D101210420FDF72EFD34E0594914
:103300002068884204D101210820FDF725FD2BE02B
:1033100055492068884204D101211020FDF71CFD89
:1033200022E052492068884204D101212020FDF783
:1033300013FD19E04E492068884204D10121402044
:10334000FDF70AFD10E04B492068884204D10121B5
:103350008020FDF701FD07E047492068884203D13E
:1033600001218015FDF7F8FC3D49A068884204D191
:1033700001210420FDF7F0FC34E03A49A0688842BE
:1033800004D101210820FDF7E7FC2BE03649A068B5
:10339000884204D101211020FDF7DEFC22E03349F0
:1033A000A068884204D101212020FDF7D5FC19E056
:1033B0002F49A068884204D101214020FDF7CCFCB0
:1033C00010E02C49A068884204D101218020FDF73B
:1033D000C3FC07E02849A068884203D10121801579
:1033E000FDF7BAFC14208DF8030003208DF80200CD
:1033F000A08880B2ADF8000069462068FDF73EFB6A
:1034000014208DF8030003208DF80200A08980B2FB
:10341000ADF800006946A068FDF730FB1748606111
:103420001748A0611748E06117482062174860629A
:103430001748A0621748E0631748E0621748206306
:10344000174860631748A06301212046FEF78BFCF4
:1034500001212046FEF7A7FC01202074002044E74C
:1034600000080140000C0140001001400014014020
:1034700000180140001C014000200140331E0008DC
:10348000631E0008F71D00082D1D0008CD1D000853
:10349000051D0008ED1B0008031C0008751C000832
:1034A000931E0008E91E00084FF44070FDF706FC6B
:1034B00001210846FDF750FC01212948FDF76AFB70
:1034C0002848406820F02000264948604820FFF73F
:1034D0004FFD254800F07CFA2448FFF793FD24486F
:1034E00000F09EFB2348FFF7E5FD1F48C16922A0BD
:1034F0008847FFF7B7FDFFF7DDFC2FE01F48406D61
:103500001E49896D88421BD01C4A926D92881B4BC4
:103510009B6D1B88D21A521C91B2184A926D10688A
:10352000FFF7FAFC1548806D083014498865084695
:10353000806DC96D884203D11048001D011F886548
:103540000F48007800F0020008B1FFF7A9FE0C4810
:10355000007800F0010008B1FFF7EAFDCEE70000B7
:1035600000023000002004E0000000202C000020B9
:1035700054000020C80000200D0A00002015002083
:10358000A4000020F0B50B30154D20F007010024F9
:10359000144A0FE003688B420BD38B4205D95E1AA5
:1035A00043184768C3E9006700E04368136002C03E
:1035B00004E0021D10680028ECD12046002802D14A
:1035C000286808B10020F0BD064A07481060074A85
:1035D000121A22F00702C0E9002401202860D7E770
:1035E000C4000020C00000208415002080170020A7
:1035F00010B586B004461CB94FF0FF3006B010BDC0
:10360000E4492068884204D101218014FDF7A4FB1D
:1036100010E0E1492068884204D101210014FDF73F
:103620007BFB07E0DD492068884203D10121C013FC
:10363000FDF772FBDA496068884204D10121042059
:10364000FDF78AFB34E0D7496068884204D1012144
:103650000820FDF781FB2BE0D3496068884204D144
:1036600001211020FDF778FB22E0D04960688842F4
:1036700004D101212020FDF76FFB19E0CC496068DF
:10368000884204D101214020FDF766FB10E0C949C2
:103690006068884204D101218020FDF75DFB07E0CE
:1036A000C5496068884203D101218015FDF754FBAC
:1036B000BB49E068884204D101210420FDF74CFB9E
:1036C00034E0B849E068884204D101210820FDF7C0
:1036D00043FB2BE0B449E068884204D1012110206B
:1036E000FDF73AFB22E0B149E068884204D10121AC
:1036F0002020FDF731FB19E0AD49E068884204D194
:1037000001214020FDF728FB10E0AA49E06888422B
:1037100004D101218020FDF71FFB07E0A649E068E6
:10372000884203D101218015FDF716FB9C49606991
:10373000884204D101210420FDF70EFB34E09949B1
:103740006069884204D101210820FDF705FB2BE0C8
:1037500095496069884204D101211020FDF7FCFAE7
:1037600022E092496069884204D101212020FDF7BE
:10377000F3FA19E08E496069884204D101214020A2
:10378000FDF7EAFA10E08B496069884204D1012113
:103790008020FDF7E1FA07E087496069884203D19C
:1037A00001218015FDF7D8FA7D49E069884204D1EE
:1037B00001210420FDF7D0FA34E07A49E06988421B
:1037C00004D101210820FDF7C7FA2BE07649E06912
:1037D000884204D101211020FDF7BEFA22E073498E
:1037E000E069884204D101212020FDF7B5FA19E0F3
:1037F0006F49E069884204D101214020FDF7ACFA0D
:1038000010E06C49E069884204D101218020FDF775
:10381000A3FA07E06849E069884203D101218015D5
:10382000FDF79AFA18208DF8030003208DF80200A6
:10383000208980B2ADF8000069466068FDF71EF986
:1038400018208DF8030003208DF80200208A80B232
:10385000ADF800006946E068FDF710F948208DF8E2
:10386000030003208DF80200208B80B2ADF8000029
:1038700069466069FDF702F910208DF80300032006
:103880008DF80200208C80B2ADF800006946E06936
:10389000FDF7F4F84FF48270ADF806000020ADF8A3
:1038A0000400ADF80800ADF81200A08C022801D188
:1038B000002023E0A08C042801D108201EE0A08C69
:1038C000082801D1102019E0A08C102801D118205F
:1038D00014E0A08C202800D110E0A08C402801D159
:1038E00028200BE0A08C802801D1302006E0A08C9D
:1038F000B0F5807F01D1382000E00020ADF8100045
:1039000094F8260028B90020ADF80A00ADF80C00A4
:103910001EE094F82600012806D10020ADF80A0028
:103920000120ADF80C0013E094F82600022805D120
:10393000ADF80A000020ADF80C0009E094F826006C
:10394000032805D10220ADF80A000120ADF80C00D3
:103950004FF40070ADF80E000720ADF8140001A977
:103960002068FDF7C9FA01212068FDF77FFA1348A6
:10397000E06213482063134860631348A063134850
:10398000E06301212046FEF722FB012084F8280095
:10399000002033E60030014000380040003C004089
:1039A00000080140000C01400010014000140140DB
:1039B00000180140001C014000200140CF1F0008FA
:1039C000FD1F00080B20000819200008E31F000855
:1039D00010B586B004461CB94FF0FF3006B010BDDC
:1039E00081492068884204D101218803FDF7B4F998
:1039F00010E07E492068884204D101214804FDF787
:103A00008BF907E07A492068884203D101218804B4
:103A1000FDF782F97749A068884204D1012104208A
:103A2000FDF79AF934E07449A068884204D1012175
:103A30000820FDF791F92BE07049A068884204D175
:103A400001211020FDF788F922E06D49A068884225
:103A500004D101212020FDF77FF919E06949A06810
:103A6000884204D101214020FDF776F910E0664933
:103A7000A068884204D101218020FDF76DF907E09C
:103A80006249A068884203D101218015FDF764F9DD
:103A900058492069884204D101210420FDF75CF9CE
:103AA00034E055492069884204D101210820FDF7FE
:103AB00053F92BE051492069884204D1012110209B
:103AC000FDF74AF922E04E492069884204D10121DC
:103AD0002020FDF741F919E04A492069884204D1C4
:103AE00001214020FDF738F910E04749206988425C
:103AF00004D101218020FDF72FF907E04349206917
:103B0000884203D101218015FDF726F918208DF890
:103B1000030003208DF80200A08980B2ADF80000F8
:103B20006946A068FCF7AAFF48208DF8030003202F
:103B30008DF80200A08A80B2ADF8000069462069C5
:103B4000FCF79CFF606802900020ADF814000C2088
:103B5000ADF812000020ADF81000ADF80E00ADF881
:103B60000C0002A92068FDF7B7FB012240F22441B6
:103B70002068FDF78CFB1C492068884201D1252074
:103B80000CE01A492068884201D1262006E0184935
:103B90002068884201D1272000E000208DF8040031
:103BA00001208DF807008DF805008DF8060001A8AA
:103BB000FDF74CF82046FEF7D3FA2046FEF7ACFAA4
:103BC00001212068FDF7C8FA07492068884205D11D
:103BD0000F48E0610F4820620F4860620F48A06202
:103BE000012020760020F9E6003801400044004022
:103BF0000048004000080140000C01400010014056
:103C00000014014000180140001C01400020014048
:103C10004D200008ED200008A920000849210008D7
:103C200070B5044614B94FF0FF3070BD4020FFF767
:103C3000A9FCA062A06A10B94FF0FF30F5E7A56AB1
:103C40002068286060686860A068A860E0686861B3
:103C50002069A8616069E860A0692861E069E8619D
:103C6000206A28620220A884002085F826002846C1
:103C7000FFF7BEFC0A48E0620A4820630A48606316
:103C80000A48A0630A48E0630A4820640A4860645E
:103C90000A48A064012084F824000020C5E7000041
:103CA000C123000805230008B124000813240008DC
:103CB0008D2200086923000895240008D9220008F5
:103CC0000D0A4C6F6164696E672070726F67726174
:103CD0006D732066726F6D2065787465726E616CAD
:103CE00020466C6173682C20706C6561736520657B
:103CF0006E746572207468652070726F6772616D92
:103D0000206C6F636174696F6E2028312D39292E04
:103D10000D0A00000D0A49415020646F776E6C6FE8
:103D200061642070726F6772616D7320746F2065BB
:103D3000787465726E616C20466C6173682C2070BB
:103D40006C6561736520656E7465722074686520AA
:103D500070726F6772616D206C6F636174696F6EF2
:103D60002028312D39292E0D0A0000000D0A446F3C
:103D7000776E6C6F6164207468652070726F677213
:103D8000616D20746F207468652025647468206CF0
:103D90006F636174696F6E206F66206578746572F9
:103DA0006E616C20466C617368207573696E672064
:103DB00074686520586D6F64656D2070726F746FE4
:103DC000636F6C2C20706C65617365207573652062
:103DD00062696E20666F726D61742066696C652E13
:103DE0000D0A0000043E000800000020C80000008A
:103DF000B01F0008CC3E0008C8000020B81A000020
:103E0000C01F00080038014000100E0000080140EB
:103E10000002000000080140000400000000000053
:103E20000000000000000000000000000000000092
:103E3000000C014040000000000C01408000000028
:103E40000000000000000000000000000000000072
:103E5000000000000000000000380040000C01409D
:103E600000200000000C014000400000000C014058
:103E700000800000000801400080000000000000F9
:103E80000000000000000000000000000000000032
:103E90000000000000000000000000000000000022
:103EA0000000000000000000000000000000000012
:103EB00000000000010203040102030406070809D0
:0C3EC000020406080000000000000000E2
:04000005080000ED02
:00000001FF
