:020000040800F2
:10000000480F00200D010008A10B0008990B000803
:100010009D0B0008DD060008151100080000000017
:10002000000000000000000000000000D10D0008EA
:100030008908000800000000290C0008BD0E000817
:1000400027010008270100082701000827010008F0
:1000500027010008270100082701000827010008E0
:1000600027010008270100082701000827010008D0
:1000700027010008270100082701000827010008C0
:1000800027010008270100082701000827010008B0
:1000900027010008270100082701000827010008A0
:1000A0002701000827010008270100082701000890
:1000B0002701000827010008270100082701000880
:1000C0002701000827010008270100082701000870
:1000D00027010008210F0008310F0008410F000818
:1000E000270100082701000827010008DFF810D0C9
:1000F00000F054FA00480047BD3D0008AFF300800F
:10010000480F002080F308887047000006488047A9
:1001100006480047FEE7FEE7FEE7FEE7FEE7FEE7EC
:10012000FEE7FEE7FEE7FEE7C10E0008ED0000086F
:1001300040EA01039B0703D009E008C9121F08C069
:10014000042AFAD203E011F8013B00F8013B521EE9
:10015000F9D27047D2B201E000F8012B491EFBD260
:1001600070470022F6E710B513460A4604461946C2
:10017000FFF7F0FF204610BD421C10F8011B0029BC
:10018000FBD1801A70470022CBB20178994200D18E
:100190000246401C0029F8D11046704730B50B4686
:1001A000014600202022012409E021FA02F59D42A7
:1001B00005D303FA02F5491B04FA02F52844151E7B
:1001C000A2F10102F1DC30BD2DE9F05F054600200F
:1001D00092469B4688460646814640241BE02846B8
:1001E00041464746224600F0FAF953465A46C01A9D
:1001F000914110D311461846224600F0E1F92D1A1C
:1002000067EB01084F4622460120002100F0D8F993
:1002100017EB00094E41201EA4F10104DFDC484623
:1002200031462A464346BDE8F09F2DE9FE4F804601
:1002300081EA0300C00F0C46009021F0004123F03A
:100240000045B8EB0200A94105D240462146904640
:100250001C460B46024623F00040104347D0270DB2
:10026000C7F30A00C3F30A510290401A01904028D4
:100270006BDAC3F3130040F4801B0098924620B160
:100280000023D2EB030A63EB0B0B01985946C0F134
:100290004002504600F094F906460D465046594635
:1002A000019A00F0ACF910EB08006141002487EAE4
:1002B000115284EAE7731A4340D0009A62B3019A5C
:1002C000012A4FEA075215DC001B61EB02014FF0D7
:1002D000004202EA0752CDE90042001C41F58011BC
:1002E00032462B4600F0ACF903B0BDE8F08F404633
:1002F0002146F9E7001B61EB0201001C41F5801368
:1003000000185B412018A2F5001747EB030140EAF3
:10031000D570B6196D4111E06D084FEA360645EA11
:10032000C0754FEA0752001B61EB0201001C41F54A
:10033000801149084FEA30000019514132462B46DE
:1003400003B0BDE8F04F00F06CB900980122400006
:100350000023D0EB020263EBE073009821464FEAE2
:10036000E074B8EB000061EB0401E9E783F00043BF
:100370005BE781F0004158E72DE9FE4F81EA030475
:1003800004F0004421F0004100944FF0000B23F0F2
:10039000004350EA01045ED052EA03045BD0C3F389
:1003A0000A54C1F30A552C44A4F2F3340194A0FB7F
:1003B0000254C1F3130141F48011C3F3130343F456
:1003C000801301FB024400FB034E840A970A44EAAF
:1003D000815447EA8357A4FB076802958D0A05FB01
:1003E00007854FEA932C04FB0C542705029D4FEA26
:1003F000065847EA1637B5EB08056EEB070C870E73
:10040000920E47EA811742EA8312A7FB0201B6EB7C
:100410000B0164EB00042B0D43EA0C335E1844EB34
:100420001C50DA465146E7FB0201C5F313044FEABC
:100430000B3343EA14534FEA0432019C43EA0603A8
:10044000A4F10C040294009CCDE900B400F0F8F88B
:1004500003B0BDE8F08F00200146F9E72DE9F04D2B
:1004600081EA030404F0004B21F0004514464FF0EC
:10047000000A23F0004150EA050220D054EA0102AC
:100480001DD0C5F30A570246C5F31303C1F3130089
:10049000C1F30A5640F4801543F48013A7EB060815
:1004A000101BD64608F2FD3873EB050002D308F1A5
:1004B000010801E092185B41B8F1000F03DA002057
:1004C0000146BDE8F08D00204FF4801106468446B9
:1004D0000EE0171B73EB050705D3121B63EB050337
:1004E00006434CEA010C49084FEA300092185B4180
:1004F00050EA0107EDD152EA030012D082EA04006B
:1005000083EA0501084305D0101BAB4106D2012246
:10051000002306E000224FF0004302E06FF00102EA
:1005200053101AEB06004CEB085110EB0A0041EB9C
:100530000B01BDE8F04D00F074B8C1F30A52C1F3ED
:10054000130140F2FF3341F480119A4202DA002095
:100550000146704740F233439A42A2F2334202DC32
:10056000524200F03CB800F02BB8000030B5041E39
:1005700071F1000404DB4FF00044404264EB0101E0
:10058000141E73F1000405DB1C464FF00043524279
:1005900063EB0403994208BF904230BD064C074DFF
:1005A00006E0E06840F0010394E807009847103443
:1005B000AC42F6D3FFF79EFDC04E0008E04E0008A7
:1005C000202A04DB203A00FA02F100207047914013
:1005D000C2F1200320FA03F3194390407047202A08
:1005E00004DB203A21FA02F00021704721FA02F3DD
:1005F000D040C2F120029140084319467047202A9A
:1006000006DBCB17203A41FA02F043EAE07306E03A
:1006100041FA02F3D040C2F120029140084319464A
:10062000704710B5141E73F1000408DA401C41F144
:10063000000192185B411A4301D120F0010010BD66
:100640002DE9F04D92469B4611B1B1FA81F202E0DC
:10065000B0FA80F220329046FFF7B2FF04460F4610
:1006600040EA0A0041EA0B0153465A46084313D0B8
:10067000114653EA010019D0C8F140025046FFF775
:10068000AEFF05460E46504659464246FFF798FFD4
:10069000084305D0012004E020463946BDE8F08D2E
:1006A0000020054346EAE0762C4337430A98630569
:1006B000E40AA0EB08000022FD0A44EA47540A308D
:1006C00002D500200146E9E7010510196941DDE97D
:1006D000084500196941BDE8F04DA2E700BFFEE7FB
:1006E00021B1026842F00102026004E002684FF6A4
:1006F000FE731A400260704701684FF6FE721140A7
:1007000001600021016041608160C1604B49884205
:1007100008D14A490839496841F00F01474A083A67
:1007200051608AE045491431884208D1434908396B
:10073000496841F0F001414A083A51607DE03F4983
:100740002831884208D13D490839496841F470612F
:100750003A4A083A516070E038493C31884208D141
:1007600036490839496841F47041344A083A5160C1
:1007700063E032495031884208D13049083949682C
:1007800041F470212D4A083A516056E02B496431FA
:10079000884208D129490839496841F47001274A3B
:1007A000083A516049E025497831884208D1234907
:1007B0000839496841F07061204A083A51603CE0CC
:1007C0001F49884206D1011F096841F00F01021F2D
:1007D000116032E01A491431884208D11849091FC2
:1007E000096841F0F001164A121F116025E0144912
:1007F0002831884208D11249091F096841F4706103
:100800000F4A121F116018E00D493C31884208D18F
:100810000B49091F096841F47041094A121F116010
:100820000BE007495031884207D10549091F096883
:1008300041F47021024A121F116070470800024003
:10084000080402400146486880B2704710B5002293
:10085000026847F6F0739A430C6A8B6823430C696D
:1008600023434C6923438C692343CC6923434C6A5B
:1008700023438C6A23431A430260CB6843600B68AE
:1008800083604B68C36010BD704700000149C860B9
:10089000704700000020024030B5044604254FF4A4
:1008A000302000F085F80546042D17D10C4800696A
:1008B00040F002000A49086108464461006940F0BE
:1008C000400008614FF4302000F072F805460448FB
:1008D000006941F6FD71084001490861284630BDB4
:1008E0000020024004200B49C96801F0010109B150
:1008F00001200EE00749C96801F0040109B1022096
:1009000007E00449C96801F0100109B1032000E0C3
:1009100004207047002002400348006940F0800036
:1009200001490861704700000020024078B5064682
:100930000C46042500200090E80200F039F8054636
:10094000042D24D11348006940F0010011490861C9
:100950003480E80200F02CF80546042D10D1B01CBC
:100960000090200C00990880E80200F021F805466C
:100970000848006941F6FE7108400649086106E032
:100980000448006941F6FE710840024908612846A2
:1009900078BD000000200240024803494860034837
:1009A000486070472301674500200240AB89EFCDC6
:1009B00000B502460423FFF795FF034603E0FFF767
:1009C00091FF0346521E012B01D1002AF7D102B933
:1009D0000523184600BD2DE9F041024600250026FA
:1009E000002000230024002791F803C00CF00F051D
:1009F00091F803C00CF0100CBCF1000F03D091F87B
:100A000002C04CEA050591F800C0BCF1000F31D0DE
:100A1000146800202BE04FF0010C0CFA00F3B1F841
:100A200000C00CEA03069E4220D183004FF00F0C59
:100A30000CFA03F7BC4305FA03FC4CEA040491F8F2
:100A400003C0BCF1280F06D14FF0010C0CFA00FCDA
:100A5000C2F814C00AE091F803C0BCF1480F05D1F8
:100A60004FF0010C0CFA00FCC2F810C0401C082822
:100A7000D1D31460B1F800C0BCF1FF0F34DD54686D
:100A800000202EE000F1080C4FF0010808FA0CF3EA
:100A9000B1F800C00CEA03069E4221D183004FF05A
:100AA0000F0C0CFA03F7BC4305FA03FC4CEA0404F0
:100AB00091F803C0BCF1280F05D100F1080C08FA29
:100AC0000CF8C2F8148091F803C0BCF1480F07D1AC
:100AD00000F1080C4FF0010808FA0CF8C2F8108079
:100AE000401C0828CED35460BDE8F081F0B50A461A
:100AF000002300240021002500F00046B6F1004F3D
:100B000002D11D4EF16901E01B4E7168C0F303452F
:100B100083B200F44016B6F5401F08D121F0706191
:100B2000154E766826F07066134F7E6012E000F472
:100B30008016B6F5801F06D1032606FA05F4A143F8
:100B400041F0706106E0460D360103FA06F6B14346
:100B500041F0706122B1460D360103FA06F63143C9
:100B600000F00046B6F1004F02D1034EF16101E002
:100B7000014E7160F0BD00000000014002460020FF
:100B800093680B400BB1012000E0002070470AB1D0
:100B9000016100E04161704700BFFEE700BFFEE772
:100BA0007047000070B5002100230F22C47804B301
:100BB000154C246804F4E064C4F5E064210AC1F132
:100BC0000403CA40447804FA03F1847814402143B2
:100BD00009010E4C0678A155047804F01F05012484
:100BE000AC4005786D11AD0005F1E025C5F8004178
:100BF00009E0047804F01F050124AC40044D067898
:100C0000761145F8264070BD0CED00E000E400E0F0
:100C100080E100E002490143024A11607047000090
:100C20000000FA050CED00E07047000029B1064A0B
:100C300052690243044B5A6104E0034A52698243F9
:100C4000014B5A61704700000010024029B1064A6A
:100C5000D2690243044BDA6104E0034AD269824359
:100C6000014BDA61704700000010024029B1064ACA
:100C700092690243044B9A6104E0034A92698243F9
:100C8000014B9A61704700000010024030B500210E
:100C90000022002400232D4D6D6805F00C0121B1C8
:100CA000042905D0082923D105E0294D056022E05B
:100CB000274D05601FE0254D6D6805F47012234D2A
:100CC0006D6805F48034022505EB92421CB9214D74
:100CD000554305600BE01D4D6D6805F400351DB1F1
:100CE0001C4D5543056002E0194D5543056002E077
:100CF000174D056000BF00BF144D6D6805F0F00191
:100D00000909154D6B5C0568DD4045600F4D6D6848
:100D100005F4E061090A104D6B5C4568DD408560B3
:100D20000A4D6D6805F46051C90A0B4D6B5C45684E
:100D3000DD40C560054D6D6805F44041890B074DE8
:100D40006B5CC568B5FBF3F5056130BD0010024072
:100D500000127A0000093D006C0000207C00002099
:100D600021B1028842F04002028004E002884FF67E
:100D7000BF731A40028070470246002013890B405F
:100D80000BB1012000E000207047014688897047C0
:100D90008181704710B50022028802F441520B880D
:100DA0004C8823438C882343CC8823430C892343DA
:100DB0004C8923438C892343CC8923431A430280E3
:100DC000838B4FF2FF74234083830B8A038210BD11
:100DD000704710B500F002F810BD00000CB50020FF
:100DE000019000903348006840F480303149086039
:100DF00000BF3048006800F4003000900198401CAB
:100E00000190009818B90198B0F5A06FF1D1294868
:100E1000006800F4003010B10120009001E00020D3
:100E200000900098012843D12348006840F010004A
:100E3000214908600846006820F003000860084661
:100E4000006840F0020008601A484068194948608C
:100E50000846406848600846406840F48060486042
:100E60000846406820F47C1048600846406840F41A
:100E7000E81048600846006840F08070086000BFD5
:100E80000C48006800F000700028F9D0094840685C
:100E900020F00300074948600846406840F002001F
:100EA000486000BF0348406800F00C000828F9D1F2
:100EB0000CBD0000001002400020024070470000FE
:100EC00010B51348006840F0010011490860084659
:100ED0004068104908400E494860084600680E49BD
:100EE00008400B4908600846006820F4802008602C
:100EF0000846406820F4FE0048604FF41F008860F8
:100F0000FFF767FF4FF000600449086010BD000064
:100F1000001002400000FFF8FFFFF6FE08ED00E0C1
:100F200010B5024803F050FA10BD0000003801402F
:100F300010B5024803F048FA10BD0000004400401C
:100F400010B5024803F040FA10BD00000048004010
:100F500021B1828942F40052828104E082894DF6F7
:100F6000FF731A40828170471AB1838A0B438382D0
:100F700002E0838A8B438382704702460020B1F5EA
:100F8000007F00D100BF13880B400BB1012000E0AF
:100F90000020704770B50246002400230025002081
:100FA00040F66A16B14200D100BFC1F3421501F00C
:100FB0001F03012606FA03F3012D02D1968933405F
:100FC00006E0022D02D1168A334001E0968A3340B2
:100FD0000C12012606FA04F41688344013B10CB141
:100FE000012000E0002070BDF0B50346002400267B
:100FF0000025002040F66A17B94200D100BF18460C
:10100000C1F3421401F01F06012707FA06F5012C6F
:1010100001D10C3004E0022C01D1103000E014307A
:101020001AB107682F43076002E00768AF43076003
:10103000F0BD00002DE9F04786B005460E460024BD
:10104000A24600BFA1460027B08900B100BF2F46CD
:101050002C8A4CF6FF700440F08804432C82AC8943
:101060004EF6F3100440B088318908437189084373
:101070000443AC81AC8A4FF6FF400440B08904437E
:10108000AC8201A8FFF702FE1F48874202D1DDF8BB
:1010900010A001E0DDF80CA0A88900F4004040B1E8
:1010A0000AEBCA0000EB0A1031684900B0FBF1F806
:1010B00007E00AEBCA0000EB0A1031688900B0FBB8
:1010C000F1F86420B8FBF0F004012009642101FB71
:1010D0001089A88900F4004040B1322000EBC9001B
:1010E000B0FBF1F000F00700044308E0322000EB11
:1010F00009106421B0FBF1F000F00F0004432C81D3
:1011000006B0BDE8F087000000380140C1F30802D6
:101110008280704700BFFEE77CB50C001D46164676
:10112000014601D0601E00E00020CDE90010064B12
:101130006A462946304600F0DBF8002C02D0009ABF
:10114000002111707CBD0000F719000802E008C8FA
:10115000121F08C1002AFAD170477047002001E031
:1011600001C1121F002AFBD1704700002DE9FF5F6B
:1011700082B00021DDE90430020DDDF840B0034308
:1011800018D044F61050A2F2FF32424315141198C1
:1011900001281FD0A5EB0B00401C5FEA000A4FF0AE
:1011A00000064E4FDFF83891B046504615D5CAF1CB
:1011B000000413E0119801244AA3012801D16FEA29
:1011C0000B010298119AC0E90031C0E9024206B051
:1011D000BDE8F09FCBF10000DFE704460021404A64
:1011E000491842EB0450CDE9001012E0E00707D0A7
:1011F00032463B4640464946FFF7BEF880468946A0
:1012000032463B4610461946FFF7B6F806460F46EB
:101210006410002CEAD1DDE90401DDE90023BAF114
:10122000000F06DAFFF7A8F842464B46FFF7A4F88E
:1012300005E0FFF713F942464B46FFF70FF9044666
:101240000E460022284BFFF791F903D84FF0FF30EC
:10125000014607E00022254B20463146FEF7E5FF18
:10126000FFF76BF9102409E0002C0ADB0A220023A7
:10127000FEF7AAFF039B30321A55641E50EA0102A2
:10128000F2D1641C039AC4F111031444119A012A87
:1012900003D0012208430DD10AE0084304D0002006
:1012A0004FF0110B119072E7A3EB0B056D1E0DE0D3
:1012B0005B4504DD4FF0000205F1010504E003DAAF
:1012C0004FF00002A5F10105002AECD00298119917
:1012D000C0E90231C0E9004579E700000000144090
:1012E0000000F03F300000000000F0430000E03F4D
:1012F0002DE9FF4F95B09A46884606460025EEE157
:10130000252877D100242746F94A0121039400E0DB
:10131000044316F8013F203B01FA03F01042F7D1D5
:1013200030782A2811D06FF02F033078A0F13002E6
:10133000092A16D8039A44F0020402EB820203EB56
:1013400042021044761C0390EFE758F8042B0392F6
:10135000002A03DA504244F40054039044F002049B
:10136000761C30782E2816D116F8010F44F00404AC
:101370002A280DD06FF02F023078A0F13003092B0E
:1013800009D807EB870302EB4303C718761CF3E782
:1013900058F8047B761C30786C280FD006DC4C287B
:1013A00017D068280DD06A2814D104E0742810D012
:1013B0007A280FD10DE044F400140AE044F48014BC
:1013C00001E044F440147278824202D104F58014A2
:1013D000761C761C307866280BD013DC582877D022
:1013E00009DC002875D04528F6D04628F4D04728D7
:1013F0001AD193E118E0632835D0642879D06528A4
:1014000012D18BE1702873D008DC6728F1D06928ED
:101410006FD06E280DD06F2806D1ACE073282CD089
:10142000752874D0782853D05246179990476D1C70
:1014300054E1C4F30250022809D003280DD0D8F893
:10144000001004280DD00D6008F1040846E1D8F81A
:101450000010EA17C1E90052F6E7D8F800100D8035
:10146000F2E70D70F0E718F8041B8DF8001000206B
:101470008DF80100EB46012003E058F804BB4FF063
:10148000FF3061074FF0000102D40DE009F10101C6
:101490008946B9420FDA8145F8DB1BF809100029AB
:1014A000F4D108E009F1010189468142FADB1BF819
:1014B00009100029F6D103985346A0EB09072146ED
:1014C0003846179A00F080FA284400EB090507E037
:1014D00044E008E10DE01BF8010B524617999047D4
:1014E000B9F10109F7D2534621463846179AF2E07E
:1014F00039E00A21C4F302524FF0000B0091022A96
:1015000006D058F8040BC117032A09D00AE023E0DB
:1015100008F1070020F00702F2E80201904605E01A
:1015200000B2C117042A01D140B2C117002906DA5E
:101530000A460021404261EB02012D2202E0220511
:1015400004D52B228DF80420012203E0E20701D00C
:101550002022F7E7914657E00A2100E010214FF0E2
:10156000000B00910BE010214FF0000B44F004043D
:101570000827009103E008204FF0000B0090C4F30F
:101580000252022A05D058F8040B0021032A08D081
:1015900008E008F1070020F00702F2E80201904697
:1015A00003E080B2042A00D1C0B24FF00009220744
:1015B0002AD53278702A07D0DDF800C08CF0100CE4
:1015C0005CEA0B0C05D00EE040228DF804200122CD
:1015D00008E050EA010306D030238DF804308DF87E
:1015E000052002229146009B83F0080353EA0B0377
:1015F0000AD150EA010201D1620705D530228DF8E7
:1016000004204FF001097F1E3278582A04D039A2F5
:101610000C920CAA02920BE03BA2F9E75B46009AFF
:10162000FEF7D2FD0C9B9B5C029A521E0292137035
:1016300050EA0102F2D1029804A9081A00F1200B25
:10164000600702D524F4803400E001275F4502DD05
:10165000A7EB0B0000E0002000EB0B0100900398CB
:101660004944401A0390E00306D453462146179A92
:10167000039800F0A9F90544002706E001A85246A6
:10168000C05D179990476D1C7F1C4F45F6DBE0034A
:101690000CD553462146179A039800F095F9054456
:1016A00004E030205246179990476D1C0099481E5F
:1016B00000900029F5DC08E0029802995246007873
:1016C000491C0291179990476D1CBBF10001ABF1C9
:1016D000010BF1DC5BE100F065F90544761C307824
:1016E00000287FF40DAE19B02846BDE8F08F000049
:1016F00009280100303132333435363738396162E8
:1017000063646566000000003031323334353637AB
:10171000383941424344454600000000600700D488
:10172000062708F1070020F00700F0E802238046B2
:1017300003F0004C5FEA0C0001D097A009E02005FF
:1017400001D596A005E0E00701D095A001E0AFF239
:101750004C001390307823F0004365280CD006DC51
:10176000452809D046281DD047287FD13BE0662870
:1017700018D067287AD136E00021112F01DB112023
:1017800000E0781CCDE9000104A90CA8FFF7EEFCED
:10179000DDE90D010C9A4FF0000B07F101091092E1
:1017A00000914EE04FF000400097CDE9011004A9F0
:1017B0000CA8FFF7DBFCDDE90D020C9B0F994FF045
:1017C000000B91461093009211B9791C00EB0109AE
:1017D000B7EB090003D4C0F1FF3B07F10109A9EB06
:1017E0000700019042E0012F00DA01270021112FAC
:1017F00001DD112000E03846CDE9000104A90CA864
:10180000FFF7B4FCDDE90D010C9A00914FF0000BDD
:10181000B946109221070FD4009A4A4503DA91463F
:1018200001E0A9F10109B9F1010F05DD109AA9F153
:101830000101515C3029F4D0B84202DA10F1040FF2
:1018400003DA0121CDE9011010E0002803DC834414
:10185000A9EB000102E0411C494500DD8946A0EBEF
:101860000B00401C01904FF000400290200705D46F
:101870000198484502DB4FF0FF30019000208DF8C1
:101880004B0002980DF14B07B0F1004F25D002201C
:101890000C902B200D90029800280CDA4042029008
:1018A0002D200D9007E00A210298FEF777FC3031D9
:1018B000029007F8011D0C99481E0C900029F2DCDB
:1018C00002980028EFD1791E0D980870307800F04A
:1018D000200040F0450007F8020D11A8C01BC01DF4
:1018E00002901398007800B1012000EB09010198E3
:1018F00001EBE071029801440398401A401E0390E6
:10190000E00306D453462146179A039800F05CF88A
:1019100005441398007818B15246179990476D1CEA
:10192000E00323D553462146179A039800F04CF85C
:1019300005441BE0BBF1000F07DB0098584504DDB0
:101940001098179910F80B0001E0179930205246B3
:10195000904701980BF1010B401E05F10105019024
:1019600004D12E205246179990476D1CB9F1000101
:10197000A9F10109DEDC05E017F8010B52461799C1
:1019800090476D1C0299481E02900029F4DC5346D2
:101990002146179A03989EE62D0000002B000000B8
:1019A000200000002DE9F041044600251E461746A0
:1019B000880404D405E039462020B0476D1C641E1D
:1019C000F9D52846BDE8F0812DE9F041044600250F
:1019D0001E469046C80301D5302700E02027880422
:1019E00004D505E041463846B0476D1C641EF9D564
:1019F0002846BDE8F0814A68002A06D00A68531CD0
:101A00000B6010704868401E48607047F8B5054686
:101A100001F066FC064640212846FEF7A2FB30682E
:101A20002B4640220021C7683046B847044644B1DF
:101A300005A31A220CA115A0009402F079F9204602
:101A4000F8BD0020FCE700004661696C6564207405
:101A50006F207265616420656570726F6D206461CE
:101A600074613A20256400002E2E5C2E2E5C61707D
:101A7000705C626F6F746C6F616465725C626F6FD3
:101A8000745F73746F72652E630000005B45525281
:101A90004F525D002DE9F8430646B04601F020FCA8
:101AA0000746002418E008EBC402E006010E38687F
:101AB00083683846984705464DB118A337221FA1C1
:101AC00027A0009502F034F92846BDE8F8830520E8
:101AD00001F0F9FB601CC4B2082CE4D322A33E221F
:101AE00016A12BA002F024F940202BA33F2213A122
:101AF000009027A002F01CF908202DA340220FA17E
:101B0000009023A002F014F908202FA341220BA17A
:101B100000901FA002F00CF90020D6E74661696C26
:101B2000656420746F2077726974652065657072D2
:101B30006F6D20706167653A202564002E2E5C2E43
:101B40002E5C6170705C626F6F746C6F6164657243
:101B50005C626F6F745F73746F72652E6300000058
:101B60005B4552524F525D0041707020696E666F46
:101B700020736176656420746F20454550524F4D47
:101B8000207375636365737366756C6C7900000010
:101B90005B494E464F5D2000202053697A65202026
:101BA000202020203A20256420627974657300008B
:101BB0002020506167652073697A65203A2025648A
:101BC000206279746573000020205061676573207E
:101BD000202020203A202564000000001CB5044687
:101BE00000200190009015E0694601A801F084F8FA
:101BF000019860B10098012809D1019800787728F0
:101C000003D001980078572801D101201CBD012084
:101C100001F059FB201EA4F101018CB2E4D100BFF8
:101C2000F4E700000349D1F800148143014AC2F8E7
:101C3000001470478000002000B591B009A35A221B
:101C40000EA116A002F074F801A8FFF7DFFE0BA8A2
:101C500014A35D2209A1009010A002F069F80020F1
:101C600011B000BD436865636B204F544120766519
:101C70007273696F6E2E2E2E000000002E2E5C2EC9
:101C80002E5C6170705C626F6F746C6F6164657202
:101C90005C626F6F745F636D642E63005B494E46D8
:101CA0004F5D200056657273696F6E3A2025730D83
:101CB0000A00000010B500F0C1FC10BD08B50920F5
:101CC000054B372205A100900CA002F031F810203E
:101CD00001F03EF8002008BD544D00082E2E5C2E69
:101CE0002E5C6170705C626F6F746C6F61646572A2
:101CF0005C626F6F745F636D642E63005B494E4678
:101D00004F5D200010B517A349221BA122A002F0AD
:101D10000FF823A34A2218A131A002F009F832A338
:101D20004B2215A12EA002F003F83FA34C2212A1D2
:101D30002BA001F0FDFF4CA34D220FA128A001F024
:101D4000F7FF59A34E220CA125A001F0F1FF14A327
:101D50004F2209A122A001F0EBFF402000F0F8FF84
:101D6000002010BD496E6974204F54412076657281
:101D700073696F6E2E2E2E002E2E5C2E2E5C6170DF
:101D8000705C626F6F746C6F616465725C626F6FC0
:101D9000745F636D642E63005B494E464F5D2000A7
:101DA0002A2A2A2A2A2A2A2A2A2A2A2A2A2A2A2A93
:101DB0002A2A2A2A2A2A2A2A2A2A2A2A2A2A2A2A83
:101DC0002A2A2A2A2A2A2A2A2A2A2A2A2A2A2A2A73
:101DD0002A2A2A2A2A2A2A2A2A2A2A2A000000000B
:101DE0005B5741524E5D20002A20205741524E49F8
:101DF0004E473A204F54412076657273696F6E20CA
:101E0000696E697469616C697A657220696E766F52
:101E10006B656420202020202020202020202020EE
:101E20002020202A000000002A2020546869732006
:101E30006F7065726174696F6E206973206F6E6C6C
:101E40007920666F7220646562756767696E6720C6
:101E50006F7220666163746F727920736574757038
:101E60002020202A000000002A20204E6F742070BD
:101E7000617274206F66206E6F726D616C204F54BA
:101E80004120776F726B666C6F77202020202020B6
:101E90002020202020202020202020202020202042
:101EA0002020202A000000002A2020496E636F7243
:101EB0007265637420757365206D61792072657336
:101EC00065742076657273696F6E207374617465D2
:101ED00020756E65787065637465646C7920202068
:101EE0002020202A000000001CB515A37B2221A180
:101EF00028A001F01DFF29A37C221EA125A001F02E
:101F000017FF0FA37D221BA122A001F011FF0024C7
:101F10000DE02F4850F83400611C2EA38022CDE93B
:101F2000001014A11BA001F003FF601CC4B2072C19
:101F3000EFD303A382220FA116A001F0F9FE1CBD6E
:101F40003D3D3D3D3D3D3D3D3D3D3D3D3D3D3D3DC1
:101F50003D3D3D3D3D3D3D3D3D3D3D3D3D3D3D3DB1
:101F60003D3D3D3D3D3D3D3D3D3D3D3D3D3D3D3DA1
:101F7000000000002E2E5C2E2E5C6170705C626F83
:101F80006F746C6F616465725C626F6F745F636DB8
:101F9000642E63005B494E464F5D20007C2020206C
:101FA0002020202020202020426F6F744C6F61641D
:101FB0006572204F7065726174696F6E204D656E39
:101FC0007520202020202020202020207C000000C0
:101FD000004B00085B25645D20252D333073000025
:101FE00010B50CA3192213A11AA001F0A1FE00F054
:101FF00025FB1AA31B220FA116A001F099FE0120B8
:1020000000F0A6FE022000F0A3FE00F079FF002001
:1020100010BD000049415020646F776E6C6F6164A1
:10202000206669726D7761726520746F20466C61FD
:1020300073682E002E2E5C2E2E5C6170705C626FB9
:102040006F746C6F616465725C626F6F745F636DF7
:10205000642E63005B494E464F5D2000557365203A
:10206000586D6F64656D20746F20646F776E6C6F50
:10207000616420612042494E2066696C6520746F5E
:1020800020466C6173682E0008B50920054B2A2292
:1020900005A100900CA001F04BFE042000F058FEBA
:1020A000002008BDA44D00082E2E5C2E2E5C617011
:1020B000705C626F6F746C6F616465725C626F6F8D
:1020C000745F636D642E63005B494E464F5D200074
:1020D00010B505A367220AA111A001F029FE00F0A6
:1020E00041FE002010BD000053797374656D2072AD
:1020F000657374617274696E672E2E2E0000000085
:102100002E2E5C2E2E5C6170705C626F6F746C6F33
:10211000616465725C626F6F745F636D642E6300EF
:102120005B494E464F5D20002DE9F04192B00446D8
:102130000F4601F03DF98046012F09D036A3352224
:102140003CA146A0009701F0F3FD12B0BDE8F0817C
:102150002078312802DB2078392808D9207841A35B
:102160003B2234A100903DA001F0E2FDEDE7207894
:102170003038424908700420FFF754FD012000F078
:10218000E7FD022000F0E4FD082000F0E1FD00F092
:10219000B7FE02A8FFF73AFC00203849097802AAE6
:1021A00042F8210002A8FFF775FC3448007834A3F8
:1021B0004B2220A100903EA001F0BAFD00251DE0B9
:1021C0002E48007805EB0011D8F80000426940461F
:1021D0009047064636B138A3502216A13EA000967D
:1021E00001F0A6FD1021681C3DA35222CDE900019B
:1021F00010A12FA001F09CFD681CC5B2102DDFD3EB
:102200001E4800783BA355220AA1009028A001F0A7
:102210008FFD00BF99E70000496E76616C6964200C
:10222000696E707574206C656E6774683A202564F9
:10223000000000002E2E5C2E2E5C6170705C626FC0
:102240006F746C6F616465725C626F6F745F6578E8
:10225000745F666C6173682E630000005B574152C7
:102260004E5D2000496E76616C696420696E707500
:1022700074206E756D3A2025630000000400002074
:1022800045726173696E672074686520256474689F
:10229000206669726D77617265206F66206578745B
:1022A00065726E616C20466C6173682E2E2E000084
:1022B0005B494E464F5D20004661696C6564207441
:1022C0006F20657261736520626C6F636B20286597
:1022D00072723D25642900005B4552524F525D00E9
:1022E00045726173656420626C6F636B2025642F97
:1022F0002564000055736520586D6F64656D20740A
:102300006F20646F776E6C6F616420612042494E6C
:102310002066696C6520746F2065787465726E61E3
:102320006C20466C61736820736C6F742025642E7A
:102330000000000001480078704700000400002001
:102340002DE9F04792B001F0A1F8814601F030F894
:10235000804600F019FA82463A48077802A8FFF74B
:1023600055FB02A850F8275037A3822242A14CA067
:10237000CDE9007501F0DCFC05F0030000280CD06D
:1023800049A386223CA155A0009501F0D1FC202054
:10239000FFF748FC12B0BDE8F08700F04FF90024C9
:1023A0001AE0380500EB8421D8F8000053464FF4BA
:1023B0008062D0F818C04046E0472646314648467D
:1023C00000F0C6F9A80A47A399222BA1CDE9004045
:1023D00033A001F0ADFC641CB4EB952FE1D3C5F341
:1023E0000900B8B1380500EB8421C5F30902D8F81B
:1023F00000005346D0F818C04046E047C5F3090234
:102400003E4800EB8421D9F800005346D0F808C0BC
:102410004846E0470B48007838B902A8FFF7F6FABB
:102420000020119002A8FFF735FB2020FFF7FAFBF0
:1024300033A3B42210A11AA001F07AFC00F092FCA0
:1024400000BFA7E7040000204C6F6164696E67203D
:102450006669726D776172652066726F6D20736C4C
:102460006F74202564202873697A653D2564206295
:1024700079746573290000002E2E5C2E2E5C61702D
:10248000705C626F6F746C6F616465725C626F6FB9
:10249000745F6578745F666C6173682E630000001A
:1024A0005B494E464F5D2000496E76616C69642041
:1024B0006669726D776172652073697A6520286D2F
:1024C00075737420626520342D6279746520616CA7
:1024D00069676E6564293A20256400005B455252A5
:1024E0004F525D00557064617465642025642F252A
:1024F00064206368756E6B73000000000060000864
:102500004669726D77617265206C6F6164656420E5
:102510007375636365737366756C6C792C20726573
:102520007374617274696E672073797374656D2E4C
:102530002E2E000038B504460D46012D07D011A3FC
:10254000612217A120A0009501F0F2FB38BD207890
:10255000312802DB2078392808D920781CA367228B
:102560000FA1009018A001F0E3FBEFE71020FFF7A8
:1025700059FB207830381C490870202000F0E8FB17
:1025800000BFE3E7496E76616C696420696E70751F
:1025900074206C656E6774683A2025640000000042
:1025A0002E2E5C2E2E5C6170705C626F6F746C6F8F
:1025B000616465725C626F6F745F6578745F666C8E
:1025C0006173682E630000005B5741524E5D20002E
:1025D000496E76616C696420696E707574206E75E1
:1025E0006D3A20256300000004000020002001490E
:1025F00008707047040000202DE9F04106460D46A2
:102600000D480078000500EB852700F0BDF88046F6
:1026100000240CE008EB042307EB042130684FF49E
:102620008072D0F808C03046E047601CC4B2042C69
:10263000F0D3BDE8F081000004000020F8B500F000
:1026400025FF06461AA30F221CA125A001F070FB4E
:1026500030681822282143683046984740B122A3A9
:10266000172216A128A001F063FB4FF0FF30F8BD40
:102670000025274F002405E057F82400401C00B136
:102680006D1C641CB4F5205FF6D34DB121A3262246
:102690000AA11DA0009501F04BFB6FF00100E6E7D9
:1026A00024A32B2205A10EA001F042FB0020DEE7AF
:1026B0004572617365204150502E00002E2E5C2E15
:1026C0002E5C6170705C626F6F746C6F61646572B8
:1026D0005C626F6F745F666C6173682E63000000EC
:1026E0005B494E464F5D2000466C61736820657201
:1026F000617365206F7065726174696F6E206661C9
:10270000696C6564210000005B4552524F525D00C8
:10271000006000084661696C656420746F20657212
:102720006173652041505020286572723D256429EF
:102730002100000041505020657261736564207370
:1027400075636365737366756C6C79210D0A00009F
:102750002DE9F04105460C46074800EB842600F0C1
:1027600013F88046286843464FF4806231468768F4
:102770002846B847BDE8F081006000080148D0F85D
:10278000000470478000002000487047800000204F
:102790002DE9FC4104460F46012F08D01BA38F22D0
:1027A00021A129A0009701F0C3FABDE8FC8120789F
:1027B0003138C6B2072E08D3207825A395221AA156
:1027C000009021A001F0B4FAEFE7264800EBC60024
:1027D000406888B1234901EBC60148688047054637
:1027E000002D11D0207820A39C220FA1CDE9000557
:1027F00027A001F09DFA07E0207827A39E220AA1D6
:10280000009023A001F094FA00BFCEE7496E7661F4
:102810006C696420696E707574206C656E6774688D
:102820003A202564000000002E2E5C2E2E5C617084
:10283000705C626F6F746C6F616465725C626F6F05
:10284000745F636D642E63005B5741524E5D2000E0
:10285000496E76616C696420636F6D6D616E643A78
:1028600020256300004B0008436F6D6D616E64208E
:102870005B25635D206578656375746520666169B5
:102880006C656420286572723D2564290000000093
:102890005B4552524F525D00436F6D6D616E642017
:1028A0005B25635D20686173206E6F2068616E64D4
:1028B0006C65720001460448D0F80004084008B175
:1028C000012070470020FCE780000020F8B5054695
:1028D0002C68B4F1005F02D31048844207D910A3DA
:1028E000412217A11FA0009401F022FAF8BD1FA3F6
:1028F000442213A120A0009401F01AFA2046FDF70B
:1029000001FC6E6837461E480560BFF34F8FBFF36A
:10291000608F00F00FFAB84700BFE7E7FF4F0020D5
:10292000496E76616C6964204D53503A20307825A9
:10293000582C2061626F7274206A756D70000000FF
:102940002E2E5C2E2E5C6170705C626F6F746C6FEB
:10295000616465725C626F6F745F636F72652E6332
:10296000000000005B5741524E5D20004D53503A2D
:1029700020307825580000005B494E464F5D20000E
:1029800008ED00E000B591B001A8FFF73FF80B4952
:102990001098884208D10AA312220DA114A001F0B8
:1029A000C7F9012011B000BD109813A3162208A189
:1029B00000900FA001F0BCF90020F3E72211BBAAA0
:1029C0004F544120757067726164652100000000FA
:1029D0002E2E5C2E2E5C6170705C626F6F746C6F5B
:1029E000616465725C626F6F745F6F74612E630007
:1029F0005B494E464F5D20004E6F204F544120658D
:102A000076656E742C204F544120666C61673A20C5
:102A1000307825780000000030B593B005460C46AC
:102A2000142C10D318A32A2218A120A001F080F999
:102A3000142020A32B2215A1CDE900041BA001F036
:102A400077F913B030BD03A8FEF7E0FF14210DA8FD
:102A5000FDF787FB224629460DA8FDF769FB0021FB
:102A60000DA8015503A8FFF715F800B1E9E70DA877
:102A70001BA3382205A1009021A001F059F94020A4
:102A8000FFF7D0F800BFDCE7000000002E2E5C2E20
:102A90002E5C6170705C626F6F746C6F61646572E4
:102AA0005C626F6F745F6F74612E63005B4552529E
:102AB0004F525D00496E76616C6964207665727371
:102AC000696F6E206C656E20286D757374203C20D4
:102AD0002564206279746573293A2025640000001A
:102AE00056657273696F6E20696E697420737563C1
:102AF0006365737366756C6C793A2025730000000A
:102B00005B494E464F5D200038B54FF4FA64022011
:102B100011A3742220A1009028A001F009F92046F9
:102B2000FFF75CF888B9FFF72DFF28B1202000F0EF
:102B30000FF9FFF75BFD08E022A37C2216A11FA07E
:102B400001F0F6F82648FFF7C1FE26A3822212A163
:102B50001AA001F0EDF838BD426F6F746C6F6164BC
:102B600065723A2050726573732027772720776942
:102B70007468696E202564207365636F6E647320CA
:102B8000746F20656E74657220636F6D6D616E6425
:102B9000206C696E652E00002E2E5C2E2E5C6170FE
:102BA000705C626F6F746C6F616465725C626F6F92
:102BB000745F636F72652E63000000005B494E46D0
:102BC0004F5D2000426F6F746C6F616465723A20D4
:102BD0004A756D7020746F204150502E2E2E0000CB
:102BE00000600008426F6F746C6F616465723A2018
:102BF000456E74657220636F6D6D616E64206C69E3
:102C00006E652E00F8B506460D46EDB9002418E0B5
:102C100004EB4401254A12F82100FFF74BFE70B186
:102C200004EB4400214901EB8000406838B104EB1B
:102C300044011E4A02EB810148688047F8BD601CD0
:102C4000C4B2062CE4D3F9E7FFF798FD20B9294672
:102C50003046FFF79DFDF1E7002419E004EB440145
:102C6000124A12F82100FFF725FE78B104EB440068
:102C70000E4901EB8000806840B104EB440001EB99
:102C800080002946826830469047D7E7601CC4B26E
:102C9000062CE3D3FFF772FD074605A341220BA1E3
:102CA000009013A001F044F800BFC7E7384B0008BC
:102CB000496E76616C696420666C61672076616C30
:102CC00075653A2030782530385800002E2E5C2E5D
:102CD0002E5C6170705C626F6F746C6F61646572A2
:102CE0005C626F6F745F6576656E742E63000000C2
:102CF0005B5741524E5D20002DE9FC4104460D46D4
:102D000000F08CFA064600200190009030686A4678
:102D100001A903693046984707462FB1002020607B
:102D200028603846BDE8FC81019820600098286042
:102D30000020F7E7704770B504460D4600F06EFAC4
:102D4000064630682A462146C3683046984770BD1B
:102D50000349D1F800140143014AC2F80014704736
:102D600080000020C82000F0AEFA00BF06480068CE
:102D700000F4E06005490843001D03490860BFF303
:102D80004F8F00BF00BFFEE70CED00E00000FA052A
:102D900030B502460B46002016E012F8015B80EACF
:102DA000052000210EE000F400442CB141F2210482
:102DB00084EA4004A0B203E04FF6FF7404EA400046
:102DC0004C1CA1B20829EEDB1C1EA3F10105ABB21D
:102DD000E3D130BD10B590B0FFF7ACFA0446022045
:102DE000FEF720FF0820FFF765FDB0B10820FEF7D1
:102DF00019FF6846FEF70AFE0D484068C0014DF80D
:102E000024006846FEF746FE0AA3C3220FA118A0BD
:102E100000F08EFFFFF768F807E017A3C7220BA1A9
:102E200013A000F085FFFFF79DFF10B010BD00005C
:102E300008000020446F776E6C6F616420636F6DD3
:102E4000706C65746564210D0A0000002E2E5C2EE6
:102E50002E5C6170705C626F6F746C6F6164657220
:102E60005C626F6F745F786D6F64656D2E630000D8
:102E70005B494E464F5D20004941502075706461AA
:102E8000746520636F6D706C657465642C20726569
:102E90007374617274210D0A000000002DE9F0477F
:102EA00000F0F4FA054600F083FA8246FFF76CFC66
:102EB00007461148007900F007064FEAC6180E4889
:102EC0004068C4080EB9BDE8F0870820FFF7F2FC9F
:102ED00020B121465046FFF78FFB0BE0074800EB7F
:102EE000842928683B4642464946D0F808C028460F
:102EF000E04700BF00BFE6E70800002000600008D0
:102F00000020024908604860704700000800002067
:102F10002DE9F05F044600F0B9FA824600F048FA65
:102F20008346FFF731FC074694F8840094F8831039
:102F300040EA01288021E01CFFF72AFF8146C145B5
:102F400004D0002000F04BF8BDE8F09F1548406821
:102F5000401C1449486008460079401E00F00705EF
:102F600007EBC5108022E11CFDF7E2F80D48406830
:102F70000121C1EBD0060B48007900F0070060B9D1
:102F80000820FFF797FC20B131465846FFF734FB85
:102F900003E031465046FFF7DBFB012000F01FF84D
:102FA00000BFD1E70800002070B504460D46852D0E
:102FB00008D12078012805D1FEF734FE2046FFF71E
:102FC000A7FF0BE0012D09D12078042806D10120AC
:102FD00000F005F8FFF762FFFFF7FCFE70BD38B5A3
:102FE00004460CB1062000E015200090012168463F
:102FF000FFF7A1FE38BD000010B5012000F063F915
:1030000008480068B0F57A7F06D3012106A0FFF7D3
:1030100092FE00200349086002480068401C0149F4
:10302000086010BD08000020430000002DE9F843AF
:103030004FF44070FDF7EEFD01210846FDF716FE46
:1030400001213748FDF752FD3648406820F0200046
:103050003449486000F030F98146D9F80000016831
:103060004846884704464CB12FA31C2236A13CA0F9
:10307000009400F05DFE2046BDE8F88300F026FADB
:1030800005462868016828468847044644B136A3A7
:1030900023222DA132A0009400F04AFE2046EBE747
:1030A00000F01EF90646306801683046884704463D
:1030B00044B135A32A2224A129A0009400F038FEAF
:1030C0002046D9E700F0E2F907463868016838463B
:1030D0008847044644B134A331221BA120A00094A8
:1030E00000F026FE2046C7E700F062F98046D8F8D7
:1030F0000000016840468847044644B132A33822A4
:1031000011A117A0009400F013FE2046B4E737A3E6
:103110003C220DA13FA000F00BFE0020ACE7000018
:1031200000023000002004E04661696C6564207490
:103130006F20696E6974206273702064656C6179B8
:103140003A202564000000002E2E5C2E2E5C627357
:10315000705C6273705F636F6D6D6F6E2E630000E5
:103160005B4552524F525D004661696C6564207444
:103170006F20696E697420627370206932635F62C8
:1031800075733A20256400004661696C656420749B
:103190006F20696E69742062737020656570726F4C
:1031A0006D3A2025640000004661696C65642074F6
:1031B0006F20696E69742062737020666C61736839
:1031C0003A202564000000004661696C6564207443
:1031D0006F20696E69742062737020657874206650
:1031E0006C6173683A202564000000003D3D3D3D60
:1031F0003D3D205B42535020496E697420537563F6
:103200006365737366756C6C795D203D3D3D3D3D36
:103210003D0D0A005B494E464F5D20000048704757
:103220001000002010B504460249606800F02CFA36
:1032300010BD0000804B00080FB438B505466C681F
:1032400006A8009054B1E06A40B1E06A006828B175
:10325000E06A03682046009A05999847002000908C
:1032600038BC5DF814FB2DE9F04104460E461746C4
:103270006568E86A3A463146036928469847BDE8DA
:10328000F0812DE9F04104460E4617466568E86A6C
:103290003A4631468368284698470020BDE8F081C9
:1032A000F7B504460E466568E86A03683146284665
:1032B000029A9847FEBD00000048704718000020A1
:1032C00001460020704710B50446204600F046F93C
:1032D00010BD10B50446204600F050F910BD0000A6
:1032E000004870472000002010B5044600F0F2F8B6
:1032F000074908600846006810B96FF0040010BD67
:10330000082003490871606800F06EF9F7E70000D3
:10331000280000202DE9F04105460E461746984644
:103320006C681CB96FF00400BDE8F081A0684346EA
:103330003A463146D0F808C02046E047F4E72DE988
:10334000F04105460E4617466C681CB96FF0040044
:10335000BDE8F081A0683A463146036820469847A8
:10336000F6E72DE9F04105460E4617466C681CB994
:103370006FF00400BDE8F081A0683A46314643682A
:1033800020469847F6E770B504460E466568E8683B
:10339000314602692846904770BD70B504460E4616
:1033A0006568E8683146C2682846904770BD0000ED
:1033B000004870473C00002070B5044606490748A5
:1033C00000F04CF945B20DB1284670BD0449606863
:1033D00000F08CF9F9E70000D04B0008C00900208C
:1033E000F04B00082DE9F04104460E46174698467A
:1033F0006568E86843463A463146D0F814C0284626
:10340000E047BDE8F0812DE9F04104460E4617463D
:103410006568E8683A463146036828469847BDE83B
:10342000F0812DE9F04104460E461746984665683E
:10343000E86843463A463146D0F808C02846E04797
:10344000BDE8F0812DE9F04104460E461746984646
:103450006568E86843463A463146D0F804C02846D5
:10346000E047BDE8F0812DE9F04105460E461746DC
:103470006C681CB96FF00400BDE8F08120683A4622
:103480003146036820469847F6E700000048704739
:103490004800002010B50446606800F0B5F810BD83
:1034A0002DE9F04105460E46174698466C681CB952
:1034B0006FF00400BDE8F081206843463A4631468B
:1034C000D0F808C02046E047F4E700000048704705
:1034D0005000002000487047404C000810B50446DA
:1034E0000249606800F09CF810BD0000244C000800
:1034F000F8B504460D4616461F46054800978069F4
:1035000033462A462146D0F81CC00148E047F8BDA2
:10351000F40900202DE9F04104460D461646054801
:10352000806933462A462146076A0248B847BDE803
:10353000F0810000F4090020F8B504460D46164657
:103540001F4605480097806933462A462146D0F831
:1035500024C00148E047F8BDF409002010B5044636
:1035600004B910BD03E04FF47A7000F007F8201E94
:10357000A4F10104F7D100BFF3E7000000B97047E0
:103580004FF0E022126942F004024FF0E0231A618A
:10359000134A1268134BB2FBF3F24243521E4FF030
:1035A000E0235A6100229A611A46126942F0010230
:1035B0001A6100BF4FF0E022116901F001021AB157
:1035C00001F48032002AF5D04FF0E022126922F097
:1035D00001024FF0E0231A6100229A6100BFCEE79A
:1035E0005800002040420F00024602B111B96FF0AE
:1035F00004007047D1E90003C2E90003014890606C
:103600000020F6E74C4C0008014611B96FF00400A9
:103610007047024808600020FAE700005C4C000890
:1036200070B505460C4605B114B96FF0040070BDC5
:10363000182221462846FCF77BFD0748A861204652
:1036400000F095F90121284600F05EFA0121284694
:1036500000F080FA0020EAE76C4C000870B50546DF
:103660000C4605B114B96FF0040070BD202221464C
:103670002846FCF75DFD03482862204600F068FC00
:103680000020F2E7984C000870B506460D4606B1DA
:1036900015B96FF0040070BD698CA88C401C814284
:1036A00002DA6FF00500F6E7286800F013FF044621
:1036B00014B96FF00500EEE7201D6065A065483085
:1036C000E065E869616D086000202080266634604E
:1036D00028222946301DFCF72BFD0348F0622846BE
:1036E00000F0BAFD0020D6E7D84C000870B50546BA
:1036F0000C4605B114B96FF0040070BD94E80700E2
:1037000085E807000348E860204601F058F80020EB
:10371000F3E70000F04C0008014611B96FF0040017
:1037200070470020886000BFFAE72DE9F0410446A9
:103730000D4616461F461CB96FF00400BDE8F08127
:1037400020683B4632462946D0F808C05020E04762
:10375000F4E770B504460D46164614B96FF0040040
:1037600070BD206832462946036850209847F7E725
:103770002DE9F04104460E4615461CB96FF00400D1
:10378000BDE8F081227920682B46314647685020F9
:10379000B847F5E72DE9F04105462F212846FCF70B
:1037A000F2FC06465C212846FCF7EDFC0746BE42CB
:1037B00001D9304600E03846044614B1601CBDE82B
:1037C000F0812846FBE7014611B96FF0040070470D
:1037D0000020086000BFFAE72DE9F04180460D4661
:1037E0001646FDF7D9F81520FDF750F8002411E032
:1037F00030194FF0006101EB80273846FDF74CF897
:10380000042805D0FDF788F86FF00700BDE8F081C7
:10381000601C84B2AC42EBDBFDF77EF80020F5E7DC
:1038200003466FF0040070472DE9F04781460D46CE
:1038300016461F4605F0030018B16FF00400BDE8FE
:10384000F08706F0030010B16FF00400F7E7FDF712
:10385000A3F83520FDF71AF800240FE0A20857F866
:1038600022102819FDF762F88046B8F1040F04D041
:10387000FDF752F86FF00700E1E7241DB442EDD3E5
:10388000FDF74AF80020DAE7014611B96FF00400AD
:1038900070470020886100BFFAE7000010B50446B9
:1038A0001F49601A8C4223D009DC1E48204480B195
:1038B000B0F5806F12D0B0F5006F2DD113E0B0F5E8
:1038C000806F1AD0B0F5006F1CD0B0F5406F23D1D7
:1038D0001DE001210420FDF7C9F91EE001210820A7
:1038E000FDF7C4F919E001211020FDF7BFF914E03C
:1038F00001212020FDF7BAF90FE001214020FDF75A
:10390000B5F90AE001218020FDF7B0F905E00121B9
:103910000802FDF7ABF900E000BF00BF10BD0000DA
:103920000014014000F8FEBF38B5044614208DF89D
:10393000030003208DF80200A08880B2ADF80000DB
:1039400069462068FDF747F8A08980B2ADF800000D
:103950006946A068FDF73FF838BD70B505460C46CE
:103960001646A1B232462846FDF711F970BD10B5D2
:1039700004462068FFF792FFA068FFF78FFF2046FC
:10398000FFF7D2FF10BDF8B505460C4616461F4698
:1039900015B96FF00400F8BD284600F01FF9600665
:1039A000010E284600F0FCF86946284600F06CF845
:1039B0003146284600F0F4F86946284600F064F8DD
:1039C000284600F00BF9012000EB4400C1B2284664
:1039D00000F0E6F86946284600F056F839462846D1
:1039E00000F06BF80121284600F0C5F8284600F0E9
:1039F0000DF90020CFE72DE9F84307460D46904624
:103A00001E46DDF820901FB96FF00400BDE8F88372
:103A1000384600F0E3F86806010E384600F0C0F8BA
:103A20006946384600F030F84146384600F0B8F8AC
:103A30006946384600F028F8384600F0CFF80120F3
:103A400000EB4500C1B2384600F0AAF86946384696
:103A500000F01AF8002410E009EB0401384600F0E9
:103A60002CF8701EA04201D1012000E00020014688
:103A7000384600F080F8601C84B2B442ECDB384673
:103A800000F0C4F80020C1E770B504460D4614B933
:103A90006FF0040070BD0121204600F05BF80121A9
:103AA000204600F031F82946204600F03EF800217B
:103AB000204600F029F80020ECE7F8B506460C4651
:103AC00016B96FF00400F8BD0020207001213046C7
:103AD00000F040F8072513E00121304600F014F80B
:103AE0006946304600F021F820789DF80010A94082
:103AF000084320700021304600F006F8681E45B2E9
:103B0000002DE9DA0020DEE770B504460D4614B951
:103B10006FF0040070BD2A46D4E90001FFF71DFFD5
:103B2000D4E9040188470020F4E72DE9F041044678
:103B30000D461CB96FF00400BDE8F081D4E90267BE
:103B4000B9B23046FDF71AF82870D4E90401884765
:103B50000020F1E770B504460D4614B96FF004007B
:103B600070BD2A46D4E90201FFF7F7FED4E904014B
:103B700088470020F4E770B504460D4614B96FF08D
:103B8000040070BD29462046FFF7E4FF01212046CE
:103B9000FFF7BAFF00212046FFF7B6FF0020F0E74D
:103BA00070B505460E4615B96FF0040070BD0024CF
:103BB00010E08020204100EA06012846FFF7CAFFF6
:103BC00001212846FFF7A0FF00212846FFF79CFFB0
:103BD000601CC4B2082CECDB0020E7E710B50446FB
:103BE00014B96FF0040010BD01212046FFF7B2FFA9
:103BF00001212046FFF788FF00212046FFF7AAFF9A
:103C000000212046FFF780FF0020ECE710B50446B6
:103C100014B96FF0040010BD00212046FFF774FFB7
:103C200000212046FFF796FF01212046FFF76CFF99
:103C300001212046FFF78EFF0020ECE7F8B504468F
:103C40000D4616461F4614B96FF00400F8BD204615
:103C5000FFF7C4FF6806010E2046FFF7A1FF694683
:103C60002046FFF711FF31462046FFF799FF6946CE
:103C70002046FFF709FF39462046FFF791FF6946C6
:103C80002046FFF701FF2046FFF7C0FF0020DDE7D9
:103C90002DE9F84305460E4617469846DDF8209074
:103CA0001DB96FF00400BDE8F8832846FFF796FFC2
:103CB0007006010E2846FFF773FF69462846FFF796
:103CC000E3FE39462846FFF76BFF69462846FFF7B3
:103CD000DBFE00240AE019F804102846FFF760FF15
:103CE00069462846FFF7D0FE601C84B24445F2DBEB
:103CF0002846FFF78BFF0020D5E7000010B5FFF73F
:103D00008DFA09490860084600680068016806489D
:103D100000688847044800680068044982680248CF
:103D20000068904710BD000000000020104D000802
:103D30000FB42DE9FC4104460D4616461A480068AA
:103D400018B9BDE8FC015DF814FB2846FFF722FD19
:103D5000804615480096006800684346224613A135
:103D6000876811480068B8470CA801900E480068A1
:103D7000006868B10C4800680068406840B10A48B3
:103D80000068006843680848019A0B9900689847E2
:103D90000020019004480068006807A1826802487A
:103DA0000068904700BFCCE7000000202573202565
:103DB000733A25643A2000000D0A00001CB500206B
:103DC00001900090FFF79AFFFFF730F9FEF79CFE95
:103DD000FEF78AF807E0694601A8FEF78DFFDDE9E6
:103DE0000010FEF70FFFF6E770B504460D460448D5
:103DF000006A2A46214603680148984770BD0000C2
:103E0000C009002070B504460D460448006A2A46E1
:103E1000214643680148984770BD0000C009002052
:103E200070B504460D460448006A2A462146836858
:103E30000148984770BD0000C0090020014611B933
:103E40006FF0040070470020086200BFFAE770B509
:103E500004460D4629462046FCF78EFF08B1012096
:103E600070BD0020FCE7000010B504461F49601A31
:103E70008C4223D009DC1E48204480B1B0F5806F0D
:103E800012D0B0F5006F2DD113E0B0F5806F1AD0CD
:103E9000B0F5006F1CD0B0F5406F23D11DE00121BB
:103EA0000420FCF7E3FE1EE001210820FCF7DEFE03
:103EB00019E001211020FCF7D9FE14E00121202097
:103EC000FCF7D4FE0FE001214020FCF7CFFE0AE012
:103ED00001218020FCF7CAFE05E001210802FCF761
:103EE000C5FE00E000BF00BF10BD0000001401408F
:103EF00000F8FEBF38B5044603208DF802001820F4
:103F00008DF80300208980B2ADF800006946606832
:103F1000FCF761FD208B80B2ADF800006946606956
:103F2000FCF759FD48208DF80300208A80B2ADF8D7
:103F300000006946E068FCF74EFD38BD70B50546E7
:103F40000C461646A1B232462846FCF720FE70BD4C
:103F500010B50446206800F011F86068FFF784FF90
:103F6000E068FFF781FF6069FFF77EFF2046FFF7FB
:103F7000C1FF204600F022F810BD000010B5044635
:103F80000D48204450B1B0F5806F0CD0B0F5784F9B
:103F90000ED101210803FCF769FE0AE00121880324
:103FA000FCF754FE05E00121C803FCF74FFE00E0DA
:103FB00000BF00BF10BD000000C8FFBF10B586B035
:103FC00004464FF48270ADF806000020ADF80400FE
:103FD000ADF80800ADF81200A08BADF81000A07F7E
:103FE00000B100BF0020ADF80A00A07F00B100BF03
:103FF0000020ADF80C004FF40070ADF80E00072063
:10400000ADF8140001A92068FCF7C4FE0121206866
:10401000FCF7A6FE06B010BD70B506460C46154668
:1040200016B96FF0040070BD002229462046FFF744
:1040300085FF0020F7E770B506460C46154616B911
:104040006FF0040070BD012229462046FFF776FF7D
:104050000020F7E72DE9F04104460F4616461CB94B
:104060006FF00400BDE8F08100BF02212068FFF777
:10407000EEFE0028F9D0D4F8008039464046FCF71F
:1040800087FE00BF00BF01212068FFF7E0FE002887
:10409000F9D0D4F800804046FCF777FE054600BF13
:1040A00006B135700020DDE770B5044614B96FF035
:1040B000040070BD2568284600F036FA0020206014
:1040C000E06200BFF5E70000024600210BE008486F
:1040D00000EB01100068904203D1054800EB01108D
:1040E0007047481CC1B20329F1D30020F8E7000053
:1040F000A84C000810B504460A48844205D00A4876
:10410000844202D00948844204D101210846FCF7C8
:104110008DFD06E00648844203D101210220FCF710
:1041200085FD10BD003801400044004000480040BB
:10413000004C004030B58BB004462068FFF7C4FF48
:104140000546A868FCF7D8FA2068001D00900020FA
:1041500006900490E069019000200790802005906F
:10416000A08C401C03900020029008900A904FF40D
:10417000005009906946A868FCF768FB0121A8680F
:10418000FCF7AEFA012240212068FCF7EDFE0BB0EF
:1041900030BD000010B504461F49601A8C4223D080
:1041A00009DC1E48204480B1B0F5806F12D0B0F514
:1041B000006F2DD113E0B0F5806F1AD0B0F5006F0D
:1041C0001CD0B0F5406F23D11DE001210420FCF785
:1041D0004DFD1EE001210820FCF748FD19E00121FA
:1041E0001020FCF743FD14E001212020FCF73EFDE8
:1041F0000FE001214020FCF739FD0AE00121802079
:10420000FCF734FD05E001210802FCF72FFD00E07A
:1042100000BF00BF10BD00000014014000F8FEBF49
:1042200038B5044618208DF8030003208DF80200ED
:10423000A08980B2ADF800006946A068FCF7CBFB0E
:1042400048208DF80300A08A80B2ADF800006946CE
:104250002069FCF7C0FB38BD10B50446A068FFF725
:1042600099FF2069FFF796FF206800F04DF820685D
:10427000FFF740FF2046FFF7D3FF204600F06CF821
:104280002046FFF757FF10BD2DE9F04104460D46CB
:1042900017469846424639462846069BFCF73CFF9F
:1042A00000260CE000BF80212068FCF766FE002895
:1042B000F9D0A95D2068FCF729FF701C86B228465A
:1042C000FBF75AFFB042EDD800BF40212068FCF751
:1042D00054FE0028F9D0BDE8F0812DE9F0410446F4
:1042E0000E46174600250BE0715D2068FCF70EFFB7
:1042F00000BF80212068FCF740FE0028F9D06D1C2B
:10430000BD42F1D3BDE8F08110B504461148204408
:1043100068B1B0F5806F0FD0B0F5006F11D0B0F577
:10432000744F13D101218803FCF7A0FC0FE0012199
:104330004804FCF78BFC0AE001218804FCF786FCAA
:1043400005E00121C804FCF781FC00E000BF00BFCC
:1043500010BD000000BCFFBF30B585B0044620682A
:10436000FFF7B2FE0546606801900020ADF810002E
:104370000C20ADF80E000020ADF80C00ADF80A00DE
:10438000ADF8080001A92068FCF754FE012240F2B4
:1043900024412068FCF728FE28798DF800000120D0
:1043A0008DF8030094F826008DF8010094F827009A
:1043B0008DF802006846FCF7F5FB01212068FCF748
:1043C000C7FD05B030BD00002DE9F84F83465846C3
:1043D000FFF77AFE0546287B00EB800101EBC00069
:1043E000314901EBC004266EB6F8288000BF40F2C8
:1043F00024412868FCF7CEFD08B1012000E0002030
:1044000000284ED000BF28680088C0B200902868FD
:104410008088C0B2009000BF00BFA868FCF712FA05
:1044200008F10101081A2188084420802088401ED4
:10443000316A0844616D4860606D08306065E16D07
:10444000606D884201D1201D6065F08C2188401A82
:10445000404505DB2188306A0844616D086004E04E
:10446000306A616D086000202080606DD0F8009097
:1044700008F101001FFA80FAAF6800213846FCF706
:104480002FF900BF00BF386800F001000028FAD102
:10449000C7F804A0C7F80C9001213846FCF720F9B2
:1044A00000BFBDE8F88F0000100A00200FB438B537
:1044B00004460CB1059810B938BC5DF814FB06A889
:1044C00000902046009A059900F0A5F80020009081
:1044D00000BFF1E770B506463046FFF7F5FD05462B
:1044E0000DB9002070BD2C7B04EB840000EBC400F0
:1044F0000C4901EBC00090F8640008B10020F1E71E
:10450000012004EB840101EBC401064A02EBC10166
:1045100081F8640004EB840000EBC400114601EB59
:10452000C000DFE7100A002010B1002180F86410FD
:104530007047F0B504460B460CB103B112B96FF0E9
:104540000400F0BD2168D1E91507B84205D100206B
:10455000186010606FF00A00F3E7886D0568886DD9
:1045600040688F6D3F68C01B461C1D601660886DDB
:1045700008308865D1E91607B84201D1081D886561
:104580000020DEE72DE9F04105460E4605B11EB9D3
:104590006FF00400BDE8F0812C68D4E91501884271
:1045A00002D16FF00A00F5E7A06DD0F80080A06D91
:1045B0004068A16D0968401A471C288DB84201D88F
:1045C000288D471E3A4641463046FBF7B1FD002094
:1045D000F055A06D0830A065D4E91601884201D1DC
:1045E000201DA0650020D5E72DE9F04104460D46C9
:1045F00016460CB105B11EB96FF00400BDE8F0819C
:104600006068FFF761FD0746324629463846FFF7E6
:1046100064FE0020F2E777B581B004460D4604B190
:1046200005B97FBD6068FFF74FFD0646039800900F
:10463000A28C2B463046E169FFF726FE00BFF0E76B
:10464000014611B96FF0040070470020C86000BF38
:10465000FAE770B504460D4614B96FF0040070BD5A
:10466000204600F0F6F9D4E90030A1681A689047B6
:10467000206800214268D82090472904C1F30740F0
:1046800021684A68002190472904C1F30720216866
:104690004A68002190472904C8B221684A6800216D
:1046A0009047D4E90030A1689A689047204600F00E
:1046B00001F90020D3E770B504460D4614B96FF038
:1046C000040070BD204600F0C4F9D4E90030A168B0
:1046D0001A6890472068002142682020904720688F
:1046E00000214268C5F307409047206800214268D6
:1046F000C5F307209047E8B221684A680021904737
:10470000D4E90030A1689A689047204600F0D2F8BA
:104710000020D6E710B504461E49601A8C4223D00B
:1047200009DC1D48204480B1B0F5806F12D0B0F58F
:10473000006F2DD113E0B0F5806F1AD0B0F5006F87
:104740001CD0B0F5406F23D11DE001210420FCF7FF
:104750008DFA1DE001210820FCF788FA18E00121FC
:104760001020FCF783FA13E001212020FCF77EFAE9
:104770000EE001214020FCF779FA09E001218020B8
:10478000FCF774FA04E001210802FCF76FFA00BF9D
:1047900000BF10BD0014014000F8FEBF38B504464C
:1047A00010208DF8030003208DF80200208980B2CC
:1047B000ADF8000069466068FCF70DF938BD2DE9D9
:1047C000F04104466068FFF7A5FF2046FFF7E6FFCB
:1047D0000127D4E90156B1B23A462846FCF7D7F989
:1047E00000BFBDE8F0812DE9F04104460D461746B3
:1047F00098461CB96FF00400BDE8F081D4E90030A0
:10480000A1681A68904720680021426803209047F9
:10481000206800214268C5F30740904720680021C6
:104820004268C5F307209047E8B221684A68002132
:104830009047002606E008EB060120684268FF204A
:104840009047761CBE42F6D3D4E90030A1689A683E
:1048500090470020D0E77CB504460E46154614B9B3
:104860006FF004007CBDD4E90030A1681A6890475D
:104870002068002142689F209047206831464268A6
:10488000FF209047206801A94268FF2090472068D8
:1048900069464268FF209047D4E90030A1689A68D1
:1048A00090479DF800009DF8041040EA0120288000
:1048B0000020D7E738B5044614B96FF0040038BDBE
:1048C000D4E90030A1681A68904720680021426846
:1048D000052090470E4D0AE0206869464268FF2097
:1048E00090479DF8000000F0010000B903E0281E89
:1048F000A5F10105F0D100BF15B96FF00600DEE7A4
:10490000D4E90030A1689A6890470020D7E70000FA
:1049100040420F0010B5044614B96FF0040010BDFA
:10492000D4E90030A1681A689047206800214268E5
:10493000AB209047D4E90030A1689A6890470020E6
:10494000EDE72DE9F84F83460D4616461F464FF01A
:104950000008C146C24600240020009005F0FF0A6E
:10496000CAF10000C4B2C6F3072806F0FF09BAF185
:10497000000F23D1B8F1000F06D13B46324629463D
:10498000584600F07DF861E00AE03B464FF4807243
:104990002946584600F074F805F5807507F58077CC
:1049A000B8F10000A8F1010101F0FF08EDD13B468C
:1049B0004A462946584600F063F847E0B8F1000F30
:1049C0001BD1A14512DDA9EB0400C0B200903B460B
:1049D00022462946584600F053F8254427443B46D2
:1049E00029465846009A00F04BF82FE03B463246E5
:1049F0002946584600F044F828E0361BC6F307283D
:104A000006F0FF093B4622462946584600F038F892
:104A1000254427440AE03B464FF480722946584615
:104A200000F02EF805F5807507F58077B8F10000E5
:104A3000A8F1010101F0FF08EDD1B9F1000F05D097
:104A40003B464A462946584600F01AF80020BDE881
:104A5000F88F10B5044614B96FF0040010BDD4E906
:104A60000030A1681A68904720680021426806203B
:104A70009047D4E90030A1689A6890470020EDE79C
:104A80002DE9F04104460D46174698461CB96FF0D3
:104A90000400BDE8F0812046FFF7DBFFD4E90030D9
:104AA000A1681A6890472068002142680220904758
:104AB000206800214268C5F3074090472068002124
:104AC0004268C5F307209047E8B221684A68002190
:104AD0009047002607E018F8060021684A68002180
:104AE0009047701C86B2BE42F5D3D4E90030A1686D
:104AF0009A6890472046FFF7DDFE0020C9E70000D6
:104B00009C4E0008B51C0008F84D0008E11F000885
:104B1000484E000889200008244E0008BD1C0008EB
:104B2000884E0008051D0008744E0008391C000856
:104B3000B04E0008D120000801000000F92F000845
:104B400000000000200000004123000800000000D9
:104B50000200000000000000A92F0008040000006F
:104B600000000000292100081000000000000000E3
:104B7000352500084000000000000000192A000848
:104B80000038014000C2010000080140000200009E
:104B90000008014000040000B4040020B405002017
:104BA000000100040002000025320008A1320008C4
:104BB000393200088332000867320008C132000829
:104BC000E93200083F33000863330008153300085A
:104BD00000380040000C014000200000000C0140A3
:104BE00000400000000C01400080000000000000B8
:104BF000300000200008014000800000B9330008A8
:104C00000734000845340008233400089B330008AB
:104C100087330008E533000895340008673400083E
:104C2000A1340008000C014040000000000C0140CD
:104C30008000000001000000D3320008DD340008CD
:104C40001535000839350008F134000853370008DD
:104C5000713700082B37000819370008D9370008CA
:104C60002138000829380008C7370008DD3B000854
:104C70000D3C0008A13B0008BB3A0008773B000848
:104C8000893A000887390008F73900083D3C0008D8
:104C9000913C000889380008194000083740000896
:104CA000554000083D3E0008003801402500000046
:104CB00058000240000000000044004026000000B0
:104CC0006C00024001000000004800402700000086
:104CD000300002400200000017460008AD44000802
:104CE000E94500088545000833450008A94000084B
:104CF00057480008814A000843490008B7460008A1
:104D000053460008E74700081549000841460008D7
:104D10000D0A0D0A3D3D3D3D3D3D3D3D3D3D3D3D89
:104D20003D3D3D3D205B53797374656D20696E692F
:104D30007469616C697A696E672E2E2E5D203D3D27
:104D40003D3D3D3D3D3D3D3D3D3D3D3D3D3D0D0AF6
:104D50000D0A00004C6F6164206669726D776172A4
:104D6000652066726F6D2045787465726E616C2087
:104D7000466C6173682C20706C6561736520656E8C
:104D800074657220746865206669726D77617265FA
:104D9000206C6F636174696F6E2028312D25642942
:104DA0002E00000049415020646F776E6C6F616483
:104DB000206669726D7761726520746F2045787422
:104DC00065726E616C20466C6173682C20706C6536
:104DD00061736520656E746572207468652066690C
:104DE000726D77617265206C6F636174696F6E209C
:104DF00028312D2564292E004941503A20446F77EF
:104E00006E6C6F6164206669726D77617265207483
:104E10006F20496E7465726E616C20466C617368B8
:104E2000000000004C6F6164206669726D776172EA
:104E3000652066726F6D2045787465726E616C20B6
:104E4000466C6173680000004941503A20446F7716
:104E50006E6C6F6164206669726D77617265207433
:104E60006F2045787465726E616C20466C61736862
:104E700000000000436865636B204F544120766555
:104E80007273696F6E000000496E6974204F54415F
:104E90002076657273696F6E000000004572617361
:104EA000652041505020706172746974696F6E00A2
:104EB00053797374656D2072657374617274000048
:104EC000E04E000800000020800000004C110008A7
:104ED000604F000880000020C80E00005C11000830
:104EE00000000000000000000000000000000000C2
:104EF000A84B000884040020BC4B00080000000000
:104F0000C04B0008B40900200000000000000000B1
:104F1000E93D0008213E0008053E0008FC4B000862
:104F2000E409002000000000184C000844000020A4
:104F30003C4C0008F409002000A24A0400000000D4
:104F40000000000001020304060708090000000039
:104F5000010203040102030406070809020406080B
:04000005080000ED02
:00000001FF
